{"abi":[{"type":"constructor","inputs":[{"name":"_pdpServiceAddress","type":"address","internalType":"address"}],"stateMutability":"nonpayable"},{"type":"function","name":"addRecord","inputs":[{"name":"proofSetId","type":"uint256","internalType":"uint256"},{"name":"epoch","type":"uint64","internalType":"uint64"},{"name":"operationType","type":"uint8","internalType":"enum PDPRecordKeeper.OperationType"},{"name":"extraData","type":"bytes","internalType":"bytes"}],"outputs":[],"stateMutability":"nonpayable"},{"type":"function","name":"getEvent","inputs":[{"name":"proofSetId","type":"uint256","internalType":"uint256"},{"name":"eventIndex","type":"uint256","internalType":"uint256"}],"outputs":[{"name":"","type":"tuple","internalType":"struct PDPRecordKeeper.EventRecord","components":[{"name":"epoch","type":"uint64","internalType":"uint64"},{"name":"operationType","type":"uint8","internalType":"enum PDPRecordKeeper.OperationType"},{"name":"extraData","type":"bytes","internalType":"bytes"}]}],"stateMutability":"view"},{"type":"function","name":"getEventCount","inputs":[{"name":"proofSetId","type":"uint256","internalType":"uint256"}],"outputs":[{"name":"","type":"uint256","internalType":"uint256"}],"stateMutability":"view"},{"type":"function","name":"listEvents","inputs":[{"name":"proofSetId","type":"uint256","internalType":"uint256"}],"outputs":[{"name":"","type":"tuple[]","internalType":"struct PDPRecordKeeper.EventRecord[]","components":[{"name":"epoch","type":"uint64","internalType":"uint64"},{"name":"operationType","type":"uint8","internalType":"enum PDPRecordKeeper.OperationType"},{"name":"extraData","type":"bytes","internalType":"bytes"}]}],"stateMutability":"view"},{"type":"function","name":"pdpServiceAddress","inputs":[],"outputs":[{"name":"","type":"address","internalType":"address"}],"stateMutability":"view"},{"type":"function","name":"proofSetEvents","inputs":[{"name":"","type":"uint256","internalType":"uint256"},{"name":"","type":"uint256","internalType":"uint256"}],"outputs":[{"name":"epoch","type":"uint64","internalType":"uint64"},{"name":"operationType","type":"uint8","internalType":"enum PDPRecordKeeper.OperationType"},{"name":"extraData","type":"bytes","internalType":"bytes"}],"stateMutability":"view"},{"type":"event","name":"RecordAdded","inputs":[{"name":"proofSetId","type":"uint256","indexed":true,"internalType":"uint256"},{"name":"epoch","type":"uint64","indexed":false,"internalType":"uint64"},{"name":"operationType","type":"uint8","indexed":false,"internalType":"enum PDPRecordKeeper.OperationType"}],"anonymous":false}],"bytecode":{"object":"0x60a060405234801561001057600080fd5b50604051610bdf380380610bdf83398101604081905261002f916100a5565b6001600160a01b0381166100945760405162461bcd60e51b815260206004820152602260248201527f504450207365727669636520616464726573732063616e6e6f74206265207a65604482015261726f60f01b606482015260840160405180910390fd5b6001600160a01b03166080526100d5565b6000602082840312156100b757600080fd5b81516001600160a01b03811681146100ce57600080fd5b9392505050565b608051610ae96100f66000396000818160f6015261015b0152610ae96000f3fe608060405234801561001057600080fd5b50600436106100625760003560e01c80630fc9ec1a146100675780631c2eaa9c1461007c578063bea96933146100af578063eaaa7cf0146100d1578063eb6e5b9f146100f1578063ee11f1a014610130575b600080fd5b61007a6100753660046106c2565b610150565b005b61009c61008a36600461076e565b60009081526020819052604090205490565b6040519081526020015b60405180910390f35b6100c26100bd366004610787565b61030c565b6040516100a693929190610827565b6100e46100df36600461076e565b6103e7565b6040516100a691906108a4565b6101187f000000000000000000000000000000000000000000000000000000000000000081565b6040516001600160a01b0390911681526020016100a6565b61014361013e366004610787565b61052b565b6040516100a69190610906565b336001600160a01b037f000000000000000000000000000000000000000000000000000000000000000016146101cd5760405162461bcd60e51b815260206004820152601d60248201527f43616c6c6572206973206e6f742074686520504450207365727669636500000060448201526064015b60405180910390fd5b600060405180606001604052808667ffffffffffffffff1681526020018560058111156101fc576101fc6107a9565b815260200184848080601f01602080910402602001604051908101604052809392919081815260200183838082843760009201829052509390945250508881526020818152604082208054600181018255908352918190208451600290930201805467ffffffffffffffff19811667ffffffffffffffff909416938417825591850151949550859490935091839168ffffffffffffffffff191617600160401b8360058111156102ae576102ae6107a9565b0217905550604082015160018201906102c790826109bf565b505050857fb3bcc997e36eca7b534a754795c8c1277f79fb6b97ac09855fb2c3f58a83cd3a86866040516102fc929190610a7f565b60405180910390a2505050505050565b6000602052816000526040600020818154811061032857600080fd5b60009182526020909120600290910201805460018201805467ffffffffffffffff83169550600160401b90920460ff1693509061036490610936565b80601f016020809104026020016040519081016040528092919081815260200182805461039090610936565b80156103dd5780601f106103b2576101008083540402835291602001916103dd565b820191906000526020600020905b8154815290600101906020018083116103c057829003601f168201915b5050505050905083565b600081815260208181526040808320805482518185028101850190935280835260609492939192909184015b82821015610520576000848152602090819020604080516060810190915260028502909101805467ffffffffffffffff811683529192909190830190600160401b900460ff16600581111561046a5761046a6107a9565b600581111561047b5761047b6107a9565b815260200160018201805461048f90610936565b80601f01602080910402602001604051908101604052809291908181526020018280546104bb90610936565b80156105085780601f106104dd57610100808354040283529160200191610508565b820191906000526020600020905b8154815290600101906020018083116104eb57829003601f168201915b50505050508152505081526020019060010190610413565b505050509050919050565b6040805160608082018352600080835260208301529181019190915260008381526020819052604090205482106105a45760405162461bcd60e51b815260206004820152601960248201527f4576656e7420696e646578206f7574206f6620626f756e64730000000000000060448201526064016101c4565b60008381526020819052604090208054839081106105c4576105c4610a9d565b60009182526020918290206040805160608101909152600290920201805467ffffffffffffffff81168352919290919083019060ff600160401b909104166005811115610613576106136107a9565b6005811115610624576106246107a9565b815260200160018201805461063890610936565b80601f016020809104026020016040519081016040528092919081815260200182805461066490610936565b80156106b15780601f10610686576101008083540402835291602001916106b1565b820191906000526020600020905b81548152906001019060200180831161069457829003601f168201915b505050505081525050905092915050565b6000806000806000608086880312156106da57600080fd5b85359450602086013567ffffffffffffffff80821682146106fa57600080fd5b9094506040870135906006821061071057600080fd5b9093506060870135908082111561072657600080fd5b818801915088601f83011261073a57600080fd5b81358181111561074957600080fd5b89602082850101111561075b57600080fd5b9699959850939650602001949392505050565b60006020828403121561078057600080fd5b5035919050565b6000806040838503121561079a57600080fd5b50508035926020909101359150565b634e487b7160e01b600052602160045260246000fd5b600681106107dd57634e487b7160e01b600052602160045260246000fd5b9052565b6000815180845260005b81811015610807576020818501810151868301820152016107eb565b506000602082860101526020601f19601f83011685010191505092915050565b67ffffffffffffffff8416815261084160208201846107bf565b60606040820152600061085760608301846107e1565b95945050505050565b67ffffffffffffffff81511682526000602082015161088260208501826107bf565b5060408201516060604085015261089c60608501826107e1565b949350505050565b6000602080830181845280855180835260408601915060408160051b870101925083870160005b828110156108f957603f198886030184526108e7858351610860565b945092850192908501906001016108cb565b5092979650505050505050565b6020815260006109196020830184610860565b9392505050565b634e487b7160e01b600052604160045260246000fd5b600181811c9082168061094a57607f821691505b60208210810361096a57634e487b7160e01b600052602260045260246000fd5b50919050565b601f8211156109ba57600081815260208120601f850160051c810160208610156109975750805b601f850160051c820191505b818110156109b6578281556001016109a3565b5050505b505050565b815167ffffffffffffffff8111156109d9576109d9610920565b6109ed816109e78454610936565b84610970565b602080601f831160018114610a225760008415610a0a5750858301515b600019600386901b1c1916600185901b1785556109b6565b600085815260208120601f198616915b82811015610a5157888601518255948401946001909101908401610a32565b5085821015610a6f5787850151600019600388901b60f8161c191681555b5050505050600190811b01905550565b67ffffffffffffffff831681526040810161091960208301846107bf565b634e487b7160e01b600052603260045260246000fdfea26469706673582212204ea285023abc782e99b2117433faec66b4ccc18fbc30368474531035aeae1e9e64736f6c63430008140033","linkReferences":{}},"methodIdentifiers":{"addRecord(uint256,uint64,uint8,bytes)":"0fc9ec1a","getEvent(uint256,uint256)":"ee11f1a0","getEventCount(uint256)":"1c2eaa9c","listEvents(uint256)":"eaaa7cf0","pdpServiceAddress()":"eb6e5b9f","proofSetEvents(uint256,uint256)":"bea96933"},"id":2}