{"abi":[{"type":"constructor","inputs":[{"name":"_challengeFinality","type":"uint256","internalType":"uint256"}],"stateMutability":"nonpayable"},{"type":"function","name":"LEAF_SIZE","inputs":[],"outputs":[{"name":"","type":"uint256","internalType":"uint256"}],"stateMutability":"view"},{"type":"function","name":"MAX_ROOT_SIZE","inputs":[],"outputs":[{"name":"","type":"uint256","internalType":"uint256"}],"stateMutability":"view"},{"type":"function","name":"addRoots","inputs":[{"name":"setId","type":"uint256","internalType":"uint256"},{"name":"rootData","type":"tuple[]","internalType":"struct PDPService.RootData[]","components":[{"name":"root","type":"tuple","internalType":"struct Cids.Cid","components":[{"name":"data","type":"bytes","internalType":"bytes"}]},{"name":"rawSize","type":"uint256","internalType":"uint256"}]}],"outputs":[{"name":"","type":"uint256","internalType":"uint256"}],"stateMutability":"nonpayable"},{"type":"function","name":"claimProofSetOwnership","inputs":[{"name":"setId","type":"uint256","internalType":"uint256"}],"outputs":[],"stateMutability":"nonpayable"},{"type":"function","name":"createProofSet","inputs":[{"name":"recordKeeper","type":"address","internalType":"address"}],"outputs":[{"name":"","type":"uint256","internalType":"uint256"}],"stateMutability":"nonpayable"},{"type":"function","name":"deleteProofSet","inputs":[{"name":"setId","type":"uint256","internalType":"uint256"}],"outputs":[],"stateMutability":"nonpayable"},{"type":"function","name":"findRootIds","inputs":[{"name":"setId","type":"uint256","internalType":"uint256"},{"name":"leafIndexs","type":"uint256[]","internalType":"uint256[]"}],"outputs":[{"name":"","type":"tuple[]","internalType":"struct PDPService.RootIdAndOffset[]","components":[{"name":"rootId","type":"uint256","internalType":"uint256"},{"name":"offset","type":"uint256","internalType":"uint256"}]}],"stateMutability":"view"},{"type":"function","name":"getChallengeFinality","inputs":[],"outputs":[{"name":"","type":"uint256","internalType":"uint256"}],"stateMutability":"view"},{"type":"function","name":"getNextChallengeEpoch","inputs":[{"name":"setId","type":"uint256","internalType":"uint256"}],"outputs":[{"name":"","type":"uint256","internalType":"uint256"}],"stateMutability":"view"},{"type":"function","name":"getNextProofSetId","inputs":[],"outputs":[{"name":"","type":"uint64","internalType":"uint64"}],"stateMutability":"view"},{"type":"function","name":"getNextRootId","inputs":[{"name":"setId","type":"uint256","internalType":"uint256"}],"outputs":[{"name":"","type":"uint256","internalType":"uint256"}],"stateMutability":"view"},{"type":"function","name":"getProofSetLeafCount","inputs":[{"name":"setId","type":"uint256","internalType":"uint256"}],"outputs":[{"name":"","type":"uint256","internalType":"uint256"}],"stateMutability":"view"},{"type":"function","name":"getProofSetOwner","inputs":[{"name":"setId","type":"uint256","internalType":"uint256"}],"outputs":[{"name":"","type":"address","internalType":"address"},{"name":"","type":"address","internalType":"address"}],"stateMutability":"view"},{"type":"function","name":"getRootCid","inputs":[{"name":"setId","type":"uint256","internalType":"uint256"},{"name":"rootId","type":"uint256","internalType":"uint256"}],"outputs":[{"name":"","type":"tuple","internalType":"struct Cids.Cid","components":[{"name":"data","type":"bytes","internalType":"bytes"}]}],"stateMutability":"view"},{"type":"function","name":"getRootLeafCount","inputs":[{"name":"setId","type":"uint256","internalType":"uint256"},{"name":"rootId","type":"uint256","internalType":"uint256"}],"outputs":[{"name":"","type":"uint256","internalType":"uint256"}],"stateMutability":"view"},{"type":"function","name":"proofSetLive","inputs":[{"name":"setId","type":"uint256","internalType":"uint256"}],"outputs":[{"name":"","type":"bool","internalType":"bool"}],"stateMutability":"view"},{"type":"function","name":"proposeProofSetOwner","inputs":[{"name":"setId","type":"uint256","internalType":"uint256"},{"name":"newOwner","type":"address","internalType":"address"}],"outputs":[],"stateMutability":"nonpayable"},{"type":"function","name":"provePossession","inputs":[{"name":"setId","type":"uint256","internalType":"uint256"},{"name":"proofs","type":"tuple[]","internalType":"struct PDPService.Proof[]","components":[{"name":"leaf","type":"bytes32","internalType":"bytes32"},{"name":"proof","type":"bytes32[]","internalType":"bytes32[]"}]}],"outputs":[],"stateMutability":"nonpayable"},{"type":"function","name":"removeRoots","inputs":[{"name":"setId","type":"uint256","internalType":"uint256"},{"name":"rootIds","type":"uint256[]","internalType":"uint256[]"}],"outputs":[{"name":"","type":"uint256","internalType":"uint256"}],"stateMutability":"nonpayable"},{"type":"function","name":"rootLive","inputs":[{"name":"setId","type":"uint256","internalType":"uint256"},{"name":"rootId","type":"uint256","internalType":"uint256"}],"outputs":[{"name":"","type":"bool","internalType":"bool"}],"stateMutability":"view"},{"type":"error","name":"IndexedError","inputs":[{"name":"idx","type":"uint256","internalType":"uint256"},{"name":"msg","type":"string","internalType":"string"}]}],"bytecode":{"object":"0x608060405234801561001057600080fd5b5060405161237038038061237083398101604081905261002f91610037565b600055610050565b60006020828403121561004957600080fd5b5051919050565b6123118061005f6000396000f3fe608060405234801561001057600080fd5b506004361061012c5760003560e01c80638ea417e5116100ad578063d6dadec811610071578063d6dadec8146102a9578063ee3dac65146102bc578063f58f952b146102cf578063f5cac1ba146102e2578063f83758fe146102f557600080fd5b80638ea417e51461024d5780639153e64b14610268578063969843381461027b578063c0e159491461028e578063d49245c11461029657600080fd5b80633f84135f116100f45780633f84135f146101bc5780634726075b146101cf57806347331050146102025780636ba4608f146102255780636cb55c161461023857600080fd5b80630528a55b1461013157806316e2bcd51461015a578063316bf10e1461017657806332a87252146101895780633b7ae9131461019c575b600080fd5b61014461013f366004611c50565b6102fd565b6040516101519190611c9b565b60405180910390f35b610168660400000000000081565b604051908152602001610151565b610168610184366004611c50565b6103f3565b610168610197366004611c50565b61056e565b6101af6101aa366004611cea565b610752565b6040516101519190611d52565b6101686101ca366004611d6d565b610845565b6101e26101dd366004611d6d565b61087f565b604080516001600160a01b03938416815292909116602083015201610151565b610215610210366004611cea565b6108d5565b6040519015158152602001610151565b610168610233366004611d6d565b610920565b61024b610246366004611da2565b61095a565b005b6001546040516001600160401b039091168152602001610151565b610168610276366004611cea565b610a63565b610168610289366004611dce565b610aa8565b610168602081565b6101686102a4366004611d6d565b610b69565b61024b6102b7366004611d6d565b610ba3565b61024b6102ca366004611d6d565b610cdd565b61024b6102dd366004611c50565b610db1565b6102156102f0366004611d6d565b611086565b600054610168565b60008381526005602052604081205460609190610319906110bc565b61032590610100611dff565b90506000836001600160401b0381111561034157610341611e12565b60405190808252806020026020018201604052801561038657816020015b604080518082019091526000808252602082015281526020019060019003908161035f5790505b50905060005b848110156103e7576103b7878787848181106103aa576103aa611e28565b90506020020135856111b4565b8282815181106103c9576103c9611e28565b602002602001018190525080806103df90611e3e565b91505061038c565b509150505b9392505050565b6000838152600960205260408120546001600160a01b0316331461045e5760405162461bcd60e51b815260206004820152601f60248201527f4f6e6c7920746865206f776e65722063616e2072656d6f766520726f6f74730060448201526064015b60405180910390fd5b61046784611086565b6104835760405162461bcd60e51b815260040161045590611e57565b6000805b838110156104cf576104b1868686848181106104a5576104a5611e28565b9050602002013561139c565b6104bb9083611e83565b9150806104c781611e3e565b915050610487565b50600085815260066020526040812080548392906104ee908490611dff565b90915550506000858152600660205260408120549003610518576000858152600760205260408120555b600081858560405160200161052f93929190611e96565b60408051601f198184030181529181526000888152600860205220549091506105659087906001600160a01b0316600384611404565b50949350505050565b600061057984611086565b6105955760405162461bcd60e51b815260040161045590611e57565b816105e25760405162461bcd60e51b815260206004820152601a60248201527f4d75737420616464206174206c65617374206f6e6520726f6f740000000000006044820152606401610455565b6000848152600960205260409020546001600160a01b031633146106485760405162461bcd60e51b815260206004820152601c60248201527f4f6e6c7920746865206f776e65722063616e2061646420726f6f7473000000006044820152606401610455565b60008481526007602090815260408083205460059092528220549015915b848110156106e1576106ce878288888581811061068557610685611e28565b90506020028101906106979190611ed7565b6106a19080611ef7565b8989868181106106b3576106b3611e28565b90506020028101906106c59190611ed7565b602001356114ba565b50806106d981611e3e565b915050610666565b508115610705576000546106f59043611e83565b6000878152600760205260409020555b600081868660405160200161071c93929190611f0d565b60408051601f198184030181529181526000898152600860205220549091506103e79088906001600160a01b0316600284611404565b60408051602081019091526060815261076a83611086565b6107865760405162461bcd60e51b815260040161045590611e57565b600083815260026020908152604080832085845282529182902082519182019092528154909190829082906107ba9061200a565b80601f01602080910402602001604051908101604052809291908181526020018280546107e69061200a565b80156108335780601f1061080857610100808354040283529160200191610833565b820191906000526020600020905b81548152906001019060200180831161081657829003601f168201915b50505050508152505090505b92915050565b600061085082611086565b61086c5760405162461bcd60e51b815260040161045590611e57565b5060009081526006602052604090205490565b60008061088b83611086565b6108a75760405162461bcd60e51b815260040161045590611e57565b5050600090815260096020908152604080832054600a909252909120546001600160a01b0391821692911690565b60006108e083611086565b80156108f9575060008381526005602052604090205482105b80156103ec5750506000918252600360209081526040808420928452919052902054151590565b600061092b82611086565b6109475760405162461bcd60e51b815260040161045590611e57565b5060009081526007602052604090205490565b61096382611086565b61097f5760405162461bcd60e51b815260040161045590611e57565b6000828152600960205260409020546001600160a01b03163381146109fd5760405162461bcd60e51b815260206004820152602e60248201527f4f6e6c79207468652063757272656e74206f776e65722063616e2070726f706f60448201526d39b29030903732bb9037bbb732b960911b6064820152608401610455565b816001600160a01b0316816001600160a01b031603610a365750506000908152600a6020526040902080546001600160a01b0319169055565b6000838152600a6020526040902080546001600160a01b0319166001600160a01b0384161790555b505050565b6000610a6e83611086565b610a8a5760405162461bcd60e51b815260040161045590611e57565b50600091825260036020908152604080842092845291905290205490565b6001805460009182916001600160401b03169082610ac583612044565b82546101009290920a6001600160401b0381810219909316918316021790915516600081815260066020908152604080832083905560078252808320839055600982528083208054336001600160a01b031991821681179092556008845282852080549091166001600160a01b038a161790558151928301529293509091016040516020818303038152906040529050610b628285600184611404565b5092915050565b6000610b7482611086565b610b905760405162461bcd60e51b815260040161045590611e57565b5060009081526005602052604090205490565b6001546001600160401b03168110610bfd5760405162461bcd60e51b815260206004820152601a60248201527f70726f6f6620736574206964206f7574206f6620626f756e64730000000000006044820152606401610455565b6000818152600960205260409020546001600160a01b03163314610c6f5760405162461bcd60e51b8152602060048201526024808201527f4f6e6c7920746865206f776e65722063616e2064656c6574652070726f6f66206044820152637365747360e01b6064820152608401610455565b60008181526006602090815260408083208054908490556009835281842080546001600160a01b031916905560078352818420849055815180840182905282518082038501815290830183528585526008909352922054610a5e9084906001600160a01b0316600584611404565b610ce681611086565b610d025760405162461bcd60e51b815260040161045590611e57565b6000818152600a60205260409020546001600160a01b03163314610d7c5760405162461bcd60e51b815260206004820152602b60248201527f4f6e6c79207468652070726f706f736564206f776e65722063616e20636c616960448201526a06d206f776e6572736869760ac1b6064820152608401610455565b600090815260096020908152604080832080546001600160a01b03199081163317909155600a90925290912080549091169055565b60008381526007602052604090205443811115610e025760405162461bcd60e51b815260206004820152600f60248201526e383932b6b0ba3ab93290383937b7b360891b6044820152606401610455565b81610e3d5760405162461bcd60e51b815260206004820152600b60248201526a32b6b83a3c90383937b7b360a91b6044820152606401610455565b806000610e4986610845565b60008781526005602052604081205491925090610e65906110bc565b610e7190610100611dff565b905060005b6001600160401b0381168611156110205760408051602081018690529081018990526001600160c01b031960c083901b1660608201526000906068016040516020818303038152906040529050600084828051906020012060001c610edb9190612080565b90506000610eea8b83876111b4565b90506000610f04610eff8d8460000151610752565b611683565b90506000610fc28c8c886001600160401b0316818110610f2657610f26611e28565b9050602002810190610f389190611ed7565b610f46906020810190612094565b80806020026020016040519081016040528093929190818152602001838360200280828437600081840152601f19601f82011690508083019250505050505050838e8e8a6001600160401b0316818110610fa257610fa2611e28565b9050602002810190610fb49190611ed7565b60000135866020015161177c565b9050806110085760405162461bcd60e51b815260206004820152601460248201527370726f6f6620646964206e6f742076657269667960601b6044820152606401610455565b5050505050808061101890612044565b915050610e76565b5060005461102e9043611e83565b600088815260076020908152604080832093909355825180820187905283518082038301815290840184528a835260089091529190205461107c9089906001600160a01b0316600484611404565b5050505050505050565b6001546000906001600160401b03168210801561083f5750506000908152600960205260409020546001600160a01b0316151590565b6000610100608083901c80156110dd576110d7608083611dff565b91508093505b50604083901c80156110fa576110f4604083611dff565b91508093505b50602083901c801561111757611111602083611dff565b91508093505b50601083901c80156111345761112e601083611dff565b91508093505b50600883901c80156111515761114b600883611dff565b91508093505b50600483901c801561116e57611168600483611dff565b91508093505b50600283901c801561118b57611185600283611dff565b91508093505b50600183901c80156111aa576111a2600283611dff565b949350505050565b6111a28483611dff565b604080518082019091526000808252602082015260008481526006602052604090205483106112255760405162461bcd60e51b815260206004820152601860248201527f4c65616620696e646578206f7574206f6620626f756e647300000000000000006044820152606401610455565b6000611234600180851b611dff565b9050600080845b801561131057600088815260056020526040902054841061127657611261600182611dff565b61126f906001901b85611dff565b93506112fe565b600088815260046020908152604080832087845290915290205461129a9084611e83565b91508682116112e25760008881526004602090815260408083208784529091529020546112c79084611e83565b92506112d4600182611dff565b61126f906001901b85611e83565b6112ed600182611dff565b6112fb906001901b85611dff565b93505b80611308816120dd565b91505061123b565b5060008781526004602090815260408083208684529091529020546113359083611e83565b90508581116113725760405180604001604052808460016113569190611e83565b81526020016113658389611dff565b81525093505050506103ec565b6040518060400160405280848152602001838861138f9190611dff565b9052979650505050505050565b60008281526003602090815260408083208484529091528120546113c1848483611794565b60008481526003602090815260408083208684528252808320839055868352600282528083208684529091528120906113fa8282611baf565b5090949350505050565b6001600160a01b03831661145a5760405162461bcd60e51b815260206004820152601960248201527f5265636f7264206b6565706572206d75737420626520736574000000000000006044820152606401610455565b6040516307e4f60d60e11b81526001600160a01b03841690630fc9ec1a9061148c9087904390879087906004016120f4565b600060405180830381600087803b1580156114a657600080fd5b505af115801561107c573d6000803e3d6000fd5b60006114c7602083612080565b1561151e578360405163c7b67cf360e01b8152600401610455918152604060208201819052601d908201527f53697a65206d7573742062652061206d756c7469706c65206f66203332000000606082015260800190565b81600003611578578360405163c7b67cf360e01b8152600401610455918152604060208201819052601b908201527f53697a65206d7573742062652067726561746572207468616e20300000000000606082015260800190565b66040000000000008211156115d8578360405163c7b67cf360e01b815260040161045591815260406020808301829052908201527f526f6f742073697a65206d757374206265206c657373207468616e20325e3530606082015260800190565b60006115e560208461214a565b600087815260056020526040812080549293509091908261160583611e3e565b91905055905061161687838361183f565b60008781526002602090815260408083208484529091529020859061163b82826121ac565b505060008781526003602090815260408083208484528252808320859055898352600690915281208054849290611673908490611e83565b9091555090979650505050505050565b6000602082600001515110156116d35760405162461bcd60e51b815260206004820152601560248201527410da590819185d18481a5cc81d1bdbc81cda1bdc9d605a1b6044820152606401610455565b60408051602080825281830190925260009160208201818036833701905050905060005b60208110156117725783518051829061171290602090611dff565b61171c9190611e83565b8151811061172c5761172c611e28565b602001015160f81c60f81b82828151811061174957611749611e28565b60200101906001600160f81b031916908160001a9053508061176a81611e3e565b9150506116f7565b506103ec8161229b565b60008361178a8685856118ca565b1495945050505050565b6000838152600560205260408120546117ac906110bc565b6117b890610100611dff565b905060006117c584611949565b90505b8181111580156117e5575060008581526005602052604090205484105b1561183857600085815260046020908152604080832087845290915281208054859290611813908490611dff565b9091555061182690506001821b85611e83565b935061183184611949565b90506117c8565b5050505050565b80600061184b82611949565b90508360005b828110156118a55760006118686001831b86611dff565b600089815260046020908152604080832084845290915290205490915061188f9084611e83565b925050808061189d90611e3e565b915050611851565b5060009586526004602090815260408088209588529490529290942091909155505050565b600082815b85518110156105655760008682815181106118ec576118ec611e28565b602002602001015190506002856119039190612080565b60000361191b57611914838261195e565b9250611928565b611925818461195e565b92505b61193360028661214a565b945050808061194190611e3e565b9150506118cf565b600061083f611959836001611e83565b61196a565b60006103ec8383611b82565b60006001600160ff1b038211156119ce5760405162461bcd60e51b815260206004820152602260248201527f496e7075742065786365656473206d6178696d756d20696e743235362076616c604482015261756560f01b6064820152608401610455565b61010060006119dc846122bf565b8416905080156119f457816119f0816120dd565b9250505b6fffffffffffffffffffffffffffffffff811615611a1a57611a17608083611dff565b91505b77ffffffffffffffff0000000000000000ffffffffffffffff811615611a4857611a45604083611dff565b91505b7bffffffff00000000ffffffff00000000ffffffff00000000ffffffff811615611a7a57611a77602083611dff565b91505b7dffff0000ffff0000ffff0000ffff0000ffff0000ffff0000ffff0000ffff811615611aae57611aab601083611dff565b91505b7eff00ff00ff00ff00ff00ff00ff00ff00ff00ff00ff00ff00ff00ff00ff00ff811615611ae357611ae0600883611dff565b91505b7f0f0f0f0f0f0f0f0f0f0f0f0f0f0f0f0f0f0f0f0f0f0f0f0f0f0f0f0f0f0f0f0f811615611b1957611b16600483611dff565b91505b7f3333333333333333333333333333333333333333333333333333333333333333811615611b4f57611b4c600283611dff565b91505b7f5555555555555555555555555555555555555555555555555555555555555555811615610b62576111a2600183611dff565b60008260005281602052602060006040600060025afa611ba157600080fd5b505060005160c01916919050565b508054611bbb9061200a565b6000825580601f10611bcb575050565b601f016020900490600052602060002090810190611be99190611bec565b50565b5b80821115611c015760008155600101611bed565b5090565b60008083601f840112611c1757600080fd5b5081356001600160401b03811115611c2e57600080fd5b6020830191508360208260051b8501011115611c4957600080fd5b9250929050565b600080600060408486031215611c6557600080fd5b8335925060208401356001600160401b03811115611c8257600080fd5b611c8e86828701611c05565b9497909650939450505050565b602080825282518282018190526000919060409081850190868401855b82811015611cdd57815180518552860151868501529284019290850190600101611cb8565b5091979650505050505050565b60008060408385031215611cfd57600080fd5b50508035926020909101359150565b6000815180845260005b81811015611d3257602081850181015186830182015201611d16565b506000602082860101526020601f19601f83011685010191505092915050565b60208152600082516020808401526111a26040840182611d0c565b600060208284031215611d7f57600080fd5b5035919050565b80356001600160a01b0381168114611d9d57600080fd5b919050565b60008060408385031215611db557600080fd5b82359150611dc560208401611d86565b90509250929050565b600060208284031215611de057600080fd5b6103ec82611d86565b634e487b7160e01b600052601160045260246000fd5b8181038181111561083f5761083f611de9565b634e487b7160e01b600052604160045260246000fd5b634e487b7160e01b600052603260045260246000fd5b600060018201611e5057611e50611de9565b5060010190565b60208082526012908201527150726f6f6620736574206e6f74206c69766560701b604082015260600190565b8082018082111561083f5761083f611de9565b838152604060208201819052810182905260006001600160fb1b03831115611ebd57600080fd5b8260051b8085606085013791909101606001949350505050565b60008235603e19833603018112611eed57600080fd5b9190910192915050565b60008235601e19833603018112611eed57600080fd5b600060408083018684526020828186015281868352606092508286019050828760051b8701018860005b89811015611ffa57888303605f190184528135368c9003603e19018112611f5d57600080fd5b8b018035601e193683900381018212611f7557600080fd5b8282019150898652813581833603018112611f8f57600080fd5b9091018781019150356001600160401b03811115611fac57600080fd5b803603821315611fbb57600080fd5b878a870152808987015260808183828901376000878301820152928801358887015295870195601f01601f191690940101925090840190600101611f37565b50909a9950505050505050505050565b600181811c9082168061201e57607f821691505b60208210810361203e57634e487b7160e01b600052602260045260246000fd5b50919050565b60006001600160401b0380831681810361206057612060611de9565b6001019392505050565b634e487b7160e01b600052601260045260246000fd5b60008261208f5761208f61206a565b500690565b6000808335601e198436030181126120ab57600080fd5b8301803591506001600160401b038211156120c557600080fd5b6020019150600581901b3603821315611c4957600080fd5b6000816120ec576120ec611de9565b506000190190565b8481526001600160401b038416602082015260006006841061212657634e487b7160e01b600052602160045260246000fd5b836040830152608060608301526121406080830184611d0c565b9695505050505050565b6000826121595761215961206a565b500490565b601f821115610a5e57600081815260208120601f850160051c810160208610156121855750805b601f850160051c820191505b818110156121a457828155600101612191565b505050505050565b8135601e198336030181126121c057600080fd5b820180356001600160401b038111156121d857600080fd5b602081360381840113156121eb57600080fd5b6121ff826121f9865461200a565b8661215e565b6000601f831160018114612235576000841561221d57508482018301355b600019600386901b1c1916600185901b178655612292565b600086815260209020601f19851690835b82811015612267578785018601358255938501936001909101908501612246565b50858210156122865760001960f88760031b161c198585890101351681555b505060018460011b0186555b50505050505050565b8051602080830151919081101561203e5760001960209190910360031b1b16919050565b6000600160ff1b82016122d4576122d4611de9565b506000039056fea2646970667358221220c2b8e3ade847fcf8a4cc51b31d0db153ee5562de5827fde6f953cb7e05c0dd3464736f6c63430008140033","linkReferences":{}},"methodIdentifiers":{"LEAF_SIZE()":"c0e15949","MAX_ROOT_SIZE()":"16e2bcd5","addRoots(uint256,((bytes),uint256)[])":"32a87252","claimProofSetOwnership(uint256)":"ee3dac65","createProofSet(address)":"96984338","deleteProofSet(uint256)":"d6dadec8","findRootIds(uint256,uint256[])":"0528a55b","getChallengeFinality()":"f83758fe","getNextChallengeEpoch(uint256)":"6ba4608f","getNextProofSetId()":"8ea417e5","getNextRootId(uint256)":"d49245c1","getProofSetLeafCount(uint256)":"3f84135f","getProofSetOwner(uint256)":"4726075b","getRootCid(uint256,uint256)":"3b7ae913","getRootLeafCount(uint256,uint256)":"9153e64b","proofSetLive(uint256)":"f5cac1ba","proposeProofSetOwner(uint256,address)":"6cb55c16","provePossession(uint256,(bytes32,bytes32[])[])":"f58f952b","removeRoots(uint256,uint256[])":"316bf10e","rootLive(uint256,uint256)":"47331050"},"id":3}