{"abi":[{"type":"constructor","inputs":[],"stateMutability":"nonpayable"},{"type":"function","name":"BURN_ACTOR","inputs":[],"outputs":[{"name":"","type":"address","internalType":"address"}],"stateMutability":"view"},{"type":"function","name":"EXTRA_DATA_MAX_SIZE","inputs":[],"outputs":[{"name":"","type":"uint256","internalType":"uint256"}],"stateMutability":"view"},{"type":"function","name":"LEAF_SIZE","inputs":[],"outputs":[{"name":"","type":"uint256","internalType":"uint256"}],"stateMutability":"view"},{"type":"function","name":"MAX_ENQUEUED_REMOVALS","inputs":[],"outputs":[{"name":"","type":"uint256","internalType":"uint256"}],"stateMutability":"view"},{"type":"function","name":"MAX_ROOT_SIZE","inputs":[],"outputs":[{"name":"","type":"uint256","internalType":"uint256"}],"stateMutability":"view"},{"type":"function","name":"RANDOMNESS_PRECOMPILE","inputs":[],"outputs":[{"name":"","type":"address","internalType":"address"}],"stateMutability":"view"},{"type":"function","name":"UPGRADE_INTERFACE_VERSION","inputs":[],"outputs":[{"name":"","type":"string","internalType":"string"}],"stateMutability":"view"},{"type":"function","name":"addRoots","inputs":[{"name":"setId","type":"uint256","internalType":"uint256"},{"name":"rootData","type":"tuple[]","internalType":"struct PDPVerifier.RootData[]","components":[{"name":"root","type":"tuple","internalType":"struct Cids.Cid","components":[{"name":"data","type":"bytes","internalType":"bytes"}]},{"name":"rawSize","type":"uint256","internalType":"uint256"}]},{"name":"extraData","type":"bytes","internalType":"bytes"}],"outputs":[{"name":"","type":"uint256","internalType":"uint256"}],"stateMutability":"nonpayable"},{"type":"function","name":"claimProofSetOwnership","inputs":[{"name":"setId","type":"uint256","internalType":"uint256"}],"outputs":[],"stateMutability":"nonpayable"},{"type":"function","name":"createProofSet","inputs":[{"name":"listenerAddr","type":"address","internalType":"address"},{"name":"extraData","type":"bytes","internalType":"bytes"}],"outputs":[{"name":"","type":"uint256","internalType":"uint256"}],"stateMutability":"payable"},{"type":"function","name":"deleteProofSet","inputs":[{"name":"setId","type":"uint256","internalType":"uint256"},{"name":"extraData","type":"bytes","internalType":"bytes"}],"outputs":[],"stateMutability":"nonpayable"},{"type":"function","name":"findRootIds","inputs":[{"name":"setId","type":"uint256","internalType":"uint256"},{"name":"leafIndexs","type":"uint256[]","internalType":"uint256[]"}],"outputs":[{"name":"","type":"tuple[]","internalType":"struct PDPVerifier.RootIdAndOffset[]","components":[{"name":"rootId","type":"uint256","internalType":"uint256"},{"name":"offset","type":"uint256","internalType":"uint256"}]}],"stateMutability":"view"},{"type":"function","name":"getChallengeFinality","inputs":[],"outputs":[{"name":"","type":"uint256","internalType":"uint256"}],"stateMutability":"view"},{"type":"function","name":"getChallengeRange","inputs":[{"name":"setId","type":"uint256","internalType":"uint256"}],"outputs":[{"name":"","type":"uint256","internalType":"uint256"}],"stateMutability":"view"},{"type":"function","name":"getNextChallengeEpoch","inputs":[{"name":"setId","type":"uint256","internalType":"uint256"}],"outputs":[{"name":"","type":"uint256","internalType":"uint256"}],"stateMutability":"view"},{"type":"function","name":"getNextProofSetId","inputs":[],"outputs":[{"name":"","type":"uint64","internalType":"uint64"}],"stateMutability":"view"},{"type":"function","name":"getNextRootId","inputs":[{"name":"setId","type":"uint256","internalType":"uint256"}],"outputs":[{"name":"","type":"uint256","internalType":"uint256"}],"stateMutability":"view"},{"type":"function","name":"getProofSetLeafCount","inputs":[{"name":"setId","type":"uint256","internalType":"uint256"}],"outputs":[{"name":"","type":"uint256","internalType":"uint256"}],"stateMutability":"view"},{"type":"function","name":"getProofSetListener","inputs":[{"name":"setId","type":"uint256","internalType":"uint256"}],"outputs":[{"name":"","type":"address","internalType":"address"}],"stateMutability":"view"},{"type":"function","name":"getProofSetOwner","inputs":[{"name":"setId","type":"uint256","internalType":"uint256"}],"outputs":[{"name":"","type":"address","internalType":"address"},{"name":"","type":"address","internalType":"address"}],"stateMutability":"view"},{"type":"function","name":"getRandomness","inputs":[{"name":"epoch","type":"uint256","internalType":"uint256"}],"outputs":[{"name":"","type":"uint256","internalType":"uint256"}],"stateMutability":"view"},{"type":"function","name":"getRootCid","inputs":[{"name":"setId","type":"uint256","internalType":"uint256"},{"name":"rootId","type":"uint256","internalType":"uint256"}],"outputs":[{"name":"","type":"tuple","internalType":"struct Cids.Cid","components":[{"name":"data","type":"bytes","internalType":"bytes"}]}],"stateMutability":"view"},{"type":"function","name":"getRootLeafCount","inputs":[{"name":"setId","type":"uint256","internalType":"uint256"},{"name":"rootId","type":"uint256","internalType":"uint256"}],"outputs":[{"name":"","type":"uint256","internalType":"uint256"}],"stateMutability":"view"},{"type":"function","name":"getScheduledRemovals","inputs":[{"name":"setId","type":"uint256","internalType":"uint256"}],"outputs":[{"name":"","type":"uint256[]","internalType":"uint256[]"}],"stateMutability":"view"},{"type":"function","name":"initialize","inputs":[{"name":"_challengeFinality","type":"uint256","internalType":"uint256"}],"outputs":[],"stateMutability":"nonpayable"},{"type":"function","name":"nextProvingPeriod","inputs":[{"name":"setId","type":"uint256","internalType":"uint256"},{"name":"challengeEpoch","type":"uint256","internalType":"uint256"},{"name":"extraData","type":"bytes","internalType":"bytes"}],"outputs":[],"stateMutability":"nonpayable"},{"type":"function","name":"owner","inputs":[],"outputs":[{"name":"","type":"address","internalType":"address"}],"stateMutability":"view"},{"type":"function","name":"proofSetLive","inputs":[{"name":"setId","type":"uint256","internalType":"uint256"}],"outputs":[{"name":"","type":"bool","internalType":"bool"}],"stateMutability":"view"},{"type":"function","name":"proposeProofSetOwner","inputs":[{"name":"setId","type":"uint256","internalType":"uint256"},{"name":"newOwner","type":"address","internalType":"address"}],"outputs":[],"stateMutability":"nonpayable"},{"type":"function","name":"provePossession","inputs":[{"name":"setId","type":"uint256","internalType":"uint256"},{"name":"proofs","type":"tuple[]","internalType":"struct PDPVerifier.Proof[]","components":[{"name":"leaf","type":"bytes32","internalType":"bytes32"},{"name":"proof","type":"bytes32[]","internalType":"bytes32[]"}]}],"outputs":[],"stateMutability":"payable"},{"type":"function","name":"proxiableUUID","inputs":[],"outputs":[{"name":"","type":"bytes32","internalType":"bytes32"}],"stateMutability":"view"},{"type":"function","name":"renounceOwnership","inputs":[],"outputs":[],"stateMutability":"nonpayable"},{"type":"function","name":"rootChallengable","inputs":[{"name":"setId","type":"uint256","internalType":"uint256"},{"name":"rootId","type":"uint256","internalType":"uint256"}],"outputs":[{"name":"","type":"bool","internalType":"bool"}],"stateMutability":"view"},{"type":"function","name":"rootLive","inputs":[{"name":"setId","type":"uint256","internalType":"uint256"},{"name":"rootId","type":"uint256","internalType":"uint256"}],"outputs":[{"name":"","type":"bool","internalType":"bool"}],"stateMutability":"view"},{"type":"function","name":"scheduleRemovals","inputs":[{"name":"setId","type":"uint256","internalType":"uint256"},{"name":"rootIds","type":"uint256[]","internalType":"uint256[]"},{"name":"extraData","type":"bytes","internalType":"bytes"}],"outputs":[],"stateMutability":"nonpayable"},{"type":"function","name":"transferOwnership","inputs":[{"name":"newOwner","type":"address","internalType":"address"}],"outputs":[],"stateMutability":"nonpayable"},{"type":"function","name":"upgradeToAndCall","inputs":[{"name":"newImplementation","type":"address","internalType":"address"},{"name":"data","type":"bytes","internalType":"bytes"}],"outputs":[],"stateMutability":"payable"},{"type":"event","name":"Debug","inputs":[{"name":"message","type":"string","indexed":false,"internalType":"string"},{"name":"value","type":"uint256","indexed":false,"internalType":"uint256"}],"anonymous":false},{"type":"event","name":"Initialized","inputs":[{"name":"version","type":"uint64","indexed":false,"internalType":"uint64"}],"anonymous":false},{"type":"event","name":"OwnershipTransferred","inputs":[{"name":"previousOwner","type":"address","indexed":true,"internalType":"address"},{"name":"newOwner","type":"address","indexed":true,"internalType":"address"}],"anonymous":false},{"type":"event","name":"ProofSetCreated","inputs":[{"name":"setId","type":"uint256","indexed":true,"internalType":"uint256"}],"anonymous":false},{"type":"event","name":"ProofSetDeleted","inputs":[{"name":"setId","type":"uint256","indexed":true,"internalType":"uint256"},{"name":"deletedLeafCount","type":"uint256","indexed":false,"internalType":"uint256"}],"anonymous":false},{"type":"event","name":"RootsAdded","inputs":[{"name":"firstAdded","type":"uint256","indexed":true,"internalType":"uint256"}],"anonymous":false},{"type":"event","name":"RootsRemoved","inputs":[{"name":"rootIds","type":"uint256[]","indexed":true,"internalType":"uint256[]"}],"anonymous":false},{"type":"event","name":"Upgraded","inputs":[{"name":"implementation","type":"address","indexed":true,"internalType":"address"}],"anonymous":false},{"type":"error","name":"AddressEmptyCode","inputs":[{"name":"target","type":"address","internalType":"address"}]},{"type":"error","name":"ERC1967InvalidImplementation","inputs":[{"name":"implementation","type":"address","internalType":"address"}]},{"type":"error","name":"ERC1967NonPayable","inputs":[]},{"type":"error","name":"FailedCall","inputs":[]},{"type":"error","name":"IndexedError","inputs":[{"name":"idx","type":"uint256","internalType":"uint256"},{"name":"msg","type":"string","internalType":"string"}]},{"type":"error","name":"InvalidInitialization","inputs":[]},{"type":"error","name":"NotInitializing","inputs":[]},{"type":"error","name":"OwnableInvalidOwner","inputs":[{"name":"owner","type":"address","internalType":"address"}]},{"type":"error","name":"OwnableUnauthorizedAccount","inputs":[{"name":"account","type":"address","internalType":"address"}]},{"type":"error","name":"UUPSUnauthorizedCallContext","inputs":[]},{"type":"error","name":"UUPSUnsupportedProxiableUUID","inputs":[{"name":"slot","type":"bytes32","internalType":"bytes32"}]}],"bytecode":{"object":"0x60a0604052306080523480156200001557600080fd5b506200002062000026565b620000da565b7ff0c57e16840df040f15088dc2f81fe391c3923bec73e23a9662efc9c229c6a00805468010000000000000000900460ff1615620000775760405163f92ee8a960e01b815260040160405180910390fd5b80546001600160401b0390811614620000d75780546001600160401b0319166001600160401b0390811782556040519081527fc7f505b2f371ae2175ee4913f4499e1f2633a7b5936321eed1cdaeb6115181d29060200160405180910390a15b50565b608051613ce0620001046000396000818161273b0152818161276401526128a50152613ce06000f3fe60806040526004361061021a5760003560e01c80636cb55c16116101235780639f8cb3bd116100ab578063f2fde38b1161006f578063f2fde38b14610688578063f58f952b146106a8578063f5cac1ba146106bb578063f83758fe146106db578063fe4b84df146106f057600080fd5b80639f8cb3bd146105df578063ad3cb1cc146105f5578063c0e1594914610633578063d49245c114610648578063ee3dac651461066857600080fd5b8063847d1d06116100f2578063847d1d061461051a57806389208ba91461053a5780638da5cb5b1461055a5780638ea417e5146105975780639153e64b146105bf57600080fd5b80636cb55c16146104985780636fa44692146104b8578063715018a6146104e557806371cf2a16146104fa57600080fd5b80633b7ae913116101a65780634726075b116101755780634726075b146103e057806347331050146104205780634f1ef2861461045057806352d1902d146104635780636ba4608f1461047857600080fd5b80633b7ae913146103535780633f84135f14610380578063453f4f62146103a057806345c0b92d146103c057600080fd5b806311c0ee4a116101ed57806311c0ee4a146102bb57806315b17570146102db57806316e2bcd5146102f657806331601226146103115780633b68e4e91461033157600080fd5b8063029b46461461021f5780630528a55b146102485780630a4d7932146102755780630a6a63f114610288575b600080fd5b34801561022b57600080fd5b5061023561080081565b6040519081526020015b60405180910390f35b34801561025457600080fd5b5061026861026336600461325c565b610710565b60405161023f91906132a7565b610235610283366004613353565b6107fb565b34801561029457600080fd5b506102a3606360ff60981b0181565b6040516001600160a01b03909116815260200161023f565b3480156102c757600080fd5b506102356102d6366004613398565b6109eb565b3480156102e757600080fd5b506102a36006607f60991b0181565b34801561030257600080fd5b50610235660400000000000081565b34801561031d57600080fd5b506102a361032c366004613411565b610c6f565b34801561033d57600080fd5b5061035161034c366004613398565b610cb2565b005b34801561035f57600080fd5b5061037361036e36600461342a565b610f71565b60405161023f919061349c565b34801561038c57600080fd5b5061023561039b366004613411565b611064565b3480156103ac57600080fd5b506102356103bb366004613411565b61109e565b3480156103cc57600080fd5b506103516103db3660046134b7565b611199565b3480156103ec57600080fd5b506104006103fb366004613411565b611496565b604080516001600160a01b0393841681529290911660208301520161023f565b34801561042c57600080fd5b5061044061043b36600461342a565b6114ec565b604051901515815260200161023f565b61035161045e36600461351f565b611537565b34801561046f57600080fd5b50610235611556565b34801561048457600080fd5b50610235610493366004613411565b611573565b3480156104a457600080fd5b506103516104b33660046135e0565b6115ad565b3480156104c457600080fd5b506104d86104d3366004613411565b6116b6565b60405161023f919061360c565b3480156104f157600080fd5b50610351611789565b34801561050657600080fd5b5061044061051536600461342a565b61179d565b34801561052657600080fd5b50610351610535366004613650565b6118b2565b34801561054657600080fd5b50610235610555366004613411565b611a94565b34801561056657600080fd5b507f9016d09d72d40fdae2fd8ceac6b6234c7706214fd39c1cd1e609a0528c199300546001600160a01b03166102a3565b3480156105a357600080fd5b506001546040516001600160401b03909116815260200161023f565b3480156105cb57600080fd5b506102356105da36600461342a565b611ace565b3480156105eb57600080fd5b506102356107d081565b34801561060157600080fd5b50610626604051806040016040528060058152602001640352e302e360dc1b81525081565b60405161023f9190613682565b34801561063f57600080fd5b50610235602081565b34801561065457600080fd5b50610235610663366004613411565b611b13565b34801561067457600080fd5b50610351610683366004613411565b611b4d565b34801561069457600080fd5b506103516106a3366004613695565b611c21565b6103516106b636600461325c565b611c5f565b3480156106c757600080fd5b506104406106d6366004613411565b611fd9565b3480156106e757600080fd5b50600054610235565b3480156106fc57600080fd5b5061035161070b366004613411565b61200f565b6000838152600560205260408120546060919061072c90612129565b610738906101006136c6565b90506000836001600160401b0381111561075457610754613509565b60405190808252806020026020018201604052801561079957816020015b60408051808201909152600080825260208201528152602001906001900390816107725790505b50905060005b848110156107ef576107ca878787848181106107bd576107bd6136d9565b9050602002013585612219565b8282815181106107dc576107dc6136d9565b602090810291909101015260010161079f565b509150505b9392505050565b60006108008211156108285760405162461bcd60e51b815260040161081f906136ef565b60405180910390fd5b601b3481111561086e5760405162461bcd60e51b81526020600482015260116024820152701cde589a5b08199959481b9bdd081b595d607a1b604482015260640161081f565b61087781612401565b803411156108b757336108fc61088d83346136c6565b6040518115909202916000818181858888f193505050501580156108b5573d6000803e3d6000fd5b505b600180546000916001600160401b0390911690826108d48361371d565b82546001600160401b039182166101009390930a92830292820219169190911790915516600081815260066020908152604080832083905560078252808320839055600b825280832080546001600160a01b03199081163317909155600890925290912080546001600160a01b038a16921682179055909150156109b757604051634a6a0d9b60e11b81526001600160a01b038716906394d41b369061098490849033908a908a9060040161376c565b600060405180830381600087803b15801561099e57600080fd5b505af11580156109b2573d6000803e3d6000fd5b505050505b60405181907f5979d495e336598dba8459e44f8eb2a1c957ce30fcc10cabea4bb0ffe969df6a90600090a295945050505050565b6000610800821115610a0f5760405162461bcd60e51b815260040161081f906136ef565b610a1886611fd9565b610a345760405162461bcd60e51b815260040161081f906137a1565b83610a815760405162461bcd60e51b815260206004820152601a60248201527f4d75737420616464206174206c65617374206f6e6520726f6f74000000000000604482015260640161081f565b6000868152600b60205260409020546001600160a01b03163314610ae75760405162461bcd60e51b815260206004820152601c60248201527f4f6e6c7920746865206f776e65722063616e2061646420726f6f747300000000604482015260640161081f565b60008681526007602090815260408083205460059092528220549015915b86811015610b7657610b6d89828a8a85818110610b2457610b246136d9565b9050602002810190610b3691906137cd565b610b4090806137ed565b8b8b86818110610b5257610b526136d9565b9050602002810190610b6491906137cd565b602001356124d5565b50600101610b05565b508115610bb157600054610b8a9043613803565b60008981526007602090815260408083209390935560068152828220546009909152919020555b6000888152600860205260409020546001600160a01b03168015610c38576040516312d5d66f60e01b81526001600160a01b038216906312d5d66f90610c05908c9086908d908d908d908d90600401613816565b600060405180830381600087803b158015610c1f57600080fd5b505af1158015610c33573d6000803e3d6000fd5b505050505b60405182907fde16f8a35fc44238b21a493b7267f7a5064f2bc1b3a1af51deeb4b5a47281d4790600090a250979650505050505050565b6000610c7a82611fd9565b610c965760405162461bcd60e51b815260040161081f906137a1565b506000908152600860205260409020546001600160a01b031690565b610800811115610cd45760405162461bcd60e51b815260040161081f906136ef565b610cdd85611fd9565b610cf95760405162461bcd60e51b815260040161081f906137a1565b6000858152600b60205260409020546001600160a01b03163314610d745760405162461bcd60e51b815260206004820152602c60248201527f4f6e6c7920746865206f776e65722063616e207363686564756c652072656d6f60448201526b76616c206f6620726f6f747360a01b606482015260840161081f565b6000858152600a60205260409020546107d090610d919085613803565b1115610e055760405162461bcd60e51b815260206004820152603a60248201527f546f6f206d616e792072656d6f76616c73207761697420666f72206e6578742060448201527f70726f76696e6720706572696f6420746f207363686564756c65000000000000606482015260840161081f565b60005b83811015610ee357600086815260056020526040902054858583818110610e3157610e316136d9565b9050602002013510610e995760405162461bcd60e51b815260206004820152602b60248201527f43616e206f6e6c79207363686564756c652072656d6f76616c206f662065786960448201526a7374696e6720726f6f747360a81b606482015260840161081f565b6000868152600a60205260409020858583818110610eb957610eb96136d9565b83546001808201865560009586526020958690209290950293909301359201919091555001610e08565b506000858152600860205260409020546001600160a01b03168015610f695760405163257be8e960e11b81526001600160a01b03821690634af7d1d290610f369089908990899089908990600401613922565b600060405180830381600087803b158015610f5057600080fd5b505af1158015610f64573d6000803e3d6000fd5b505050505b505050505050565b604080516020810190915260608152610f8983611fd9565b610fa55760405162461bcd60e51b815260040161081f906137a1565b60008381526002602090815260408083208584528252918290208251918201909252815490919082908290610fd99061397c565b80601f01602080910402602001604051908101604052809291908181526020018280546110059061397c565b80156110525780601f1061102757610100808354040283529160200191611052565b820191906000526020600020905b81548152906001019060200180831161103557829003601f168201915b50505050508152505090505b92915050565b600061106f82611fd9565b61108b5760405162461bcd60e51b815260040161081f906137a1565b5060009081526006602052604090205490565b60008060006006607f60991b016001600160a01b0316846040516020016110c791815260200190565b60408051601f19818403018152908290526110e1916139b6565b600060405180830381855afa9150503d806000811461111c576040519150601f19603f3d011682016040523d82523d6000602084013e611121565b606091505b50915091508161117d5760405162461bcd60e51b815260206004820152602160248201527f52616e646f6d6e65737320707265636f6d70696c652063616c6c206661696c656044820152601960fa1b606482015260840161081f565b8080602001905181019061119191906139c8565b949350505050565b6108008111156111bb5760405162461bcd60e51b815260040161081f906136ef565b6000848152600b60205260409020546001600160a01b031633146112385760405162461bcd60e51b815260206004820152602e60248201527f6f6e6c7920746865206f776e65722063616e206d6f766520746f206e6578742060448201526d1c1c9bdd9a5b99c81c195c9a5bd960921b606482015260840161081f565b6000848152600a6020526040812080549091906001600160401b0381111561126257611262613509565b60405190808252806020026020018201604052801561128b578160200160208202803683370190505b50905060005b815181101561131357825483906112aa906001906136c6565b815481106112ba576112ba6136d9565b90600052602060002001548282815181106112d7576112d76136d9565b602002602001018181525050828054806112f3576112f36139e1565b600082815260208120820160001990810191909155019055600101611291565b5061131e868261269e565b60008681526006602090815260408083205460099092528220555461134343876136c6565b10156113c75760405162461bcd60e51b815260206004820152604760248201527f6368616c6c656e67652065706f6368206d757374206265206174206c6561737460448201527f206368616c6c656e676546696e616c6974792065706f63687320696e207468656064820152662066757475726560c81b608482015260a40161081f565b6000868152600760209081526040808320889055600690915281205490036113f9576000868152600760205260408120555b6000868152600860205260409020546001600160a01b0316801561148d5760008781526006602052604090819020549051632a89faf360e21b81526001600160a01b0383169163aa27ebcc9161145a918b918b91908b908b906004016139f7565b600060405180830381600087803b15801561147457600080fd5b505af1158015611488573d6000803e3d6000fd5b505050505b50505050505050565b6000806114a283611fd9565b6114be5760405162461bcd60e51b815260040161081f906137a1565b50506000908152600b6020908152604080832054600c909252909120546001600160a01b0391821692911690565b60006114f783611fd9565b8015611510575060008381526005602052604090205482105b80156107f45750506000918252600360209081526040808420928452919052902054151590565b61153f612730565b611548826127d5565b61155282826127dd565b5050565b600061156061289a565b50600080516020613c8b83398151915290565b600061157e82611fd9565b61159a5760405162461bcd60e51b815260040161081f906137a1565b5060009081526007602052604090205490565b6115b682611fd9565b6115d25760405162461bcd60e51b815260040161081f906137a1565b6000828152600b60205260409020546001600160a01b03163381146116505760405162461bcd60e51b815260206004820152602e60248201527f4f6e6c79207468652063757272656e74206f776e65722063616e2070726f706f60448201526d39b29030903732bb9037bbb732b960911b606482015260840161081f565b816001600160a01b0316816001600160a01b0316036116895750506000908152600c6020526040902080546001600160a01b0319169055565b6000838152600c6020526040902080546001600160a01b0319166001600160a01b0384161790555b505050565b60606116c182611fd9565b6116dd5760405162461bcd60e51b815260040161081f906137a1565b6000828152600a6020526040812080549091906001600160401b0381111561170757611707613509565b604051908082528060200260200182016040528015611730578160200160208202803683370190505b50905060005b825481101561178157828181548110611751576117516136d9565b906000526020600020015482828151811061176e5761176e6136d9565b6020908102919091010152600101611736565b509392505050565b6117916128e3565b61179b600061293e565b565b60008281526005602052604081205481906117b790612129565b6117c3906101006136c6565b600085815260096020526040812054919250906117ee9086906117e8906001906136c6565b84612219565b600086815260036020908152604080832084518452909152902054909150611818906001906136c6565b816020015114611892576040805162461bcd60e51b81526020600482015260248101919091527f6368616c6c656e676552616e6765202d312073686f756c6420616c69676e207760448201527f697468207468652076657279206c617374206c656166206f66206120726f6f74606482015260840161081f565b61189c85856114ec565b80156118a9575080518411155b95945050505050565b6108008111156118d45760405162461bcd60e51b815260040161081f906136ef565b6001546001600160401b0316831061192e5760405162461bcd60e51b815260206004820152601a60248201527f70726f6f6620736574206964206f7574206f6620626f756e6473000000000000604482015260640161081f565b6000838152600b60205260409020546001600160a01b031633146119a05760405162461bcd60e51b8152602060048201526024808201527f4f6e6c7920746865206f776e65722063616e2064656c6574652070726f6f66206044820152637365747360e01b606482015260840161081f565b6000838152600660209081526040808320805490849055600b835281842080546001600160a01b0319169055600783528184208490556008909252909120546001600160a01b03168015611a53576040516326c249e360e01b81526001600160a01b038216906326c249e390611a20908890869089908990600401613a28565b600060405180830381600087803b158015611a3a57600080fd5b505af1158015611a4e573d6000803e3d6000fd5b505050505b847f589e9a441b5bddda77c4ab647b0108764a9cc1a7f655aa9b7bc50b8bdfab867383604051611a8591815260200190565b60405180910390a25050505050565b6000611a9f82611fd9565b611abb5760405162461bcd60e51b815260040161081f906137a1565b5060009081526009602052604090205490565b6000611ad983611fd9565b611af55760405162461bcd60e51b815260040161081f906137a1565b50600091825260036020908152604080842092845291905290205490565b6000611b1e82611fd9565b611b3a5760405162461bcd60e51b815260040161081f906137a1565b5060009081526005602052604090205490565b611b5681611fd9565b611b725760405162461bcd60e51b815260040161081f906137a1565b6000818152600c60205260409020546001600160a01b03163314611bec5760405162461bcd60e51b815260206004820152602b60248201527f4f6e6c79207468652070726f706f736564206f776e65722063616e20636c616960448201526a06d206f776e6572736869760ac1b606482015260840161081f565b6000908152600b6020908152604080832080546001600160a01b03199081163317909155600c90925290912080549091169055565b611c296128e3565b6001600160a01b038116611c5357604051631e4fbdf760e01b81526000600482015260240161081f565b611c5c8161293e565b50565b60008381526007602052604090205443811115611cb05760405162461bcd60e51b815260206004820152600f60248201526e383932b6b0ba3ab93290383937b7b360891b604482015260640161081f565b81611ceb5760405162461bcd60e51b815260206004820152600b60248201526a32b6b83a3c90383937b7b360a91b604482015260640161081f565b6000611cf6836129af565b9050611d0181612401565b80341115611d4157336108fc611d1783346136c6565b6040518115909202916000818181858888f19350505050158015611d3f573d6000803e3d6000fd5b505b6000611d4c866129ee565b600087815260096020908152604080832054600590925282205492935091611d7390612129565b611d7f906101006136c6565b905060005b6001600160401b038116871115611f2e5760408051602081018690529081018a90526001600160c01b031960c083901b1660608201526000906068016040516020818303038152906040529050600084828051906020012060001c611de99190613a5e565b90506000611df88c8387612219565b90506000611e12611e0d8e8460000151610f71565b612a06565b90506000611ed08d8d886001600160401b0316818110611e3457611e346136d9565b9050602002810190611e4691906137cd565b611e54906020810190613a72565b80806020026020016040519081016040528093929190818152602001838360200280828437600081840152601f19601f82011690508083019250505050505050838f8f8a6001600160401b0316818110611eb057611eb06136d9565b9050602002810190611ec291906137cd565b600001358660200151612af5565b905080611f165760405162461bcd60e51b815260206004820152601460248201527370726f6f6620646964206e6f742076657269667960601b604482015260640161081f565b50505050508080611f269061371d565b915050611d84565b506000888152600860205260409020546001600160a01b03168015611fce576000898152600660205260409081902054905163b875f8ff60e01b8152600481018b9052602481019190915260448101859052606481018890526001600160a01b0382169063b875f8ff90608401600060405180830381600087803b158015611fb557600080fd5b505af1158015611fc9573d6000803e3d6000fd5b505050505b505050505050505050565b6001546000906001600160401b03168210801561105e5750506000908152600b60205260409020546001600160a01b0316151590565b7ff0c57e16840df040f15088dc2f81fe391c3923bec73e23a9662efc9c229c6a008054600160401b810460ff1615906001600160401b03166000811580156120545750825b90506000826001600160401b031660011480156120705750303b155b90508115801561207e575080155b1561209c5760405163f92ee8a960e01b815260040160405180910390fd5b845467ffffffffffffffff1916600117855583156120c657845460ff60401b1916600160401b1785555b6120cf33612b0d565b6120d7612b1e565b60008690558315610f6957845460ff60401b19168555604051600181527fc7f505b2f371ae2175ee4913f4499e1f2633a7b5936321eed1cdaeb6115181d29060200160405180910390a1505050505050565b6000610100608083901c801561214a576121446080836136c6565b91508093505b50604083901c8015612167576121616040836136c6565b91508093505b50602083901c80156121845761217e6020836136c6565b91508093505b50601083901c80156121a15761219b6010836136c6565b91508093505b50600883901c80156121be576121b86008836136c6565b91508093505b50600483901c80156121db576121d56004836136c6565b91508093505b50600283901c80156121f8576121f26002836136c6565b91508093505b50600183901c801561220f576111916002836136c6565b61119184836136c6565b6040805180820190915260008082526020820152600084815260066020526040902054831061228a5760405162461bcd60e51b815260206004820152601860248201527f4c65616620696e646578206f7574206f6620626f756e64730000000000000000604482015260640161081f565b6000612299600180851b6136c6565b9050600080845b80156123755760008881526005602052604090205484106122db576122c66001826136c6565b6122d4906001901b856136c6565b9350612363565b60008881526004602090815260408083208784529091529020546122ff9084613803565b915086821161234757600088815260046020908152604080832087845290915290205461232c9084613803565b92506123396001826136c6565b6122d4906001901b85613803565b6123526001826136c6565b612360906001901b856136c6565b93505b8061236d81613abb565b9150506122a0565b50600087815260046020908152604080832086845290915290205461239a9083613803565b90508581116123d75760405180604001604052808460016123bb9190613803565b81526020016123ca83896136c6565b81525093505050506107f4565b604051806040016040528084815260200183886123f491906136c6565b9052979650505050505050565b803410156124485760405162461bcd60e51b8152602060048201526014602482015273125b98dbdc9c9958dd0819995948185b5bdd5b9d60621b604482015260640161081f565b604051600090606360ff60981b019083908381818185875af1925050503d8060008114612491576040519150601f19603f3d011682016040523d82523d6000602084013e612496565b606091505b50509050806115525760405162461bcd60e51b815260206004820152600b60248201526a109d5c9b8819985a5b195960aa1b604482015260640161081f565b60006124e2602083613a5e565b15612539578360405163c7b67cf360e01b815260040161081f918152604060208201819052601d908201527f53697a65206d7573742062652061206d756c7469706c65206f66203332000000606082015260800190565b81600003612593578360405163c7b67cf360e01b815260040161081f918152604060208201819052601b908201527f53697a65206d7573742062652067726561746572207468616e20300000000000606082015260800190565b66040000000000008211156125f3578360405163c7b67cf360e01b815260040161081f91815260406020808301829052908201527f526f6f742073697a65206d757374206265206c657373207468616e20325e3530606082015260800190565b6000612600602084613ad2565b600087815260056020526040812080549293509091908261262083613ae6565b919050559050612631878383612b26565b6000878152600260209081526040808320848452909152902085906126568282613b47565b50506000878152600360209081526040808320848452825280832085905589835260069091528120805484929061268e908490613803565b9091555090979650505050505050565b6126a782611fd9565b6126c35760405162461bcd60e51b815260040161081f906137a1565b6000805b8251811015612707576126f3848483815181106126e6576126e66136d9565b6020026020010151612ba6565b6126fd9083613803565b91506001016126c7565b50600083815260066020526040812080548392906127269084906136c6565b9091555050505050565b306001600160a01b037f00000000000000000000000000000000000000000000000000000000000000001614806127b757507f00000000000000000000000000000000000000000000000000000000000000006001600160a01b03166127ab600080516020613c8b833981519152546001600160a01b031690565b6001600160a01b031614155b1561179b5760405163703e46dd60e11b815260040160405180910390fd5b611c5c6128e3565b816001600160a01b03166352d1902d6040518163ffffffff1660e01b8152600401602060405180830381865afa925050508015612837575060408051601f3d908101601f19168201909252612834918101906139c8565b60015b61285f57604051634c9c8ce360e01b81526001600160a01b038316600482015260240161081f565b600080516020613c8b833981519152811461289057604051632a87526960e21b81526004810182905260240161081f565b6116b18383612c0e565b306001600160a01b037f0000000000000000000000000000000000000000000000000000000000000000161461179b5760405163703e46dd60e11b815260040160405180910390fd5b336129157f9016d09d72d40fdae2fd8ceac6b6234c7706214fd39c1cd1e609a0528c199300546001600160a01b031690565b6001600160a01b03161461179b5760405163118cdaa760e01b815233600482015260240161081f565b7f9016d09d72d40fdae2fd8ceac6b6234c7706214fd39c1cd1e609a0528c19930080546001600160a01b031981166001600160a01b03848116918217845560405192169182907f8be0079c531659141344cd1fd0a4f28419497f9722a3daafe3b4186f6b6457e090600090a3505050565b60008060034811156129c25750486129c6565b5060035b6000816129d685621e8480613c33565b6129e09190613c33565b905060646118a98183613ad2565b60008181526007602052604081205461105e9061109e565b600060208260000151511015612a565760405162461bcd60e51b815260206004820152601560248201527410da590819185d18481a5cc81d1bdbc81cda1bdc9d605a1b604482015260640161081f565b60408051602080825281830190925260009160208201818036833701905050905060005b6020811015612aeb57835180518290612a95906020906136c6565b612a9f9190613803565b81518110612aaf57612aaf6136d9565b602001015160f81c60f81b828281518110612acc57612acc6136d9565b60200101906001600160f81b031916908160001a905350600101612a7a565b506107f481613c4a565b600083612b03868585612c64565b1495945050505050565b612b15612ce1565b611c5c81612d2a565b61179b612ce1565b806000612b3282612d32565b90508360005b82811015612b81576000612b4f6001831b866136c6565b6000898152600460209081526040808320848452909152902054909150612b769084613803565b925050600101612b38565b5060009586526004602090815260408088209588529490529290942091909155505050565b6000828152600360209081526040808320848452909152812054612bcb848483612d47565b6000848152600360209081526040808320868452825280832083905586835260028252808320868452909152812090612c0482826131c3565b5090949350505050565b612c1782612df2565b6040516001600160a01b038316907fbc7cd75a20ee27fd9adebab32041f755214dbc6bffa90cc0225b39da2e5c2d3b90600090a2805115612c5c576116b18282612e57565b611552612ec4565b600082815b8551811015612cd8576000868281518110612c8657612c866136d9565b60200260200101519050600285612c9d9190613a5e565b600003612cb557612cae8382612ee3565b9250612cc2565b612cbf8184612ee3565b92505b612ccd600286613ad2565b945050600101612c69565b50949350505050565b7ff0c57e16840df040f15088dc2f81fe391c3923bec73e23a9662efc9c229c6a0054600160401b900460ff1661179b57604051631afcd79f60e31b815260040160405180910390fd5b611c29612ce1565b600061105e612d42836001613803565b612eef565b600083815260056020526040812054612d5f90612129565b612d6b906101006136c6565b90506000612d7884612d32565b90505b818111158015612d98575060008581526005602052604090205484105b15612deb57600085815260046020908152604080832087845290915281208054859290612dc69084906136c6565b90915550612dd990506001821b85613803565b9350612de484612d32565b9050612d7b565b5050505050565b806001600160a01b03163b600003612e2857604051634c9c8ce360e01b81526001600160a01b038216600482015260240161081f565b600080516020613c8b83398151915280546001600160a01b0319166001600160a01b0392909216919091179055565b6060600080846001600160a01b031684604051612e7491906139b6565b600060405180830381855af49150503d8060008114612eaf576040519150601f19603f3d011682016040523d82523d6000602084013e612eb4565b606091505b50915091506118a9858383613111565b341561179b5760405163b398979f60e01b815260040160405180910390fd5b60006107f4838361316d565b60006001600160ff1b03821115612f535760405162461bcd60e51b815260206004820152602260248201527f496e7075742065786365656473206d6178696d756d20696e743235362076616c604482015261756560f01b606482015260840161081f565b6101006000612f6184613c6e565b841690508015612f795781612f7581613abb565b9250505b6fffffffffffffffffffffffffffffffff811615612f9f57612f9c6080836136c6565b91505b77ffffffffffffffff0000000000000000ffffffffffffffff811615612fcd57612fca6040836136c6565b91505b7bffffffff00000000ffffffff00000000ffffffff00000000ffffffff811615612fff57612ffc6020836136c6565b91505b7dffff0000ffff0000ffff0000ffff0000ffff0000ffff0000ffff0000ffff811615613033576130306010836136c6565b91505b7eff00ff00ff00ff00ff00ff00ff00ff00ff00ff00ff00ff00ff00ff00ff00ff811615613068576130656008836136c6565b91505b7f0f0f0f0f0f0f0f0f0f0f0f0f0f0f0f0f0f0f0f0f0f0f0f0f0f0f0f0f0f0f0f0f81161561309e5761309b6004836136c6565b91505b7f33333333333333333333333333333333333333333333333333333333333333338116156130d4576130d16002836136c6565b91505b7f555555555555555555555555555555555555555555555555555555555555555581161561310a576131076001836136c6565b91505b5092915050565b606082613126576131218261319a565b6107f4565b815115801561313d57506001600160a01b0384163b155b1561316657604051639996b31560e01b81526001600160a01b038516600482015260240161081f565b50806107f4565b60008260005281602052602060006040600060025afa61318c57600080fd5b505060005160c01916919050565b8051156131aa5780518082602001fd5b60405163d6bda27560e01b815260040160405180910390fd5b5080546131cf9061397c565b6000825580601f106131df575050565b601f016020900490600052602060002090810190611c5c91905b8082111561320d57600081556001016131f9565b5090565b60008083601f84011261322357600080fd5b5081356001600160401b0381111561323a57600080fd5b6020830191508360208260051b850101111561325557600080fd5b9250929050565b60008060006040848603121561327157600080fd5b8335925060208401356001600160401b0381111561328e57600080fd5b61329a86828701613211565b9497909650939450505050565b602080825282518282018190526000919060409081850190868401855b828110156132e9578151805185528601518685015292840192908501906001016132c4565b5091979650505050505050565b80356001600160a01b038116811461330d57600080fd5b919050565b60008083601f84011261332457600080fd5b5081356001600160401b0381111561333b57600080fd5b60208301915083602082850101111561325557600080fd5b60008060006040848603121561336857600080fd5b613371846132f6565b925060208401356001600160401b0381111561338c57600080fd5b61329a86828701613312565b6000806000806000606086880312156133b057600080fd5b8535945060208601356001600160401b03808211156133ce57600080fd5b6133da89838a01613211565b909650945060408801359150808211156133f357600080fd5b5061340088828901613312565b969995985093965092949392505050565b60006020828403121561342357600080fd5b5035919050565b6000806040838503121561343d57600080fd5b50508035926020909101359150565b60005b8381101561346757818101518382015260200161344f565b50506000910152565b6000815180845261348881602086016020860161344c565b601f01601f19169290920160200192915050565b60208152600082516020808401526111916040840182613470565b600080600080606085870312156134cd57600080fd5b843593506020850135925060408501356001600160401b038111156134f157600080fd5b6134fd87828801613312565b95989497509550505050565b634e487b7160e01b600052604160045260246000fd5b6000806040838503121561353257600080fd5b61353b836132f6565b915060208301356001600160401b038082111561355757600080fd5b818501915085601f83011261356b57600080fd5b81358181111561357d5761357d613509565b604051601f8201601f19908116603f011681019083821181831017156135a5576135a5613509565b816040528281528860208487010111156135be57600080fd5b8260208601602083013760006020848301015280955050505050509250929050565b600080604083850312156135f357600080fd5b82359150613603602084016132f6565b90509250929050565b6020808252825182820181905260009190848201906040850190845b8181101561364457835183529284019291840191600101613628565b50909695505050505050565b60008060006040848603121561366557600080fd5b8335925060208401356001600160401b0381111561338c57600080fd5b6020815260006107f46020830184613470565b6000602082840312156136a757600080fd5b6107f4826132f6565b634e487b7160e01b600052601160045260246000fd5b8181038181111561105e5761105e6136b0565b634e487b7160e01b600052603260045260246000fd5b6020808252601490820152734578747261206461746120746f6f206c6172676560601b604082015260600190565b60006001600160401b03808316818103613739576137396136b0565b6001019392505050565b81835281816020850137506000828201602090810191909152601f909101601f19169091010190565b8481526001600160a01b03841660208201526060604082018190526000906137979083018486613743565b9695505050505050565b60208082526012908201527150726f6f6620736574206e6f74206c69766560701b604082015260600190565b60008235603e198336030181126137e357600080fd5b9190910192915050565b60008235601e198336030181126137e357600080fd5b8082018082111561105e5761105e6136b0565b600060808201888352602088818501526040608060408601528288845260a08601905060a08960051b87010193508960005b8a8110156138fd57878603609f190183528135368d9003603e1901811261386e57600080fd5b8c018035601e19368390038101821261388657600080fd5b82820191508689528135818336030181126138a057600080fd5b9091018781019150356001600160401b038111156138bd57600080fd5b8036038213156138cc57600080fd5b87878a01526138df60608a018284613743565b92880135988801989098525095509184019190840190600101613848565b50505050508281036060840152613915818587613743565b9998505050505050505050565b858152606060208201819052810184905260006001600160fb1b0385111561394957600080fd5b8460051b808760808501378201828103608090810160408501526139709082018587613743565b98975050505050505050565b600181811c9082168061399057607f821691505b6020821081036139b057634e487b7160e01b600052602260045260246000fd5b50919050565b600082516137e381846020870161344c565b6000602082840312156139da57600080fd5b5051919050565b634e487b7160e01b600052603160045260246000fd5b858152846020820152836040820152608060608201526000613a1d608083018486613743565b979650505050505050565b848152836020820152606060408201526000613797606083018486613743565b634e487b7160e01b600052601260045260246000fd5b600082613a6d57613a6d613a48565b500690565b6000808335601e19843603018112613a8957600080fd5b8301803591506001600160401b03821115613aa357600080fd5b6020019150600581901b360382131561325557600080fd5b600081613aca57613aca6136b0565b506000190190565b600082613ae157613ae1613a48565b500490565b600060018201613af857613af86136b0565b5060010190565b601f8211156116b1576000816000526020600020601f850160051c81016020861015613b285750805b601f850160051c820191505b81811015610f6957828155600101613b34565b8135601e19833603018112613b5b57600080fd5b820180356001600160401b03811115613b7357600080fd5b60208136038184011315613b8657600080fd5b613b9a82613b94865461397c565b86613aff565b6000601f831160018114613bd05760008415613bb857508482018301355b600019600386901b1c1916600185901b17865561148d565b600086815260209020601f19851690835b82811015613c02578785018601358255938501936001909101908501613be1565b5085821015613c215760001960f88760031b161c198585890101351681555b5050505050600190811b019091555050565b808202811582820484141761105e5761105e6136b0565b805160208083015191908110156139b05760001960209190910360031b1b16919050565b6000600160ff1b8201613c8357613c836136b0565b506000039056fe360894a13ba1a3210667c828492db98dca3e2076cc3735a920a3ca505d382bbca2646970667358221220a1798dc44d69f4b3ca366ba9402043597344fdf334dbd8b853624b802770e9e764736f6c63430008170033","linkReferences":{}},"methodIdentifiers":{"BURN_ACTOR()":"0a6a63f1","EXTRA_DATA_MAX_SIZE()":"029b4646","LEAF_SIZE()":"c0e15949","MAX_ENQUEUED_REMOVALS()":"9f8cb3bd","MAX_ROOT_SIZE()":"16e2bcd5","RANDOMNESS_PRECOMPILE()":"15b17570","UPGRADE_INTERFACE_VERSION()":"ad3cb1cc","addRoots(uint256,((bytes),uint256)[],bytes)":"11c0ee4a","claimProofSetOwnership(uint256)":"ee3dac65","createProofSet(address,bytes)":"0a4d7932","deleteProofSet(uint256,bytes)":"847d1d06","findRootIds(uint256,uint256[])":"0528a55b","getChallengeFinality()":"f83758fe","getChallengeRange(uint256)":"89208ba9","getNextChallengeEpoch(uint256)":"6ba4608f","getNextProofSetId()":"8ea417e5","getNextRootId(uint256)":"d49245c1","getProofSetLeafCount(uint256)":"3f84135f","getProofSetListener(uint256)":"31601226","getProofSetOwner(uint256)":"4726075b","getRandomness(uint256)":"453f4f62","getRootCid(uint256,uint256)":"3b7ae913","getRootLeafCount(uint256,uint256)":"9153e64b","getScheduledRemovals(uint256)":"6fa44692","initialize(uint256)":"fe4b84df","nextProvingPeriod(uint256,uint256,bytes)":"45c0b92d","owner()":"8da5cb5b","proofSetLive(uint256)":"f5cac1ba","proposeProofSetOwner(uint256,address)":"6cb55c16","provePossession(uint256,(bytes32,bytes32[])[])":"f58f952b","proxiableUUID()":"52d1902d","renounceOwnership()":"715018a6","rootChallengable(uint256,uint256)":"71cf2a16","rootLive(uint256,uint256)":"47331050","scheduleRemovals(uint256,uint256[],bytes)":"3b68e4e9","transferOwnership(address)":"f2fde38b","upgradeToAndCall(address,bytes)":"4f1ef286"},"id":41}