{"abi":[{"type":"constructor","inputs":[],"stateMutability":"nonpayable"},{"type":"function","name":"BURN_ACTOR","inputs":[],"outputs":[{"name":"","type":"address","internalType":"address"}],"stateMutability":"view"},{"type":"function","name":"EXTRA_DATA_MAX_SIZE","inputs":[],"outputs":[{"name":"","type":"uint256","internalType":"uint256"}],"stateMutability":"view"},{"type":"function","name":"LEAF_SIZE","inputs":[],"outputs":[{"name":"","type":"uint256","internalType":"uint256"}],"stateMutability":"view"},{"type":"function","name":"MAX_ENQUEUED_REMOVALS","inputs":[],"outputs":[{"name":"","type":"uint256","internalType":"uint256"}],"stateMutability":"view"},{"type":"function","name":"MAX_ROOT_SIZE","inputs":[],"outputs":[{"name":"","type":"uint256","internalType":"uint256"}],"stateMutability":"view"},{"type":"function","name":"RANDOMNESS_PRECOMPILE","inputs":[],"outputs":[{"name":"","type":"address","internalType":"address"}],"stateMutability":"view"},{"type":"function","name":"UPGRADE_INTERFACE_VERSION","inputs":[],"outputs":[{"name":"","type":"string","internalType":"string"}],"stateMutability":"view"},{"type":"function","name":"addRoots","inputs":[{"name":"setId","type":"uint256","internalType":"uint256"},{"name":"rootData","type":"tuple[]","internalType":"struct PDPVerifier.RootData[]","components":[{"name":"root","type":"tuple","internalType":"struct Cids.Cid","components":[{"name":"data","type":"bytes","internalType":"bytes"}]},{"name":"rawSize","type":"uint256","internalType":"uint256"}]},{"name":"extraData","type":"bytes","internalType":"bytes"}],"outputs":[{"name":"","type":"uint256","internalType":"uint256"}],"stateMutability":"nonpayable"},{"type":"function","name":"claimProofSetOwnership","inputs":[{"name":"setId","type":"uint256","internalType":"uint256"}],"outputs":[],"stateMutability":"nonpayable"},{"type":"function","name":"createProofSet","inputs":[{"name":"listenerAddr","type":"address","internalType":"address"},{"name":"extraData","type":"bytes","internalType":"bytes"}],"outputs":[{"name":"","type":"uint256","internalType":"uint256"}],"stateMutability":"payable"},{"type":"function","name":"deleteProofSet","inputs":[{"name":"setId","type":"uint256","internalType":"uint256"},{"name":"extraData","type":"bytes","internalType":"bytes"}],"outputs":[],"stateMutability":"nonpayable"},{"type":"function","name":"findRootIds","inputs":[{"name":"setId","type":"uint256","internalType":"uint256"},{"name":"leafIndexs","type":"uint256[]","internalType":"uint256[]"}],"outputs":[{"name":"","type":"tuple[]","internalType":"struct PDPVerifier.RootIdAndOffset[]","components":[{"name":"rootId","type":"uint256","internalType":"uint256"},{"name":"offset","type":"uint256","internalType":"uint256"}]}],"stateMutability":"view"},{"type":"function","name":"getChallengeFinality","inputs":[],"outputs":[{"name":"","type":"uint256","internalType":"uint256"}],"stateMutability":"view"},{"type":"function","name":"getChallengeRange","inputs":[{"name":"setId","type":"uint256","internalType":"uint256"}],"outputs":[{"name":"","type":"uint256","internalType":"uint256"}],"stateMutability":"view"},{"type":"function","name":"getNextChallengeEpoch","inputs":[{"name":"setId","type":"uint256","internalType":"uint256"}],"outputs":[{"name":"","type":"uint256","internalType":"uint256"}],"stateMutability":"view"},{"type":"function","name":"getNextProofSetId","inputs":[],"outputs":[{"name":"","type":"uint64","internalType":"uint64"}],"stateMutability":"view"},{"type":"function","name":"getNextRootId","inputs":[{"name":"setId","type":"uint256","internalType":"uint256"}],"outputs":[{"name":"","type":"uint256","internalType":"uint256"}],"stateMutability":"view"},{"type":"function","name":"getProofSetLeafCount","inputs":[{"name":"setId","type":"uint256","internalType":"uint256"}],"outputs":[{"name":"","type":"uint256","internalType":"uint256"}],"stateMutability":"view"},{"type":"function","name":"getProofSetOwner","inputs":[{"name":"setId","type":"uint256","internalType":"uint256"}],"outputs":[{"name":"","type":"address","internalType":"address"},{"name":"","type":"address","internalType":"address"}],"stateMutability":"view"},{"type":"function","name":"getRandomness","inputs":[{"name":"epoch","type":"uint256","internalType":"uint256"}],"outputs":[{"name":"","type":"uint256","internalType":"uint256"}],"stateMutability":"view"},{"type":"function","name":"getRootCid","inputs":[{"name":"setId","type":"uint256","internalType":"uint256"},{"name":"rootId","type":"uint256","internalType":"uint256"}],"outputs":[{"name":"","type":"tuple","internalType":"struct Cids.Cid","components":[{"name":"data","type":"bytes","internalType":"bytes"}]}],"stateMutability":"view"},{"type":"function","name":"getRootLeafCount","inputs":[{"name":"setId","type":"uint256","internalType":"uint256"},{"name":"rootId","type":"uint256","internalType":"uint256"}],"outputs":[{"name":"","type":"uint256","internalType":"uint256"}],"stateMutability":"view"},{"type":"function","name":"getScheduledRemovals","inputs":[{"name":"setId","type":"uint256","internalType":"uint256"}],"outputs":[{"name":"","type":"uint256[]","internalType":"uint256[]"}],"stateMutability":"view"},{"type":"function","name":"initialize","inputs":[{"name":"_challengeFinality","type":"uint256","internalType":"uint256"}],"outputs":[],"stateMutability":"nonpayable"},{"type":"function","name":"nextProvingPeriod","inputs":[{"name":"setId","type":"uint256","internalType":"uint256"},{"name":"challengeEpoch","type":"uint256","internalType":"uint256"},{"name":"extraData","type":"bytes","internalType":"bytes"}],"outputs":[],"stateMutability":"nonpayable"},{"type":"function","name":"owner","inputs":[],"outputs":[{"name":"","type":"address","internalType":"address"}],"stateMutability":"view"},{"type":"function","name":"proofSetLive","inputs":[{"name":"setId","type":"uint256","internalType":"uint256"}],"outputs":[{"name":"","type":"bool","internalType":"bool"}],"stateMutability":"view"},{"type":"function","name":"proposeProofSetOwner","inputs":[{"name":"setId","type":"uint256","internalType":"uint256"},{"name":"newOwner","type":"address","internalType":"address"}],"outputs":[],"stateMutability":"nonpayable"},{"type":"function","name":"provePossession","inputs":[{"name":"setId","type":"uint256","internalType":"uint256"},{"name":"proofs","type":"tuple[]","internalType":"struct PDPVerifier.Proof[]","components":[{"name":"leaf","type":"bytes32","internalType":"bytes32"},{"name":"proof","type":"bytes32[]","internalType":"bytes32[]"}]}],"outputs":[],"stateMutability":"payable"},{"type":"function","name":"proxiableUUID","inputs":[],"outputs":[{"name":"","type":"bytes32","internalType":"bytes32"}],"stateMutability":"view"},{"type":"function","name":"renounceOwnership","inputs":[],"outputs":[],"stateMutability":"nonpayable"},{"type":"function","name":"rootChallengable","inputs":[{"name":"setId","type":"uint256","internalType":"uint256"},{"name":"rootId","type":"uint256","internalType":"uint256"}],"outputs":[{"name":"","type":"bool","internalType":"bool"}],"stateMutability":"view"},{"type":"function","name":"rootLive","inputs":[{"name":"setId","type":"uint256","internalType":"uint256"},{"name":"rootId","type":"uint256","internalType":"uint256"}],"outputs":[{"name":"","type":"bool","internalType":"bool"}],"stateMutability":"view"},{"type":"function","name":"scheduleRemovals","inputs":[{"name":"setId","type":"uint256","internalType":"uint256"},{"name":"rootIds","type":"uint256[]","internalType":"uint256[]"},{"name":"extraData","type":"bytes","internalType":"bytes"}],"outputs":[],"stateMutability":"nonpayable"},{"type":"function","name":"transferOwnership","inputs":[{"name":"newOwner","type":"address","internalType":"address"}],"outputs":[],"stateMutability":"nonpayable"},{"type":"function","name":"upgradeToAndCall","inputs":[{"name":"newImplementation","type":"address","internalType":"address"},{"name":"data","type":"bytes","internalType":"bytes"}],"outputs":[],"stateMutability":"payable"},{"type":"event","name":"Debug","inputs":[{"name":"message","type":"string","indexed":false,"internalType":"string"},{"name":"value","type":"uint256","indexed":false,"internalType":"uint256"}],"anonymous":false},{"type":"event","name":"Initialized","inputs":[{"name":"version","type":"uint64","indexed":false,"internalType":"uint64"}],"anonymous":false},{"type":"event","name":"OwnershipTransferred","inputs":[{"name":"previousOwner","type":"address","indexed":true,"internalType":"address"},{"name":"newOwner","type":"address","indexed":true,"internalType":"address"}],"anonymous":false},{"type":"event","name":"ProofSetCreated","inputs":[{"name":"setId","type":"uint256","indexed":true,"internalType":"uint256"}],"anonymous":false},{"type":"event","name":"ProofSetDeleted","inputs":[{"name":"setId","type":"uint256","indexed":true,"internalType":"uint256"},{"name":"deletedLeafCount","type":"uint256","indexed":false,"internalType":"uint256"}],"anonymous":false},{"type":"event","name":"RootsAdded","inputs":[{"name":"firstAdded","type":"uint256","indexed":true,"internalType":"uint256"}],"anonymous":false},{"type":"event","name":"RootsRemoved","inputs":[{"name":"rootIds","type":"uint256[]","indexed":true,"internalType":"uint256[]"}],"anonymous":false},{"type":"event","name":"Upgraded","inputs":[{"name":"implementation","type":"address","indexed":true,"internalType":"address"}],"anonymous":false},{"type":"error","name":"AddressEmptyCode","inputs":[{"name":"target","type":"address","internalType":"address"}]},{"type":"error","name":"ERC1967InvalidImplementation","inputs":[{"name":"implementation","type":"address","internalType":"address"}]},{"type":"error","name":"ERC1967NonPayable","inputs":[]},{"type":"error","name":"FailedCall","inputs":[]},{"type":"error","name":"IndexedError","inputs":[{"name":"idx","type":"uint256","internalType":"uint256"},{"name":"msg","type":"string","internalType":"string"}]},{"type":"error","name":"InvalidInitialization","inputs":[]},{"type":"error","name":"NotInitializing","inputs":[]},{"type":"error","name":"OwnableInvalidOwner","inputs":[{"name":"owner","type":"address","internalType":"address"}]},{"type":"error","name":"OwnableUnauthorizedAccount","inputs":[{"name":"account","type":"address","internalType":"address"}]},{"type":"error","name":"UUPSUnauthorizedCallContext","inputs":[]},{"type":"error","name":"UUPSUnsupportedProxiableUUID","inputs":[{"name":"slot","type":"bytes32","internalType":"bytes32"}]}],"bytecode":{"object":"0x60a0604052306080523480156200001557600080fd5b506200002062000026565b620000da565b7ff0c57e16840df040f15088dc2f81fe391c3923bec73e23a9662efc9c229c6a00805468010000000000000000900460ff1615620000775760405163f92ee8a960e01b815260040160405180910390fd5b80546001600160401b0390811614620000d75780546001600160401b0319166001600160401b0390811782556040519081527fc7f505b2f371ae2175ee4913f4499e1f2633a7b5936321eed1cdaeb6115181d29060200160405180910390a15b50565b608051613c7262000104600039600081816126cd015281816126f601526128370152613c726000f3fe60806040526004361061020f5760003560e01c80636fa4469211610118578063ad3cb1cc116100a0578063f2fde38b1161006f578063f2fde38b1461065d578063f58f952b1461067d578063f5cac1ba14610690578063f83758fe146106b0578063fe4b84df146106c557600080fd5b8063ad3cb1cc146105ca578063c0e1594914610608578063d49245c11461061d578063ee3dac651461063d57600080fd5b806389208ba9116100e757806389208ba91461050f5780638da5cb5b1461052f5780638ea417e51461056c5780639153e64b146105945780639f8cb3bd146105b457600080fd5b80636fa446921461048d578063715018a6146104ba57806371cf2a16146104cf578063847d1d06146104ef57600080fd5b80633f84135f1161019b578063473310501161016a57806347331050146103f55780634f1ef2861461042557806352d1902d146104385780636ba4608f1461044d5780636cb55c161461046d57600080fd5b80633f84135f14610355578063453f4f621461037557806345c0b92d146103955780634726075b146103b557600080fd5b806311c0ee4a116101e257806311c0ee4a146102b057806315b17570146102d057806316e2bcd5146102eb5780633b68e4e9146103065780633b7ae9131461032857600080fd5b8063029b4646146102145780630528a55b1461023d5780630a4d79321461026a5780630a6a63f11461027d575b600080fd5b34801561022057600080fd5b5061022a61020081565b6040519081526020015b60405180910390f35b34801561024957600080fd5b5061025d6102583660046131ee565b6106e5565b6040516102349190613239565b61022a6102783660046132e5565b6107d0565b34801561028957600080fd5b50610298606360ff60981b0181565b6040516001600160a01b039091168152602001610234565b3480156102bc57600080fd5b5061022a6102cb36600461332a565b6109c0565b3480156102dc57600080fd5b506102986006607f60991b0181565b3480156102f757600080fd5b5061022a660400000000000081565b34801561031257600080fd5b5061032661032136600461332a565b610c44565b005b34801561033457600080fd5b506103486103433660046133a3565b610f03565b6040516102349190613415565b34801561036157600080fd5b5061022a610370366004613430565b610ff6565b34801561038157600080fd5b5061022a610390366004613430565b611030565b3480156103a157600080fd5b506103266103b0366004613449565b61112b565b3480156103c157600080fd5b506103d56103d0366004613430565b611428565b604080516001600160a01b03938416815292909116602083015201610234565b34801561040157600080fd5b506104156104103660046133a3565b61147e565b6040519015158152602001610234565b6103266104333660046134b1565b6114c9565b34801561044457600080fd5b5061022a6114e8565b34801561045957600080fd5b5061022a610468366004613430565b611505565b34801561047957600080fd5b50610326610488366004613572565b61153f565b34801561049957600080fd5b506104ad6104a8366004613430565b611648565b604051610234919061359e565b3480156104c657600080fd5b5061032661171b565b3480156104db57600080fd5b506104156104ea3660046133a3565b61172f565b3480156104fb57600080fd5b5061032661050a3660046135e2565b611844565b34801561051b57600080fd5b5061022a61052a366004613430565b611a26565b34801561053b57600080fd5b507f9016d09d72d40fdae2fd8ceac6b6234c7706214fd39c1cd1e609a0528c199300546001600160a01b0316610298565b34801561057857600080fd5b506001546040516001600160401b039091168152602001610234565b3480156105a057600080fd5b5061022a6105af3660046133a3565b611a60565b3480156105c057600080fd5b5061022a6107d081565b3480156105d657600080fd5b506105fb604051806040016040528060058152602001640352e302e360dc1b81525081565b6040516102349190613614565b34801561061457600080fd5b5061022a602081565b34801561062957600080fd5b5061022a610638366004613430565b611aa5565b34801561064957600080fd5b50610326610658366004613430565b611adf565b34801561066957600080fd5b50610326610678366004613627565b611bb3565b61032661068b3660046131ee565b611bf1565b34801561069c57600080fd5b506104156106ab366004613430565b611f6b565b3480156106bc57600080fd5b5060005461022a565b3480156106d157600080fd5b506103266106e0366004613430565b611fa1565b60008381526005602052604081205460609190610701906120bb565b61070d90610100613658565b90506000836001600160401b038111156107295761072961349b565b60405190808252806020026020018201604052801561076e57816020015b60408051808201909152600080825260208201528152602001906001900390816107475790505b50905060005b848110156107c45761079f878787848181106107925761079261366b565b90506020020135856121ab565b8282815181106107b1576107b161366b565b6020908102919091010152600101610774565b509150505b9392505050565b60006102008211156107fd5760405162461bcd60e51b81526004016107f490613681565b60405180910390fd5b601b348111156108435760405162461bcd60e51b81526020600482015260116024820152701cde589a5b08199959481b9bdd081b595d607a1b60448201526064016107f4565b61084c81612393565b8034111561088c57336108fc6108628334613658565b6040518115909202916000818181858888f1935050505015801561088a573d6000803e3d6000fd5b505b600180546000916001600160401b0390911690826108a9836136af565b82546001600160401b039182166101009390930a92830292820219169190911790915516600081815260066020908152604080832083905560078252808320839055600b825280832080546001600160a01b03199081163317909155600890925290912080546001600160a01b038a169216821790559091501561098c57604051634a6a0d9b60e11b81526001600160a01b038716906394d41b369061095990849033908a908a906004016136fe565b600060405180830381600087803b15801561097357600080fd5b505af1158015610987573d6000803e3d6000fd5b505050505b60405181907f5979d495e336598dba8459e44f8eb2a1c957ce30fcc10cabea4bb0ffe969df6a90600090a295945050505050565b60006102008211156109e45760405162461bcd60e51b81526004016107f490613681565b6109ed86611f6b565b610a095760405162461bcd60e51b81526004016107f490613733565b83610a565760405162461bcd60e51b815260206004820152601a60248201527f4d75737420616464206174206c65617374206f6e6520726f6f7400000000000060448201526064016107f4565b6000868152600b60205260409020546001600160a01b03163314610abc5760405162461bcd60e51b815260206004820152601c60248201527f4f6e6c7920746865206f776e65722063616e2061646420726f6f74730000000060448201526064016107f4565b60008681526007602090815260408083205460059092528220549015915b86811015610b4b57610b4289828a8a85818110610af957610af961366b565b9050602002810190610b0b919061375f565b610b15908061377f565b8b8b86818110610b2757610b2761366b565b9050602002810190610b39919061375f565b60200135612467565b50600101610ada565b508115610b8657600054610b5f9043613795565b60008981526007602090815260408083209390935560068152828220546009909152919020555b6000888152600860205260409020546001600160a01b03168015610c0d576040516312d5d66f60e01b81526001600160a01b038216906312d5d66f90610bda908c9086908d908d908d908d906004016137a8565b600060405180830381600087803b158015610bf457600080fd5b505af1158015610c08573d6000803e3d6000fd5b505050505b60405182907fde16f8a35fc44238b21a493b7267f7a5064f2bc1b3a1af51deeb4b5a47281d4790600090a250979650505050505050565b610200811115610c665760405162461bcd60e51b81526004016107f490613681565b610c6f85611f6b565b610c8b5760405162461bcd60e51b81526004016107f490613733565b6000858152600b60205260409020546001600160a01b03163314610d065760405162461bcd60e51b815260206004820152602c60248201527f4f6e6c7920746865206f776e65722063616e207363686564756c652072656d6f60448201526b76616c206f6620726f6f747360a01b60648201526084016107f4565b6000858152600a60205260409020546107d090610d239085613795565b1115610d975760405162461bcd60e51b815260206004820152603a60248201527f546f6f206d616e792072656d6f76616c73207761697420666f72206e6578742060448201527f70726f76696e6720706572696f6420746f207363686564756c6500000000000060648201526084016107f4565b60005b83811015610e7557600086815260056020526040902054858583818110610dc357610dc361366b565b9050602002013510610e2b5760405162461bcd60e51b815260206004820152602b60248201527f43616e206f6e6c79207363686564756c652072656d6f76616c206f662065786960448201526a7374696e6720726f6f747360a81b60648201526084016107f4565b6000868152600a60205260409020858583818110610e4b57610e4b61366b565b83546001808201865560009586526020958690209290950293909301359201919091555001610d9a565b506000858152600860205260409020546001600160a01b03168015610efb5760405163257be8e960e11b81526001600160a01b03821690634af7d1d290610ec890899089908990899089906004016138b4565b600060405180830381600087803b158015610ee257600080fd5b505af1158015610ef6573d6000803e3d6000fd5b505050505b505050505050565b604080516020810190915260608152610f1b83611f6b565b610f375760405162461bcd60e51b81526004016107f490613733565b60008381526002602090815260408083208584528252918290208251918201909252815490919082908290610f6b9061390e565b80601f0160208091040260200160405190810160405280929190818152602001828054610f979061390e565b8015610fe45780601f10610fb957610100808354040283529160200191610fe4565b820191906000526020600020905b815481529060010190602001808311610fc757829003601f168201915b50505050508152505090505b92915050565b600061100182611f6b565b61101d5760405162461bcd60e51b81526004016107f490613733565b5060009081526006602052604090205490565b60008060006006607f60991b016001600160a01b03168460405160200161105991815260200190565b60408051601f198184030181529082905261107391613948565b600060405180830381855afa9150503d80600081146110ae576040519150601f19603f3d011682016040523d82523d6000602084013e6110b3565b606091505b50915091508161110f5760405162461bcd60e51b815260206004820152602160248201527f52616e646f6d6e65737320707265636f6d70696c652063616c6c206661696c656044820152601960fa1b60648201526084016107f4565b80806020019051810190611123919061395a565b949350505050565b61020081111561114d5760405162461bcd60e51b81526004016107f490613681565b6000848152600b60205260409020546001600160a01b031633146111ca5760405162461bcd60e51b815260206004820152602e60248201527f6f6e6c7920746865206f776e65722063616e206d6f766520746f206e6578742060448201526d1c1c9bdd9a5b99c81c195c9a5bd960921b60648201526084016107f4565b6000848152600a6020526040812080549091906001600160401b038111156111f4576111f461349b565b60405190808252806020026020018201604052801561121d578160200160208202803683370190505b50905060005b81518110156112a5578254839061123c90600190613658565b8154811061124c5761124c61366b565b90600052602060002001548282815181106112695761126961366b565b6020026020010181815250508280548061128557611285613973565b600082815260208120820160001990810191909155019055600101611223565b506112b08682612630565b6000868152600660209081526040808320546009909252822055546112d54387613658565b10156113595760405162461bcd60e51b815260206004820152604760248201527f6368616c6c656e67652065706f6368206d757374206265206174206c6561737460448201527f206368616c6c656e676546696e616c6974792065706f63687320696e207468656064820152662066757475726560c81b608482015260a4016107f4565b60008681526007602090815260408083208890556006909152812054900361138b576000868152600760205260408120555b6000868152600860205260409020546001600160a01b0316801561141f5760008781526006602052604090819020549051632a89faf360e21b81526001600160a01b0383169163aa27ebcc916113ec918b918b91908b908b90600401613989565b600060405180830381600087803b15801561140657600080fd5b505af115801561141a573d6000803e3d6000fd5b505050505b50505050505050565b60008061143483611f6b565b6114505760405162461bcd60e51b81526004016107f490613733565b50506000908152600b6020908152604080832054600c909252909120546001600160a01b0391821692911690565b600061148983611f6b565b80156114a2575060008381526005602052604090205482105b80156107c95750506000918252600360209081526040808420928452919052902054151590565b6114d16126c2565b6114da82612767565b6114e4828261276f565b5050565b60006114f261282c565b50600080516020613c1d83398151915290565b600061151082611f6b565b61152c5760405162461bcd60e51b81526004016107f490613733565b5060009081526007602052604090205490565b61154882611f6b565b6115645760405162461bcd60e51b81526004016107f490613733565b6000828152600b60205260409020546001600160a01b03163381146115e25760405162461bcd60e51b815260206004820152602e60248201527f4f6e6c79207468652063757272656e74206f776e65722063616e2070726f706f60448201526d39b29030903732bb9037bbb732b960911b60648201526084016107f4565b816001600160a01b0316816001600160a01b03160361161b5750506000908152600c6020526040902080546001600160a01b0319169055565b6000838152600c6020526040902080546001600160a01b0319166001600160a01b0384161790555b505050565b606061165382611f6b565b61166f5760405162461bcd60e51b81526004016107f490613733565b6000828152600a6020526040812080549091906001600160401b038111156116995761169961349b565b6040519080825280602002602001820160405280156116c2578160200160208202803683370190505b50905060005b8254811015611713578281815481106116e3576116e361366b565b90600052602060002001548282815181106117005761170061366b565b60209081029190910101526001016116c8565b509392505050565b611723612875565b61172d60006128d0565b565b6000828152600560205260408120548190611749906120bb565b61175590610100613658565b6000858152600960205260408120549192509061178090869061177a90600190613658565b846121ab565b6000868152600360209081526040808320845184529091529020549091506117aa90600190613658565b816020015114611824576040805162461bcd60e51b81526020600482015260248101919091527f6368616c6c656e676552616e6765202d312073686f756c6420616c69676e207760448201527f697468207468652076657279206c617374206c656166206f66206120726f6f7460648201526084016107f4565b61182e858561147e565b801561183b575080518411155b95945050505050565b6102008111156118665760405162461bcd60e51b81526004016107f490613681565b6001546001600160401b031683106118c05760405162461bcd60e51b815260206004820152601a60248201527f70726f6f6620736574206964206f7574206f6620626f756e647300000000000060448201526064016107f4565b6000838152600b60205260409020546001600160a01b031633146119325760405162461bcd60e51b8152602060048201526024808201527f4f6e6c7920746865206f776e65722063616e2064656c6574652070726f6f66206044820152637365747360e01b60648201526084016107f4565b6000838152600660209081526040808320805490849055600b835281842080546001600160a01b0319169055600783528184208490556008909252909120546001600160a01b031680156119e5576040516326c249e360e01b81526001600160a01b038216906326c249e3906119b29088908690899089906004016139ba565b600060405180830381600087803b1580156119cc57600080fd5b505af11580156119e0573d6000803e3d6000fd5b505050505b847f589e9a441b5bddda77c4ab647b0108764a9cc1a7f655aa9b7bc50b8bdfab867383604051611a1791815260200190565b60405180910390a25050505050565b6000611a3182611f6b565b611a4d5760405162461bcd60e51b81526004016107f490613733565b5060009081526009602052604090205490565b6000611a6b83611f6b565b611a875760405162461bcd60e51b81526004016107f490613733565b50600091825260036020908152604080842092845291905290205490565b6000611ab082611f6b565b611acc5760405162461bcd60e51b81526004016107f490613733565b5060009081526005602052604090205490565b611ae881611f6b565b611b045760405162461bcd60e51b81526004016107f490613733565b6000818152600c60205260409020546001600160a01b03163314611b7e5760405162461bcd60e51b815260206004820152602b60248201527f4f6e6c79207468652070726f706f736564206f776e65722063616e20636c616960448201526a06d206f776e6572736869760ac1b60648201526084016107f4565b6000908152600b6020908152604080832080546001600160a01b03199081163317909155600c90925290912080549091169055565b611bbb612875565b6001600160a01b038116611be557604051631e4fbdf760e01b8152600060048201526024016107f4565b611bee816128d0565b50565b60008381526007602052604090205443811115611c425760405162461bcd60e51b815260206004820152600f60248201526e383932b6b0ba3ab93290383937b7b360891b60448201526064016107f4565b81611c7d5760405162461bcd60e51b815260206004820152600b60248201526a32b6b83a3c90383937b7b360a91b60448201526064016107f4565b6000611c8883612941565b9050611c9381612393565b80341115611cd357336108fc611ca98334613658565b6040518115909202916000818181858888f19350505050158015611cd1573d6000803e3d6000fd5b505b6000611cde86612980565b600087815260096020908152604080832054600590925282205492935091611d05906120bb565b611d1190610100613658565b905060005b6001600160401b038116871115611ec05760408051602081018690529081018a90526001600160c01b031960c083901b1660608201526000906068016040516020818303038152906040529050600084828051906020012060001c611d7b91906139f0565b90506000611d8a8c83876121ab565b90506000611da4611d9f8e8460000151610f03565b612998565b90506000611e628d8d886001600160401b0316818110611dc657611dc661366b565b9050602002810190611dd8919061375f565b611de6906020810190613a04565b80806020026020016040519081016040528093929190818152602001838360200280828437600081840152601f19601f82011690508083019250505050505050838f8f8a6001600160401b0316818110611e4257611e4261366b565b9050602002810190611e54919061375f565b600001358660200151612a87565b905080611ea85760405162461bcd60e51b815260206004820152601460248201527370726f6f6620646964206e6f742076657269667960601b60448201526064016107f4565b50505050508080611eb8906136af565b915050611d16565b506000888152600860205260409020546001600160a01b03168015611f60576000898152600660205260409081902054905163b875f8ff60e01b8152600481018b9052602481019190915260448101859052606481018890526001600160a01b0382169063b875f8ff90608401600060405180830381600087803b158015611f4757600080fd5b505af1158015611f5b573d6000803e3d6000fd5b505050505b505050505050505050565b6001546000906001600160401b031682108015610ff05750506000908152600b60205260409020546001600160a01b0316151590565b7ff0c57e16840df040f15088dc2f81fe391c3923bec73e23a9662efc9c229c6a008054600160401b810460ff1615906001600160401b0316600081158015611fe65750825b90506000826001600160401b031660011480156120025750303b155b905081158015612010575080155b1561202e5760405163f92ee8a960e01b815260040160405180910390fd5b845467ffffffffffffffff19166001178555831561205857845460ff60401b1916600160401b1785555b61206133612a9f565b612069612ab0565b60008690558315610efb57845460ff60401b19168555604051600181527fc7f505b2f371ae2175ee4913f4499e1f2633a7b5936321eed1cdaeb6115181d29060200160405180910390a1505050505050565b6000610100608083901c80156120dc576120d6608083613658565b91508093505b50604083901c80156120f9576120f3604083613658565b91508093505b50602083901c801561211657612110602083613658565b91508093505b50601083901c80156121335761212d601083613658565b91508093505b50600883901c80156121505761214a600883613658565b91508093505b50600483901c801561216d57612167600483613658565b91508093505b50600283901c801561218a57612184600283613658565b91508093505b50600183901c80156121a157611123600283613658565b6111238483613658565b6040805180820190915260008082526020820152600084815260066020526040902054831061221c5760405162461bcd60e51b815260206004820152601860248201527f4c65616620696e646578206f7574206f6620626f756e6473000000000000000060448201526064016107f4565b600061222b600180851b613658565b9050600080845b801561230757600088815260056020526040902054841061226d57612258600182613658565b612266906001901b85613658565b93506122f5565b60008881526004602090815260408083208784529091529020546122919084613795565b91508682116122d95760008881526004602090815260408083208784529091529020546122be9084613795565b92506122cb600182613658565b612266906001901b85613795565b6122e4600182613658565b6122f2906001901b85613658565b93505b806122ff81613a4d565b915050612232565b50600087815260046020908152604080832086845290915290205461232c9083613795565b905085811161236957604051806040016040528084600161234d9190613795565b815260200161235c8389613658565b81525093505050506107c9565b604051806040016040528084815260200183886123869190613658565b9052979650505050505050565b803410156123da5760405162461bcd60e51b8152602060048201526014602482015273125b98dbdc9c9958dd0819995948185b5bdd5b9d60621b60448201526064016107f4565b604051600090606360ff60981b019083908381818185875af1925050503d8060008114612423576040519150601f19603f3d011682016040523d82523d6000602084013e612428565b606091505b50509050806114e45760405162461bcd60e51b815260206004820152600b60248201526a109d5c9b8819985a5b195960aa1b60448201526064016107f4565b60006124746020836139f0565b156124cb578360405163c7b67cf360e01b81526004016107f4918152604060208201819052601d908201527f53697a65206d7573742062652061206d756c7469706c65206f66203332000000606082015260800190565b81600003612525578360405163c7b67cf360e01b81526004016107f4918152604060208201819052601b908201527f53697a65206d7573742062652067726561746572207468616e20300000000000606082015260800190565b6604000000000000821115612585578360405163c7b67cf360e01b81526004016107f491815260406020808301829052908201527f526f6f742073697a65206d757374206265206c657373207468616e20325e3530606082015260800190565b6000612592602084613a64565b60008781526005602052604081208054929350909190826125b283613a78565b9190505590506125c3878383612ab8565b6000878152600260209081526040808320848452909152902085906125e88282613ad9565b505060008781526003602090815260408083208484528252808320859055898352600690915281208054849290612620908490613795565b9091555090979650505050505050565b61263982611f6b565b6126555760405162461bcd60e51b81526004016107f490613733565b6000805b825181101561269957612685848483815181106126785761267861366b565b6020026020010151612b38565b61268f9083613795565b9150600101612659565b50600083815260066020526040812080548392906126b8908490613658565b9091555050505050565b306001600160a01b037f000000000000000000000000000000000000000000000000000000000000000016148061274957507f00000000000000000000000000000000000000000000000000000000000000006001600160a01b031661273d600080516020613c1d833981519152546001600160a01b031690565b6001600160a01b031614155b1561172d5760405163703e46dd60e11b815260040160405180910390fd5b611bee612875565b816001600160a01b03166352d1902d6040518163ffffffff1660e01b8152600401602060405180830381865afa9250505080156127c9575060408051601f3d908101601f191682019092526127c69181019061395a565b60015b6127f157604051634c9c8ce360e01b81526001600160a01b03831660048201526024016107f4565b600080516020613c1d833981519152811461282257604051632a87526960e21b8152600481018290526024016107f4565b6116438383612ba0565b306001600160a01b037f0000000000000000000000000000000000000000000000000000000000000000161461172d5760405163703e46dd60e11b815260040160405180910390fd5b336128a77f9016d09d72d40fdae2fd8ceac6b6234c7706214fd39c1cd1e609a0528c199300546001600160a01b031690565b6001600160a01b03161461172d5760405163118cdaa760e01b81523360048201526024016107f4565b7f9016d09d72d40fdae2fd8ceac6b6234c7706214fd39c1cd1e609a0528c19930080546001600160a01b031981166001600160a01b03848116918217845560405192169182907f8be0079c531659141344cd1fd0a4f28419497f9722a3daafe3b4186f6b6457e090600090a3505050565b6000806003481115612954575048612958565b5060035b60008161296885621e8480613bc5565b6129729190613bc5565b9050606461183b8183613a64565b600081815260076020526040812054610ff090611030565b6000602082600001515110156129e85760405162461bcd60e51b815260206004820152601560248201527410da590819185d18481a5cc81d1bdbc81cda1bdc9d605a1b60448201526064016107f4565b60408051602080825281830190925260009160208201818036833701905050905060005b6020811015612a7d57835180518290612a2790602090613658565b612a319190613795565b81518110612a4157612a4161366b565b602001015160f81c60f81b828281518110612a5e57612a5e61366b565b60200101906001600160f81b031916908160001a905350600101612a0c565b506107c981613bdc565b600083612a95868585612bf6565b1495945050505050565b612aa7612c73565b611bee81612cbc565b61172d612c73565b806000612ac482612cc4565b90508360005b82811015612b13576000612ae16001831b86613658565b6000898152600460209081526040808320848452909152902054909150612b089084613795565b925050600101612aca565b5060009586526004602090815260408088209588529490529290942091909155505050565b6000828152600360209081526040808320848452909152812054612b5d848483612cd9565b6000848152600360209081526040808320868452825280832083905586835260028252808320868452909152812090612b968282613155565b5090949350505050565b612ba982612d84565b6040516001600160a01b038316907fbc7cd75a20ee27fd9adebab32041f755214dbc6bffa90cc0225b39da2e5c2d3b90600090a2805115612bee576116438282612de9565b6114e4612e56565b600082815b8551811015612c6a576000868281518110612c1857612c1861366b565b60200260200101519050600285612c2f91906139f0565b600003612c4757612c408382612e75565b9250612c54565b612c518184612e75565b92505b612c5f600286613a64565b945050600101612bfb565b50949350505050565b7ff0c57e16840df040f15088dc2f81fe391c3923bec73e23a9662efc9c229c6a0054600160401b900460ff1661172d57604051631afcd79f60e31b815260040160405180910390fd5b611bbb612c73565b6000610ff0612cd4836001613795565b612e81565b600083815260056020526040812054612cf1906120bb565b612cfd90610100613658565b90506000612d0a84612cc4565b90505b818111158015612d2a575060008581526005602052604090205484105b15612d7d57600085815260046020908152604080832087845290915281208054859290612d58908490613658565b90915550612d6b90506001821b85613795565b9350612d7684612cc4565b9050612d0d565b5050505050565b806001600160a01b03163b600003612dba57604051634c9c8ce360e01b81526001600160a01b03821660048201526024016107f4565b600080516020613c1d83398151915280546001600160a01b0319166001600160a01b0392909216919091179055565b6060600080846001600160a01b031684604051612e069190613948565b600060405180830381855af49150503d8060008114612e41576040519150601f19603f3d011682016040523d82523d6000602084013e612e46565b606091505b509150915061183b8583836130a3565b341561172d5760405163b398979f60e01b815260040160405180910390fd5b60006107c983836130ff565b60006001600160ff1b03821115612ee55760405162461bcd60e51b815260206004820152602260248201527f496e7075742065786365656473206d6178696d756d20696e743235362076616c604482015261756560f01b60648201526084016107f4565b6101006000612ef384613c00565b841690508015612f0b5781612f0781613a4d565b9250505b6fffffffffffffffffffffffffffffffff811615612f3157612f2e608083613658565b91505b77ffffffffffffffff0000000000000000ffffffffffffffff811615612f5f57612f5c604083613658565b91505b7bffffffff00000000ffffffff00000000ffffffff00000000ffffffff811615612f9157612f8e602083613658565b91505b7dffff0000ffff0000ffff0000ffff0000ffff0000ffff0000ffff0000ffff811615612fc557612fc2601083613658565b91505b7eff00ff00ff00ff00ff00ff00ff00ff00ff00ff00ff00ff00ff00ff00ff00ff811615612ffa57612ff7600883613658565b91505b7f0f0f0f0f0f0f0f0f0f0f0f0f0f0f0f0f0f0f0f0f0f0f0f0f0f0f0f0f0f0f0f0f8116156130305761302d600483613658565b91505b7f333333333333333333333333333333333333333333333333333333333333333381161561306657613063600283613658565b91505b7f555555555555555555555555555555555555555555555555555555555555555581161561309c57613099600183613658565b91505b5092915050565b6060826130b8576130b38261312c565b6107c9565b81511580156130cf57506001600160a01b0384163b155b156130f857604051639996b31560e01b81526001600160a01b03851660048201526024016107f4565b50806107c9565b60008260005281602052602060006040600060025afa61311e57600080fd5b505060005160c01916919050565b80511561313c5780518082602001fd5b60405163d6bda27560e01b815260040160405180910390fd5b5080546131619061390e565b6000825580601f10613171575050565b601f016020900490600052602060002090810190611bee91905b8082111561319f576000815560010161318b565b5090565b60008083601f8401126131b557600080fd5b5081356001600160401b038111156131cc57600080fd5b6020830191508360208260051b85010111156131e757600080fd5b9250929050565b60008060006040848603121561320357600080fd5b8335925060208401356001600160401b0381111561322057600080fd5b61322c868287016131a3565b9497909650939450505050565b602080825282518282018190526000919060409081850190868401855b8281101561327b57815180518552860151868501529284019290850190600101613256565b5091979650505050505050565b80356001600160a01b038116811461329f57600080fd5b919050565b60008083601f8401126132b657600080fd5b5081356001600160401b038111156132cd57600080fd5b6020830191508360208285010111156131e757600080fd5b6000806000604084860312156132fa57600080fd5b61330384613288565b925060208401356001600160401b0381111561331e57600080fd5b61322c868287016132a4565b60008060008060006060868803121561334257600080fd5b8535945060208601356001600160401b038082111561336057600080fd5b61336c89838a016131a3565b9096509450604088013591508082111561338557600080fd5b50613392888289016132a4565b969995985093965092949392505050565b600080604083850312156133b657600080fd5b50508035926020909101359150565b60005b838110156133e05781810151838201526020016133c8565b50506000910152565b600081518084526134018160208601602086016133c5565b601f01601f19169290920160200192915050565b602081526000825160208084015261112360408401826133e9565b60006020828403121561344257600080fd5b5035919050565b6000806000806060858703121561345f57600080fd5b843593506020850135925060408501356001600160401b0381111561348357600080fd5b61348f878288016132a4565b95989497509550505050565b634e487b7160e01b600052604160045260246000fd5b600080604083850312156134c457600080fd5b6134cd83613288565b915060208301356001600160401b03808211156134e957600080fd5b818501915085601f8301126134fd57600080fd5b81358181111561350f5761350f61349b565b604051601f8201601f19908116603f011681019083821181831017156135375761353761349b565b8160405282815288602084870101111561355057600080fd5b8260208601602083013760006020848301015280955050505050509250929050565b6000806040838503121561358557600080fd5b8235915061359560208401613288565b90509250929050565b6020808252825182820181905260009190848201906040850190845b818110156135d6578351835292840192918401916001016135ba565b50909695505050505050565b6000806000604084860312156135f757600080fd5b8335925060208401356001600160401b0381111561331e57600080fd5b6020815260006107c960208301846133e9565b60006020828403121561363957600080fd5b6107c982613288565b634e487b7160e01b600052601160045260246000fd5b81810381811115610ff057610ff0613642565b634e487b7160e01b600052603260045260246000fd5b6020808252601490820152734578747261206461746120746f6f206c6172676560601b604082015260600190565b60006001600160401b038083168181036136cb576136cb613642565b6001019392505050565b81835281816020850137506000828201602090810191909152601f909101601f19169091010190565b8481526001600160a01b038416602082015260606040820181905260009061372990830184866136d5565b9695505050505050565b60208082526012908201527150726f6f6620736574206e6f74206c69766560701b604082015260600190565b60008235603e1983360301811261377557600080fd5b9190910192915050565b60008235601e1983360301811261377557600080fd5b80820180821115610ff057610ff0613642565b600060808201888352602088818501526040608060408601528288845260a08601905060a08960051b87010193508960005b8a81101561388f57878603609f190183528135368d9003603e1901811261380057600080fd5b8c018035601e19368390038101821261381857600080fd5b828201915086895281358183360301811261383257600080fd5b9091018781019150356001600160401b0381111561384f57600080fd5b80360382131561385e57600080fd5b87878a015261387160608a0182846136d5565b928801359888019890985250955091840191908401906001016137da565b505050505082810360608401526138a78185876136d5565b9998505050505050505050565b858152606060208201819052810184905260006001600160fb1b038511156138db57600080fd5b8460051b8087608085013782018281036080908101604085015261390290820185876136d5565b98975050505050505050565b600181811c9082168061392257607f821691505b60208210810361394257634e487b7160e01b600052602260045260246000fd5b50919050565b600082516137758184602087016133c5565b60006020828403121561396c57600080fd5b5051919050565b634e487b7160e01b600052603160045260246000fd5b8581528460208201528360408201526080606082015260006139af6080830184866136d5565b979650505050505050565b8481528360208201526060604082015260006137296060830184866136d5565b634e487b7160e01b600052601260045260246000fd5b6000826139ff576139ff6139da565b500690565b6000808335601e19843603018112613a1b57600080fd5b8301803591506001600160401b03821115613a3557600080fd5b6020019150600581901b36038213156131e757600080fd5b600081613a5c57613a5c613642565b506000190190565b600082613a7357613a736139da565b500490565b600060018201613a8a57613a8a613642565b5060010190565b601f821115611643576000816000526020600020601f850160051c81016020861015613aba5750805b601f850160051c820191505b81811015610efb57828155600101613ac6565b8135601e19833603018112613aed57600080fd5b820180356001600160401b03811115613b0557600080fd5b60208136038184011315613b1857600080fd5b613b2c82613b26865461390e565b86613a91565b6000601f831160018114613b625760008415613b4a57508482018301355b600019600386901b1c1916600185901b17865561141f565b600086815260209020601f19851690835b82811015613b94578785018601358255938501936001909101908501613b73565b5085821015613bb35760001960f88760031b161c198585890101351681555b5050505050600190811b019091555050565b8082028115828204841417610ff057610ff0613642565b805160208083015191908110156139425760001960209190910360031b1b16919050565b6000600160ff1b8201613c1557613c15613642565b506000039056fe360894a13ba1a3210667c828492db98dca3e2076cc3735a920a3ca505d382bbca26469706673582212201ce358a13f2a30e4a63185d243589f11a02dc92e949e1d7e9a6ef5e49ad8945f64736f6c63430008170033","linkReferences":{}},"methodIdentifiers":{"BURN_ACTOR()":"0a6a63f1","EXTRA_DATA_MAX_SIZE()":"029b4646","LEAF_SIZE()":"c0e15949","MAX_ENQUEUED_REMOVALS()":"9f8cb3bd","MAX_ROOT_SIZE()":"16e2bcd5","RANDOMNESS_PRECOMPILE()":"15b17570","UPGRADE_INTERFACE_VERSION()":"ad3cb1cc","addRoots(uint256,((bytes),uint256)[],bytes)":"11c0ee4a","claimProofSetOwnership(uint256)":"ee3dac65","createProofSet(address,bytes)":"0a4d7932","deleteProofSet(uint256,bytes)":"847d1d06","findRootIds(uint256,uint256[])":"0528a55b","getChallengeFinality()":"f83758fe","getChallengeRange(uint256)":"89208ba9","getNextChallengeEpoch(uint256)":"6ba4608f","getNextProofSetId()":"8ea417e5","getNextRootId(uint256)":"d49245c1","getProofSetLeafCount(uint256)":"3f84135f","getProofSetOwner(uint256)":"4726075b","getRandomness(uint256)":"453f4f62","getRootCid(uint256,uint256)":"3b7ae913","getRootLeafCount(uint256,uint256)":"9153e64b","getScheduledRemovals(uint256)":"6fa44692","initialize(uint256)":"fe4b84df","nextProvingPeriod(uint256,uint256,bytes)":"45c0b92d","owner()":"8da5cb5b","proofSetLive(uint256)":"f5cac1ba","proposeProofSetOwner(uint256,address)":"6cb55c16","provePossession(uint256,(bytes32,bytes32[])[])":"f58f952b","proxiableUUID()":"52d1902d","renounceOwnership()":"715018a6","rootChallengable(uint256,uint256)":"71cf2a16","rootLive(uint256,uint256)":"47331050","scheduleRemovals(uint256,uint256[],bytes)":"3b68e4e9","transferOwnership(address)":"f2fde38b","upgradeToAndCall(address,bytes)":"4f1ef286"},"id":40}