{"abi":[{"type":"constructor","inputs":[],"stateMutability":"nonpayable"},{"type":"function","name":"BURN_ACTOR","inputs":[],"outputs":[{"name":"","type":"address","internalType":"address"}],"stateMutability":"view"},{"type":"function","name":"EXTRA_DATA_MAX_SIZE","inputs":[],"outputs":[{"name":"","type":"uint256","internalType":"uint256"}],"stateMutability":"view"},{"type":"function","name":"FIL_USD_PRICE_FEED_ID","inputs":[],"outputs":[{"name":"","type":"bytes32","internalType":"bytes32"}],"stateMutability":"view"},{"type":"function","name":"LEAF_SIZE","inputs":[],"outputs":[{"name":"","type":"uint256","internalType":"uint256"}],"stateMutability":"view"},{"type":"function","name":"MAX_ENQUEUED_REMOVALS","inputs":[],"outputs":[{"name":"","type":"uint256","internalType":"uint256"}],"stateMutability":"view"},{"type":"function","name":"MAX_PIECE_SIZE","inputs":[],"outputs":[{"name":"","type":"uint256","internalType":"uint256"}],"stateMutability":"view"},{"type":"function","name":"NO_CHALLENGE_SCHEDULED","inputs":[],"outputs":[{"name":"","type":"uint256","internalType":"uint256"}],"stateMutability":"view"},{"type":"function","name":"NO_PROVEN_EPOCH","inputs":[],"outputs":[{"name":"","type":"uint256","internalType":"uint256"}],"stateMutability":"view"},{"type":"function","name":"PYTH","inputs":[],"outputs":[{"name":"","type":"address","internalType":"contract IPyth"}],"stateMutability":"view"},{"type":"function","name":"RANDOMNESS_PRECOMPILE","inputs":[],"outputs":[{"name":"","type":"address","internalType":"address"}],"stateMutability":"view"},{"type":"function","name":"SECONDS_IN_DAY","inputs":[],"outputs":[{"name":"","type":"uint256","internalType":"uint256"}],"stateMutability":"view"},{"type":"function","name":"UPGRADE_INTERFACE_VERSION","inputs":[],"outputs":[{"name":"","type":"string","internalType":"string"}],"stateMutability":"view"},{"type":"function","name":"VERSION","inputs":[],"outputs":[{"name":"","type":"string","internalType":"string"}],"stateMutability":"view"},{"type":"function","name":"addPieces","inputs":[{"name":"setId","type":"uint256","internalType":"uint256"},{"name":"pieceData","type":"tuple[]","internalType":"struct IPDPTypes.PieceData[]","components":[{"name":"piece","type":"tuple","internalType":"struct Cids.Cid","components":[{"name":"data","type":"bytes","internalType":"bytes"}]},{"name":"rawSize","type":"uint256","internalType":"uint256"}]},{"name":"extraData","type":"bytes","internalType":"bytes"}],"outputs":[{"name":"","type":"uint256","internalType":"uint256"}],"stateMutability":"nonpayable"},{"type":"function","name":"calculateProofFee","inputs":[{"name":"setId","type":"uint256","internalType":"uint256"},{"name":"estimatedGasFee","type":"uint256","internalType":"uint256"}],"outputs":[{"name":"","type":"uint256","internalType":"uint256"}],"stateMutability":"nonpayable"},{"type":"function","name":"claimDataSetStorageProvider","inputs":[{"name":"setId","type":"uint256","internalType":"uint256"},{"name":"extraData","type":"bytes","internalType":"bytes"}],"outputs":[],"stateMutability":"nonpayable"},{"type":"function","name":"createDataSet","inputs":[{"name":"listenerAddr","type":"address","internalType":"address"},{"name":"extraData","type":"bytes","internalType":"bytes"}],"outputs":[{"name":"","type":"uint256","internalType":"uint256"}],"stateMutability":"payable"},{"type":"function","name":"dataSetLive","inputs":[{"name":"setId","type":"uint256","internalType":"uint256"}],"outputs":[{"name":"","type":"bool","internalType":"bool"}],"stateMutability":"view"},{"type":"function","name":"deleteDataSet","inputs":[{"name":"setId","type":"uint256","internalType":"uint256"},{"name":"extraData","type":"bytes","internalType":"bytes"}],"outputs":[],"stateMutability":"nonpayable"},{"type":"function","name":"findPieceIds","inputs":[{"name":"setId","type":"uint256","internalType":"uint256"},{"name":"leafIndexs","type":"uint256[]","internalType":"uint256[]"}],"outputs":[{"name":"","type":"tuple[]","internalType":"struct IPDPTypes.PieceIdAndOffset[]","components":[{"name":"pieceId","type":"uint256","internalType":"uint256"},{"name":"offset","type":"uint256","internalType":"uint256"}]}],"stateMutability":"view"},{"type":"function","name":"getActivePieceCount","inputs":[{"name":"setId","type":"uint256","internalType":"uint256"}],"outputs":[{"name":"activeCount","type":"uint256","internalType":"uint256"}],"stateMutability":"view"},{"type":"function","name":"getActivePieces","inputs":[{"name":"setId","type":"uint256","internalType":"uint256"},{"name":"offset","type":"uint256","internalType":"uint256"},{"name":"limit","type":"uint256","internalType":"uint256"}],"outputs":[{"name":"pieces","type":"tuple[]","internalType":"struct Cids.Cid[]","components":[{"name":"data","type":"bytes","internalType":"bytes"}]},{"name":"pieceIds","type":"uint256[]","internalType":"uint256[]"},{"name":"rawSizes","type":"uint256[]","internalType":"uint256[]"},{"name":"hasMore","type":"bool","internalType":"bool"}],"stateMutability":"view"},{"type":"function","name":"getChallengeFinality","inputs":[],"outputs":[{"name":"","type":"uint256","internalType":"uint256"}],"stateMutability":"view"},{"type":"function","name":"getChallengeRange","inputs":[{"name":"setId","type":"uint256","internalType":"uint256"}],"outputs":[{"name":"","type":"uint256","internalType":"uint256"}],"stateMutability":"view"},{"type":"function","name":"getDataSetLastProvenEpoch","inputs":[{"name":"setId","type":"uint256","internalType":"uint256"}],"outputs":[{"name":"","type":"uint256","internalType":"uint256"}],"stateMutability":"view"},{"type":"function","name":"getDataSetLeafCount","inputs":[{"name":"setId","type":"uint256","internalType":"uint256"}],"outputs":[{"name":"","type":"uint256","internalType":"uint256"}],"stateMutability":"view"},{"type":"function","name":"getDataSetListener","inputs":[{"name":"setId","type":"uint256","internalType":"uint256"}],"outputs":[{"name":"","type":"address","internalType":"address"}],"stateMutability":"view"},{"type":"function","name":"getDataSetStorageProvider","inputs":[{"name":"setId","type":"uint256","internalType":"uint256"}],"outputs":[{"name":"","type":"address","internalType":"address"},{"name":"","type":"address","internalType":"address"}],"stateMutability":"view"},{"type":"function","name":"getFILUSDPrice","inputs":[],"outputs":[{"name":"","type":"uint64","internalType":"uint64"},{"name":"","type":"int32","internalType":"int32"}],"stateMutability":"nonpayable"},{"type":"function","name":"getNextChallengeEpoch","inputs":[{"name":"setId","type":"uint256","internalType":"uint256"}],"outputs":[{"name":"","type":"uint256","internalType":"uint256"}],"stateMutability":"view"},{"type":"function","name":"getNextDataSetId","inputs":[],"outputs":[{"name":"","type":"uint64","internalType":"uint64"}],"stateMutability":"view"},{"type":"function","name":"getNextPieceId","inputs":[{"name":"setId","type":"uint256","internalType":"uint256"}],"outputs":[{"name":"","type":"uint256","internalType":"uint256"}],"stateMutability":"view"},{"type":"function","name":"getPieceCid","inputs":[{"name":"setId","type":"uint256","internalType":"uint256"},{"name":"pieceId","type":"uint256","internalType":"uint256"}],"outputs":[{"name":"","type":"tuple","internalType":"struct Cids.Cid","components":[{"name":"data","type":"bytes","internalType":"bytes"}]}],"stateMutability":"view"},{"type":"function","name":"getPieceLeafCount","inputs":[{"name":"setId","type":"uint256","internalType":"uint256"},{"name":"pieceId","type":"uint256","internalType":"uint256"}],"outputs":[{"name":"","type":"uint256","internalType":"uint256"}],"stateMutability":"view"},{"type":"function","name":"getRandomness","inputs":[{"name":"epoch","type":"uint256","internalType":"uint256"}],"outputs":[{"name":"","type":"uint256","internalType":"uint256"}],"stateMutability":"view"},{"type":"function","name":"getScheduledRemovals","inputs":[{"name":"setId","type":"uint256","internalType":"uint256"}],"outputs":[{"name":"","type":"uint256[]","internalType":"uint256[]"}],"stateMutability":"view"},{"type":"function","name":"initialize","inputs":[{"name":"_challengeFinality","type":"uint256","internalType":"uint256"}],"outputs":[],"stateMutability":"nonpayable"},{"type":"function","name":"migrate","inputs":[],"outputs":[],"stateMutability":"nonpayable"},{"type":"function","name":"nextProvingPeriod","inputs":[{"name":"setId","type":"uint256","internalType":"uint256"},{"name":"challengeEpoch","type":"uint256","internalType":"uint256"},{"name":"extraData","type":"bytes","internalType":"bytes"}],"outputs":[],"stateMutability":"nonpayable"},{"type":"function","name":"owner","inputs":[],"outputs":[{"name":"","type":"address","internalType":"address"}],"stateMutability":"view"},{"type":"function","name":"pieceChallengable","inputs":[{"name":"setId","type":"uint256","internalType":"uint256"},{"name":"pieceId","type":"uint256","internalType":"uint256"}],"outputs":[{"name":"","type":"bool","internalType":"bool"}],"stateMutability":"view"},{"type":"function","name":"pieceLive","inputs":[{"name":"setId","type":"uint256","internalType":"uint256"},{"name":"pieceId","type":"uint256","internalType":"uint256"}],"outputs":[{"name":"","type":"bool","internalType":"bool"}],"stateMutability":"view"},{"type":"function","name":"proposeDataSetStorageProvider","inputs":[{"name":"setId","type":"uint256","internalType":"uint256"},{"name":"newStorageProvider","type":"address","internalType":"address"}],"outputs":[],"stateMutability":"nonpayable"},{"type":"function","name":"provePossession","inputs":[{"name":"setId","type":"uint256","internalType":"uint256"},{"name":"proofs","type":"tuple[]","internalType":"struct IPDPTypes.Proof[]","components":[{"name":"leaf","type":"bytes32","internalType":"bytes32"},{"name":"proof","type":"bytes32[]","internalType":"bytes32[]"}]}],"outputs":[],"stateMutability":"payable"},{"type":"function","name":"proxiableUUID","inputs":[],"outputs":[{"name":"","type":"bytes32","internalType":"bytes32"}],"stateMutability":"view"},{"type":"function","name":"renounceOwnership","inputs":[],"outputs":[],"stateMutability":"nonpayable"},{"type":"function","name":"schedulePieceDeletions","inputs":[{"name":"setId","type":"uint256","internalType":"uint256"},{"name":"pieceIds","type":"uint256[]","internalType":"uint256[]"},{"name":"extraData","type":"bytes","internalType":"bytes"}],"outputs":[],"stateMutability":"nonpayable"},{"type":"function","name":"transferOwnership","inputs":[{"name":"newOwner","type":"address","internalType":"address"}],"outputs":[],"stateMutability":"nonpayable"},{"type":"function","name":"upgradeToAndCall","inputs":[{"name":"newImplementation","type":"address","internalType":"address"},{"name":"data","type":"bytes","internalType":"bytes"}],"outputs":[],"stateMutability":"payable"},{"type":"event","name":"ContractUpgraded","inputs":[{"name":"version","type":"string","indexed":false,"internalType":"string"},{"name":"implementation","type":"address","indexed":false,"internalType":"address"}],"anonymous":false},{"type":"event","name":"DataSetCreated","inputs":[{"name":"setId","type":"uint256","indexed":true,"internalType":"uint256"},{"name":"storageProvider","type":"address","indexed":true,"internalType":"address"}],"anonymous":false},{"type":"event","name":"DataSetDeleted","inputs":[{"name":"setId","type":"uint256","indexed":true,"internalType":"uint256"},{"name":"deletedLeafCount","type":"uint256","indexed":false,"internalType":"uint256"}],"anonymous":false},{"type":"event","name":"DataSetEmpty","inputs":[{"name":"setId","type":"uint256","indexed":true,"internalType":"uint256"}],"anonymous":false},{"type":"event","name":"Initialized","inputs":[{"name":"version","type":"uint64","indexed":false,"internalType":"uint64"}],"anonymous":false},{"type":"event","name":"NextProvingPeriod","inputs":[{"name":"setId","type":"uint256","indexed":true,"internalType":"uint256"},{"name":"challengeEpoch","type":"uint256","indexed":false,"internalType":"uint256"},{"name":"leafCount","type":"uint256","indexed":false,"internalType":"uint256"}],"anonymous":false},{"type":"event","name":"OwnershipTransferred","inputs":[{"name":"previousOwner","type":"address","indexed":true,"internalType":"address"},{"name":"newOwner","type":"address","indexed":true,"internalType":"address"}],"anonymous":false},{"type":"event","name":"PiecesAdded","inputs":[{"name":"setId","type":"uint256","indexed":true,"internalType":"uint256"},{"name":"pieceIds","type":"uint256[]","indexed":false,"internalType":"uint256[]"}],"anonymous":false},{"type":"event","name":"PiecesRemoved","inputs":[{"name":"setId","type":"uint256","indexed":true,"internalType":"uint256"},{"name":"pieceIds","type":"uint256[]","indexed":false,"internalType":"uint256[]"}],"anonymous":false},{"type":"event","name":"PossessionProven","inputs":[{"name":"setId","type":"uint256","indexed":true,"internalType":"uint256"},{"name":"challenges","type":"tuple[]","indexed":false,"internalType":"struct IPDPTypes.PieceIdAndOffset[]","components":[{"name":"pieceId","type":"uint256","internalType":"uint256"},{"name":"offset","type":"uint256","internalType":"uint256"}]}],"anonymous":false},{"type":"event","name":"PriceOracleFailure","inputs":[{"name":"reason","type":"bytes","indexed":false,"internalType":"bytes"}],"anonymous":false},{"type":"event","name":"ProofFeePaid","inputs":[{"name":"setId","type":"uint256","indexed":true,"internalType":"uint256"},{"name":"fee","type":"uint256","indexed":false,"internalType":"uint256"},{"name":"price","type":"uint64","indexed":false,"internalType":"uint64"},{"name":"expo","type":"int32","indexed":false,"internalType":"int32"}],"anonymous":false},{"type":"event","name":"StorageProviderChanged","inputs":[{"name":"setId","type":"uint256","indexed":true,"internalType":"uint256"},{"name":"oldStorageProvider","type":"address","indexed":true,"internalType":"address"},{"name":"newStorageProvider","type":"address","indexed":true,"internalType":"address"}],"anonymous":false},{"type":"event","name":"Upgraded","inputs":[{"name":"implementation","type":"address","indexed":true,"internalType":"address"}],"anonymous":false},{"type":"error","name":"AddressEmptyCode","inputs":[{"name":"target","type":"address","internalType":"address"}]},{"type":"error","name":"ERC1967InvalidImplementation","inputs":[{"name":"implementation","type":"address","internalType":"address"}]},{"type":"error","name":"ERC1967NonPayable","inputs":[]},{"type":"error","name":"FailedCall","inputs":[]},{"type":"error","name":"IndexedError","inputs":[{"name":"idx","type":"uint256","internalType":"uint256"},{"name":"msg","type":"string","internalType":"string"}]},{"type":"error","name":"InvalidInitialization","inputs":[]},{"type":"error","name":"NotInitializing","inputs":[]},{"type":"error","name":"OwnableInvalidOwner","inputs":[{"name":"owner","type":"address","internalType":"address"}]},{"type":"error","name":"OwnableUnauthorizedAccount","inputs":[{"name":"account","type":"address","internalType":"address"}]},{"type":"error","name":"UUPSUnauthorizedCallContext","inputs":[]},{"type":"error","name":"UUPSUnsupportedProxiableUUID","inputs":[{"name":"slot","type":"bytes32","internalType":"bytes32"}]}],"bytecode":{"object":"0x60a08060405234620000d157306080527ff0c57e16840df040f15088dc2f81fe391c3923bec73e23a9662efc9c229c6a009081549060ff8260401c16620000c257506001600160401b036002600160401b0319828216016200007c575b604051615d359081620000d682396080518181816129710152612ae50152f35b6001600160401b031990911681179091556040519081527fc7f505b2f371ae2175ee4913f4499e1f2633a7b5936321eed1cdaeb6115181d290602090a15f80806200005c565b63f92ee8a960e01b8152600490fd5b5f80fdfe610120806040526004361015610013575f80fd5b5f905f3560e01c908163029b464614613ee55750806304595c1a14613e915780630a6a63f114613e455780630c29202414613ac65780630cd7b88014613a8d57806315b1757014613a4057806319c75950146139e75780631a271225146139cd5780631c5ae80f1461397957806321b7cd1c146138ff57806325bbbedf146138c95780632b3129bb1461385f578063349c9179146137a957806339f51544146136b2578063431860801461351c578063442cded3146134d6578063453f4f621461349957806345c0b92d14612da5578063462dd449146110655780634903704a14612d305780634f1ef28614612a3d5780634fa27920146129eb57806352d1902d1461292b5780635353bdfd1461288e57806361a52a361461285257806367e406d5146128055780636ba4608f146127b15780636fa4469214612717578063715018a6146126595780637a1e29901461240057806389208ba9146123ac5780638a405abc1461236c5780638da5cb5b146122fb5780638fd3ab80146121a35780639f8cb3bd14612168578063a531998c14612114578063ad3cb1cc14612098578063bbae41cb14611db0578063c0e1594914611d77578063ca759f2714611d30578063dc63526614611b31578063ddea76cc14611277578063df0f32481461106a578063f178b1be14611065578063f2fde38b1461101a578063f58f952b1461047b578063f83758fe14610440578063fe4b84df1461028e5763ffa1ad741461023a575f80fd5b3461028b57807ffffffffffffffffffffffffffffffffffffffffffffffffffffffffffffffffc36011261028b576102876102736142b4565b60405191829160208352602083019061401e565b0390f35b80fd5b503461028b5760207ffffffffffffffffffffffffffffffffffffffffffffffffffffffffffffffffc36011261028b577ff0c57e16840df040f15088dc2f81fe391c3923bec73e23a9662efc9c229c6a00805460ff8160401c16159067ffffffffffffffff811680159081610438575b600114908161042e575b159081610425575b506103fb578160017fffffffffffffffffffffffffffffffffffffffffffffffff000000000000000083161784556103c6575b5061034c61583c565b61035461583c565b61035d33614fc6565b61036561583c565b6004358355610372575080f35b7fffffffffffffffffffffffffffffffffffffffffffffff00ffffffffffffffff81541690557fc7f505b2f371ae2175ee4913f4499e1f2633a7b5936321eed1cdaeb6115181d2602060405160018152a180f35b7fffffffffffffffffffffffffffffffffffffffffffffff00000000000000000016680100000000000000011782555f610343565b60046040517ff92ee8a9000000000000000000000000000000000000000000000000000000008152fd5b9050155f610310565b303b159150610308565b8391506102fe565b503461028b57807ffffffffffffffffffffffffffffffffffffffffffffffffffffffffffffffffc36011261028b5760209054604051908152f35b506104853661407a565b9291905a93828452600b60205273ffffffffffffffffffffffffffffffffffffffff92836040862054163303610f96578115610f385780855260076020526040852054804310610eda5715610e7c576104dd82614625565b9381865260076020526104f36040872054614b55565b8287526009602052604087205490600560205261051360408920546150db565b9261010084810311610e4f579193888888888d9484985b8267ffffffffffffffff8b161015610ac6576040518860208201528260408201527fffffffffffffffff0000000000000000000000000000000000000000000000008b60c01b1660608201526048815280608081011067ffffffffffffffff608083011117610a995760808101604052602081519101208b15610a6c576105b9908c83610100039106846152ac565b6105cd67ffffffffffffffff8c16876146a0565b526105e267ffffffffffffffff8b16866146a0565b506106026105fa67ffffffffffffffff8c16876146a0565b515183614503565b602081515110610a0e5760405190610619826141cf565b6020825260203681840137875b602081106109455750508660c0526020815191015160c0526020811061090f575b5081865260036020526040862061066867ffffffffffffffff8c16876146a0565b5151875260205260408620547fffffffffffffffffffffffffffffffffffffffffffffffffffffffffffffffff81019081116108e2576106a7906150db565b610100039a6101008c116108e25760018c018c116108e2578a9b8b602061070567ffffffffffffffff6106fc816106ee6106e58d8d848a1691614f86565b86810190615087565b906101005295168a8c614f86565b359f168a6146a0565b5101516080526107148161460d565b60e05260405160a05261072b60e05160a0516141eb565b60a051508060a05152602060a05101368260051b6101005101116108de5761010051905b8260051b610100510182106108ce5750505060a051510361084a57608051969a96988b975b60a051518d10156107bd5760019061078e8e60a0516146a0565b51908c83166107ae57906107a191615cc4565b9a5b811c9c019b99610774565b6107b791615cc4565b9a6107a3565b9195995093979b91959992969a5060c051036107ec576107dc90614ec6565b989490979399959196929961052a565b60646040517f08c379a000000000000000000000000000000000000000000000000000000000815260206004820152601460248201527f70726f6f6620646964206e6f74207665726966790000000000000000000000006044820152fd5b60846040517f08c379a000000000000000000000000000000000000000000000000000000000815260206004820152602760248201527f70726f6f66206c656e67746820646f6573206e6f74206d61746368207472656560448201527f20686569676874000000000000000000000000000000000000000000000000006064820152fd5b813581526020918201910161074f565b8980fd5b6024877f4e487b710000000000000000000000000000000000000000000000000000000081526011600452fd5b7fffffffffffffffffffffffffffffffffffffffffffffffffffffffffffffffff9060200360031b1b60c0511660c0528b610647565b81518051807fffffffffffffffffffffffffffffffffffffffffffffffffffffffffffffffe08101116109e1576109cc83926109c66001957fffffffffffffffffffffffffffffffffffffffffffffffffffffffffffffffe07fff0000000000000000000000000000000000000000000000000000000000000095016143c5565b9061582b565b51168a1a6109da828661582b565b5301610626565b60248b7f4e487b710000000000000000000000000000000000000000000000000000000081526011600452fd5b60646040517f08c379a000000000000000000000000000000000000000000000000000000000815260206004820152601560248201527f436964206461746120697320746f6f2073686f727400000000000000000000006044820152fd5b7f4e487b71000000000000000000000000000000000000000000000000000000005f52601260045260245ffd5b7f4e487b71000000000000000000000000000000000000000000000000000000005f52604160045260245ffd5b5093959091610ad788965a90614600565b879188905b858210610e0057505060208201809211610dd35761051491828102928184041490151715610dd357610b1891610b11916143c5565b4890614792565b84875260096020526040872054907f07ffffffffffffffffffffffffffffffffffffffffffffffffffffffffffffff82168203610dd357610b83610b799493926040928a610b64614d26565b988196838d8c9552600d602052205443614600565b9360051b926154c3565b803410610d75575f8080808473ff000000000000000000000000000000000000635af1610bae614b26565b5015610d1757867f928bbf5188022bf8b9a0e59f5e81e179d0a4c729bdba2856ac971af2063fbf2b6060610c03948c9867ffffffffffffffff6040519287845216602083015260030b6040820152a234614600565b9585845260086020526040842054169081610c84575b5050507f1acf7df9f0c1b0208c23be6178950c0273f89b766805a2c0bd1e53d25c700e509183610c5b9252600d602052436040872055604051918291826140c8565b0390a28181610c675780f35b808080610c7f94335af1610c79614b26565b50614edf565b818180f35b6006602052604084205491803b15610d135784928360849260405196879586947f356de02b0000000000000000000000000000000000000000000000000000000086528c60048701526024860152604485015260648401525af18015610d0857610cf0575b8080610c19565b610cf99061419f565b610d04578385610ce9565b8380fd5b6040513d84823e3d90fd5b8480fd5b60646040517f08c379a000000000000000000000000000000000000000000000000000000000815260206004820152600b60248201527f4275726e206661696c65640000000000000000000000000000000000000000006044820152fd5b60646040517f08c379a000000000000000000000000000000000000000000000000000000000815260206004820152601460248201527f496e636f72726563742066656520616d6f756e740000000000000000000000006044820152fd5b6024887f4e487b710000000000000000000000000000000000000000000000000000000081526011600452fd5b9092610e1a610e10858885614f86565b6020810190615087565b80915060051b90808204602014901517156109e15760400190816040116109e157600191610e47916143c5565b930190610adc565b6024897f4e487b710000000000000000000000000000000000000000000000000000000081526011600452fd5b60646040517f08c379a000000000000000000000000000000000000000000000000000000000815260206004820152601660248201527f6e6f206368616c6c656e6765207363686564756c6564000000000000000000006044820152fd5b60646040517f08c379a000000000000000000000000000000000000000000000000000000000815260206004820152600f60248201527f7072656d61747572652070726f6f6600000000000000000000000000000000006044820152fd5b60646040517f08c379a000000000000000000000000000000000000000000000000000000000815260206004820152600b60248201527f656d7074792070726f6f660000000000000000000000000000000000000000006044820152fd5b60846040517f08c379a000000000000000000000000000000000000000000000000000000000815260206004820152602e60248201527f4f6e6c79207468652073746f726167652070726f76696465722063616e20707260448201527f6f766520706f7373657373696f6e0000000000000000000000000000000000006064820152fd5b503461028b5760207ffffffffffffffffffffffffffffffffffffffffffffffffffffffffffffffffc36011261028b57611062611055614144565b61105d6157a5565b614fc6565b80f35b614167565b503461028b5761107936614266565b919061108c61108783614f44565b6142ed565b818452600c60205273ffffffffffffffffffffffffffffffffffffffff918260408620541633036111cd578493818552600b60205260408520928354858116947fffffffffffffffffffffffff00000000000000000000000000000000000000009182339116179055600c60205260408720908154169055604051943385857f686146a80f2bf4dc855942926481871515b39b508826d7982a2e0212d20552c98a80a460086020526040872054169182611144578680f35b823b156111c9578561119d819593899793889484967f4059b6d700000000000000000000000000000000000000000000000000000000865260048601526024850152336044850152608060648501526084840191614424565b03925af18015610d08576111b5575b80808080808680f35b6111be9061419f565b61028b57805f6111ac565b8680fd5b60a46040517f08c379a000000000000000000000000000000000000000000000000000000000815260206004820152604260248201527f4f6e6c79207468652070726f706f7365642073746f726167652070726f76696460448201527f65722063616e20636c61696d2073746f726167652070726f766964657220726f60648201527f6c650000000000000000000000000000000000000000000000000000000000006084820152fd5b503461028b5761128636613f7c565b61129861080082969593961115614352565b6112a461108785614f44565b8215611ad357838652600b60205273ffffffffffffffffffffffffffffffffffffffff6040872054163303611a4f578386526005602052604086205494846112eb8561472b565b885b868110611569575061132e7fd9389326b5d4b5a25430b57198f71d0af2a577710c608fb4834f13ca5bfed85991604051918291602083526020830190614111565b0390a2848752600860205273ffffffffffffffffffffffffffffffffffffffff6040882054169384611366575b602087604051908152f35b843b156115655794929091879492866040519788967f545f6ec5000000000000000000000000000000000000000000000000000000008852608488019060048901528a6024890152608060448901525260a486019060a48160051b88010194809289915b83831061144b57505050505061140f8387938795937ffffffffffffffffffffffffffffffffffffffffffffffffffffffffffffffffc87809603016064860152614424565b03925af1801561144057611428575b808080808061135b565b611432839161419f565b61143c578161141e565b5080fd5b6040513d85823e3d90fd5b929597995092977fffffffffffffffffffffffffffffffffffffffffffffffffffffffffffffff5c9087929597030183528735907fffffffffffffffffffffffffffffffffffffffffffffffffffffffffffffffc18336030182121561156157828201357fffffffffffffffffffffffffffffffffffffffffffffffffffffffffffffffe18085850136030182121561155d576040835284840182013603018484018201351215611559578284010180350167ffffffffffffffff8135116115595780353603602082011361155957600192826020808761153e8297968360408199015260608601908481359101614424565b94010135910152990193019301899795938c999795926113ca565b8d80fd5b8e80fd5b8c80fd5b8780fd5b909150611577818787614f86565b8035907fffffffffffffffffffffffffffffffffffffffffffffffffffffffffffffffe181360301821215611a4b5760206115b3848a8a614f86565b013591601f83166119e657821561198157660400000000000083116118f657908b9392918a8552600560205260408520918254926115f0846147a5565b90556116036115fe846143b7565b615935565b8c8560051c9188915b8183106118b057915050875260046020526040872084885260205260408720558b86526002602052604086208387526020526040862091808201357fffffffffffffffffffffffffffffffffffffffffffffffffffffffffffffffe18284013603018112156115655767ffffffffffffffff8183850101351161156557828201810180353603602090910113611565576116a684546144b2565b601f8111611871575b508790601f818486010135116001146117925760019891818486010135611760575b5082817fffffffffffffffffffffffffffffffffffffffffffffffffffffffffffffffff9394860101358a1b9401013560031b1c19161790555b898c52600360205260408c20908c526020528060051c60408c2055888b52600660205261174060408c209160051c82546143c5565b905561174c818a6143c5565b61175682856146a0565b52019086916112ed565b8484018201016020013591507fffffffffffffffffffffffffffffffffffffffffffffffffffffffffffffffff6116d1565b848952602089209092915b7fffffffffffffffffffffffffffffffffffffffffffffffffffffffffffffffe0848487010135168a1061185357600199508483018401357fffffffffffffffffffffffffffffffffffffffffffffffffffffffffffffffe081161061180f575b50508792010135811b01905561170b565b60207fffffffffffffffffffffffffffffffffffffffffffffffffffffffffffffffff60f886868901013560031b161c199185858801010101351690555f806117fe565b6020838601850182018101358355998a01996001909201910161179d565b8489526020808a206118a092868601850135601f810160051c830193116118a6575b601f0160051c0190615815565b5f6116af565b9091508190611893565b9260408395969798999a6118e693956118cd600180971b8c614600565b90825260046020528282209082526020522054906143c5565b92018f979695949392918e61160c565b60a484604051907fc7b67cf3000000000000000000000000000000000000000000000000000000008252600482015260406024820152602160448201527f50696563652073697a65206d757374206265206c657373207468616e20325e3560648201527f30000000000000000000000000000000000000000000000000000000000000006084820152fd5b608484604051907fc7b67cf3000000000000000000000000000000000000000000000000000000008252600482015260406024820152601b60448201527f53697a65206d7573742062652067726561746572207468616e203000000000006064820152fd5b608484604051907fc7b67cf3000000000000000000000000000000000000000000000000000000008252600482015260406024820152601d60448201527f53697a65206d7573742062652061206d756c7469706c65206f662033320000006064820152fd5b8a80fd5b60846040517f08c379a000000000000000000000000000000000000000000000000000000000815260206004820152602860248201527f4f6e6c79207468652073746f726167652070726f76696465722063616e20616460448201527f64207069656365730000000000000000000000000000000000000000000000006064820152fd5b60646040517f08c379a000000000000000000000000000000000000000000000000000000000815260206004820152601b60248201527f4d75737420616464206174206c65617374206f6e6520706965636500000000006044820152fd5b503461028b57611b4036613fea565b818392935260209260058452611b5960408420546150db565b610100908103908111611d0357818452600985526040842054907fffffffffffffffffffffffffffffffffffffffffffffffffffffffffffffffff91828101908111611cd65790611baa91846152ac565b93858501519083815260038752604081208651825287526040812054928301928311611ca9575003611bff5781611be091614462565b9182611bf3575b50506040519015158152f35b51101590505f80611be7565b60a484604051907f08c379a00000000000000000000000000000000000000000000000000000000082526004820152604160248201527f6368616c6c656e676552616e6765202d312073686f756c6420616c69676e207760448201527f697468207468652076657279206c617374206c656166206f662061207069656360648201527f65000000000000000000000000000000000000000000000000000000000000006084820152fd5b807f4e487b7100000000000000000000000000000000000000000000000000000000602492526011600452fd5b6024867f4e487b710000000000000000000000000000000000000000000000000000000081526011600452fd5b6024847f4e487b710000000000000000000000000000000000000000000000000000000081526011600452fd5b503461028b5760207ffffffffffffffffffffffffffffffffffffffffffffffffffffffffffffffffc36011261028b576020611d6d600435614f44565b6040519015158152f35b503461028b57807ffffffffffffffffffffffffffffffffffffffffffffffffffffffffffffffffc36011261028b576020604051818152f35b5060407ffffffffffffffffffffffffffffffffffffffffffffffffffffffffffffffffc36011261028b57611de3614144565b9067ffffffffffffffff9060243582811161143c57611e06903690600401613f4e565b9390611e16610800861115614352565b67016345785d8a00009182341061203a575f8080808673ff000000000000000000000000000000000000635af1611e4b614b26565b5015610d17576001547fffffffffffffffffffffffffffffffffffffffffffffffff000000000000000086821696611e8288614ec6565b169116176001558484526020956006875284604081205560078752846040812055600b875260408520917fffffffffffffffffffffffff00000000000000000000000000000000000000009233848254161790556008885273ffffffffffffffffffffffffffffffffffffffff6040872091168093825416179055600d875284604081205581611fb6575b50505033837f11369440e1b7135015c16acb9bc14b55b0f4b23b02010c363d34aec2e5b962818480a33411611f46575b50604051908152f35b7ffffffffffffffffffffffffffffffffffffffffffffffffffe9cba87a2760000340190348211611f8957808080611f8394335af1610c79614b26565b5f611f3d565b7f4e487b71000000000000000000000000000000000000000000000000000000005f52601160045260245ffd5b813b15610d135791849161200e93836040518096819582947f101c1eab0000000000000000000000000000000000000000000000000000000084528c6004850152336024850152606060448501526064840191614424565b03925af1801561144057908391612026575b80611f0d565b61202f9061419f565b61143c57815f612020565b60646040517f08c379a000000000000000000000000000000000000000000000000000000000815260206004820152601160248201527f737962696c20666565206e6f74206d65740000000000000000000000000000006044820152fd5b503461028b57807ffffffffffffffffffffffffffffffffffffffffffffffffffffffffffffffffc36011261028b576102876040516120d6816141cf565b600581527f352e302e30000000000000000000000000000000000000000000000000000000602082015260405191829160208352602083019061401e565b503461028b5760207ffffffffffffffffffffffffffffffffffffffffffffffffffffffffffffffffc36011261028b57604060209160043561215861108782614f44565b8152600683522054604051908152f35b503461028b57807ffffffffffffffffffffffffffffffffffffffffffffffffffffffffffffffffc36011261028b5760206040516107d08152f35b503461028b57807ffffffffffffffffffffffffffffffffffffffffffffffffffffffffffffffffc36011261028b576121da6157a5565b7ff0c57e16840df040f15088dc2f81fe391c3923bec73e23a9662efc9c229c6a00805460ff8160401c1680156122e6575b6103fb577fffffffffffffffffffffffffffffffffffffffffffffff0000000000000000006002917f2b51ff7c4cc8e6fe1c72e9d9685b7d2a88a5d82ad3a644afbdceb0272c89c1c36122ab61225f6142b4565b73ffffffffffffffffffffffffffffffffffffffff7f360894a13ba1a3210667c828492db98dca3e2076cc3735a920a3ca505d382bbc541660405192839260408452604084019061401e565b9060208301520390a1161790557fc7f505b2f371ae2175ee4913f4499e1f2633a7b5936321eed1cdaeb6115181d2602060405160028152a180f35b50600267ffffffffffffffff8216101561220b565b503461028b57807ffffffffffffffffffffffffffffffffffffffffffffffffffffffffffffffffc36011261028b57602073ffffffffffffffffffffffffffffffffffffffff7f9016d09d72d40fdae2fd8ceac6b6234c7706214fd39c1cd1e609a0528c1993005416604051908152f35b503461028b57807ffffffffffffffffffffffffffffffffffffffffffffffffffffffffffffffffc36011261028b57602060405166040000000000008152f35b503461028b5760207ffffffffffffffffffffffffffffffffffffffffffffffffffffffffffffffffc36011261028b5760406020916004356123f061108782614f44565b8152600983522054604051908152f35b503461028b5761240f36614266565b9061241e610800831115614352565b67ffffffffffffffff600154168310156125fb57828452602090600b825273ffffffffffffffffffffffffffffffffffffffff92836040872054163303612577579085918583526006845260408320948386549655600b8552604084207fffffffffffffffffffffffff0000000000000000000000000000000000000000815416905560078552836040812055600d85528360408120556008855260408420541691826124f6575b505050507f14eeeef7679fcb051c6572811f61c07bedccd0f1cfc1f9b79b23e47c5c52aeb791604051908152a280f35b823b15610d045761254d928492836040518096819582947f2abd465c0000000000000000000000000000000000000000000000000000000084528d60048501528c6024850152606060448501526064840191614424565b03925af18015610d0857612563575b80806124c6565b61256c9061419f565b610d0457835f61255c565b608483604051907f08c379a00000000000000000000000000000000000000000000000000000000082526004820152602e60248201527f4f6e6c79207468652073746f726167652070726f76696465722063616e20646560448201527f6c657465206461746120736574730000000000000000000000000000000000006064820152fd5b60646040517f08c379a000000000000000000000000000000000000000000000000000000000815260206004820152601960248201527f6461746120736574206964206f7574206f6620626f756e6473000000000000006044820152fd5b503461028b57807ffffffffffffffffffffffffffffffffffffffffffffffffffffffffffffffffc36011261028b576126906157a5565b5f73ffffffffffffffffffffffffffffffffffffffff7f9016d09d72d40fdae2fd8ceac6b6234c7706214fd39c1cd1e609a0528c1993008054907fffffffffffffffffffffffff000000000000000000000000000000000000000082169055167f8be0079c531659141344cd1fd0a4f28419497f9722a3daafe3b4186f6b6457e08280a380f35b503461028b5760207ffffffffffffffffffffffffffffffffffffffffffffffffffffffffffffffffc36011261028b5760043561275661108782614f44565b8152600a6020526040812080549061276d8261472b565b925b82811061278c576040516020808252819061028790820187614111565b806127996001928461440f565b90549060031b1c6127aa82876146a0565b520161276f565b503461028b5760207ffffffffffffffffffffffffffffffffffffffffffffffffffffffffffffffffc36011261028b5760406020916004356127f561108782614f44565b8152600783522054604051908152f35b503461028b57807ffffffffffffffffffffffffffffffffffffffffffffffffffffffffffffffffc36011261028b57602060405173a2aa501b19aff244d90cc15a4cf739d2725b57298152f35b503461028b57807ffffffffffffffffffffffffffffffffffffffffffffffffffffffffffffffffc36011261028b576020604051620151808152f35b503461028b5760209060207ffffffffffffffffffffffffffffffffffffffffffffffffffffffffffffffffc36011261028b576004359080926128d361108784614f44565b8282526005602052604082205492825b8481106128f557602086604051908152f35b818452600383526040842081855283526040842054612917575b6001016128e3565b946129236001916147a5565b95905061290f565b503461028b57807ffffffffffffffffffffffffffffffffffffffffffffffffffffffffffffffffc36011261028b5773ffffffffffffffffffffffffffffffffffffffff7f00000000000000000000000000000000000000000000000000000000000000001630036129c15760206040517f360894a13ba1a3210667c828492db98dca3e2076cc3735a920a3ca505d382bbc8152f35b60046040517fe07c8dba000000000000000000000000000000000000000000000000000000008152fd5b503461028b57807ffffffffffffffffffffffffffffffffffffffffffffffffffffffffffffffffc36011261028b576040612a24614d26565b67ffffffffffffffff83519216825260030b6020820152f35b5060407ffffffffffffffffffffffffffffffffffffffffffffffffffffffffffffffffc36011261028b57612a70614144565b602491823567ffffffffffffffff811161143c573660238201121561143c57806004013592612a9e8461422c565b612aab60405191826141eb565b8481526020948582019336888383010111612cf7578186928989930187378301015273ffffffffffffffffffffffffffffffffffffffff807f000000000000000000000000000000000000000000000000000000000000000016803014908115612d02575b506129c157612b1d6157a5565b821694604051907f52d1902d00000000000000000000000000000000000000000000000000000000825280826004818a5afa9182918793612cce575b5050612b8f578686604051907f4c9c8ce30000000000000000000000000000000000000000000000000000000082526004820152fd5b8590877f360894a13ba1a3210667c828492db98dca3e2076cc3735a920a3ca505d382bbc91828103612ca05750843b15612c71575080547fffffffffffffffffffffffff000000000000000000000000000000000000000016821790556040518592917fbc7cd75a20ee27fd9adebab32041f755214dbc6bffa90cc0225b39da2e5c2d3b8480a2815115612c3b5750612c379382915190845af4612c31614b26565b91615895565b5080f35b935050505034612c49575080f35b807fb398979f0000000000000000000000000000000000000000000000000000000060049252fd5b82604051907f4c9c8ce30000000000000000000000000000000000000000000000000000000082526004820152fd5b604051907faa1d49a40000000000000000000000000000000000000000000000000000000082526004820152fd5b9080929350813d8311612cfb575b612ce681836141eb565b81010312612cf75751905f80612b59565b8580fd5b503d612cdc565b9050817f360894a13ba1a3210667c828492db98dca3e2076cc3735a920a3ca505d382bbc541614155f612b10565b503461028b57612d3f36613fea565b81835260096020526040832054917f07ffffffffffffffffffffffffffffffffffffffffffffffffffffffffffffff83168303611d035790602093612d9d9392610b796040612d8c614d26565b9490938152600d8952205443614600565b604051908152f35b503461028b5760607ffffffffffffffffffffffffffffffffffffffffffffffffffffffffffffffffc36011261028b5760443567ffffffffffffffff811161143c57612df5903690600401613f4e565b90612e04610800831115614352565b6004358352600b60205273ffffffffffffffffffffffffffffffffffffffff60408420541633036134155760043583526006602052604083205415613391576004358352600d60205260408320805415613388575b50600a602052604083208054806130b5575b505060043583526006602052604083205460096020526040842055612e918354436143c5565b6024351061300b5782916004358352600760205260243560408420556006602052604083205415612fc9575b600860205273ffffffffffffffffffffffffffffffffffffffff6040842054169081612f2d575b8360043581526006602052604081205460405190602435825260208201527fc099ffec4e3e773644a4d1dda368c46af853a0eeb15babde217f53a657396e1e604060043592a280f35b600760205260408420549160066020526040852054813b15612cf757858094612f9f604051978896879586947faa27ebcc000000000000000000000000000000000000000000000000000000008652600435600487015260248601526044850152608060648501526084840191614424565b03925af18015610d0857612fb5575b8080612ee4565b612fbe9061419f565b61028b57805f612fae565b6004357f02a8400fc343f45098cb00c3a6ea694174771939a5503f663e0ff6f4eb7c28428480a2600d6020528260408120556007602052826040812055612ebd565b60a46040517f08c379a000000000000000000000000000000000000000000000000000000000815260206004820152604760248201527f6368616c6c656e67652065706f6368206d757374206265206174206c6561737460448201527f206368616c6c656e676546696e616c6974792065706f63687320696e2074686560648201527f20667574757265000000000000000000000000000000000000000000000000006084820152fd5b6130be8161472b565b91855b8281106132e75750505090916130db611087600435614f44565b83805b8351821015613282576130f182856146a0565b5194600435875260036020526040872086885260205260408720549386916004358952600560205261312660408a20546150db565b9661010088810311613255579261313f6115fe8a6143b7565b88610100038111158061323e575b1561319b57906001613186926004358d5260046020528c8360408220915260205260408d2061317d8b8254614600565b90551b906143c5565b926131936115fe856143b7565b93909361313f565b505095509295936001926131f592956004358a52600360205260408a20818b526020525f60408b20556004358a52600260205260408a20908a5260205288604081206131e781546144b2565b80613200575b5050506143c5565b9401909192936130de565b601f808211881461321a5750505f9150555b885f806131ed565b916132375f929382865260208620940160051c8401898501615815565b5555613212565b506004358b52600560205260408b2054821061314d565b60248a7f4e487b710000000000000000000000000000000000000000000000000000000081526011600452fd5b905092919092600435855260066020526132a160408620918254614600565b90557f6e87df804629ac17804b57ba7abbdfac8bdc36bab504fb8a8801eb313a8ce7b160405160208152806132dd600435946020830190614111565b0390a25f80612e6b565b81547fffffffffffffffffffffffffffffffffffffffffffffffffffffffffffffffff808201918083116132555761331f838661440f565b919054600392831b1c613332868a6146a0565b521561335b57908291613348600195948761440f565b81939154921b1b191690558355016130c1565b60248a7f4e487b710000000000000000000000000000000000000000000000000000000081526031600452fd5b4390555f612e59565b60846040517f08c379a000000000000000000000000000000000000000000000000000000000815260206004820152602c60248201527f63616e206f6e6c792073746172742070726f76696e67206f6e6365206c65617660448201527f65732061726520616464656400000000000000000000000000000000000000006064820152fd5b60846040517f08c379a000000000000000000000000000000000000000000000000000000000815260206004820152603960248201527f6f6e6c79207468652073746f726167652070726f76696465722063616e206d6f60448201527f766520746f206e6578742070726f76696e6720706572696f64000000000000006064820152fd5b503461028b5760207ffffffffffffffffffffffffffffffffffffffffffffffffffffffffffffffffc36011261028b576020612d9d600435614b55565b503461028b57807ffffffffffffffffffffffffffffffffffffffffffffffffffffffffffffffffc36011261028b57602067ffffffffffffffff60015416604051908152f35b503461028b5760407ffffffffffffffffffffffffffffffffffffffffffffffffffffffffffffffffc36011261028b5760043560243573ffffffffffffffffffffffffffffffffffffffff8082168092036136ae5761357d61108784614f44565b828452600b6020526040842054163381036136045781036135cd57508152600c602052604081207fffffffffffffffffffffffff0000000000000000000000000000000000000000815416905580f35b908252600c60205260408220907fffffffffffffffffffffffff000000000000000000000000000000000000000082541617905580f35b60a46040517f08c379a000000000000000000000000000000000000000000000000000000000815260206004820152604460248201527f4f6e6c79207468652063757272656e742073746f726167652070726f7669646560448201527f722063616e2070726f706f73652061206e65772073746f726167652070726f7660648201527f69646572000000000000000000000000000000000000000000000000000000006084820152fd5b5f80fd5b503461028b5760607ffffffffffffffffffffffffffffffffffffffffffffffffffffffffffffffffc36011261028b576136f36044356024356004356147d2565b9160409491945193608085019260808652815180945260a086019360a08160051b88010194602080940192905b82821061375957888703858a015288808961374d8d61373f8c8c614111565b908482036040860152614111565b90151560608301520390f35b90919295848061379b837fffffffffffffffffffffffffffffffffffffffffffffffffffffffffffffff608d60019603018652828b515191818152019061401e565b980192019201909291613720565b503461028b576137b83661407a565b909180845260056020526137cf60408520546150db565b91610100928303928311613832576137e681614625565b945b8181106137fd576040518061028788826140c8565b806138168561380f600194868a6143d2565b35866152ac565b61382082896146a0565b5261382b81886146a0565b50016137e8565b6024857f4e487b710000000000000000000000000000000000000000000000000000000081526011600452fd5b503461028b5760207ffffffffffffffffffffffffffffffffffffffffffffffffffffffffffffffffc36011261028b5773ffffffffffffffffffffffffffffffffffffffff60406020926004356138b861108782614f44565b815260088452205416604051908152f35b503461028b576102876138e46138de36613fea565b90614503565b6040519182916020835251602080840152604083019061401e565b503461028b5760207ffffffffffffffffffffffffffffffffffffffffffffffffffffffffffffffffc36011261028b5760409060043561394161108782614f44565b8152600b60205273ffffffffffffffffffffffffffffffffffffffff8281818420541692600c60205220541682519182526020820152f35b503461028b5760207ffffffffffffffffffffffffffffffffffffffffffffffffffffffffffffffffc36011261028b5760406020916004356139bd61108782614f44565b8152600583522054604051908152f35b503461028b576020611d6d6139e136613fea565b90614462565b503461028b57807ffffffffffffffffffffffffffffffffffffffffffffffffffffffffffffffffc36011261028b5760206040517f150ac9b959aee0051e4091f0ef5216d941f590e1c5e7f91cf7635b5c11628c0e8152f35b503461028b57807ffffffffffffffffffffffffffffffffffffffffffffffffffffffffffffffffc36011261028b57602060405173fe000000000000000000000000000000000000068152f35b503461028b576040602091613aa136613fea565b90613aae61108782614f44565b82526003845282822090825283522054604051908152f35b50346136ae57613ad536613f7c565b90613ae7610800839594951115614352565b613af361108786614f44565b845f526020600b815273ffffffffffffffffffffffffffffffffffffffff908160405f2054163303613dc157865f52600a8082526107d0613b3860405f2054896143c5565b11613d3d575f5b878110613c26575050600890875f525260405f2054169182613b5f578680f35b823b156136ae57604051957fe7954aa70000000000000000000000000000000000000000000000000000000087526004870152606060248701528460648701527f07ffffffffffffffffffffffffffffffffffffffffffffffffffffffffffffff85116136ae5785613bf38195935f9793608484968a9660051b809183880137850160808682030160448701520191614424565b03925af18015613c1b57613c0a5780808080808680f35b613c14915061419f565b5f806111ac565b6040513d5f823e3d90fd5b613c318189896143d2565b35895f526005845260405f20541115613cb957885f5281835260405f2090613c5a818a8a6143d2565b3582549268010000000000000000841015610a995783613c80916001809601815561440f565b7fffffffffffffffffffffffffffffffffffffffffffffffffffffffffffffffff829392549160031b92831b921b191617905501613b3f565b608483604051907f08c379a00000000000000000000000000000000000000000000000000000000082526004820152602c60248201527f43616e206f6e6c79207363686564756c652072656d6f76616c206f662065786960448201527f7374696e672070696563657300000000000000000000000000000000000000006064820152fd5b608482604051907f08c379a00000000000000000000000000000000000000000000000000000000082526004820152603a60248201527f546f6f206d616e792072656d6f76616c73207761697420666f72206e6578742060448201527f70726f76696e6720706572696f6420746f207363686564756c650000000000006064820152fd5b608490604051907f08c379a00000000000000000000000000000000000000000000000000000000082526004820152603860248201527f4f6e6c79207468652073746f726167652070726f76696465722063616e20736360448201527f686564756c652072656d6f76616c206f662070696563657300000000000000006064820152fd5b346136ae575f7ffffffffffffffffffffffffffffffffffffffffffffffffffffffffffffffffc3601126136ae57602060405173ff000000000000000000000000000000000000638152f35b346136ae5760207ffffffffffffffffffffffffffffffffffffffffffffffffffffffffffffffffc3601126136ae57600435613ecf61108782614f44565b5f52600d602052602060405f2054604051908152f35b346136ae575f7ffffffffffffffffffffffffffffffffffffffffffffffffffffffffffffffffc3601126136ae578061080060209252f35b9181601f840112156136ae5782359167ffffffffffffffff83116136ae576020808501948460051b0101116136ae57565b9181601f840112156136ae5782359167ffffffffffffffff83116136ae57602083818601950101116136ae57565b9060607ffffffffffffffffffffffffffffffffffffffffffffffffffffffffffffffffc8301126136ae576004359167ffffffffffffffff916024358381116136ae5782613fcc91600401613f1d565b939093926044359182116136ae57613fe691600401613f4e565b9091565b7ffffffffffffffffffffffffffffffffffffffffffffffffffffffffffffffffc60409101126136ae576004359060243590565b91908251928382525f5b8481106140665750507fffffffffffffffffffffffffffffffffffffffffffffffffffffffffffffffe0601f845f6020809697860101520116010190565b602081830181015184830182015201614028565b9060407ffffffffffffffffffffffffffffffffffffffffffffffffffffffffffffffffc8301126136ae57600435916024359067ffffffffffffffff82116136ae57613fe691600401613f1d565b60208082019080835283518092528060408094019401925f905b8382106140f157505050505090565b8451805187528301518684015294850194938201936001909101906140e2565b9081518082526020808093019301915f5b828110614130575050505090565b835185529381019392810192600101614122565b6004359073ffffffffffffffffffffffffffffffffffffffff821682036136ae57565b346136ae575f7ffffffffffffffffffffffffffffffffffffffffffffffffffffffffffffffffc3601126136ae5760206040515f8152f35b67ffffffffffffffff8111610a9957604052565b6020810190811067ffffffffffffffff821117610a9957604052565b6040810190811067ffffffffffffffff821117610a9957604052565b90601f7fffffffffffffffffffffffffffffffffffffffffffffffffffffffffffffffe0910116810190811067ffffffffffffffff821117610a9957604052565b67ffffffffffffffff8111610a9957601f017fffffffffffffffffffffffffffffffffffffffffffffffffffffffffffffffe01660200190565b9060407ffffffffffffffffffffffffffffffffffffffffffffffffffffffffffffffffc8301126136ae57600435916024359067ffffffffffffffff82116136ae57613fe691600401613f4e565b604051906142c1826141cf565b600582527f322e302e300000000000000000000000000000000000000000000000000000006020830152565b156142f457565b60646040517f08c379a000000000000000000000000000000000000000000000000000000000815260206004820152601160248201527f4461746120736574206e6f74206c6976650000000000000000000000000000006044820152fd5b1561435957565b60646040517f08c379a000000000000000000000000000000000000000000000000000000000815260206004820152601460248201527f4578747261206461746120746f6f206c617267650000000000000000000000006044820152fd5b9060018201809211611f8957565b91908201809211611f8957565b91908110156143e25760051b0190565b7f4e487b71000000000000000000000000000000000000000000000000000000005f52603260045260245ffd5b80548210156143e2575f5260205f2001905f90565b601f82602094937fffffffffffffffffffffffffffffffffffffffffffffffffffffffffffffffe093818652868601375f8582860101520116010190565b9061446c82614f44565b918261449b575b8261447d57505090565b9091505f52600360205260405f20905f5260205260405f2054151590565b8092505f52600560205260405f2054811091614473565b90600182811c921680156144f9575b60208310146144cc57565b7f4e487b71000000000000000000000000000000000000000000000000000000005f52602260045260245ffd5b91607f16916144c1565b6060604051614511816141b3565b5261451e61108782614f44565b5f526020906002825260405f20905f52815260405f2060405191614541836141b3565b60405180925f908054614553816144b2565b808552916001918083169081156145bf5750600114614581575b50505061457c925003826141eb565b815290565b5f90815285812095935091905b8183106145a757505061457c93508201015f808061456d565b8554878401850152948501948694509183019161458e565b91505061457c9593507fffffffffffffffffffffffffffffffffffffffffffffffffffffffffffffff0091501682840152151560051b8201015f808061456d565b91908203918211611f8957565b67ffffffffffffffff8111610a995760051b60200190565b9061462f8261460d565b60409061463f60405191826141eb565b8381527fffffffffffffffffffffffffffffffffffffffffffffffffffffffffffffffe061466d829561460d565b01915f5b83811061467e5750505050565b602090825161468c816141cf565b5f8152825f81830152828601015201614671565b80518210156143e25760209160051b010190565b906146be8261460d565b6040906146ce60405191826141eb565b8381527fffffffffffffffffffffffffffffffffffffffffffffffffffffffffffffffe06146fc829561460d565b01915f5b83811061470d5750505050565b602090825161471b816141b3565b6060815282828601015201614700565b906147358261460d565b61474260405191826141eb565b8281527fffffffffffffffffffffffffffffffffffffffffffffffffffffffffffffffe0614770829461460d565b0190602036910137565b906701518000000000009180830292830403611f8957565b81810292918115918404141715611f8957565b7fffffffffffffffffffffffffffffffffffffffffffffffffffffffffffffffff8114611f895760010190565b915f6147e061108785614f44565b8115614ac857835f52600560205260405f2054926147fd836146b4565b926148078161472b565b946148118261472b565b965f905f945f5b848110614905575b505050505081155f1461486d5750505050505060405161483f816141b3565b5f81526040519161484f836141b3565b5f83526040519161485f836141b3565b5f83525f3681379291905f90565b81969293949596105f146148ff57614884816146b4565b9561488e8261472b565b956148988361472b565b955f5b8481106148a9575050505050565b806148b6600192846146a0565b516148c1828d6146a0565b526148cc818c6146a0565b506148d781856146a0565b516148e2828c6146a0565b526148ed81866146a0565b516148f8828b6146a0565b520161489b565b50919391565b825f52600360205260405f20815f5260205260405f2054614929575b600101614818565b92958187101580614abf575b15614a8e57825f52600260205260405f20845f5260205260405f206040519061495d826141b3565b60405190815f82549261496f846144b2565b8084529360018116908115614a4e5750600114614a0c575b50614994925003826141eb565b81526149a0828b6146a0565b526149ab818a6146a0565b50836149b7828c6146a0565b52825f52600360205260405f20845f5260205260405f2054908160051b9180830460201490151715611f89576149fe816001936149f88f94614a04956146a0565b526147a5565b976147a5565b939050614921565b9150505f528160205f20915f925b818410614a325750506020614994928201015f614987565b6020919250806001915483868801015201920191908391614a1a565b602093506149949592507fffffffffffffffffffffffffffffffffffffffffffffffffffffffffffffff0091501682840152151560051b8201015f614987565b95614a9986836143c5565b811015614aab57614a046001916147a5565b505050505091506001915f80808080614820565b50858110614935565b60646040517f08c379a000000000000000000000000000000000000000000000000000000000815260206004820152601c60248201527f4c696d6974206d7573742062652067726561746572207468616e2030000000006044820152fd5b3d15614b50573d90614b378261422c565b91614b4560405193846141eb565b82523d5f602084013e565b606090565b5f80916040516020810191825260208152614b6f816141cf565b519073fe000000000000000000000000000000000000065afa614b90614b26565b9015614baa576020818051810103126136ae576020015190565b60846040517f08c379a000000000000000000000000000000000000000000000000000000000815260206004820152602160248201527f52616e646f6d6e65737320707265636f6d70696c652063616c6c206661696c6560448201527f64000000000000000000000000000000000000000000000000000000000000006064820152fd5b908160809103126136ae576040519067ffffffffffffffff6080830181811184821017610a995760405281518060070b81036136ae578352602082015190811681036136ae5760208301526040810151908160030b82036136ae5760609160408401520151606082015290565b15614ca257565b60846040517f08c379a000000000000000000000000000000000000000000000000000000000815260206004820152603060248201527f6661696c656420746f2076616c69646174653a207072696365206d757374206260448201527f652067726561746572207468616e2030000000000000000000000000000000006064820152fd5b6040908151917fa4ae35e00000000000000000000000000000000000000000000000000000000083527f150ac9b959aee0051e4091f0ef5216d941f590e1c5e7f91cf7635b5c11628c0e9283600482015262015180602482015260809373a2aa501b19aff244d90cc15a4cf739d2725b5729918581604481865afa5f9181614ea7575b50614e92575084907f32e677043f93cd9edc909002276c5e55eb11c275a7b368ae7fe86687516eb120614df0614ddd614b26565b865191829160208352602083019061401e565b0390a160248451809481937f96834ad300000000000000000000000000000000000000000000000000000000835260048301525afa938415614e88575f94614e59575b5050614e445f845160070b13614c9b565b825167ffffffffffffffff1692015160030b90565b614e79929450803d10614e81575b614e7181836141eb565b810190614c2e565b915f80614e33565b503d614e67565b82513d5f823e3d90fd5b809550614e4492505f91505160070b13614c9b565b614ebf919250873d8911614e8157614e7181836141eb565b905f614da9565b67ffffffffffffffff809116908114611f895760010190565b15614ee657565b60646040517f08c379a000000000000000000000000000000000000000000000000000000000815260206004820152601060248201527f5472616e73666572206661696c65642e000000000000000000000000000000006044820152fd5b67ffffffffffffffff6001541681109081614f5d575090565b90505f52600b60205273ffffffffffffffffffffffffffffffffffffffff60405f205416151590565b91908110156143e25760051b810135907fffffffffffffffffffffffffffffffffffffffffffffffffffffffffffffffc1813603018212156136ae570190565b73ffffffffffffffffffffffffffffffffffffffff809116908115615057577f9016d09d72d40fdae2fd8ceac6b6234c7706214fd39c1cd1e609a0528c199300805490837fffffffffffffffffffffffff00000000000000000000000000000000000000008316179055167f8be0079c531659141344cd1fd0a4f28419497f9722a3daafe3b4186f6b6457e05f80a3565b60246040517f1e4fbdf70000000000000000000000000000000000000000000000000000000081525f6004820152fd5b9035907fffffffffffffffffffffffffffffffffffffffffffffffffffffffffffffffe1813603018212156136ae570180359067ffffffffffffffff82116136ae57602001918160051b360383136136ae57565b610100908060801c806152a0575b508060401c8061526d575b508060201c8061523a575b508060101c80615207575b508060081c806151d4575b508060041c806151a1575b508060021c8061516e575b508060011c6151405761513d91614600565b90565b507ffffffffffffffffffffffffffffffffffffffffffffffffffffffffffffffffe8101908111611f895790565b917ffffffffffffffffffffffffffffffffffffffffffffffffffffffffffffffffe810191508111611f8957905f61512b565b917ffffffffffffffffffffffffffffffffffffffffffffffffffffffffffffffffc810191508111611f8957905f615120565b917ffffffffffffffffffffffffffffffffffffffffffffffffffffffffffffffff8810191508111611f8957905f615115565b917ffffffffffffffffffffffffffffffffffffffffffffffffffffffffffffffff0810191508111611f8957905f61510a565b917fffffffffffffffffffffffffffffffffffffffffffffffffffffffffffffffe0810191508111611f8957905f6150ff565b917fffffffffffffffffffffffffffffffffffffffffffffffffffffffffffffffc0810191508111611f8957905f6150f4565b9150506080905f6150e9565b916040918251916152bc836141cf565b5f83525f602080940152845f5260068352835f2054821015615452576001947fffffffffffffffffffffffffffffffffffffffffffffffffffffffffffffffff86831b818101908111611f895796905f9391825b61536e575050505f5260048352835f20855f528352615332845f2054826143c5565b82811115615358575061534491614600565b915192615350846141cf565b835282015290565b905060018501809511611f895761534491614600565b909197835f5260058752875f205481101561543b57835f52600494858852885f20825f528852866153a28a5f2054836143c5565b1161541b576153c390855f52868952895f20835f528952895f2054906143c5565b94838a01908a82116153ef575090826153dd921b906143c5565b975b8015611f89578201919082615310565b6011907f4e487b71000000000000000000000000000000000000000000000000000000005f525260245ffd5b94838a01908a82116153ef57509082615435921b90614600565b976153df565b82890190898211611f895782615435921b90614600565b6064838551907f08c379a00000000000000000000000000000000000000000000000000000000082526004820152601860248201527f4c65616620696e646578206f7574206f6620626f756e647300000000000000006044820152fd5b63ffffffff16604d8111611f8957600a0a90565b93929190841580159061579d575b156157195767ffffffffffffffff1690811561569557821561561157600381900b5f81126155a3575061551561550961551b9361477a565b9163ffffffff166154af565b90614792565b8015610a6c5761553d9261553891671bc16d674ec8000004614792565b614792565b9060058202821590838104600514821715611f895760649004908360021b848104600414821715611f89578284106155785750505050505f90565b60649004831061558d575061513d9250614600565b9150508180046001141715611f89576064900490565b90507fffffffffffffffffffffffffffffffffffffffffffffffffffffffff800000008114611f89576155dd905f0363ffffffff166154af565b90671bc16d674ec800009180830292830403611f89576155fc9061477a565b928315610a6c5761553d936155389204614792565b60846040517f08c379a000000000000000000000000000000000000000000000000000000000815260206004820152603360248201527f6661696c656420746f2076616c69646174653a207261772073697a65206d757360448201527f742062652067726561746572207468616e2030000000000000000000000000006064820152fd5b60846040517f08c379a000000000000000000000000000000000000000000000000000000000815260206004820152603860248201527f6661696c656420746f2076616c69646174653a204174746f46494c207072696360448201527f65206d7573742062652067726561746572207468616e203000000000000000006064820152fd5b60846040517f08c379a000000000000000000000000000000000000000000000000000000000815260206004820152603c60248201527f6661696c656420746f2076616c69646174653a20657374696d6174656420676160448201527f7320666565206d7573742062652067726561746572207468616e2030000000006064820152fd5b5048156154d1565b73ffffffffffffffffffffffffffffffffffffffff7f9016d09d72d40fdae2fd8ceac6b6234c7706214fd39c1cd1e609a0528c199300541633036157e557565b60246040517f118cdaa7000000000000000000000000000000000000000000000000000000008152336004820152fd5b818110615820575050565b5f8155600101615815565b9081518110156143e2570160200190565b60ff7ff0c57e16840df040f15088dc2f81fe391c3923bec73e23a9662efc9c229c6a005460401c161561586b57565b60046040517fd7e6bcf8000000000000000000000000000000000000000000000000000000008152fd5b906158d457508051156158aa57805190602001fd5b60046040517fd6bda275000000000000000000000000000000000000000000000000000000008152fd5b8151158061592c575b6158e5575090565b60249073ffffffffffffffffffffffffffffffffffffffff604051917f9996b315000000000000000000000000000000000000000000000000000000008352166004820152fd5b50803b156158dd565b7f7fffffffffffffffffffffffffffffffffffffffffffffffffffffffffffffff8111615c4057610100907f80000000000000000000000000000000000000000000000000000000000000008114611f8957805f031680615c37575b6fffffffffffffffffffffffffffffffff8116615c06575b77ffffffffffffffff0000000000000000ffffffffffffffff8116615bd5575b7bffffffff00000000ffffffff00000000ffffffff00000000ffffffff8116615ba4575b7dffff0000ffff0000ffff0000ffff0000ffff0000ffff0000ffff0000ffff8116615b73575b7eff00ff00ff00ff00ff00ff00ff00ff00ff00ff00ff00ff00ff00ff00ff00ff8116615b42575b7f0f0f0f0f0f0f0f0f0f0f0f0f0f0f0f0f0f0f0f0f0f0f0f0f0f0f0f0f0f0f0f0f8116615b11575b7f33333333333333333333333333333333333333333333333333333333333333338116615ae0575b7f555555555555555555555555555555555555555555555555555555555555555516615ab35790565b7fffffffffffffffffffffffffffffffffffffffffffffffffffffffffffffffff8101908111611f895790565b907ffffffffffffffffffffffffffffffffffffffffffffffffffffffffffffffffe8101908111611f895790615a8a565b907ffffffffffffffffffffffffffffffffffffffffffffffffffffffffffffffffc8101908111611f895790615a62565b907ffffffffffffffffffffffffffffffffffffffffffffffffffffffffffffffff88101908111611f895790615a3a565b907ffffffffffffffffffffffffffffffffffffffffffffffffffffffffffffffff08101908111611f895790615a13565b907fffffffffffffffffffffffffffffffffffffffffffffffffffffffffffffffe08101908111611f8957906159ed565b907fffffffffffffffffffffffffffffffffffffffffffffffffffffffffffffffc08101908111611f8957906159c9565b907fffffffffffffffffffffffffffffffffffffffffffffffffffffffffffffff808101908111611f8957906159a9565b60ff9150615991565b60846040517f08c379a000000000000000000000000000000000000000000000000000000000815260206004820152602260248201527f496e7075742065786365656473206d6178696d756d20696e743235362076616c60448201527f75650000000000000000000000000000000000000000000000000000000000006064820152fd5b5f5260205260205f60408160025afa156136ae577fffffffffffffffffffffffffffffffffffffffffffffffffffffffffffffff3f5f51169056fea2646970667358221220a2d6c54c44a68038f7d59aa211cb3b39a5f231a0e7b9f3f652141521dc58b6fd64736f6c63430008170033","linkReferences":{}},"methodIdentifiers":{"BURN_ACTOR()":"0a6a63f1","EXTRA_DATA_MAX_SIZE()":"029b4646","FIL_USD_PRICE_FEED_ID()":"19c75950","LEAF_SIZE()":"c0e15949","MAX_ENQUEUED_REMOVALS()":"9f8cb3bd","MAX_PIECE_SIZE()":"8a405abc","NO_CHALLENGE_SCHEDULED()":"462dd449","NO_PROVEN_EPOCH()":"f178b1be","PYTH()":"67e406d5","RANDOMNESS_PRECOMPILE()":"15b17570","SECONDS_IN_DAY()":"61a52a36","UPGRADE_INTERFACE_VERSION()":"ad3cb1cc","VERSION()":"ffa1ad74","addPieces(uint256,((bytes),uint256)[],bytes)":"ddea76cc","calculateProofFee(uint256,uint256)":"4903704a","claimDataSetStorageProvider(uint256,bytes)":"df0f3248","createDataSet(address,bytes)":"bbae41cb","dataSetLive(uint256)":"ca759f27","deleteDataSet(uint256,bytes)":"7a1e2990","findPieceIds(uint256,uint256[])":"349c9179","getActivePieceCount(uint256)":"5353bdfd","getActivePieces(uint256,uint256,uint256)":"39f51544","getChallengeFinality()":"f83758fe","getChallengeRange(uint256)":"89208ba9","getDataSetLastProvenEpoch(uint256)":"04595c1a","getDataSetLeafCount(uint256)":"a531998c","getDataSetListener(uint256)":"2b3129bb","getDataSetStorageProvider(uint256)":"21b7cd1c","getFILUSDPrice()":"4fa27920","getNextChallengeEpoch(uint256)":"6ba4608f","getNextDataSetId()":"442cded3","getNextPieceId(uint256)":"1c5ae80f","getPieceCid(uint256,uint256)":"25bbbedf","getPieceLeafCount(uint256,uint256)":"0cd7b880","getRandomness(uint256)":"453f4f62","getScheduledRemovals(uint256)":"6fa44692","initialize(uint256)":"fe4b84df","migrate()":"8fd3ab80","nextProvingPeriod(uint256,uint256,bytes)":"45c0b92d","owner()":"8da5cb5b","pieceChallengable(uint256,uint256)":"dc635266","pieceLive(uint256,uint256)":"1a271225","proposeDataSetStorageProvider(uint256,address)":"43186080","provePossession(uint256,(bytes32,bytes32[])[])":"f58f952b","proxiableUUID()":"52d1902d","renounceOwnership()":"715018a6","schedulePieceDeletions(uint256,uint256[],bytes)":"0c292024","transferOwnership(address)":"f2fde38b","upgradeToAndCall(address,bytes)":"4f1ef286"},"id":43}