{"abi":[{"type":"constructor","inputs":[],"stateMutability":"nonpayable"},{"type":"function","name":"BURN_ACTOR","inputs":[],"outputs":[{"name":"","type":"address","internalType":"address"}],"stateMutability":"view"},{"type":"function","name":"EXTRA_DATA_MAX_SIZE","inputs":[],"outputs":[{"name":"","type":"uint256","internalType":"uint256"}],"stateMutability":"view"},{"type":"function","name":"FIL_USD_PRICE_FEED_ID","inputs":[],"outputs":[{"name":"","type":"bytes32","internalType":"bytes32"}],"stateMutability":"view"},{"type":"function","name":"LEAF_SIZE","inputs":[],"outputs":[{"name":"","type":"uint256","internalType":"uint256"}],"stateMutability":"view"},{"type":"function","name":"MAX_ENQUEUED_REMOVALS","inputs":[],"outputs":[{"name":"","type":"uint256","internalType":"uint256"}],"stateMutability":"view"},{"type":"function","name":"MAX_PIECE_SIZE_LOG2","inputs":[],"outputs":[{"name":"","type":"uint256","internalType":"uint256"}],"stateMutability":"view"},{"type":"function","name":"NO_CHALLENGE_SCHEDULED","inputs":[],"outputs":[{"name":"","type":"uint256","internalType":"uint256"}],"stateMutability":"view"},{"type":"function","name":"NO_PROVEN_EPOCH","inputs":[],"outputs":[{"name":"","type":"uint256","internalType":"uint256"}],"stateMutability":"view"},{"type":"function","name":"PYTH","inputs":[],"outputs":[{"name":"","type":"address","internalType":"contract IPyth"}],"stateMutability":"view"},{"type":"function","name":"RANDOMNESS_PRECOMPILE","inputs":[],"outputs":[{"name":"","type":"address","internalType":"address"}],"stateMutability":"view"},{"type":"function","name":"SECONDS_IN_DAY","inputs":[],"outputs":[{"name":"","type":"uint256","internalType":"uint256"}],"stateMutability":"view"},{"type":"function","name":"UPGRADE_INTERFACE_VERSION","inputs":[],"outputs":[{"name":"","type":"string","internalType":"string"}],"stateMutability":"view"},{"type":"function","name":"VERSION","inputs":[],"outputs":[{"name":"","type":"string","internalType":"string"}],"stateMutability":"view"},{"type":"function","name":"addPieces","inputs":[{"name":"setId","type":"uint256","internalType":"uint256"},{"name":"pieceData","type":"tuple[]","internalType":"struct Cids.Cid[]","components":[{"name":"data","type":"bytes","internalType":"bytes"}]},{"name":"extraData","type":"bytes","internalType":"bytes"}],"outputs":[{"name":"","type":"uint256","internalType":"uint256"}],"stateMutability":"nonpayable"},{"type":"function","name":"calculateProofFee","inputs":[{"name":"setId","type":"uint256","internalType":"uint256"},{"name":"estimatedGasFee","type":"uint256","internalType":"uint256"}],"outputs":[{"name":"","type":"uint256","internalType":"uint256"}],"stateMutability":"nonpayable"},{"type":"function","name":"claimDataSetStorageProvider","inputs":[{"name":"setId","type":"uint256","internalType":"uint256"},{"name":"extraData","type":"bytes","internalType":"bytes"}],"outputs":[],"stateMutability":"nonpayable"},{"type":"function","name":"createDataSet","inputs":[{"name":"listenerAddr","type":"address","internalType":"address"},{"name":"extraData","type":"bytes","internalType":"bytes"}],"outputs":[{"name":"","type":"uint256","internalType":"uint256"}],"stateMutability":"payable"},{"type":"function","name":"dataSetLive","inputs":[{"name":"setId","type":"uint256","internalType":"uint256"}],"outputs":[{"name":"","type":"bool","internalType":"bool"}],"stateMutability":"view"},{"type":"function","name":"deleteDataSet","inputs":[{"name":"setId","type":"uint256","internalType":"uint256"},{"name":"extraData","type":"bytes","internalType":"bytes"}],"outputs":[],"stateMutability":"nonpayable"},{"type":"function","name":"findPieceIds","inputs":[{"name":"setId","type":"uint256","internalType":"uint256"},{"name":"leafIndexs","type":"uint256[]","internalType":"uint256[]"}],"outputs":[{"name":"","type":"tuple[]","internalType":"struct IPDPTypes.PieceIdAndOffset[]","components":[{"name":"pieceId","type":"uint256","internalType":"uint256"},{"name":"offset","type":"uint256","internalType":"uint256"}]}],"stateMutability":"view"},{"type":"function","name":"getActivePieceCount","inputs":[{"name":"setId","type":"uint256","internalType":"uint256"}],"outputs":[{"name":"activeCount","type":"uint256","internalType":"uint256"}],"stateMutability":"view"},{"type":"function","name":"getActivePieces","inputs":[{"name":"setId","type":"uint256","internalType":"uint256"},{"name":"offset","type":"uint256","internalType":"uint256"},{"name":"limit","type":"uint256","internalType":"uint256"}],"outputs":[{"name":"pieces","type":"tuple[]","internalType":"struct Cids.Cid[]","components":[{"name":"data","type":"bytes","internalType":"bytes"}]},{"name":"pieceIds","type":"uint256[]","internalType":"uint256[]"},{"name":"rawSizes","type":"uint256[]","internalType":"uint256[]"},{"name":"hasMore","type":"bool","internalType":"bool"}],"stateMutability":"view"},{"type":"function","name":"getChallengeFinality","inputs":[],"outputs":[{"name":"","type":"uint256","internalType":"uint256"}],"stateMutability":"view"},{"type":"function","name":"getChallengeRange","inputs":[{"name":"setId","type":"uint256","internalType":"uint256"}],"outputs":[{"name":"","type":"uint256","internalType":"uint256"}],"stateMutability":"view"},{"type":"function","name":"getDataSetLastProvenEpoch","inputs":[{"name":"setId","type":"uint256","internalType":"uint256"}],"outputs":[{"name":"","type":"uint256","internalType":"uint256"}],"stateMutability":"view"},{"type":"function","name":"getDataSetLeafCount","inputs":[{"name":"setId","type":"uint256","internalType":"uint256"}],"outputs":[{"name":"","type":"uint256","internalType":"uint256"}],"stateMutability":"view"},{"type":"function","name":"getDataSetListener","inputs":[{"name":"setId","type":"uint256","internalType":"uint256"}],"outputs":[{"name":"","type":"address","internalType":"address"}],"stateMutability":"view"},{"type":"function","name":"getDataSetStorageProvider","inputs":[{"name":"setId","type":"uint256","internalType":"uint256"}],"outputs":[{"name":"","type":"address","internalType":"address"},{"name":"","type":"address","internalType":"address"}],"stateMutability":"view"},{"type":"function","name":"getFILUSDPrice","inputs":[],"outputs":[{"name":"","type":"uint64","internalType":"uint64"},{"name":"","type":"int32","internalType":"int32"}],"stateMutability":"nonpayable"},{"type":"function","name":"getNextChallengeEpoch","inputs":[{"name":"setId","type":"uint256","internalType":"uint256"}],"outputs":[{"name":"","type":"uint256","internalType":"uint256"}],"stateMutability":"view"},{"type":"function","name":"getNextDataSetId","inputs":[],"outputs":[{"name":"","type":"uint64","internalType":"uint64"}],"stateMutability":"view"},{"type":"function","name":"getNextPieceId","inputs":[{"name":"setId","type":"uint256","internalType":"uint256"}],"outputs":[{"name":"","type":"uint256","internalType":"uint256"}],"stateMutability":"view"},{"type":"function","name":"getPieceCid","inputs":[{"name":"setId","type":"uint256","internalType":"uint256"},{"name":"pieceId","type":"uint256","internalType":"uint256"}],"outputs":[{"name":"","type":"tuple","internalType":"struct Cids.Cid","components":[{"name":"data","type":"bytes","internalType":"bytes"}]}],"stateMutability":"view"},{"type":"function","name":"getPieceLeafCount","inputs":[{"name":"setId","type":"uint256","internalType":"uint256"},{"name":"pieceId","type":"uint256","internalType":"uint256"}],"outputs":[{"name":"","type":"uint256","internalType":"uint256"}],"stateMutability":"view"},{"type":"function","name":"getRandomness","inputs":[{"name":"epoch","type":"uint256","internalType":"uint256"}],"outputs":[{"name":"","type":"uint256","internalType":"uint256"}],"stateMutability":"view"},{"type":"function","name":"getScheduledRemovals","inputs":[{"name":"setId","type":"uint256","internalType":"uint256"}],"outputs":[{"name":"","type":"uint256[]","internalType":"uint256[]"}],"stateMutability":"view"},{"type":"function","name":"initialize","inputs":[{"name":"_challengeFinality","type":"uint256","internalType":"uint256"}],"outputs":[],"stateMutability":"nonpayable"},{"type":"function","name":"migrate","inputs":[],"outputs":[],"stateMutability":"nonpayable"},{"type":"function","name":"nextProvingPeriod","inputs":[{"name":"setId","type":"uint256","internalType":"uint256"},{"name":"challengeEpoch","type":"uint256","internalType":"uint256"},{"name":"extraData","type":"bytes","internalType":"bytes"}],"outputs":[],"stateMutability":"nonpayable"},{"type":"function","name":"owner","inputs":[],"outputs":[{"name":"","type":"address","internalType":"address"}],"stateMutability":"view"},{"type":"function","name":"pieceChallengable","inputs":[{"name":"setId","type":"uint256","internalType":"uint256"},{"name":"pieceId","type":"uint256","internalType":"uint256"}],"outputs":[{"name":"","type":"bool","internalType":"bool"}],"stateMutability":"view"},{"type":"function","name":"pieceLive","inputs":[{"name":"setId","type":"uint256","internalType":"uint256"},{"name":"pieceId","type":"uint256","internalType":"uint256"}],"outputs":[{"name":"","type":"bool","internalType":"bool"}],"stateMutability":"view"},{"type":"function","name":"proposeDataSetStorageProvider","inputs":[{"name":"setId","type":"uint256","internalType":"uint256"},{"name":"newStorageProvider","type":"address","internalType":"address"}],"outputs":[],"stateMutability":"nonpayable"},{"type":"function","name":"provePossession","inputs":[{"name":"setId","type":"uint256","internalType":"uint256"},{"name":"proofs","type":"tuple[]","internalType":"struct IPDPTypes.Proof[]","components":[{"name":"leaf","type":"bytes32","internalType":"bytes32"},{"name":"proof","type":"bytes32[]","internalType":"bytes32[]"}]}],"outputs":[],"stateMutability":"payable"},{"type":"function","name":"proxiableUUID","inputs":[],"outputs":[{"name":"","type":"bytes32","internalType":"bytes32"}],"stateMutability":"view"},{"type":"function","name":"renounceOwnership","inputs":[],"outputs":[],"stateMutability":"nonpayable"},{"type":"function","name":"schedulePieceDeletions","inputs":[{"name":"setId","type":"uint256","internalType":"uint256"},{"name":"pieceIds","type":"uint256[]","internalType":"uint256[]"},{"name":"extraData","type":"bytes","internalType":"bytes"}],"outputs":[],"stateMutability":"nonpayable"},{"type":"function","name":"transferOwnership","inputs":[{"name":"newOwner","type":"address","internalType":"address"}],"outputs":[],"stateMutability":"nonpayable"},{"type":"function","name":"upgradeToAndCall","inputs":[{"name":"newImplementation","type":"address","internalType":"address"},{"name":"data","type":"bytes","internalType":"bytes"}],"outputs":[],"stateMutability":"payable"},{"type":"event","name":"ContractUpgraded","inputs":[{"name":"version","type":"string","indexed":false,"internalType":"string"},{"name":"implementation","type":"address","indexed":false,"internalType":"address"}],"anonymous":false},{"type":"event","name":"DataSetCreated","inputs":[{"name":"setId","type":"uint256","indexed":true,"internalType":"uint256"},{"name":"storageProvider","type":"address","indexed":true,"internalType":"address"}],"anonymous":false},{"type":"event","name":"DataSetDeleted","inputs":[{"name":"setId","type":"uint256","indexed":true,"internalType":"uint256"},{"name":"deletedLeafCount","type":"uint256","indexed":false,"internalType":"uint256"}],"anonymous":false},{"type":"event","name":"DataSetEmpty","inputs":[{"name":"setId","type":"uint256","indexed":true,"internalType":"uint256"}],"anonymous":false},{"type":"event","name":"Initialized","inputs":[{"name":"version","type":"uint64","indexed":false,"internalType":"uint64"}],"anonymous":false},{"type":"event","name":"NextProvingPeriod","inputs":[{"name":"setId","type":"uint256","indexed":true,"internalType":"uint256"},{"name":"challengeEpoch","type":"uint256","indexed":false,"internalType":"uint256"},{"name":"leafCount","type":"uint256","indexed":false,"internalType":"uint256"}],"anonymous":false},{"type":"event","name":"OwnershipTransferred","inputs":[{"name":"previousOwner","type":"address","indexed":true,"internalType":"address"},{"name":"newOwner","type":"address","indexed":true,"internalType":"address"}],"anonymous":false},{"type":"event","name":"PiecesAdded","inputs":[{"name":"setId","type":"uint256","indexed":true,"internalType":"uint256"},{"name":"pieceIds","type":"uint256[]","indexed":false,"internalType":"uint256[]"}],"anonymous":false},{"type":"event","name":"PiecesRemoved","inputs":[{"name":"setId","type":"uint256","indexed":true,"internalType":"uint256"},{"name":"pieceIds","type":"uint256[]","indexed":false,"internalType":"uint256[]"}],"anonymous":false},{"type":"event","name":"PossessionProven","inputs":[{"name":"setId","type":"uint256","indexed":true,"internalType":"uint256"},{"name":"challenges","type":"tuple[]","indexed":false,"internalType":"struct IPDPTypes.PieceIdAndOffset[]","components":[{"name":"pieceId","type":"uint256","internalType":"uint256"},{"name":"offset","type":"uint256","internalType":"uint256"}]}],"anonymous":false},{"type":"event","name":"PriceOracleFailure","inputs":[{"name":"reason","type":"bytes","indexed":false,"internalType":"bytes"}],"anonymous":false},{"type":"event","name":"ProofFeePaid","inputs":[{"name":"setId","type":"uint256","indexed":true,"internalType":"uint256"},{"name":"fee","type":"uint256","indexed":false,"internalType":"uint256"},{"name":"price","type":"uint64","indexed":false,"internalType":"uint64"},{"name":"expo","type":"int32","indexed":false,"internalType":"int32"}],"anonymous":false},{"type":"event","name":"StorageProviderChanged","inputs":[{"name":"setId","type":"uint256","indexed":true,"internalType":"uint256"},{"name":"oldStorageProvider","type":"address","indexed":true,"internalType":"address"},{"name":"newStorageProvider","type":"address","indexed":true,"internalType":"address"}],"anonymous":false},{"type":"event","name":"Upgraded","inputs":[{"name":"implementation","type":"address","indexed":true,"internalType":"address"}],"anonymous":false},{"type":"error","name":"AddressEmptyCode","inputs":[{"name":"target","type":"address","internalType":"address"}]},{"type":"error","name":"ERC1967InvalidImplementation","inputs":[{"name":"implementation","type":"address","internalType":"address"}]},{"type":"error","name":"ERC1967NonPayable","inputs":[]},{"type":"error","name":"FailedCall","inputs":[]},{"type":"error","name":"IndexedError","inputs":[{"name":"idx","type":"uint256","internalType":"uint256"},{"name":"msg","type":"string","internalType":"string"}]},{"type":"error","name":"InvalidInitialization","inputs":[]},{"type":"error","name":"NotInitializing","inputs":[]},{"type":"error","name":"OwnableInvalidOwner","inputs":[{"name":"owner","type":"address","internalType":"address"}]},{"type":"error","name":"OwnableUnauthorizedAccount","inputs":[{"name":"account","type":"address","internalType":"address"}]},{"type":"error","name":"UUPSUnauthorizedCallContext","inputs":[]},{"type":"error","name":"UUPSUnsupportedProxiableUUID","inputs":[{"name":"slot","type":"bytes32","internalType":"bytes32"}]}],"bytecode":{"object":"0x60a080604052346100c257306080525f516020614a055f395f51905f525460ff8160401c166100b3576002600160401b03196001600160401b03821601610060575b60405161493e90816100c78239608051818181611789015261184f0152f35b6001600160401b0319166001600160401b039081175f516020614a055f395f51905f525581527fc7f505b2f371ae2175ee4913f4499e1f2633a7b5936321eed1cdaeb6115181d290602090a15f80610041565b63f92ee8a960e01b5f5260045ffd5b5f80fdfe610100806040526004361015610013575f80fd5b5f905f3560e01c908163029b46461461310c5750806304595c1a146130d65780630a6a63f1146130b45780630c29202414612dc45780630cd7b88014612d8b57806315b1757014612d6857806319c7595014612d2d5780631a27122514612d135780631c5ae80f14612cdd57806321b7cd1c14612c8757806325bbbedf14612c515780632b3129bb14612c12578063306fc8be1461230d578063349c91791461227057806339f51544146121ba57806343186080146120ad578063442cded314612086578063453f4f621461206757806345c0b92d14611a55578063462dd44914610bd05780634903704a146119f95780634f1ef286146118105780634fa27920146117dd57806352d1902d146117765780635353bdfd146116fa57806361a52a36146116dc57806367e406d5146116ad5780636ba4608f146116775780636fa44692146115fb578063715018a6146115925780637a1e29901461139957806389208ba9146113635780638da5cb5b1461132e5780638fd3ab80146112245780639f8cb3bd14611207578063a531998c146111d1578063ad3cb1cc14611189578063bbae41cb14610f4e578063c0e1594914610f33578063ca759f2714610f0a578063dc63526614610da8578063df0f324814610bd5578063f178b1be14610bd0578063f2fde38b14610ba3578063f58f952b146103fd578063f83758fe146103e0578063f8eb8276146103c4578063fe4b84df146102705763ffa1ad741461023a575f80fd5b3461026d578060031936011261026d576102696102556133d0565b6040519182916020835260208301906131ee565b0390f35b80fd5b503461026d57602036600319011261026d575f5160206148e95f395f51905f525460ff8160401c1615906001600160401b038116801590816103bc575b60011490816103b2575b1590816103a9575b5061039a5767ffffffffffffffff1981166001175f5160206148e95f395f51905f52558161036e575b506102f16145cd565b6102f96145cd565b61030233613e8e565b61030a6145cd565b60043582556103165780f35b68ff0000000000000000195f5160206148e95f395f51905f5254165f5160206148e95f395f51905f52557fc7f505b2f371ae2175ee4913f4499e1f2633a7b5936321eed1cdaeb6115181d2602060405160018152a180f35b68ffffffffffffffffff191668010000000000000001175f5160206148e95f395f51905f52555f6102e8565b63f92ee8a960e01b8352600483fd5b9050155f6102bf565b303b1591506102b7565b8391506102ad565b503461026d578060031936011261026d57602060405160328152f35b503461026d578060031936011261026d5760209054604051908152f35b5061040736613212565b929091925a848352600b60205260408320549093906001600160a01b03163303610b47578115610b145784835260076020526040832054804310610add5715610a9f5761045382613699565b9085845260076020526104696040852054613b0f565b9580855260096020526040852054818652600560205261048c6040872054613f6c565b610100039061010082116107cb578787878b95969782986040985b836001600160401b038c16101561086157895160208101908a8252828c8201526001600160401b0360c01b8d60c01b166060820152604881526104eb60688261331f565b519020871561084d57888861050192068361406b565b6105146001600160401b038d1685613678565b526105286001600160401b038c1684613678565b5061054761053f6001600160401b038d1685613678565b515182613550565b61055660208251511015614578565b8a516105628c8261331f565b6020808252810190601f198d01368337875b602081106107f657508760a05251905160a052602081106107df575b506105a060218251511015614578565b518051601f198101919080831161078f57602019019182116107cb576001916105c8916145bc565b5160f81c0160ff81116107b7578b906001600160401b0360206106186105fd6105f48487168b8a613eff565b83810190613f21565b93909561060d8282168c8b613eff565b356080521688613678565b510151926106258261362f565b60e0528d5160c05261063b60e05160c05161331f565b60c08051839052516020019036600584901b8201116107b35780915b8360051b820183106107a3575050505060ff1660c051515f19820191821161078f570361073b576080519598909789965b60c051518b10156106d1576001906106a28c60c051613678565b51908b83166106c257906106b59161488b565b995b811c9a019998610688565b6106cb9161488b565b996106b7565b919599509397509a90949891959a60a05103610700576106f090613dfc565b99949097939692969591956104a7565b895162461bcd60e51b815260206004820152601460248201527370726f6f6620646964206e6f742076657269667960601b6044820152606490fd5b8a5162461bcd60e51b815260206004820152602760248201527f70726f6f66206c656e67746820646f6573206e6f74206d617463682074726565604482015266081a195a59da1d60ca1b6064820152608490fd5b634e487b7160e01b88526011600452602488fd5b8235815260209283019201610657565b8980fd5b634e487b7160e01b86526011600452602486fd5b634e487b7160e01b87526011600452602487fd5b5f199060200360031b1b60a0511660a0528c610590565b83518051601f198101919082116108395790610824839261081e60019560ff60f81b94613476565b906145bc565b51168a1a61083282856145bc565b5301610574565b634e487b7160e01b8b52601160045260248bfd5b634e487b7160e01b86526012600452602486fd5b9289916108718a96975a9061368c565b879188905b848210610a525750506020820180921161078f57610514820291808304610514149015171561078f576108b3916108ac91613476565b489061376a565b848752600960205282872054906001600160fb1b038216820361078f57610920867f928bbf5188022bf8b9a0e59f5e81e179d0a4c729bdba2856ac971af2063fbf2b60608761092a8d9897610956978a61090b613c7f565b998196838b8d9552600d60205220544361368c565b9360051b9261422c565b94610934866144e0565b6001600160401b038a519287845216602083015260030b89820152a23461368c565b95858352600860205260018060a01b03848420541690816109db575b505050916109b291847f1acf7df9f0c1b0208c23be6178950c0273f89b766805a2c0bd1e53d25c700e509452600d60205243818820555191829182613241565b0390a281816109be5780f35b8080806109d694335af16109d0613ae0565b50613e19565b818180f35b86845260066020528484205491803b15610a44578492836084928851968795869463356de02b60e01b86528d60048701526024860152604485015260648401525af18015610a4857610a2f575b8080610972565b81610a399161331f565b610a44578486610a28565b8480fd5b83513d84823e3d90fd5b9092610a6c610a62858785613eff565b6020810190613f21565b80915060051b90808204602014901517156108395786019081871161083957600191610a9791613476565b930190610876565b60405162461bcd60e51b81526020600482015260166024820152751b9bc818da185b1b195b99d9481cd8da19591d5b195960521b6044820152606490fd5b60405162461bcd60e51b815260206004820152600f60248201526e383932b6b0ba3ab93290383937b7b360891b6044820152606490fd5b60405162461bcd60e51b815260206004820152600b60248201526a32b6b83a3c90383937b7b360a91b6044820152606490fd5b60405162461bcd60e51b815260206004820152602e60248201527f4f6e6c79207468652073746f726167652070726f76696465722063616e20707260448201526d37bb32903837b9b9b2b9b9b4b7b760911b6064820152608490fd5b503461026d57602036600319011261026d57610bcd610bc06132b9565b610bc86144ad565b613e8e565b80f35b6132cf565b503461026d57610be4366133a1565b610bf5610bf084613e58565b6133f3565b828452600c60205260408420546001600160a01b03163303610d32578284938452600b60205260018060a01b0360408520541691818552600b6020526040852060018060a01b0333166001600160601b0360a01b825416179055818552600c602052604085206001600160601b0360a01b8154169055604051933384847f686146a80f2bf4dc855942926481871515b39b508826d7982a2e0212d20552c98980a4828652600860205260408620546001600160a01b03169182610cb6578680f35b823b15610d2e5785610cf681959389979388948496634059b6d760e01b8652600486015260248501523360448501526080606485015260848401916134a8565b03925af18015610d2357610d0e575b80808080808680f35b81610d189161331f565b61026d57805f610d05565b6040513d84823e3d90fd5b8680fd5b60405162461bcd60e51b815260206004820152604260248201527f4f6e6c79207468652070726f706f7365642073746f726167652070726f76696460448201527f65722063616e20636c61696d2073746f726167652070726f766964657220726f6064820152616c6560f01b608482015260a490fd5b503461026d57610db7366131d8565b81839293526005602052610dce6040832054613f6c565b610100036101008111610ef657838352600960205260408320545f198101908111610ee25790610dfe918561406b565b916020830151848252600360205260408220845183526020526040822054915f198301928311610ece575003610e5957610e3a816020946134c8565b9182610e4d575b50506040519015158152f35b51101590505f80610e41565b60405162461bcd60e51b815260206004820152604160248201527f6368616c6c656e676552616e6765202d312073686f756c6420616c69676e207760448201527f697468207468652076657279206c617374206c656166206f66206120706965636064820152606560f81b608482015260a490fd5b634e487b7160e01b81526011600452602490fd5b634e487b7160e01b84526011600452602484fd5b634e487b7160e01b83526011600452602483fd5b503461026d57602036600319011261026d576020610f29600435613e58565b6040519015158152f35b503461026d578060031936011261026d576020604051818152f35b50604036600319011261026d57610f636132b9565b6024356001600160401b03811161118557610f82903690600401613156565b90610f91610800831115613433565b67016345785d8a0000341061114c578391610fb367016345785d8a00006144e0565b600154936001600160401b038516946001600160401b03610fd387613dfc565b67ffffffffffffffff1990921691161760015584845260066020908152604080862086905586865260078252808620869055868652600b825280862080546001600160a01b031990811633179091558787526008835281872080549091166001600160a01b03949094169384179055868652600d909152842084905591826110db575b5050505033817f11369440e1b7135015c16acb9bc14b55b0f4b23b02010c363d34aec2e5b962818480a367016345785d8a0000341161109b575b602090604051908152f35b67016345785d8a000034033481116110c7578280806020956110c294335af16109d0613ae0565b611090565b634e487b7160e01b5f52601160045260245ffd5b823b15611148576111199284928360405180968195829463101c1eab60e01b84528b60048501523360248501526060604485015260648401916134a8565b03925af18015610d235761112f575b8080611056565b816111399161331f565b61114457815f611128565b5080fd5b8380fd5b60405162461bcd60e51b81526020600482015260116024820152701cde589a5b08199959481b9bdd081b595d607a1b6044820152606490fd5b8280fd5b503461026d578060031936011261026d576102696040516111ab60408261331f565b60058152640352e302e360dc1b60208201526040519182916020835260208301906131ee565b503461026d57602036600319011261026d5760406020916004356111f7610bf082613e58565b8152600683522054604051908152f35b503461026d578060031936011261026d5760206040516107d08152f35b503461026d578060031936011261026d5761123d6144ad565b5f5160206148e95f395f51905f525460ff8160401c16801561131a575b61130b576002907f2b51ff7c4cc8e6fe1c72e9d9685b7d2a88a5d82ad3a644afbdceb0272c89c1c36112b861128d6133d0565b60018060a01b035f5160206148c95f395f51905f5254166040519283926040845260408401906131ee565b9060208301520390a168ffffffffffffffffff1916175f5160206148e95f395f51905f52557fc7f505b2f371ae2175ee4913f4499e1f2633a7b5936321eed1cdaeb6115181d2602060405160028152a180f35b63f92ee8a960e01b8252600482fd5b5060026001600160401b038216101561125a565b503461026d578060031936011261026d575f5160206148a95f395f51905f52546040516001600160a01b039091168152602090f35b503461026d57602036600319011261026d576040602091600435611389610bf082613e58565b8152600983522054604051908152f35b503461026d576113a8366133a1565b906113b7610800831115613433565b6001600160401b036001541683101561154d57828452600b60205260408420546001600160a01b031633036114f157839083825260066020526040822054928483526006602052826040812055848352600b602052604083206001600160601b0360a01b81541690558483526007602052826040812055848352600d602052826040812055848352600860205260018060a01b036040842054169182611488575b83867f14eeeef7679fcb051c6572811f61c07bedccd0f1cfc1f9b79b23e47c5c52aeb7602088604051908152a280f35b823b15611148576114c692849283604051809681958294630aaf519760e21b84528c60048501528b60248501526060604485015260648401916134a8565b03925af18015610d23576114dc575b8080611458565b816114e69161331f565b61118557825f6114d5565b60405162461bcd60e51b815260206004820152602e60248201527f4f6e6c79207468652073746f726167652070726f76696465722063616e20646560448201526d6c6574652064617461207365747360901b6064820152608490fd5b60405162461bcd60e51b815260206004820152601960248201527f6461746120736574206964206f7574206f6620626f756e6473000000000000006044820152606490fd5b503461026d578060031936011261026d576115ab6144ad565b5f5160206148a95f395f51905f5280546001600160a01b0319811690915581906001600160a01b03167f8be0079c531659141344cd1fd0a4f28419497f9722a3daafe3b4186f6b6457e08280a380f35b503461026d57602036600319011261026d5760043561161c610bf082613e58565b8152600a6020526040812080549061163382613646565b925b828110611652576040516020808252819061026990820187613286565b8061165f60019284613493565b90549060031b1c6116708287613678565b5201611635565b503461026d57602036600319011261026d57604060209160043561169d610bf082613e58565b8152600783522054604051908152f35b503461026d578060031936011261026d57602060405173a2aa501b19aff244d90cc15a4cf739d2725b57298152f35b503461026d578060031936011261026d576020604051620151808152f35b503461026d57602036600319011261026d576004358161171c610bf083613e58565b8181526005602052604081205491815b83811061173e57602085604051908152f35b8183526003602052604083208184526020526040832054611762575b60010161172c565b9361176e60019161377d565b94905061175a565b503461026d578060031936011261026d577f00000000000000000000000000000000000000000000000000000000000000006001600160a01b031630036117ce5760206040515f5160206148c95f395f51905f528152f35b63703e46dd60e11b8152600490fd5b503461026d578060031936011261026d5760406117f8613c7f565b6001600160401b0383519216825260030b6020820152f35b50604036600319011261026d576118256132b9565b906024356001600160401b0381116111445761184590369060040161335b565b6001600160a01b037f0000000000000000000000000000000000000000000000000000000000000000163081149081156119d7575b506119c8576118876144ad565b6040516352d1902d60e01b8152926001600160a01b0381169190602085600481865afa80958596611994575b506118cc57634c9c8ce360e01b84526004839052602484fd5b9091845f5160206148c95f395f51905f5281036119825750813b15611970575f5160206148c95f395f51905f5280546001600160a01b031916821790557fbc7cd75a20ee27fd9adebab32041f755214dbc6bffa90cc0225b39da2e5c2d3b8480a28151839015611956578083602061195295519101845af461194c613ae0565b9161482d565b5080f35b505050346119615780f35b63b398979f60e01b8152600490fd5b634c9c8ce360e01b8452600452602483fd5b632a87526960e21b8552600452602484fd5b9095506020813d6020116119c0575b816119b06020938361331f565b81010312610a445751945f6118b3565b3d91506119a3565b63703e46dd60e11b8252600482fd5b5f5160206148c95f395f51905f52546001600160a01b0316141590505f61187a565b503461026d57611a08366131d8565b81835260096020526040832054916001600160fb1b0383168303610ee25790602093611a4d93926109206040611a3c613c7f565b9490938152600d895220544361368c565b604051908152f35b503461026d57606036600319011261026d576004356024356044356001600160401b03811161114857611a8c903690600401613156565b611a9a610800821115613433565b838552600b60205260408520546001600160a01b03163303611ffc578385526006602052604085205415611fa257838552600d602052604085205415611f8f575b838552600a60205260408520805480611cea575b50508385526006602052604085205484865260096020526040862055611b16855443613476565b8310611c6f57849184835260076020528360408420558483526006602052604083205415611c29575b848352600860205260408320546001600160a01b031680611b9c575b5050507fc099ffec4e3e773644a4d1dda368c46af853a0eeb15babde217f53a657396e1e91836040925260066020528185205482519182526020820152a280f35b85845260076020526040842054908685526006602052604085205491813b15611c25578588611bfa829660405198899788968795632a89faf360e21b87526004870152602486015260448501526080606485015260848401916134a8565b03925af18015610d2357611c10575b8080611b5b565b81611c1a9161331f565b61118557825f611c09565b8580fd5b847f02a8400fc343f45098cb00c3a6ea694174771939a5503f663e0ff6f4eb7c28428480a2848352600d6020528260408120558483526007602052826040812055611b3f565b60405162461bcd60e51b815260206004820152604760248201527f6368616c6c656e67652065706f6368206d757374206265206174206c6561737460448201527f206368616c6c656e676546696e616c6974792065706f63687320696e207468656064820152662066757475726560c81b608482015260a490fd5b611cf78196939496613646565b91875b828110611f2057505050611d10610bf083613e58565b8586915b8051831015611ebd57611d278382613678565b5196848952600360205260408920888a526020526040892054958892868b526005602052611d5860408c2054613f6c565b61010003986101008a11611ea95760018b01808c11611dda57611d7d909591956145f8565b8c8b82111580611e93575b15611dee57611dbd92916040828c60019452600460205281812085825260205220611db48d825461368c565b90551b90613476565b9360018501808611611dda57611dd2906145f8565b949094611d7d565b634e487b7160e01b8d52601160045260248dfd5b50505095975095611e4691936001939599898c52600360205260408c20818d526020528b6040812055898c52600260205260408c20908c526020528a60408120611e388154613518565b80611e53575b505050613476565b9601919492959095611d14565b601f81118714611e685750555b8a5f80611e3e565b81835260208320611e8391601f0160051c8101908801613f56565b8082528160208120915555611e60565b5089905260056020528c60408120548310611d88565b634e487b7160e01b8c52601160045260248cfd5b839694939250611f16907f6e87df804629ac17804b57ba7abbdfac8bdc36bab504fb8a8801eb313a8ce7b192848a526006602052611f0060408b2091825461368c565b9055604051918291602083526020830190613286565b0390a25f80611aef565b8154949693945f1981019080821161083957611f3c8285613493565b90549060031b1c611f4d8489613678565b5215611f7b579081611f6160019385613493565b8154905f199060031b1b1916905583550195939295611cfa565b634e487b7160e01b8a52603160045260248afd5b838552600d602052436040862055611adb565b60405162461bcd60e51b815260206004820152602c60248201527f63616e206f6e6c792073746172742070726f76696e67206f6e6365206c65617660448201526b195cc8185c9948185919195960a21b6064820152608490fd5b60405162461bcd60e51b815260206004820152603960248201527f6f6e6c79207468652073746f726167652070726f76696465722063616e206d6f60448201527f766520746f206e6578742070726f76696e6720706572696f64000000000000006064820152608490fd5b503461026d57602036600319011261026d576020611a4d600435613b0f565b503461026d578060031936011261026d5760206001600160401b0360015416604051908152f35b503461026d57604036600319011261026d576004356024356001600160a01b03811690819003611185576120e3610bf083613e58565b818352600b60205260408320546001600160a01b031633810361214357810361212357508152600c6020526040812080546001600160a01b031916905580f35b908252600c6020526040822080546001600160a01b031916909117905580f35b60a460405162461bcd60e51b815260206004820152604460248201527f4f6e6c79207468652063757272656e742073746f726167652070726f7669646560448201527f722063616e2070726f706f73652061206e65772073746f726167652070726f7660648201526334b232b960e11b6084820152fd5b503461026d57606036600319011261026d576121dd60443560243560043561378b565b919260405193608085019560808652825180975260a08601602060a08960051b890101940191905b88821061223f57878088612233896122258a8a8682036020880152613286565b908482036040860152613286565b90151560608301520390f35b909193602080612263600193609f198c8203018652828951519181815201906131ee565b9601920192019091612205565b503461026d5761227f36613212565b909180845260056020526122966040852054613f6c565b610100039161010083116122f9576122ad81613699565b945b8181106122c457604051806102698882613241565b806122dd856122d6600194868a613483565b358661406b565b6122e78289613678565b526122f28188613678565b50016122af565b634e487b7160e01b85526011600452602485fd5b503461026d5761231c36613183565b949390919261232f610800871115613433565b61233b610bf083613e58565b8315612bcd57818552600b60205260408520546001600160a01b03163303612b775790808596949652600560205260408520549061237887613646565b96865b818110156129dd578060051b850135601e19863603018112156129d9578501916020833603126129d957604051956123b2876132e9565b6001600160401b038435116107b3576123ce368535860161335b565b8752895b6004811061296957508651988a928a51600410156129555760248b015160f81c607f16935b806004018060041161246857600160ff1b906001600160f81b03199061241d908f6145bc565b51161061247c5761242d9061377d565b93846004018060041161246857612446607f918e6145bc565b5160f81c168560078102046007148615171561246857600786021b17936123f7565b634e487b7160e01b8e52601160045260248efd5b61249191939a92999d96989597949b5061377d565b600401998a600411611ea957602281106128fb578a6124af91613476565b8c51510361289a5790978b51988b607f6124c98d8d6145bc565b5160f81c16905b8b8d6124ea600160ff1b9261081e8560ff60f81b94613476565b5116106125495790607f6125108d8f9796959461250961081e9161377d565b8099613476565b5160f81c168560078102046007148615171561253557600786021b17909192936124d0565b634e487b7160e01b8f52601160045260248ffd5b6125819298959a979e949b50612577919399969c61256961256f9261377d565b90613476565b8094516145bc565b5160f81c9261377d565b506001600160f91b038116810361083957607f9060071b046005820160ff8111611ea95760ff600191161b8110156128575760328211612801579060016125cc9260051c911b61368c565b868a52600560205260408a208054906125e48261377d565b905560018101808211611ea9576125fa906145f8565b82908c905b8d8b8284106127c8579250905052600460205260408c20828d5260205260408c2055878b52600260205260408b20818c5260205260408b20601e1985360301853512156127c45784358501356001600160401b0381116127c05780360360208735880101136127c0578c6126738354613518565b601f8111612785575b50958d601f831160011461270b576001979091836126fa575b50505f19600383901b1c191690861b1790555b878b52600360205260408b20908b526020528060408b2055868a5260066020526126d760408b20918254613476565b90556126e38189613476565b6126ed828c613678565b520195929391909561237b565b602092508035010101355f80612695565b919293949596601f19841685845260208420935b818110612768575091600198979695949291838a959310612748575b505050811b0190556126a8565b6020905f1960f88660031b161c19928035010101351690555f808061273b565b91936020600181928288883589010101358155019501920161271f565b602082856127af945220601f840160051c810191602085106127b6575b601f0160051c0190613f56565b8c5f61267c565b90915081906127a2565b8c80fd5b8b80fd5b9360406127f99285966127e060018097981b8a61368c565b9082526004602052828220908252602052205490613476565b9201906125ff565b60a4836040519063c7b67cf360e01b8252600482015260406024820152602160448201527f50696563652073697a65206d757374206265206c657373207468616e20325e356064820152600360fc1b6084820152fd5b6084836040519063c7b67cf360e01b8252600482015260406024820152601460448201527350616464696e6720697320746f6f206c6172676560601b6064820152fd5b60405162461bcd60e51b815260206004820152603360248201527f436f6d6d507632206d756c746968617368206c656e67746820646f6573206e6f6044820152720e840dac2e8c6d040c8c2e8c240d8cadccee8d606b1b6064820152608490fd5b60405162461bcd60e51b815260206004820152602c60248201527f436f6d6d507632206d756c746968617368206c656e677468206d75737420626560448201526b08185d081b19585cdd080ccd60a21b6064820152608490fd5b634e487b7160e01b5f52603260045260245ffd5b60ff60f81b612979828a516145bc565b5116620aac8960e51b821a60f81b6001600160f81b0319160361299e576001016123d2565b60405162461bcd60e51b815260206004820152601360248201527221b4b21036bab9ba1031329021b7b6b6a83b1960691b6044820152606490fd5b8880fd5b5091949093847fd9389326b5d4b5a25430b57198f71d0af2a577710c608fb4834f13ca5bfed859612a1c8a604051918291602083526020830190613286565b0390a2848752600860205260408720546001600160a01b03169384612a47575b602087604051908152f35b843b15612b7357918395939188959360405197889663f6814d7960e01b8852608488019060048901528a6024890152608060448901525260a4860160a48560051b880101948289905b828210612aef575050505050612ab68593879385936003198584030160648601526134a8565b03925af18015612ae457612acf575b8080808080612a3c565b612ada83809261331f565b6111445781612ac5565b6040513d85823e3d90fd5b9295979950929750929460a3198a82030185528735601e19833603018112156127c05782018035601e1982360301811215612b6f5701602081359101906001600160401b038111612b6f578036038213612b6f57612b5960209283928386816001985201916134a8565b99019501920192899795938c9997959392612a90565b8d80fd5b8780fd5b60405162461bcd60e51b815260206004820152602860248201527f4f6e6c79207468652073746f726167652070726f76696465722063616e206164604482015267642070696563657360c01b6064820152608490fd5b60405162461bcd60e51b815260206004820152601b60248201527f4d75737420616464206174206c65617374206f6e6520706965636500000000006044820152606490fd5b503461026d57602036600319011261026d57602090600435612c36610bf082613e58565b815260088252604060018060a01b0391205416604051908152f35b503461026d57610269612c6c612c66366131d8565b90613550565b604051918291602083525160208084015260408301906131ee565b503461026d57602036600319011261026d5760409060043590612cac610bf083613e58565b818152600b602090815283822054928252600c8152908390205483516001600160a01b039384168152921690820152f35b503461026d57602036600319011261026d576040602091600435612d03610bf082613e58565b8152600583522054604051908152f35b503461026d576020610f29612d27366131d8565b906134c8565b503461026d578060031936011261026d5760206040517f150ac9b959aee0051e4091f0ef5216d941f590e1c5e7f91cf7635b5c11628c0e8152f35b503461026d578060031936011261026d576040516006607f60991b018152602090f35b503461026d576040602091612d9f366131d8565b90612dac610bf082613e58565b82526003845282822090825283522054604051908152f35b5034612ef457612dd336613183565b90612de5610800839594951115613433565b612df1610bf086613e58565b5f858152600b60205260409020546001600160a01b0316330361304957845f52600a6020526107d0612e2760405f205486613476565b11612fde575f5b848110612ef857505f858152600860205260409020546001600160a01b03169182612e57578680f35b823b15612ef45760405163e7954aa760e01b8152600481019690965260606024870152606486018590526001600160fb1b038511612ef45785612ebf8195935f9793608484968a9660051b8091838801378501858103820160031901604487015201916134a8565b03925af18015612ee957612ed65780808080808680f35b612ee291505f9061331f565b5f5f610d05565b6040513d5f823e3d90fd5b5f80fd5b612f03818686613483565b35865f52600560205260405f20541115612f8457855f52600a60205260405f2090612f2f818787613483565b3582549268010000000000000000841015612f705783612f559160018096018155613493565b819291549060031b91821b915f19901b191617905501612e2e565b634e487b7160e01b5f52604160045260245ffd5b60405162461bcd60e51b815260206004820152602c60248201527f43616e206f6e6c79207363686564756c652072656d6f76616c206f662065786960448201526b7374696e672070696563657360a01b6064820152608490fd5b60405162461bcd60e51b815260206004820152603a60248201527f546f6f206d616e792072656d6f76616c73207761697420666f72206e6578742060448201527f70726f76696e6720706572696f6420746f207363686564756c650000000000006064820152608490fd5b60405162461bcd60e51b815260206004820152603860248201527f4f6e6c79207468652073746f726167652070726f76696465722063616e20736360448201527f686564756c652072656d6f76616c206f662070696563657300000000000000006064820152608490fd5b34612ef4575f366003190112612ef457604051606360ff60981b018152602090f35b34612ef4576020366003190112612ef4576004356130f6610bf082613e58565b5f52600d602052602060405f2054604051908152f35b34612ef4575f366003190112612ef4578061080060209252f35b9181601f84011215612ef4578235916001600160401b038311612ef4576020808501948460051b010111612ef457565b9181601f84011215612ef4578235916001600160401b038311612ef45760208381860195010111612ef457565b906060600319830112612ef457600435916024356001600160401b038111612ef457816131b291600401613126565b92909291604435906001600160401b038211612ef4576131d491600401613156565b9091565b6040906003190112612ef4576004359060243590565b805180835260209291819084018484015e5f828201840152601f01601f1916010190565b906040600319830112612ef45760043591602435906001600160401b038211612ef4576131d491600401613126565b60206040818301928281528451809452019201905f5b8181106132645750505090565b8251805185526020908101518186015260409094019390920191600101613257565b90602080835192838152019201905f5b8181106132a35750505090565b8251845260209384019390920191600101613296565b600435906001600160a01b0382168203612ef457565b34612ef4575f366003190112612ef45760206040515f8152f35b602081019081106001600160401b03821117612f7057604052565b604081019081106001600160401b03821117612f7057604052565b90601f801991011681019081106001600160401b03821117612f7057604052565b6001600160401b038111612f7057601f01601f191660200190565b81601f82011215612ef45780359061337282613340565b92613380604051948561331f565b82845260208383010111612ef457815f926020809301838601378301015290565b906040600319830112612ef45760043591602435906001600160401b038211612ef4576131d491600401613156565b604051906133df60408361331f565b60058252640322e302e360dc1b6020830152565b156133fa57565b60405162461bcd60e51b81526020600482015260116024820152704461746120736574206e6f74206c69766560781b6044820152606490fd5b1561343a57565b60405162461bcd60e51b81526020600482015260146024820152734578747261206461746120746f6f206c6172676560601b6044820152606490fd5b919082018092116110c757565b91908110156129555760051b0190565b8054821015612955575f5260205f2001905f90565b908060209392818452848401375f828201840152601f01601f1916010190565b906134d282613e58565b9182613501575b826134e357505090565b9091505f52600360205260405f20905f5260205260405f2054151590565b8092505f52600560205260405f20548110916134d9565b90600182811c92168015613546575b602083101461353257565b634e487b7160e01b5f52602260045260245ffd5b91607f1691613527565b606060405161355e816132e9565b5261356b610bf082613e58565b5f52600260205260405f20905f5260205260405f206040519061358d826132e9565b60405190815f82549261359f84613518565b808452936001811690811561360d57506001146135c9575b506135c49250038261331f565b815290565b90505f9291925260205f20905f915b8183106135f15750509060206135c4928201015f6135b7565b60209193508060019154838588010152019101909183926135d8565b9050602092506135c494915060ff191682840152151560051b8201015f6135b7565b6001600160401b038111612f705760051b60200190565b906136508261362f565b61365d604051918261331f565b828152809261366e601f199161362f565b0190602036910137565b80518210156129555760209160051b010190565b919082039182116110c757565b906136a38261362f565b6136b0604051918261331f565b82815280926136c1601f199161362f565b01905f5b8281106136d157505050565b6020906040516136e081613304565b5f81525f83820152828285010152016136c5565b906136fe8261362f565b61370b604051918261331f565b828152809261371c601f199161362f565b01905f5b82811061372c57505050565b60209060405161373b816132e9565b6060815282828501015201613720565b908167015180000000000002916701518000000000008304036110c757565b818102929181159184041417156110c757565b5f1981146110c75760010190565b915f613799610bf085613e58565b8115613a9b57835f52600560205260405f2054926137b6836136f4565b926137c081613646565b946137ca82613646565b965f905f945f5b8481106138f6575b505050505081155f1461385e57505050505050604051906137fb60208361331f565b5f82525f805b81811061383f5750506020906040519261381b838561331f565b5f84525f36813760405192613830818561331f565b5f8452505f3681379291905f90565b60209060405161384e816132e9565b6060815282828701015201613801565b81969293949596105f146138f057613875816136f4565b9561387f82613646565b9561388983613646565b955f5b84811061389a575050505050565b806138a760019284613678565b516138b2828d613678565b526138bd818c613678565b506138c88185613678565b516138d3828c613678565b526138de8186613678565b516138e9828b613678565b520161388c565b50919391565b825f52600360205260405f20815f5260205260405f205461391a575b6001016137d1565b92958187101580613a92575b15613a6157825f52600260205260405f20845f5260205260405f206040519061394e826132e9565b60405190815f82549261396084613518565b8084529360018116908115613a3f57506001146139fd575b506139859250038261331f565b8152613991828b613678565b5261399c818a613678565b50836139a8828c613678565b52825f52600360205260405f20845f5260205260405f2054908160051b91808304602014901517156110c7576139ef816001936139e98f946139f595613678565b5261377d565b9761377d565b939050613912565b9150505f528160205f20915f925b818410613a235750506020613985928201015f613978565b6020919250806001915483868801015201920191908391613a0b565b90506020925061398594915060ff191682840152151560051b8201015f613978565b95613a6c8683613476565b811015613a7e576139f560019161377d565b505050505091506001915f808080806137d9565b50858110613926565b60405162461bcd60e51b815260206004820152601c60248201527f4c696d6974206d7573742062652067726561746572207468616e2030000000006044820152606490fd5b3d15613b0a573d90613af182613340565b91613aff604051938461331f565b82523d5f602084013e565b606090565b5f80916040516020810191825260208152613b2b60408261331f565b51906006607f60991b015afa613b3f613ae0565b9015613b5957602081805181010312612ef4576020015190565b60405162461bcd60e51b815260206004820152602160248201527f52616e646f6d6e65737320707265636f6d70696c652063616c6c206661696c656044820152601960fa1b6064820152608490fd5b90816080910312612ef45760405190608082018281106001600160401b03821117612f705760405280518060070b8103612ef457825260208101516001600160401b0381168103612ef45760208301526040810151908160030b8203612ef45760609160408401520151606082015290565b15613c2157565b60405162461bcd60e51b815260206004820152603060248201527f6661696c656420746f2076616c69646174653a207072696365206d757374206260448201526f0652067726561746572207468616e20360841b6064820152608490fd5b60405163052571af60e51b81527f150ac9b959aee0051e4091f0ef5216d941f590e1c5e7f91cf7635b5c11628c0e600482015262015180602482015260808160448173a2aa501b19aff244d90cc15a4cf739d2725b57295afa5f9181613ddb575b50613dcb57507f32e677043f93cd9edc909002276c5e55eb11c275a7b368ae7fe86687516eb120613d12610255613ae0565b0390a16040516396834ad360e01b81527f150ac9b959aee0051e4091f0ef5216d941f590e1c5e7f91cf7635b5c11628c0e60048201529060808260248173a2aa501b19aff244d90cc15a4cf739d2725b57295afa918215612ee9575f92613d9a575b50613d845f835160070b13613c1a565b604082516001600160401b031692015160030b90565b613dbd91925060803d608011613dc4575b613db5818361331f565b810190613ba8565b905f613d74565b503d613dab565b90613d845f835160070b13613c1a565b613df591925060803d608011613dc457613db5818361331f565b905f613ce0565b6001600160401b03166001600160401b0381146110c75760010190565b15613e2057565b60405162461bcd60e51b815260206004820152601060248201526f2a3930b739b332b9103330b4b632b21760811b6044820152606490fd5b6001600160401b036001541681109081613e70575090565b5f908152600b60205260409020546001600160a01b03161515919050565b6001600160a01b03168015613eec575f5160206148a95f395f51905f5280546001600160a01b0319811683179091556001600160a01b03167f8be0079c531659141344cd1fd0a4f28419497f9722a3daafe3b4186f6b6457e05f80a3565b631e4fbdf760e01b5f525f60045260245ffd5b91908110156129555760051b81013590603e1981360301821215612ef4570190565b903590601e1981360301821215612ef457018035906001600160401b038211612ef457602001918160051b36038313612ef457565b818110613f61575050565b5f8155600101613f56565b610100908060801c8061405f575b508060401c8061404a575b508060201c80614035575b508060101c80614020575b508060081c8061400b575b508060041c80613ff6575b508060021c80613fe1575b508060011c613fd157613fce9161368c565b90565b5060011981019081116110c75790565b916001198101915081116110c757905f613fbc565b916003198101915081116110c757905f613fb1565b916007198101915081116110c757905f613fa6565b91600f198101915081116110c757905f613f9b565b91601f198101915081116110c757905f613f90565b91603f198101915081116110c757905f613f85565b9150506080905f613f7a565b9160405161407881613304565b5f81525f602082015250825f52600660205260405f20548210156141b5576001811b5f1981019081116110c757925f91805b61410d57505f52600460205260405f20835f526020526140ce60405f205482613476565b828111156140f757506140e09161368c565b604051916140ed83613304565b8252602082015290565b9050600183018093116110c7576140e09161368c565b9391815f52600560205260405f205483101561419557815f52600460205260405f20835f526020528361414460405f205483613476565b116141955761416a90825f52600460205260405f20845f5260205260405f205490613476565b915f198501908582116110c7576001614184921b90613476565b935b80156110c7575f1901806140aa565b915f198501908582116110c75760016141af921b9061368c565b93614186565b60405162461bcd60e51b815260206004820152601860248201527f4c65616620696e646578206f7574206f6620626f756e647300000000000000006044820152606490fd5b63ffffffff16604d81116110c757600a0a90565b8115614218570490565b634e487b7160e01b5f52601260045260245ffd5b929093915f9484158015906144a5575b1561443a576001600160401b031680156143cf57821561436e57600382900b5f811261431b5750856107b7579061428461427861428a9361374b565b9163ffffffff166141fa565b9061376a565b8015614218576142ac926142a791671bc16d674ec800000461376a565b61376a565b90600582028215908381046005148217156122f95760649004908360021b8481046004148217156107b7578284106142e657505050505090565b93949293919291606490048410614303575050613fce925061368c565b915091508280046001141715610ece57506064900490565b5f965090939150637fffffff1981146110c75761433f905f0363ffffffff166141fa565b671bc16d674ec800008082029291908304036110c7576142a76142a7926143686142ac9661374b565b9061420e565b60405162461bcd60e51b815260206004820152603360248201527f6661696c656420746f2076616c69646174653a207261772073697a65206d75736044820152720742062652067726561746572207468616e203606c1b6064820152608490fd5b60405162461bcd60e51b815260206004820152603860248201527f6661696c656420746f2076616c69646174653a204174746f46494c207072696360448201527f65206d7573742062652067726561746572207468616e203000000000000000006064820152608490fd5b60405162461bcd60e51b815260206004820152603c60248201527f6661696c656420746f2076616c69646174653a20657374696d6174656420676160448201527f7320666565206d7573742062652067726561746572207468616e2030000000006064820152608490fd5b50481561423c565b5f5160206148a95f395f51905f52546001600160a01b031633036144cd57565b63118cdaa760e01b5f523360045260245ffd5b80341061453c575f90819081908190606360ff60981b015af1614501613ae0565b501561450957565b60405162461bcd60e51b815260206004820152600b60248201526a109d5c9b8819985a5b195960aa1b6044820152606490fd5b60405162461bcd60e51b8152602060048201526014602482015273125b98dbdc9c9958dd0819995948185b5bdd5b9d60621b6044820152606490fd5b1561457f57565b60405162461bcd60e51b815260206004820152601560248201527410da590819185d18481a5cc81d1bdbc81cda1bdc9d605a1b6044820152606490fd5b908151811015612955570160200190565b60ff5f5160206148e95f395f51905f525460401c16156145e957565b631afcd79f60e31b5f5260045ffd5b6001600160ff1b0381116147dd5761010090600160ff1b81146110c757805f0316806147d4575b6fffffffffffffffffffffffffffffffff81166147c1575b77ffffffffffffffff0000000000000000ffffffffffffffff81166147ae575b7bffffffff00000000ffffffff00000000ffffffff00000000ffffffff811661479b575b7dffff0000ffff0000ffff0000ffff0000ffff0000ffff0000ffff0000ffff8116614788575b7eff00ff00ff00ff00ff00ff00ff00ff00ff00ff00ff00ff00ff00ff00ff00ff8116614775575b7f0f0f0f0f0f0f0f0f0f0f0f0f0f0f0f0f0f0f0f0f0f0f0f0f0f0f0f0f0f0f0f0f8116614762575b7f3333333333333333333333333333333333333333333333333333333333333333811661474f575b7f5555555555555555555555555555555555555555555555555555555555555555166147415790565b5f1981019081116110c75790565b9060011981019081116110c75790614718565b9060031981019081116110c757906146f0565b9060071981019081116110c757906146c8565b90600f1981019081116110c757906146a1565b90601f1981019081116110c7579061467b565b90603f1981019081116110c75790614657565b90607f1981019081116110c75790614637565b60ff915061461f565b60405162461bcd60e51b815260206004820152602260248201527f496e7075742065786365656473206d6178696d756d20696e743235362076616c604482015261756560f01b6064820152608490fd5b90614851575080511561484257602081519101fd5b63d6bda27560e01b5f5260045ffd5b81511580614882575b614862575090565b639996b31560e01b5f9081526001600160a01b0391909116600452602490fd5b50803b1561485a565b5f5260205260205f60408160025afa15612ef4575f5160c019169056fe9016d09d72d40fdae2fd8ceac6b6234c7706214fd39c1cd1e609a0528c199300360894a13ba1a3210667c828492db98dca3e2076cc3735a920a3ca505d382bbcf0c57e16840df040f15088dc2f81fe391c3923bec73e23a9662efc9c229c6a00a26469706673582212203f510025b13a2e3004133d856e3205aa9b91c3afdf2743c73c467629a72ee17e64736f6c634300081b0033f0c57e16840df040f15088dc2f81fe391c3923bec73e23a9662efc9c229c6a00","linkReferences":{}},"methodIdentifiers":{"BURN_ACTOR()":"0a6a63f1","EXTRA_DATA_MAX_SIZE()":"029b4646","FIL_USD_PRICE_FEED_ID()":"19c75950","LEAF_SIZE()":"c0e15949","MAX_ENQUEUED_REMOVALS()":"9f8cb3bd","MAX_PIECE_SIZE_LOG2()":"f8eb8276","NO_CHALLENGE_SCHEDULED()":"462dd449","NO_PROVEN_EPOCH()":"f178b1be","PYTH()":"67e406d5","RANDOMNESS_PRECOMPILE()":"15b17570","SECONDS_IN_DAY()":"61a52a36","UPGRADE_INTERFACE_VERSION()":"ad3cb1cc","VERSION()":"ffa1ad74","addPieces(uint256,(bytes)[],bytes)":"306fc8be","calculateProofFee(uint256,uint256)":"4903704a","claimDataSetStorageProvider(uint256,bytes)":"df0f3248","createDataSet(address,bytes)":"bbae41cb","dataSetLive(uint256)":"ca759f27","deleteDataSet(uint256,bytes)":"7a1e2990","findPieceIds(uint256,uint256[])":"349c9179","getActivePieceCount(uint256)":"5353bdfd","getActivePieces(uint256,uint256,uint256)":"39f51544","getChallengeFinality()":"f83758fe","getChallengeRange(uint256)":"89208ba9","getDataSetLastProvenEpoch(uint256)":"04595c1a","getDataSetLeafCount(uint256)":"a531998c","getDataSetListener(uint256)":"2b3129bb","getDataSetStorageProvider(uint256)":"21b7cd1c","getFILUSDPrice()":"4fa27920","getNextChallengeEpoch(uint256)":"6ba4608f","getNextDataSetId()":"442cded3","getNextPieceId(uint256)":"1c5ae80f","getPieceCid(uint256,uint256)":"25bbbedf","getPieceLeafCount(uint256,uint256)":"0cd7b880","getRandomness(uint256)":"453f4f62","getScheduledRemovals(uint256)":"6fa44692","initialize(uint256)":"fe4b84df","migrate()":"8fd3ab80","nextProvingPeriod(uint256,uint256,bytes)":"45c0b92d","owner()":"8da5cb5b","pieceChallengable(uint256,uint256)":"dc635266","pieceLive(uint256,uint256)":"1a271225","proposeDataSetStorageProvider(uint256,address)":"43186080","provePossession(uint256,(bytes32,bytes32[])[])":"f58f952b","proxiableUUID()":"52d1902d","renounceOwnership()":"715018a6","schedulePieceDeletions(uint256,uint256[],bytes)":"0c292024","transferOwnership(address)":"f2fde38b","upgradeToAndCall(address,bytes)":"4f1ef286"},"id":72}