{"abi":[{"type":"constructor","inputs":[],"stateMutability":"nonpayable"},{"type":"function","name":"BURN_ACTOR","inputs":[],"outputs":[{"name":"","type":"address","internalType":"address"}],"stateMutability":"view"},{"type":"function","name":"EXTRA_DATA_MAX_SIZE","inputs":[],"outputs":[{"name":"","type":"uint256","internalType":"uint256"}],"stateMutability":"view"},{"type":"function","name":"FIL_USD_PRICE_FEED_ID","inputs":[],"outputs":[{"name":"","type":"bytes32","internalType":"bytes32"}],"stateMutability":"view"},{"type":"function","name":"LEAF_SIZE","inputs":[],"outputs":[{"name":"","type":"uint256","internalType":"uint256"}],"stateMutability":"view"},{"type":"function","name":"MAX_ENQUEUED_REMOVALS","inputs":[],"outputs":[{"name":"","type":"uint256","internalType":"uint256"}],"stateMutability":"view"},{"type":"function","name":"MAX_PIECE_SIZE_LOG2","inputs":[],"outputs":[{"name":"","type":"uint256","internalType":"uint256"}],"stateMutability":"view"},{"type":"function","name":"NO_CHALLENGE_SCHEDULED","inputs":[],"outputs":[{"name":"","type":"uint256","internalType":"uint256"}],"stateMutability":"view"},{"type":"function","name":"NO_PROVEN_EPOCH","inputs":[],"outputs":[{"name":"","type":"uint256","internalType":"uint256"}],"stateMutability":"view"},{"type":"function","name":"PYTH","inputs":[],"outputs":[{"name":"","type":"address","internalType":"contract IPyth"}],"stateMutability":"view"},{"type":"function","name":"RANDOMNESS_PRECOMPILE","inputs":[],"outputs":[{"name":"","type":"address","internalType":"address"}],"stateMutability":"view"},{"type":"function","name":"SECONDS_IN_DAY","inputs":[],"outputs":[{"name":"","type":"uint256","internalType":"uint256"}],"stateMutability":"view"},{"type":"function","name":"UPGRADE_INTERFACE_VERSION","inputs":[],"outputs":[{"name":"","type":"string","internalType":"string"}],"stateMutability":"view"},{"type":"function","name":"VERSION","inputs":[],"outputs":[{"name":"","type":"string","internalType":"string"}],"stateMutability":"view"},{"type":"function","name":"addPieces","inputs":[{"name":"setId","type":"uint256","internalType":"uint256"},{"name":"pieceData","type":"tuple[]","internalType":"struct Cids.Cid[]","components":[{"name":"data","type":"bytes","internalType":"bytes"}]},{"name":"extraData","type":"bytes","internalType":"bytes"}],"outputs":[{"name":"","type":"uint256","internalType":"uint256"}],"stateMutability":"nonpayable"},{"type":"function","name":"calculateProofFee","inputs":[{"name":"setId","type":"uint256","internalType":"uint256"},{"name":"estimatedGasFee","type":"uint256","internalType":"uint256"}],"outputs":[{"name":"","type":"uint256","internalType":"uint256"}],"stateMutability":"view"},{"type":"function","name":"claimDataSetStorageProvider","inputs":[{"name":"setId","type":"uint256","internalType":"uint256"},{"name":"extraData","type":"bytes","internalType":"bytes"}],"outputs":[],"stateMutability":"nonpayable"},{"type":"function","name":"createDataSet","inputs":[{"name":"listenerAddr","type":"address","internalType":"address"},{"name":"extraData","type":"bytes","internalType":"bytes"}],"outputs":[{"name":"","type":"uint256","internalType":"uint256"}],"stateMutability":"payable"},{"type":"function","name":"dataSetLive","inputs":[{"name":"setId","type":"uint256","internalType":"uint256"}],"outputs":[{"name":"","type":"bool","internalType":"bool"}],"stateMutability":"view"},{"type":"function","name":"deleteDataSet","inputs":[{"name":"setId","type":"uint256","internalType":"uint256"},{"name":"extraData","type":"bytes","internalType":"bytes"}],"outputs":[],"stateMutability":"nonpayable"},{"type":"function","name":"findPieceIds","inputs":[{"name":"setId","type":"uint256","internalType":"uint256"},{"name":"leafIndexs","type":"uint256[]","internalType":"uint256[]"}],"outputs":[{"name":"","type":"tuple[]","internalType":"struct IPDPTypes.PieceIdAndOffset[]","components":[{"name":"pieceId","type":"uint256","internalType":"uint256"},{"name":"offset","type":"uint256","internalType":"uint256"}]}],"stateMutability":"view"},{"type":"function","name":"getActivePieceCount","inputs":[{"name":"setId","type":"uint256","internalType":"uint256"}],"outputs":[{"name":"activeCount","type":"uint256","internalType":"uint256"}],"stateMutability":"view"},{"type":"function","name":"getActivePieces","inputs":[{"name":"setId","type":"uint256","internalType":"uint256"},{"name":"offset","type":"uint256","internalType":"uint256"},{"name":"limit","type":"uint256","internalType":"uint256"}],"outputs":[{"name":"pieces","type":"tuple[]","internalType":"struct Cids.Cid[]","components":[{"name":"data","type":"bytes","internalType":"bytes"}]},{"name":"pieceIds","type":"uint256[]","internalType":"uint256[]"},{"name":"rawSizes","type":"uint256[]","internalType":"uint256[]"},{"name":"hasMore","type":"bool","internalType":"bool"}],"stateMutability":"view"},{"type":"function","name":"getChallengeFinality","inputs":[],"outputs":[{"name":"","type":"uint256","internalType":"uint256"}],"stateMutability":"view"},{"type":"function","name":"getChallengeRange","inputs":[{"name":"setId","type":"uint256","internalType":"uint256"}],"outputs":[{"name":"","type":"uint256","internalType":"uint256"}],"stateMutability":"view"},{"type":"function","name":"getDataSetLastProvenEpoch","inputs":[{"name":"setId","type":"uint256","internalType":"uint256"}],"outputs":[{"name":"","type":"uint256","internalType":"uint256"}],"stateMutability":"view"},{"type":"function","name":"getDataSetLeafCount","inputs":[{"name":"setId","type":"uint256","internalType":"uint256"}],"outputs":[{"name":"","type":"uint256","internalType":"uint256"}],"stateMutability":"view"},{"type":"function","name":"getDataSetListener","inputs":[{"name":"setId","type":"uint256","internalType":"uint256"}],"outputs":[{"name":"","type":"address","internalType":"address"}],"stateMutability":"view"},{"type":"function","name":"getDataSetStorageProvider","inputs":[{"name":"setId","type":"uint256","internalType":"uint256"}],"outputs":[{"name":"","type":"address","internalType":"address"},{"name":"","type":"address","internalType":"address"}],"stateMutability":"view"},{"type":"function","name":"getFILUSDPrice","inputs":[],"outputs":[{"name":"","type":"uint64","internalType":"uint64"},{"name":"","type":"int32","internalType":"int32"}],"stateMutability":"view"},{"type":"function","name":"getNextChallengeEpoch","inputs":[{"name":"setId","type":"uint256","internalType":"uint256"}],"outputs":[{"name":"","type":"uint256","internalType":"uint256"}],"stateMutability":"view"},{"type":"function","name":"getNextDataSetId","inputs":[],"outputs":[{"name":"","type":"uint64","internalType":"uint64"}],"stateMutability":"view"},{"type":"function","name":"getNextPieceId","inputs":[{"name":"setId","type":"uint256","internalType":"uint256"}],"outputs":[{"name":"","type":"uint256","internalType":"uint256"}],"stateMutability":"view"},{"type":"function","name":"getPieceCid","inputs":[{"name":"setId","type":"uint256","internalType":"uint256"},{"name":"pieceId","type":"uint256","internalType":"uint256"}],"outputs":[{"name":"","type":"tuple","internalType":"struct Cids.Cid","components":[{"name":"data","type":"bytes","internalType":"bytes"}]}],"stateMutability":"view"},{"type":"function","name":"getPieceLeafCount","inputs":[{"name":"setId","type":"uint256","internalType":"uint256"},{"name":"pieceId","type":"uint256","internalType":"uint256"}],"outputs":[{"name":"","type":"uint256","internalType":"uint256"}],"stateMutability":"view"},{"type":"function","name":"getRandomness","inputs":[{"name":"epoch","type":"uint256","internalType":"uint256"}],"outputs":[{"name":"","type":"uint256","internalType":"uint256"}],"stateMutability":"view"},{"type":"function","name":"getScheduledRemovals","inputs":[{"name":"setId","type":"uint256","internalType":"uint256"}],"outputs":[{"name":"","type":"uint256[]","internalType":"uint256[]"}],"stateMutability":"view"},{"type":"function","name":"initialize","inputs":[{"name":"_challengeFinality","type":"uint256","internalType":"uint256"}],"outputs":[],"stateMutability":"nonpayable"},{"type":"function","name":"migrate","inputs":[],"outputs":[],"stateMutability":"nonpayable"},{"type":"function","name":"nextProvingPeriod","inputs":[{"name":"setId","type":"uint256","internalType":"uint256"},{"name":"challengeEpoch","type":"uint256","internalType":"uint256"},{"name":"extraData","type":"bytes","internalType":"bytes"}],"outputs":[],"stateMutability":"nonpayable"},{"type":"function","name":"owner","inputs":[],"outputs":[{"name":"","type":"address","internalType":"address"}],"stateMutability":"view"},{"type":"function","name":"pieceChallengable","inputs":[{"name":"setId","type":"uint256","internalType":"uint256"},{"name":"pieceId","type":"uint256","internalType":"uint256"}],"outputs":[{"name":"","type":"bool","internalType":"bool"}],"stateMutability":"view"},{"type":"function","name":"pieceLive","inputs":[{"name":"setId","type":"uint256","internalType":"uint256"},{"name":"pieceId","type":"uint256","internalType":"uint256"}],"outputs":[{"name":"","type":"bool","internalType":"bool"}],"stateMutability":"view"},{"type":"function","name":"proposeDataSetStorageProvider","inputs":[{"name":"setId","type":"uint256","internalType":"uint256"},{"name":"newStorageProvider","type":"address","internalType":"address"}],"outputs":[],"stateMutability":"nonpayable"},{"type":"function","name":"provePossession","inputs":[{"name":"setId","type":"uint256","internalType":"uint256"},{"name":"proofs","type":"tuple[]","internalType":"struct IPDPTypes.Proof[]","components":[{"name":"leaf","type":"bytes32","internalType":"bytes32"},{"name":"proof","type":"bytes32[]","internalType":"bytes32[]"}]}],"outputs":[],"stateMutability":"payable"},{"type":"function","name":"proxiableUUID","inputs":[],"outputs":[{"name":"","type":"bytes32","internalType":"bytes32"}],"stateMutability":"view"},{"type":"function","name":"renounceOwnership","inputs":[],"outputs":[],"stateMutability":"nonpayable"},{"type":"function","name":"schedulePieceDeletions","inputs":[{"name":"setId","type":"uint256","internalType":"uint256"},{"name":"pieceIds","type":"uint256[]","internalType":"uint256[]"},{"name":"extraData","type":"bytes","internalType":"bytes"}],"outputs":[],"stateMutability":"nonpayable"},{"type":"function","name":"transferOwnership","inputs":[{"name":"newOwner","type":"address","internalType":"address"}],"outputs":[],"stateMutability":"nonpayable"},{"type":"function","name":"upgradeToAndCall","inputs":[{"name":"newImplementation","type":"address","internalType":"address"},{"name":"data","type":"bytes","internalType":"bytes"}],"outputs":[],"stateMutability":"payable"},{"type":"event","name":"ContractUpgraded","inputs":[{"name":"version","type":"string","indexed":false,"internalType":"string"},{"name":"implementation","type":"address","indexed":false,"internalType":"address"}],"anonymous":false},{"type":"event","name":"DataSetCreated","inputs":[{"name":"setId","type":"uint256","indexed":true,"internalType":"uint256"},{"name":"storageProvider","type":"address","indexed":true,"internalType":"address"}],"anonymous":false},{"type":"event","name":"DataSetDeleted","inputs":[{"name":"setId","type":"uint256","indexed":true,"internalType":"uint256"},{"name":"deletedLeafCount","type":"uint256","indexed":false,"internalType":"uint256"}],"anonymous":false},{"type":"event","name":"DataSetEmpty","inputs":[{"name":"setId","type":"uint256","indexed":true,"internalType":"uint256"}],"anonymous":false},{"type":"event","name":"Initialized","inputs":[{"name":"version","type":"uint64","indexed":false,"internalType":"uint64"}],"anonymous":false},{"type":"event","name":"NextProvingPeriod","inputs":[{"name":"setId","type":"uint256","indexed":true,"internalType":"uint256"},{"name":"challengeEpoch","type":"uint256","indexed":false,"internalType":"uint256"},{"name":"leafCount","type":"uint256","indexed":false,"internalType":"uint256"}],"anonymous":false},{"type":"event","name":"OwnershipTransferred","inputs":[{"name":"previousOwner","type":"address","indexed":true,"internalType":"address"},{"name":"newOwner","type":"address","indexed":true,"internalType":"address"}],"anonymous":false},{"type":"event","name":"PiecesAdded","inputs":[{"name":"setId","type":"uint256","indexed":true,"internalType":"uint256"},{"name":"pieceIds","type":"uint256[]","indexed":false,"internalType":"uint256[]"},{"name":"pieceCids","type":"tuple[]","indexed":false,"internalType":"struct Cids.Cid[]","components":[{"name":"data","type":"bytes","internalType":"bytes"}]}],"anonymous":false},{"type":"event","name":"PiecesRemoved","inputs":[{"name":"setId","type":"uint256","indexed":true,"internalType":"uint256"},{"name":"pieceIds","type":"uint256[]","indexed":false,"internalType":"uint256[]"}],"anonymous":false},{"type":"event","name":"PossessionProven","inputs":[{"name":"setId","type":"uint256","indexed":true,"internalType":"uint256"},{"name":"challenges","type":"tuple[]","indexed":false,"internalType":"struct IPDPTypes.PieceIdAndOffset[]","components":[{"name":"pieceId","type":"uint256","internalType":"uint256"},{"name":"offset","type":"uint256","internalType":"uint256"}]}],"anonymous":false},{"type":"event","name":"ProofFeePaid","inputs":[{"name":"setId","type":"uint256","indexed":true,"internalType":"uint256"},{"name":"fee","type":"uint256","indexed":false,"internalType":"uint256"},{"name":"price","type":"uint64","indexed":false,"internalType":"uint64"},{"name":"expo","type":"int32","indexed":false,"internalType":"int32"}],"anonymous":false},{"type":"event","name":"StorageProviderChanged","inputs":[{"name":"setId","type":"uint256","indexed":true,"internalType":"uint256"},{"name":"oldStorageProvider","type":"address","indexed":true,"internalType":"address"},{"name":"newStorageProvider","type":"address","indexed":true,"internalType":"address"}],"anonymous":false},{"type":"event","name":"Upgraded","inputs":[{"name":"implementation","type":"address","indexed":true,"internalType":"address"}],"anonymous":false},{"type":"error","name":"AddressEmptyCode","inputs":[{"name":"target","type":"address","internalType":"address"}]},{"type":"error","name":"ERC1967InvalidImplementation","inputs":[{"name":"implementation","type":"address","internalType":"address"}]},{"type":"error","name":"ERC1967NonPayable","inputs":[]},{"type":"error","name":"FailedCall","inputs":[]},{"type":"error","name":"IndexedError","inputs":[{"name":"idx","type":"uint256","internalType":"uint256"},{"name":"msg","type":"string","internalType":"string"}]},{"type":"error","name":"InvalidInitialization","inputs":[]},{"type":"error","name":"NotInitializing","inputs":[]},{"type":"error","name":"OwnableInvalidOwner","inputs":[{"name":"owner","type":"address","internalType":"address"}]},{"type":"error","name":"OwnableUnauthorizedAccount","inputs":[{"name":"account","type":"address","internalType":"address"}]},{"type":"error","name":"UUPSUnauthorizedCallContext","inputs":[]},{"type":"error","name":"UUPSUnsupportedProxiableUUID","inputs":[{"name":"slot","type":"bytes32","internalType":"bytes32"}]}],"bytecode":{"object":"0x60a080604052346100c257306080525f5160206149d45f395f51905f525460ff8160401c166100b3576002600160401b03196001600160401b03821601610060575b60405161490d90816100c78239608051818181611789015261184f0152f35b6001600160401b0319166001600160401b039081175f5160206149d45f395f51905f525581527fc7f505b2f371ae2175ee4913f4499e1f2633a7b5936321eed1cdaeb6115181d290602090a15f80610041565b63f92ee8a960e01b5f5260045ffd5b5f80fdfe610100806040526004361015610013575f80fd5b5f905f3560e01c908163029b4646146130fc5750806304595c1a146130c65780630a6a63f1146130a45780630c29202414612db45780630cd7b88014612d7b57806315b1757014612d5857806319c7595014612d1d5780631a27122514612d035780631c5ae80f14612ccd57806321b7cd1c14612c7757806325bbbedf14612c415780632b3129bb14612c02578063306fc8be146122c4578063349c91791461222757806339f51544146121ba57806343186080146120ad578063442cded314612086578063453f4f621461206757806345c0b92d14611a55578063462dd44914610bd05780634903704a146119f95780634f1ef286146118105780634fa27920146117dd57806352d1902d146117765780635353bdfd146116fa57806361a52a36146116dc57806367e406d5146116ad5780636ba4608f146116775780636fa44692146115fb578063715018a6146115925780637a1e29901461139957806389208ba9146113635780638da5cb5b1461132e5780638fd3ab80146112245780639f8cb3bd14611207578063a531998c146111d1578063ad3cb1cc14611189578063bbae41cb14610f4e578063c0e1594914610f33578063ca759f2714610f0a578063dc63526614610da8578063df0f324814610bd5578063f178b1be14610bd0578063f2fde38b14610ba3578063f58f952b146103fd578063f83758fe146103e0578063f8eb8276146103c4578063fe4b84df146102705763ffa1ad741461023a575f80fd5b3461026d578060031936011261026d57610269610255613420565b6040519182916020835260208301906131de565b0390f35b80fd5b503461026d57602036600319011261026d575f5160206148b85f395f51905f525460ff8160401c1615906001600160401b038116801590816103bc575b60011490816103b2575b1590816103a9575b5061039a5767ffffffffffffffff1981166001175f5160206148b85f395f51905f52558161036e575b506102f161459c565b6102f961459c565b61030233613e5d565b61030a61459c565b60043582556103165780f35b68ff0000000000000000195f5160206148b85f395f51905f5254165f5160206148b85f395f51905f52557fc7f505b2f371ae2175ee4913f4499e1f2633a7b5936321eed1cdaeb6115181d2602060405160018152a180f35b68ffffffffffffffffff191668010000000000000001175f5160206148b85f395f51905f52555f6102e8565b63f92ee8a960e01b8352600483fd5b9050155f6102bf565b303b1591506102b7565b8391506102ad565b503461026d578060031936011261026d57602060405160328152f35b503461026d578060031936011261026d5760209054604051908152f35b5061040736613202565b929091925a848352600b60205260408320549093906001600160a01b03163303610b47578115610b145784835260076020526040832054804310610add5715610a9f576104538261379c565b9085845260076020526104696040852054613bbb565b9580855260096020526040852054818652600560205261048c6040872054613f3b565b610100039061010082116107cb578787878b95969782986040985b836001600160401b038c16101561086157895160208101908a8252828c8201526001600160401b0360c01b8d60c01b166060820152604881526104eb60688261336f565b519020871561084d57888861050192068361403a565b6105146001600160401b038d1685613741565b526105286001600160401b038c1684613741565b5061054761053f6001600160401b038d1685613741565b5151826135a0565b61055660208251511015614547565b8a516105628c8261336f565b6020808252810190601f198d01368337875b602081106107f657508760a05251905160a052602081106107df575b506105a060218251511015614547565b518051601f198101919080831161078f57602019019182116107cb576001916105c89161458b565b5160f81c0160ff81116107b7578b906001600160401b0360206106186105fd6105f48487168b8a613ece565b83810190613ef0565b93909561060d8282168c8b613ece565b356080521688613741565b510151926106258261367f565b60e0528d5160c05261063b60e05160c05161336f565b60c08051839052516020019036600584901b8201116107b35780915b8360051b820183106107a3575050505060ff1660c051515f19820191821161078f570361073b576080519598909789965b60c051518b10156106d1576001906106a28c60c051613741565b51908b83166106c257906106b59161485a565b995b811c9a019998610688565b6106cb9161485a565b996106b7565b919599509397509a90949891959a60a05103610700576106f090613dcb565b99949097939692969591956104a7565b895162461bcd60e51b815260206004820152601460248201527370726f6f6620646964206e6f742076657269667960601b6044820152606490fd5b8a5162461bcd60e51b815260206004820152602760248201527f70726f6f66206c656e67746820646f6573206e6f74206d617463682074726565604482015266081a195a59da1d60ca1b6064820152608490fd5b634e487b7160e01b88526011600452602488fd5b8235815260209283019201610657565b8980fd5b634e487b7160e01b86526011600452602486fd5b634e487b7160e01b87526011600452602487fd5b5f199060200360031b1b60a0511660a0528c610590565b83518051601f198101919082116108395790610824839261081e60019560ff60f81b946134c6565b9061458b565b51168a1a610832828561458b565b5301610574565b634e487b7160e01b8b52601160045260248bfd5b634e487b7160e01b86526012600452602486fd5b9289916108718a96975a9061378f565b879188905b848210610a525750506020820180921161078f57610514820291808304610514149015171561078f576108b3916108ac916134c6565b4890613816565b848752600960205282872054906001600160fb1b038216820361078f57610920867f928bbf5188022bf8b9a0e59f5e81e179d0a4c729bdba2856ac971af2063fbf2b60608761092a8d9897610956978a61090b613c54565b998196838b8d9552600d60205220544361378f565b9360051b926141fb565b94610934866144af565b6001600160401b038a519287845216602083015260030b89820152a23461378f565b95858352600860205260018060a01b03848420541690816109db575b505050916109b291847f1acf7df9f0c1b0208c23be6178950c0273f89b766805a2c0bd1e53d25c700e509452600d60205243818820555191829182613231565b0390a281816109be5780f35b8080806109d694335af16109d0613b8c565b50613de8565b818180f35b86845260066020528484205491803b15610a44578492836084928851968795869463356de02b60e01b86528d60048701526024860152604485015260648401525af18015610a4857610a2f575b8080610972565b81610a399161336f565b610a44578486610a28565b8480fd5b83513d84823e3d90fd5b9092610a6c610a62858785613ece565b6020810190613ef0565b80915060051b90808204602014901517156108395786019081871161083957600191610a97916134c6565b930190610876565b60405162461bcd60e51b81526020600482015260166024820152751b9bc818da185b1b195b99d9481cd8da19591d5b195960521b6044820152606490fd5b60405162461bcd60e51b815260206004820152600f60248201526e383932b6b0ba3ab93290383937b7b360891b6044820152606490fd5b60405162461bcd60e51b815260206004820152600b60248201526a32b6b83a3c90383937b7b360a91b6044820152606490fd5b60405162461bcd60e51b815260206004820152602e60248201527f4f6e6c79207468652073746f726167652070726f76696465722063616e20707260448201526d37bb32903837b9b9b2b9b9b4b7b760911b6064820152608490fd5b503461026d57602036600319011261026d57610bcd610bc0613309565b610bc861447c565b613e5d565b80f35b61331f565b503461026d57610be4366133f1565b610bf5610bf084613e27565b613443565b828452600c60205260408420546001600160a01b03163303610d32578284938452600b60205260018060a01b0360408520541691818552600b6020526040852060018060a01b0333166001600160601b0360a01b825416179055818552600c602052604085206001600160601b0360a01b8154169055604051933384847f686146a80f2bf4dc855942926481871515b39b508826d7982a2e0212d20552c98980a4828652600860205260408620546001600160a01b03169182610cb6578680f35b823b15610d2e5785610cf681959389979388948496634059b6d760e01b8652600486015260248501523360448501526080606485015260848401916134f8565b03925af18015610d2357610d0e575b80808080808680f35b81610d189161336f565b61026d57805f610d05565b6040513d84823e3d90fd5b8680fd5b60405162461bcd60e51b815260206004820152604260248201527f4f6e6c79207468652070726f706f7365642073746f726167652070726f76696460448201527f65722063616e20636c61696d2073746f726167652070726f766964657220726f6064820152616c6560f01b608482015260a490fd5b503461026d57610db7366131c8565b81839293526005602052610dce6040832054613f3b565b610100036101008111610ef657838352600960205260408320545f198101908111610ee25790610dfe918561403a565b916020830151848252600360205260408220845183526020526040822054915f198301928311610ece575003610e5957610e3a81602094613518565b9182610e4d575b50506040519015158152f35b51101590505f80610e41565b60405162461bcd60e51b815260206004820152604160248201527f6368616c6c656e676552616e6765202d312073686f756c6420616c69676e207760448201527f697468207468652076657279206c617374206c656166206f66206120706965636064820152606560f81b608482015260a490fd5b634e487b7160e01b81526011600452602490fd5b634e487b7160e01b84526011600452602484fd5b634e487b7160e01b83526011600452602483fd5b503461026d57602036600319011261026d576020610f29600435613e27565b6040519015158152f35b503461026d578060031936011261026d576020604051818152f35b50604036600319011261026d57610f63613309565b6024356001600160401b03811161118557610f82903690600401613146565b90610f91610800831115613483565b67016345785d8a0000341061114c578391610fb367016345785d8a00006144af565b600154936001600160401b038516946001600160401b03610fd387613dcb565b67ffffffffffffffff1990921691161760015584845260066020908152604080862086905586865260078252808620869055868652600b825280862080546001600160a01b031990811633179091558787526008835281872080549091166001600160a01b03949094169384179055868652600d909152842084905591826110db575b5050505033817f11369440e1b7135015c16acb9bc14b55b0f4b23b02010c363d34aec2e5b962818480a367016345785d8a0000341161109b575b602090604051908152f35b67016345785d8a000034033481116110c7578280806020956110c294335af16109d0613b8c565b611090565b634e487b7160e01b5f52601160045260245ffd5b823b15611148576111199284928360405180968195829463101c1eab60e01b84528b60048501523360248501526060604485015260648401916134f8565b03925af18015610d235761112f575b8080611056565b816111399161336f565b61114457815f611128565b5080fd5b8380fd5b60405162461bcd60e51b81526020600482015260116024820152701cde589a5b08199959481b9bdd081b595d607a1b6044820152606490fd5b8280fd5b503461026d578060031936011261026d576102696040516111ab60408261336f565b60058152640352e302e360dc1b60208201526040519182916020835260208301906131de565b503461026d57602036600319011261026d5760406020916004356111f7610bf082613e27565b8152600683522054604051908152f35b503461026d578060031936011261026d5760206040516107d08152f35b503461026d578060031936011261026d5761123d61447c565b5f5160206148b85f395f51905f525460ff8160401c16801561131a575b61130b576002907f2b51ff7c4cc8e6fe1c72e9d9685b7d2a88a5d82ad3a644afbdceb0272c89c1c36112b861128d613420565b60018060a01b035f5160206148985f395f51905f5254166040519283926040845260408401906131de565b9060208301520390a168ffffffffffffffffff1916175f5160206148b85f395f51905f52557fc7f505b2f371ae2175ee4913f4499e1f2633a7b5936321eed1cdaeb6115181d2602060405160028152a180f35b63f92ee8a960e01b8252600482fd5b5060026001600160401b038216101561125a565b503461026d578060031936011261026d575f5160206148785f395f51905f52546040516001600160a01b039091168152602090f35b503461026d57602036600319011261026d576040602091600435611389610bf082613e27565b8152600983522054604051908152f35b503461026d576113a8366133f1565b906113b7610800831115613483565b6001600160401b036001541683101561154d57828452600b60205260408420546001600160a01b031633036114f157839083825260066020526040822054928483526006602052826040812055848352600b602052604083206001600160601b0360a01b81541690558483526007602052826040812055848352600d602052826040812055848352600860205260018060a01b036040842054169182611488575b83867f14eeeef7679fcb051c6572811f61c07bedccd0f1cfc1f9b79b23e47c5c52aeb7602088604051908152a280f35b823b15611148576114c692849283604051809681958294630aaf519760e21b84528c60048501528b60248501526060604485015260648401916134f8565b03925af18015610d23576114dc575b8080611458565b816114e69161336f565b61118557825f6114d5565b60405162461bcd60e51b815260206004820152602e60248201527f4f6e6c79207468652073746f726167652070726f76696465722063616e20646560448201526d6c6574652064617461207365747360901b6064820152608490fd5b60405162461bcd60e51b815260206004820152601960248201527f6461746120736574206964206f7574206f6620626f756e6473000000000000006044820152606490fd5b503461026d578060031936011261026d576115ab61447c565b5f5160206148785f395f51905f5280546001600160a01b0319811690915581906001600160a01b03167f8be0079c531659141344cd1fd0a4f28419497f9722a3daafe3b4186f6b6457e08280a380f35b503461026d57602036600319011261026d5760043561161c610bf082613e27565b8152600a6020526040812080549061163382613696565b925b8281106116525760405160208082528190610269908201876132d6565b8061165f600192846134e3565b90549060031b1c6116708287613741565b5201611635565b503461026d57602036600319011261026d57604060209160043561169d610bf082613e27565b8152600783522054604051908152f35b503461026d578060031936011261026d57602060405173a2aa501b19aff244d90cc15a4cf739d2725b57298152f35b503461026d578060031936011261026d576020604051620151808152f35b503461026d57602036600319011261026d576004358161171c610bf083613e27565b8181526005602052604081205491815b83811061173e57602085604051908152f35b8183526003602052604083208184526020526040832054611762575b60010161172c565b9361176e600191613829565b94905061175a565b503461026d578060031936011261026d577f00000000000000000000000000000000000000000000000000000000000000006001600160a01b031630036117ce5760206040515f5160206148985f395f51905f528152f35b63703e46dd60e11b8152600490fd5b503461026d578060031936011261026d5760406117f8613c54565b6001600160401b0383519216825260030b6020820152f35b50604036600319011261026d57611825613309565b906024356001600160401b038111611144576118459036906004016133ab565b6001600160a01b037f0000000000000000000000000000000000000000000000000000000000000000163081149081156119d7575b506119c85761188761447c565b6040516352d1902d60e01b8152926001600160a01b0381169190602085600481865afa80958596611994575b506118cc57634c9c8ce360e01b84526004839052602484fd5b9091845f5160206148985f395f51905f5281036119825750813b15611970575f5160206148985f395f51905f5280546001600160a01b031916821790557fbc7cd75a20ee27fd9adebab32041f755214dbc6bffa90cc0225b39da2e5c2d3b8480a28151839015611956578083602061195295519101845af461194c613b8c565b916147fc565b5080f35b505050346119615780f35b63b398979f60e01b8152600490fd5b634c9c8ce360e01b8452600452602483fd5b632a87526960e21b8552600452602484fd5b9095506020813d6020116119c0575b816119b06020938361336f565b81010312610a445751945f6118b3565b3d91506119a3565b63703e46dd60e11b8252600482fd5b5f5160206148985f395f51905f52546001600160a01b0316141590505f61187a565b503461026d57611a08366131c8565b81835260096020526040832054916001600160fb1b0383168303610ee25790602093611a4d93926109206040611a3c613c54565b9490938152600d895220544361378f565b604051908152f35b503461026d57606036600319011261026d576004356024356044356001600160401b03811161114857611a8c903690600401613146565b611a9a610800821115613483565b838552600b60205260408520546001600160a01b03163303611ffc578385526006602052604085205415611fa257838552600d602052604085205415611f8f575b838552600a60205260408520805480611cea575b50508385526006602052604085205484865260096020526040862055611b168554436134c6565b8310611c6f57849184835260076020528360408420558483526006602052604083205415611c29575b848352600860205260408320546001600160a01b031680611b9c575b5050507fc099ffec4e3e773644a4d1dda368c46af853a0eeb15babde217f53a657396e1e91836040925260066020528185205482519182526020820152a280f35b85845260076020526040842054908685526006602052604085205491813b15611c25578588611bfa829660405198899788968795632a89faf360e21b87526004870152602486015260448501526080606485015260848401916134f8565b03925af18015610d2357611c10575b8080611b5b565b81611c1a9161336f565b61118557825f611c09565b8580fd5b847f02a8400fc343f45098cb00c3a6ea694174771939a5503f663e0ff6f4eb7c28428480a2848352600d6020528260408120558483526007602052826040812055611b3f565b60405162461bcd60e51b815260206004820152604760248201527f6368616c6c656e67652065706f6368206d757374206265206174206c6561737460448201527f206368616c6c656e676546696e616c6974792065706f63687320696e207468656064820152662066757475726560c81b608482015260a490fd5b611cf78196939496613696565b91875b828110611f2057505050611d10610bf083613e27565b8586915b8051831015611ebd57611d278382613741565b5196848952600360205260408920888a526020526040892054958892868b526005602052611d5860408c2054613f3b565b61010003986101008a11611ea95760018b01808c11611dda57611d7d909591956145c7565b8c8b82111580611e93575b15611dee57611dbd92916040828c60019452600460205281812085825260205220611db48d825461378f565b90551b906134c6565b9360018501808611611dda57611dd2906145c7565b949094611d7d565b634e487b7160e01b8d52601160045260248dfd5b50505095975095611e4691936001939599898c52600360205260408c20818d526020528b6040812055898c52600260205260408c20908c526020528a60408120611e388154613568565b80611e53575b5050506134c6565b9601919492959095611d14565b601f81118714611e685750555b8a5f80611e3e565b81835260208320611e8391601f0160051c8101908801613f25565b8082528160208120915555611e60565b5089905260056020528c60408120548310611d88565b634e487b7160e01b8c52601160045260248cfd5b839694939250611f16907f6e87df804629ac17804b57ba7abbdfac8bdc36bab504fb8a8801eb313a8ce7b192848a526006602052611f0060408b2091825461378f565b90556040519182916020835260208301906132d6565b0390a25f80611aef565b8154949693945f1981019080821161083957611f3c82856134e3565b90549060031b1c611f4d8489613741565b5215611f7b579081611f61600193856134e3565b8154905f199060031b1b1916905583550195939295611cfa565b634e487b7160e01b8a52603160045260248afd5b838552600d602052436040862055611adb565b60405162461bcd60e51b815260206004820152602c60248201527f63616e206f6e6c792073746172742070726f76696e67206f6e6365206c65617660448201526b195cc8185c9948185919195960a21b6064820152608490fd5b60405162461bcd60e51b815260206004820152603960248201527f6f6e6c79207468652073746f726167652070726f76696465722063616e206d6f60448201527f766520746f206e6578742070726f76696e6720706572696f64000000000000006064820152608490fd5b503461026d57602036600319011261026d576020611a4d600435613bbb565b503461026d578060031936011261026d5760206001600160401b0360015416604051908152f35b503461026d57604036600319011261026d576004356024356001600160a01b03811690819003611185576120e3610bf083613e27565b818352600b60205260408320546001600160a01b031633810361214357810361212357508152600c6020526040812080546001600160a01b031916905580f35b908252600c6020526040822080546001600160a01b031916909117905580f35b60a460405162461bcd60e51b815260206004820152604460248201527f4f6e6c79207468652063757272656e742073746f726167652070726f7669646560448201527f722063616e2070726f706f73652061206e65772073746f726167652070726f7660648201526334b232b960e11b6084820152fd5b503461026d57606036600319011261026d576121ff61220d61221b6121e6604435602435600435613837565b9392949091604051968796608088526080880190613276565b9086820360208801526132d6565b9084820360408601526132d6565b90151560608301520390f35b503461026d5761223636613202565b9091808452600560205261224d6040852054613f3b565b610100039161010083116122b0576122648161379c565b945b81811061227b57604051806102698882613231565b806122948561228d600194868a6134d3565b358661403a565b61229e8289613741565b526122a98188613741565b5001612266565b634e487b7160e01b85526011600452602485fd5b503461026d576122d336613173565b6122e66108008296959493961115613483565b6122f2610bf085613e27565b8115612bbd57838652600b60205260408620546001600160a01b03163303612b6757838652600560205260408620549461232b83613696565b612334846136c8565b885b8581106124ed575061237c879261238a7f396df50222a87662e94bb7d173792d5e61fe0b193b6ccf791f7ce433f0b28207936040519384936040855260408501906132d6565b908382036020850152613276565b0390a2848752600860205260408720546001600160a01b031693846123b5575b602087604051908152f35b843b156124e957918395939188959360405197889663f6814d7960e01b8852608488019060048901528a6024890152608060448901525260a4860160a48560051b88010194828990601e19813603015b8383106124655750505050505061242c8593879385936003198584030160648601526134f8565b03925af1801561245a57612445575b80808080806123aa565b61245083809261336f565b611144578161243b565b6040513d85823e3d90fd5b92959791949950929597995060a3198b82030186528835828112156124e55783018035601e19823603018112156124e15701602081359101906001600160401b0381116124e15780360382136124e1576124cb60209283928386816001985201916134f8565b9a01960193018c99979593928b99979592612405565b8e80fd5b8d80fd5b8780fd5b90612500828789959c9b979a969961371f565b9261250b3685613755565b968a5b60048110612af757508751998b908b5160041015612ae35760248c015160f81c607f16915b806004018060041161259f578d612554600160ff1b9260ff60f81b9261458b565b5116106125b35761256490613829565b91826004018060041161259f5761257d607f918f61458b565b5160f81c168360078102046007148415171561259f57600784021b1791612533565b634e487b7160e01b8f52601160045260248ffd5b6125cb919e949698929b9a9d9c509892949698613829565b600401998a600411611ea95760228110612a89578a6125e9916134c6565b8c515103612a28578b51988b607f6126018d8d61458b565b5160f81c16905b8b8d612622600160ff1b9261081e8560ff60f81b946134c6565b5116106126795790607f6126458d8f9461263e61081e91613829565b80966134c6565b5160f81c166007830283810460071484151715612664571b1790612608565b50634e487b7160e01b8f52601160045260248ffd5b6126aa91939d9f9a9598979c949e946126b4939a979c5061269c6126a292613829565b906134c6565b80945161458b565b5160f81c92613829565b506001600160f91b0381168103611dda57607f9060071b046005820160ff811161297b5760ff600191161b8110156129e5576032821161298f579060016126ff9260051c911b61378f565b90898c52600560205260408c209081549161271983613829565b90556001820180831161297b57906127348e959493926145c7565b8c849187915b81831061293757915050865260046020526040862083875260205260408620558b85526002602052604085208286526020526040852090803590601e1981360301821215610d2e576001600160401b038282013511610d2e5781810135360360208383010113610d2e576127ae8354613568565b601f81116128fa575b508690601f838201351160011461287457876001989284830135612864575b505082810135881b925f1991013560031b1c19161790555b8a8d52600360205260408d20908d526020528060408d2055898c52600660205261281d60408d209182546134c6565b9055612829818b6134c6565b6128338286613741565b5261284836612843838a8c61371f565b613755565b6128528285613741565b5261285d8184613741565b5001612336565b828501016020013592505f6127d6565b9192939495969084825260208220915b83850135601f191681106128de57506001979695949388939092909183830135601f198116106128bd575b50500135811b0190556127ee565b60205f1960f88686013560031b161c19918585010101351690555f806128af565b9091602060018192828689890101013581550193019101612884565b83885260208089206129279284860135601f810160051c8301931161292d575b601f0160051c0190613f25565b5f6127b7565b909150819061291a565b92604083959697989961296c9395612953600180971b8b61378f565b90825260046020528282209082526020522054906134c6565b92018f9695949392918e61273a565b634e487b7160e01b8e52601160045260248efd5b60a4846040519063c7b67cf360e01b8252600482015260406024820152602160448201527f50696563652073697a65206d757374206265206c657373207468616e20325e356064820152600360fc1b6084820152fd5b6084846040519063c7b67cf360e01b8252600482015260406024820152601460448201527350616464696e6720697320746f6f206c6172676560601b6064820152fd5b60405162461bcd60e51b815260206004820152603360248201527f436f6d6d507632206d756c746968617368206c656e67746820646f6573206e6f6044820152720e840dac2e8c6d040c8c2e8c240d8cadccee8d606b1b6064820152608490fd5b60405162461bcd60e51b815260206004820152602c60248201527f436f6d6d507632206d756c746968617368206c656e677468206d75737420626560448201526b08185d081b19585cdd080ccd60a21b6064820152608490fd5b634e487b7160e01b5f52603260045260245ffd5b60ff60f81b612b07828b5161458b565b5116620aac8960e51b821a60f81b6001600160f81b03191603612b2c5760010161250e565b60405162461bcd60e51b815260206004820152601360248201527221b4b21036bab9ba1031329021b7b6b6a83b1960691b6044820152606490fd5b60405162461bcd60e51b815260206004820152602860248201527f4f6e6c79207468652073746f726167652070726f76696465722063616e206164604482015267642070696563657360c01b6064820152608490fd5b60405162461bcd60e51b815260206004820152601b60248201527f4d75737420616464206174206c65617374206f6e6520706965636500000000006044820152606490fd5b503461026d57602036600319011261026d57602090600435612c26610bf082613e27565b815260088252604060018060a01b0391205416604051908152f35b503461026d57610269612c5c612c56366131c8565b906135a0565b604051918291602083525160208084015260408301906131de565b503461026d57602036600319011261026d5760409060043590612c9c610bf083613e27565b818152600b602090815283822054928252600c8152908390205483516001600160a01b039384168152921690820152f35b503461026d57602036600319011261026d576040602091600435612cf3610bf082613e27565b8152600583522054604051908152f35b503461026d576020610f29612d17366131c8565b90613518565b503461026d578060031936011261026d5760206040517f150ac9b959aee0051e4091f0ef5216d941f590e1c5e7f91cf7635b5c11628c0e8152f35b503461026d578060031936011261026d576040516006607f60991b018152602090f35b503461026d576040602091612d8f366131c8565b90612d9c610bf082613e27565b82526003845282822090825283522054604051908152f35b5034612ee457612dc336613173565b90612dd5610800839594951115613483565b612de1610bf086613e27565b5f858152600b60205260409020546001600160a01b0316330361303957845f52600a6020526107d0612e1760405f2054866134c6565b11612fce575f5b848110612ee857505f858152600860205260409020546001600160a01b03169182612e47578680f35b823b15612ee45760405163e7954aa760e01b8152600481019690965260606024870152606486018590526001600160fb1b038511612ee45785612eaf8195935f9793608484968a9660051b8091838801378501858103820160031901604487015201916134f8565b03925af18015612ed957612ec65780808080808680f35b612ed291505f9061336f565b5f5f610d05565b6040513d5f823e3d90fd5b5f80fd5b612ef38186866134d3565b35865f52600560205260405f20541115612f7457855f52600a60205260405f2090612f1f8187876134d3565b3582549268010000000000000000841015612f605783612f4591600180960181556134e3565b819291549060031b91821b915f19901b191617905501612e1e565b634e487b7160e01b5f52604160045260245ffd5b60405162461bcd60e51b815260206004820152602c60248201527f43616e206f6e6c79207363686564756c652072656d6f76616c206f662065786960448201526b7374696e672070696563657360a01b6064820152608490fd5b60405162461bcd60e51b815260206004820152603a60248201527f546f6f206d616e792072656d6f76616c73207761697420666f72206e6578742060448201527f70726f76696e6720706572696f6420746f207363686564756c650000000000006064820152608490fd5b60405162461bcd60e51b815260206004820152603860248201527f4f6e6c79207468652073746f726167652070726f76696465722063616e20736360448201527f686564756c652072656d6f76616c206f662070696563657300000000000000006064820152608490fd5b34612ee4575f366003190112612ee457604051606360ff60981b018152602090f35b34612ee4576020366003190112612ee4576004356130e6610bf082613e27565b5f52600d602052602060405f2054604051908152f35b34612ee4575f366003190112612ee4578061080060209252f35b9181601f84011215612ee4578235916001600160401b038311612ee4576020808501948460051b010111612ee457565b9181601f84011215612ee4578235916001600160401b038311612ee45760208381860195010111612ee457565b906060600319830112612ee457600435916024356001600160401b038111612ee457816131a291600401613116565b92909291604435906001600160401b038211612ee4576131c491600401613146565b9091565b6040906003190112612ee4576004359060243590565b805180835260209291819084018484015e5f828201840152601f01601f1916010190565b906040600319830112612ee45760043591602435906001600160401b038211612ee4576131c491600401613116565b60206040818301928281528451809452019201905f5b8181106132545750505090565b8251805185526020908101518186015260409094019390920191600101613247565b9080602083519182815201916020808360051b8301019401925f915b8383106132a157505050505090565b90919293946020806132c7600193601f19868203018752828a51519181815201906131de565b97019301930191939290613292565b90602080835192838152019201905f5b8181106132f35750505090565b82518452602093840193909201916001016132e6565b600435906001600160a01b0382168203612ee457565b34612ee4575f366003190112612ee45760206040515f8152f35b602081019081106001600160401b03821117612f6057604052565b604081019081106001600160401b03821117612f6057604052565b90601f801991011681019081106001600160401b03821117612f6057604052565b6001600160401b038111612f6057601f01601f191660200190565b81601f82011215612ee4578035906133c282613390565b926133d0604051948561336f565b82845260208383010111612ee457815f926020809301838601378301015290565b906040600319830112612ee45760043591602435906001600160401b038211612ee4576131c491600401613146565b6040519061342f60408361336f565b60058252640322e302e360dc1b6020830152565b1561344a57565b60405162461bcd60e51b81526020600482015260116024820152704461746120736574206e6f74206c69766560781b6044820152606490fd5b1561348a57565b60405162461bcd60e51b81526020600482015260146024820152734578747261206461746120746f6f206c6172676560601b6044820152606490fd5b919082018092116110c757565b9190811015612ae35760051b0190565b8054821015612ae3575f5260205f2001905f90565b908060209392818452848401375f828201840152601f01601f1916010190565b9061352282613e27565b9182613551575b8261353357505090565b9091505f52600360205260405f20905f5260205260405f2054151590565b8092505f52600560205260405f2054811091613529565b90600182811c92168015613596575b602083101461358257565b634e487b7160e01b5f52602260045260245ffd5b91607f1691613577565b60606040516135ae81613339565b526135bb610bf082613e27565b5f52600260205260405f20905f5260205260405f20604051906135dd82613339565b60405190815f8254926135ef84613568565b808452936001811690811561365d5750600114613619575b506136149250038261336f565b815290565b90505f9291925260205f20905f915b818310613641575050906020613614928201015f613607565b6020919350806001915483858801015201910190918392613628565b90506020925061361494915060ff191682840152151560051b8201015f613607565b6001600160401b038111612f605760051b60200190565b906136a08261367f565b6136ad604051918261336f565b82815280926136be601f199161367f565b0190602036910137565b906136d28261367f565b6136df604051918261336f565b82815280926136f0601f199161367f565b01905f5b82811061370057505050565b60209060405161370f81613339565b60608152828285010152016136f4565b9190811015612ae35760051b81013590601e1981360301821215612ee4570190565b8051821015612ae35760209160051b010190565b919091602081840312612ee4576040519061376f82613339565b819381356001600160401b038111612ee45761378b92016133ab565b9052565b919082039182116110c757565b906137a68261367f565b6137b3604051918261336f565b82815280926137c4601f199161367f565b01905f5b8281106137d457505050565b6020906040516137e381613354565b5f81525f83820152828285010152016137c8565b908167015180000000000002916701518000000000008304036110c757565b818102929181159184041417156110c757565b5f1981146110c75760010190565b915f613845610bf085613e27565b8115613b4757835f52600560205260405f205492613862836136c8565b9261386c81613696565b9461387682613696565b965f905f945f5b8481106139a2575b505050505081155f1461390a57505050505050604051906138a760208361336f565b5f82525f805b8181106138eb575050602090604051926138c7838561336f565b5f84525f368137604051926138dc818561336f565b5f8452505f3681379291905f90565b6020906040516138fa81613339565b60608152828287010152016138ad565b81969293949596105f1461399c57613921816136c8565b9561392b82613696565b9561393583613696565b955f5b848110613946575050505050565b8061395360019284613741565b5161395e828d613741565b52613969818c613741565b506139748185613741565b5161397f828c613741565b5261398a8186613741565b51613995828b613741565b5201613938565b50919391565b825f52600360205260405f20815f5260205260405f20546139c6575b60010161387d565b92958187101580613b3e575b15613b0d57825f52600260205260405f20845f5260205260405f20604051906139fa82613339565b60405190815f825492613a0c84613568565b8084529360018116908115613aeb5750600114613aa9575b50613a319250038261336f565b8152613a3d828b613741565b52613a48818a613741565b5083613a54828c613741565b52825f52600360205260405f20845f5260205260405f2054908160051b91808304602014901517156110c757613a9b81600193613a958f94613aa195613741565b52613829565b97613829565b9390506139be565b9150505f528160205f20915f925b818410613acf5750506020613a31928201015f613a24565b6020919250806001915483868801015201920191908391613ab7565b905060209250613a3194915060ff191682840152151560051b8201015f613a24565b95613b1886836134c6565b811015613b2a57613aa1600191613829565b505050505091506001915f80808080613885565b508581106139d2565b60405162461bcd60e51b815260206004820152601c60248201527f4c696d6974206d7573742062652067726561746572207468616e2030000000006044820152606490fd5b3d15613bb6573d90613b9d82613390565b91613bab604051938461336f565b82523d5f602084013e565b606090565b5f80916040516020810191825260208152613bd760408261336f565b51906006607f60991b015afa613beb613b8c565b9015613c0557602081805181010312612ee4576020015190565b60405162461bcd60e51b815260206004820152602160248201527f52616e646f6d6e65737320707265636f6d70696c652063616c6c206661696c656044820152601960fa1b6064820152608490fd5b6040516396834ad360e01b81527f150ac9b959aee0051e4091f0ef5216d941f590e1c5e7f91cf7635b5c11628c0e60048201529060808260248173a2aa501b19aff244d90cc15a4cf739d2725b57295afa918215612ed9575f92613d34575b505f825160070b1315613cd657604082516001600160401b031692015160030b90565b60405162461bcd60e51b815260206004820152603060248201527f6661696c656420746f2076616c69646174653a207072696365206d757374206260448201526f0652067726561746572207468616e20360841b6064820152608490fd5b9091506080813d608011613dc3575b81613d506080938361336f565b81010312612ee45760405190608082018281106001600160401b03821117612f605760405280518060070b8103612ee457825260208101516001600160401b0381168103612ee45760208301526040810151908160030b8203612ee457606091604084015201516060820152905f613cb3565b3d9150613d43565b6001600160401b03166001600160401b0381146110c75760010190565b15613def57565b60405162461bcd60e51b815260206004820152601060248201526f2a3930b739b332b9103330b4b632b21760811b6044820152606490fd5b6001600160401b036001541681109081613e3f575090565b5f908152600b60205260409020546001600160a01b03161515919050565b6001600160a01b03168015613ebb575f5160206148785f395f51905f5280546001600160a01b0319811683179091556001600160a01b03167f8be0079c531659141344cd1fd0a4f28419497f9722a3daafe3b4186f6b6457e05f80a3565b631e4fbdf760e01b5f525f60045260245ffd5b9190811015612ae35760051b81013590603e1981360301821215612ee4570190565b903590601e1981360301821215612ee457018035906001600160401b038211612ee457602001918160051b36038313612ee457565b818110613f30575050565b5f8155600101613f25565b610100908060801c8061402e575b508060401c80614019575b508060201c80614004575b508060101c80613fef575b508060081c80613fda575b508060041c80613fc5575b508060021c80613fb0575b508060011c613fa057613f9d9161378f565b90565b5060011981019081116110c75790565b916001198101915081116110c757905f613f8b565b916003198101915081116110c757905f613f80565b916007198101915081116110c757905f613f75565b91600f198101915081116110c757905f613f6a565b91601f198101915081116110c757905f613f5f565b91603f198101915081116110c757905f613f54565b9150506080905f613f49565b9160405161404781613354565b5f81525f602082015250825f52600660205260405f2054821015614184576001811b5f1981019081116110c757925f91805b6140dc57505f52600460205260405f20835f5260205261409d60405f2054826134c6565b828111156140c657506140af9161378f565b604051916140bc83613354565b8252602082015290565b9050600183018093116110c7576140af9161378f565b9391815f52600560205260405f205483101561416457815f52600460205260405f20835f526020528361411360405f2054836134c6565b116141645761413990825f52600460205260405f20845f5260205260405f2054906134c6565b915f198501908582116110c7576001614153921b906134c6565b935b80156110c7575f190180614079565b915f198501908582116110c757600161417e921b9061378f565b93614155565b60405162461bcd60e51b815260206004820152601860248201527f4c65616620696e646578206f7574206f6620626f756e647300000000000000006044820152606490fd5b63ffffffff16604d81116110c757600a0a90565b81156141e7570490565b634e487b7160e01b5f52601260045260245ffd5b929093915f948415801590614474575b15614409576001600160401b0316801561439e57821561433d57600382900b5f81126142ea5750856107b75790614253614247614259936137f7565b9163ffffffff166141c9565b90613816565b80156141e75761427b9261427691671bc16d674ec8000004613816565b613816565b90600582028215908381046005148217156122b05760649004908360021b8481046004148217156107b7578284106142b557505050505090565b939492939192916064900484106142d2575050613f9d925061378f565b915091508280046001141715610ece57506064900490565b5f965090939150637fffffff1981146110c75761430e905f0363ffffffff166141c9565b671bc16d674ec800008082029291908304036110c7576142766142769261433761427b966137f7565b906141dd565b60405162461bcd60e51b815260206004820152603360248201527f6661696c656420746f2076616c69646174653a207261772073697a65206d75736044820152720742062652067726561746572207468616e203606c1b6064820152608490fd5b60405162461bcd60e51b815260206004820152603860248201527f6661696c656420746f2076616c69646174653a204174746f46494c207072696360448201527f65206d7573742062652067726561746572207468616e203000000000000000006064820152608490fd5b60405162461bcd60e51b815260206004820152603c60248201527f6661696c656420746f2076616c69646174653a20657374696d6174656420676160448201527f7320666565206d7573742062652067726561746572207468616e2030000000006064820152608490fd5b50481561420b565b5f5160206148785f395f51905f52546001600160a01b0316330361449c57565b63118cdaa760e01b5f523360045260245ffd5b80341061450b575f90819081908190606360ff60981b015af16144d0613b8c565b50156144d857565b60405162461bcd60e51b815260206004820152600b60248201526a109d5c9b8819985a5b195960aa1b6044820152606490fd5b60405162461bcd60e51b8152602060048201526014602482015273125b98dbdc9c9958dd0819995948185b5bdd5b9d60621b6044820152606490fd5b1561454e57565b60405162461bcd60e51b815260206004820152601560248201527410da590819185d18481a5cc81d1bdbc81cda1bdc9d605a1b6044820152606490fd5b908151811015612ae3570160200190565b60ff5f5160206148b85f395f51905f525460401c16156145b857565b631afcd79f60e31b5f5260045ffd5b6001600160ff1b0381116147ac5761010090600160ff1b81146110c757805f0316806147a3575b6fffffffffffffffffffffffffffffffff8116614790575b77ffffffffffffffff0000000000000000ffffffffffffffff811661477d575b7bffffffff00000000ffffffff00000000ffffffff00000000ffffffff811661476a575b7dffff0000ffff0000ffff0000ffff0000ffff0000ffff0000ffff0000ffff8116614757575b7eff00ff00ff00ff00ff00ff00ff00ff00ff00ff00ff00ff00ff00ff00ff00ff8116614744575b7f0f0f0f0f0f0f0f0f0f0f0f0f0f0f0f0f0f0f0f0f0f0f0f0f0f0f0f0f0f0f0f0f8116614731575b7f3333333333333333333333333333333333333333333333333333333333333333811661471e575b7f5555555555555555555555555555555555555555555555555555555555555555166147105790565b5f1981019081116110c75790565b9060011981019081116110c757906146e7565b9060031981019081116110c757906146bf565b9060071981019081116110c75790614697565b90600f1981019081116110c75790614670565b90601f1981019081116110c7579061464a565b90603f1981019081116110c75790614626565b90607f1981019081116110c75790614606565b60ff91506145ee565b60405162461bcd60e51b815260206004820152602260248201527f496e7075742065786365656473206d6178696d756d20696e743235362076616c604482015261756560f01b6064820152608490fd5b90614820575080511561481157602081519101fd5b63d6bda27560e01b5f5260045ffd5b81511580614851575b614831575090565b639996b31560e01b5f9081526001600160a01b0391909116600452602490fd5b50803b15614829565b5f5260205260205f60408160025afa15612ee4575f5160c019169056fe9016d09d72d40fdae2fd8ceac6b6234c7706214fd39c1cd1e609a0528c199300360894a13ba1a3210667c828492db98dca3e2076cc3735a920a3ca505d382bbcf0c57e16840df040f15088dc2f81fe391c3923bec73e23a9662efc9c229c6a00a26469706673582212200a2707b042e9008339d01cf98ad5d54211b724a7bcb444e5c2a5433fd78655e064736f6c634300081e0033f0c57e16840df040f15088dc2f81fe391c3923bec73e23a9662efc9c229c6a00","linkReferences":{}},"methodIdentifiers":{"BURN_ACTOR()":"0a6a63f1","EXTRA_DATA_MAX_SIZE()":"029b4646","FIL_USD_PRICE_FEED_ID()":"19c75950","LEAF_SIZE()":"c0e15949","MAX_ENQUEUED_REMOVALS()":"9f8cb3bd","MAX_PIECE_SIZE_LOG2()":"f8eb8276","NO_CHALLENGE_SCHEDULED()":"462dd449","NO_PROVEN_EPOCH()":"f178b1be","PYTH()":"67e406d5","RANDOMNESS_PRECOMPILE()":"15b17570","SECONDS_IN_DAY()":"61a52a36","UPGRADE_INTERFACE_VERSION()":"ad3cb1cc","VERSION()":"ffa1ad74","addPieces(uint256,(bytes)[],bytes)":"306fc8be","calculateProofFee(uint256,uint256)":"4903704a","claimDataSetStorageProvider(uint256,bytes)":"df0f3248","createDataSet(address,bytes)":"bbae41cb","dataSetLive(uint256)":"ca759f27","deleteDataSet(uint256,bytes)":"7a1e2990","findPieceIds(uint256,uint256[])":"349c9179","getActivePieceCount(uint256)":"5353bdfd","getActivePieces(uint256,uint256,uint256)":"39f51544","getChallengeFinality()":"f83758fe","getChallengeRange(uint256)":"89208ba9","getDataSetLastProvenEpoch(uint256)":"04595c1a","getDataSetLeafCount(uint256)":"a531998c","getDataSetListener(uint256)":"2b3129bb","getDataSetStorageProvider(uint256)":"21b7cd1c","getFILUSDPrice()":"4fa27920","getNextChallengeEpoch(uint256)":"6ba4608f","getNextDataSetId()":"442cded3","getNextPieceId(uint256)":"1c5ae80f","getPieceCid(uint256,uint256)":"25bbbedf","getPieceLeafCount(uint256,uint256)":"0cd7b880","getRandomness(uint256)":"453f4f62","getScheduledRemovals(uint256)":"6fa44692","initialize(uint256)":"fe4b84df","migrate()":"8fd3ab80","nextProvingPeriod(uint256,uint256,bytes)":"45c0b92d","owner()":"8da5cb5b","pieceChallengable(uint256,uint256)":"dc635266","pieceLive(uint256,uint256)":"1a271225","proposeDataSetStorageProvider(uint256,address)":"43186080","provePossession(uint256,(bytes32,bytes32[])[])":"f58f952b","proxiableUUID()":"52d1902d","renounceOwnership()":"715018a6","schedulePieceDeletions(uint256,uint256[],bytes)":"0c292024","transferOwnership(address)":"f2fde38b","upgradeToAndCall(address,bytes)":"4f1ef286"},"id":42}