{"abi":[{"type":"constructor","inputs":[],"stateMutability":"nonpayable"},{"type":"function","name":"BURN_ACTOR","inputs":[],"outputs":[{"name":"","type":"address","internalType":"address"}],"stateMutability":"view"},{"type":"function","name":"EXTRA_DATA_MAX_SIZE","inputs":[],"outputs":[{"name":"","type":"uint256","internalType":"uint256"}],"stateMutability":"view"},{"type":"function","name":"FIL_USD_PRICE_FEED_ID","inputs":[],"outputs":[{"name":"","type":"bytes32","internalType":"bytes32"}],"stateMutability":"view"},{"type":"function","name":"LEAF_SIZE","inputs":[],"outputs":[{"name":"","type":"uint256","internalType":"uint256"}],"stateMutability":"view"},{"type":"function","name":"MAX_ENQUEUED_REMOVALS","inputs":[],"outputs":[{"name":"","type":"uint256","internalType":"uint256"}],"stateMutability":"view"},{"type":"function","name":"MAX_ROOT_SIZE","inputs":[],"outputs":[{"name":"","type":"uint256","internalType":"uint256"}],"stateMutability":"view"},{"type":"function","name":"NO_CHALLENGE_SCHEDULED","inputs":[],"outputs":[{"name":"","type":"uint256","internalType":"uint256"}],"stateMutability":"view"},{"type":"function","name":"PYTH","inputs":[],"outputs":[{"name":"","type":"address","internalType":"contract IPyth"}],"stateMutability":"view"},{"type":"function","name":"RANDOMNESS_PRECOMPILE","inputs":[],"outputs":[{"name":"","type":"address","internalType":"address"}],"stateMutability":"view"},{"type":"function","name":"SECONDS_IN_DAY","inputs":[],"outputs":[{"name":"","type":"uint256","internalType":"uint256"}],"stateMutability":"view"},{"type":"function","name":"UPGRADE_INTERFACE_VERSION","inputs":[],"outputs":[{"name":"","type":"string","internalType":"string"}],"stateMutability":"view"},{"type":"function","name":"addRoots","inputs":[{"name":"setId","type":"uint256","internalType":"uint256"},{"name":"rootData","type":"tuple[]","internalType":"struct PDPVerifier.RootData[]","components":[{"name":"root","type":"tuple","internalType":"struct Cids.Cid","components":[{"name":"data","type":"bytes","internalType":"bytes"}]},{"name":"rawSize","type":"uint256","internalType":"uint256"}]},{"name":"extraData","type":"bytes","internalType":"bytes"}],"outputs":[{"name":"","type":"uint256","internalType":"uint256"}],"stateMutability":"nonpayable"},{"type":"function","name":"calculateProofFee","inputs":[{"name":"setId","type":"uint256","internalType":"uint256"},{"name":"estimatedGasFee","type":"uint256","internalType":"uint256"}],"outputs":[{"name":"","type":"uint256","internalType":"uint256"}],"stateMutability":"view"},{"type":"function","name":"claimProofSetOwnership","inputs":[{"name":"setId","type":"uint256","internalType":"uint256"}],"outputs":[],"stateMutability":"nonpayable"},{"type":"function","name":"createProofSet","inputs":[{"name":"listenerAddr","type":"address","internalType":"address"},{"name":"extraData","type":"bytes","internalType":"bytes"}],"outputs":[{"name":"","type":"uint256","internalType":"uint256"}],"stateMutability":"payable"},{"type":"function","name":"deleteProofSet","inputs":[{"name":"setId","type":"uint256","internalType":"uint256"},{"name":"extraData","type":"bytes","internalType":"bytes"}],"outputs":[],"stateMutability":"nonpayable"},{"type":"function","name":"findRootIds","inputs":[{"name":"setId","type":"uint256","internalType":"uint256"},{"name":"leafIndexs","type":"uint256[]","internalType":"uint256[]"}],"outputs":[{"name":"","type":"tuple[]","internalType":"struct PDPVerifier.RootIdAndOffset[]","components":[{"name":"rootId","type":"uint256","internalType":"uint256"},{"name":"offset","type":"uint256","internalType":"uint256"}]}],"stateMutability":"view"},{"type":"function","name":"getChallengeFinality","inputs":[],"outputs":[{"name":"","type":"uint256","internalType":"uint256"}],"stateMutability":"view"},{"type":"function","name":"getChallengeRange","inputs":[{"name":"setId","type":"uint256","internalType":"uint256"}],"outputs":[{"name":"","type":"uint256","internalType":"uint256"}],"stateMutability":"view"},{"type":"function","name":"getFILUSDPrice","inputs":[],"outputs":[{"name":"","type":"uint64","internalType":"uint64"},{"name":"","type":"int32","internalType":"int32"}],"stateMutability":"view"},{"type":"function","name":"getNextChallengeEpoch","inputs":[{"name":"setId","type":"uint256","internalType":"uint256"}],"outputs":[{"name":"","type":"uint256","internalType":"uint256"}],"stateMutability":"view"},{"type":"function","name":"getNextProofSetId","inputs":[],"outputs":[{"name":"","type":"uint64","internalType":"uint64"}],"stateMutability":"view"},{"type":"function","name":"getNextRootId","inputs":[{"name":"setId","type":"uint256","internalType":"uint256"}],"outputs":[{"name":"","type":"uint256","internalType":"uint256"}],"stateMutability":"view"},{"type":"function","name":"getProofSetLastProvenEpoch","inputs":[{"name":"setId","type":"uint256","internalType":"uint256"}],"outputs":[{"name":"","type":"uint256","internalType":"uint256"}],"stateMutability":"view"},{"type":"function","name":"getProofSetLeafCount","inputs":[{"name":"setId","type":"uint256","internalType":"uint256"}],"outputs":[{"name":"","type":"uint256","internalType":"uint256"}],"stateMutability":"view"},{"type":"function","name":"getProofSetListener","inputs":[{"name":"setId","type":"uint256","internalType":"uint256"}],"outputs":[{"name":"","type":"address","internalType":"address"}],"stateMutability":"view"},{"type":"function","name":"getProofSetOwner","inputs":[{"name":"setId","type":"uint256","internalType":"uint256"}],"outputs":[{"name":"","type":"address","internalType":"address"},{"name":"","type":"address","internalType":"address"}],"stateMutability":"view"},{"type":"function","name":"getRandomness","inputs":[{"name":"epoch","type":"uint256","internalType":"uint256"}],"outputs":[{"name":"","type":"uint256","internalType":"uint256"}],"stateMutability":"view"},{"type":"function","name":"getRootCid","inputs":[{"name":"setId","type":"uint256","internalType":"uint256"},{"name":"rootId","type":"uint256","internalType":"uint256"}],"outputs":[{"name":"","type":"tuple","internalType":"struct Cids.Cid","components":[{"name":"data","type":"bytes","internalType":"bytes"}]}],"stateMutability":"view"},{"type":"function","name":"getRootLeafCount","inputs":[{"name":"setId","type":"uint256","internalType":"uint256"},{"name":"rootId","type":"uint256","internalType":"uint256"}],"outputs":[{"name":"","type":"uint256","internalType":"uint256"}],"stateMutability":"view"},{"type":"function","name":"getScheduledRemovals","inputs":[{"name":"setId","type":"uint256","internalType":"uint256"}],"outputs":[{"name":"","type":"uint256[]","internalType":"uint256[]"}],"stateMutability":"view"},{"type":"function","name":"initialize","inputs":[{"name":"_challengeFinality","type":"uint256","internalType":"uint256"}],"outputs":[],"stateMutability":"nonpayable"},{"type":"function","name":"nextProvingPeriod","inputs":[{"name":"setId","type":"uint256","internalType":"uint256"},{"name":"challengeEpoch","type":"uint256","internalType":"uint256"},{"name":"extraData","type":"bytes","internalType":"bytes"}],"outputs":[],"stateMutability":"nonpayable"},{"type":"function","name":"owner","inputs":[],"outputs":[{"name":"","type":"address","internalType":"address"}],"stateMutability":"view"},{"type":"function","name":"proofSetLive","inputs":[{"name":"setId","type":"uint256","internalType":"uint256"}],"outputs":[{"name":"","type":"bool","internalType":"bool"}],"stateMutability":"view"},{"type":"function","name":"proposeProofSetOwner","inputs":[{"name":"setId","type":"uint256","internalType":"uint256"},{"name":"newOwner","type":"address","internalType":"address"}],"outputs":[],"stateMutability":"nonpayable"},{"type":"function","name":"provePossession","inputs":[{"name":"setId","type":"uint256","internalType":"uint256"},{"name":"proofs","type":"tuple[]","internalType":"struct PDPVerifier.Proof[]","components":[{"name":"leaf","type":"bytes32","internalType":"bytes32"},{"name":"proof","type":"bytes32[]","internalType":"bytes32[]"}]}],"outputs":[],"stateMutability":"payable"},{"type":"function","name":"proxiableUUID","inputs":[],"outputs":[{"name":"","type":"bytes32","internalType":"bytes32"}],"stateMutability":"view"},{"type":"function","name":"renounceOwnership","inputs":[],"outputs":[],"stateMutability":"nonpayable"},{"type":"function","name":"rootChallengable","inputs":[{"name":"setId","type":"uint256","internalType":"uint256"},{"name":"rootId","type":"uint256","internalType":"uint256"}],"outputs":[{"name":"","type":"bool","internalType":"bool"}],"stateMutability":"view"},{"type":"function","name":"rootLive","inputs":[{"name":"setId","type":"uint256","internalType":"uint256"},{"name":"rootId","type":"uint256","internalType":"uint256"}],"outputs":[{"name":"","type":"bool","internalType":"bool"}],"stateMutability":"view"},{"type":"function","name":"scheduleRemovals","inputs":[{"name":"setId","type":"uint256","internalType":"uint256"},{"name":"rootIds","type":"uint256[]","internalType":"uint256[]"},{"name":"extraData","type":"bytes","internalType":"bytes"}],"outputs":[],"stateMutability":"nonpayable"},{"type":"function","name":"transferOwnership","inputs":[{"name":"newOwner","type":"address","internalType":"address"}],"outputs":[],"stateMutability":"nonpayable"},{"type":"function","name":"upgradeToAndCall","inputs":[{"name":"newImplementation","type":"address","internalType":"address"},{"name":"data","type":"bytes","internalType":"bytes"}],"outputs":[],"stateMutability":"payable"},{"type":"event","name":"Debug","inputs":[{"name":"message","type":"string","indexed":false,"internalType":"string"},{"name":"value","type":"uint256","indexed":false,"internalType":"uint256"}],"anonymous":false},{"type":"event","name":"Initialized","inputs":[{"name":"version","type":"uint64","indexed":false,"internalType":"uint64"}],"anonymous":false},{"type":"event","name":"OwnershipTransferred","inputs":[{"name":"previousOwner","type":"address","indexed":true,"internalType":"address"},{"name":"newOwner","type":"address","indexed":true,"internalType":"address"}],"anonymous":false},{"type":"event","name":"ProofFeePaid","inputs":[{"name":"setId","type":"uint256","indexed":true,"internalType":"uint256"},{"name":"fee","type":"uint256","indexed":false,"internalType":"uint256"},{"name":"price","type":"uint64","indexed":false,"internalType":"uint64"},{"name":"expo","type":"int32","indexed":false,"internalType":"int32"}],"anonymous":false},{"type":"event","name":"ProofSetCreated","inputs":[{"name":"setId","type":"uint256","indexed":true,"internalType":"uint256"}],"anonymous":false},{"type":"event","name":"ProofSetDeleted","inputs":[{"name":"setId","type":"uint256","indexed":true,"internalType":"uint256"},{"name":"deletedLeafCount","type":"uint256","indexed":false,"internalType":"uint256"}],"anonymous":false},{"type":"event","name":"ProofSetEmpty","inputs":[{"name":"setId","type":"uint256","indexed":true,"internalType":"uint256"}],"anonymous":false},{"type":"event","name":"RootsAdded","inputs":[{"name":"firstAdded","type":"uint256","indexed":true,"internalType":"uint256"}],"anonymous":false},{"type":"event","name":"RootsRemoved","inputs":[{"name":"rootIds","type":"uint256[]","indexed":true,"internalType":"uint256[]"}],"anonymous":false},{"type":"event","name":"Upgraded","inputs":[{"name":"implementation","type":"address","indexed":true,"internalType":"address"}],"anonymous":false},{"type":"error","name":"AddressEmptyCode","inputs":[{"name":"target","type":"address","internalType":"address"}]},{"type":"error","name":"ERC1967InvalidImplementation","inputs":[{"name":"implementation","type":"address","internalType":"address"}]},{"type":"error","name":"ERC1967NonPayable","inputs":[]},{"type":"error","name":"FailedCall","inputs":[]},{"type":"error","name":"IndexedError","inputs":[{"name":"idx","type":"uint256","internalType":"uint256"},{"name":"msg","type":"string","internalType":"string"}]},{"type":"error","name":"InvalidInitialization","inputs":[]},{"type":"error","name":"NotInitializing","inputs":[]},{"type":"error","name":"OwnableInvalidOwner","inputs":[{"name":"owner","type":"address","internalType":"address"}]},{"type":"error","name":"OwnableUnauthorizedAccount","inputs":[{"name":"account","type":"address","internalType":"address"}]},{"type":"error","name":"UUPSUnauthorizedCallContext","inputs":[]},{"type":"error","name":"UUPSUnsupportedProxiableUUID","inputs":[{"name":"slot","type":"bytes32","internalType":"bytes32"}]}],"bytecode":{"object":"0x60a06040523060805234801562000014575f80fd5b506200001f62000025565b620000d9565b7ff0c57e16840df040f15088dc2f81fe391c3923bec73e23a9662efc9c229c6a00805468010000000000000000900460ff1615620000765760405163f92ee8a960e01b815260040160405180910390fd5b80546001600160401b0390811614620000d65780546001600160401b0319166001600160401b0390811782556040519081527fc7f505b2f371ae2175ee4913f4499e1f2633a7b5936321eed1cdaeb6115181d29060200160405180910390a15b50565b60805161454e620001005f395f8181612d5a01528181612d830152612ec2015261454e5ff3fe60806040526004361061025f575f3560e01c806367e406d51161013f5780639f8cb3bd116100b3578063f2fde38b11610078578063f2fde38b14610786578063f58f952b146107a5578063f5cac1ba146107b8578063f83758fe146107d7578063faa67163146107ea578063fe4b84df14610809575f80fd5b80639f8cb3bd146106e2578063ad3cb1cc146106f7578063c0e1594914610734578063d49245c114610748578063ee3dac6514610767575f80fd5b806371cf2a161161010457806371cf2a1614610603578063847d1d061461062257806389208ba9146106415780638da5cb5b146106605780638ea417e51461069c5780639153e64b146106c3575f80fd5b806367e406d51461055e5780636ba4608f146105855780636cb55c16146105a45780636fa44692146105c3578063715018a6146105ef575f80fd5b80633f84135f116101d6578063473310501161019b578063473310501461049d5780634903704a146104cc5780634f1ef286146104eb5780634fa27920146104fe57806352d1902d1461053457806361a52a3614610548575f80fd5b80633f84135f146103ee578063453f4f621461040d57806345c0b92d1461042c578063462dd4491461044b5780634726075b1461045e575f80fd5b806315b175701161022757806315b175701461031b57806316e2bcd51461033557806319c759501461034f57806331601226146103825780633b68e4e9146103a15780633b7ae913146103c2575f80fd5b8063029b4646146102635780630528a55b1461028b5780630a4d7932146102b75780630a6a63f1146102ca57806311c0ee4a146102fc575b5f80fd5b34801561026e575f80fd5b5061027861080081565b6040519081526020015b60405180910390f35b348015610296575f80fd5b506102aa6102a5366004613939565b610828565b6040516102829190613980565b6102786102c5366004613a26565b61090f565b3480156102d5575f80fd5b506102e4606360ff60981b0181565b6040516001600160a01b039091168152602001610282565b348015610307575f80fd5b50610278610316366004613a67565b610b06565b348015610326575f80fd5b506102e46006607f60991b0181565b348015610340575f80fd5b50610278660400000000000081565b34801561035a575f80fd5b506102787f150ac9b959aee0051e4091f0ef5216d941f590e1c5e7f91cf7635b5c11628c0e81565b34801561038d575f80fd5b506102e461039c366004613ada565b610d3a565b3480156103ac575f80fd5b506103c06103bb366004613a67565b610d7b565b005b3480156103cd575f80fd5b506103e16103dc366004613af1565b61102e565b6040516102829190613b5e565b3480156103f9575f80fd5b50610278610408366004613ada565b61111e565b348015610418575f80fd5b50610278610427366004613ada565b611156565b348015610437575f80fd5b506103c0610446366004613b78565b61124c565b348015610456575f80fd5b506102785f81565b348015610469575f80fd5b5061047d610478366004613ada565b6115c4565b604080516001600160a01b03938416815292909116602083015201610282565b3480156104a8575f80fd5b506104bc6104b7366004613af1565b611618565b6040519015158152602001610282565b3480156104d7575f80fd5b506102786104e6366004613af1565b611660565b6103c06104f9366004613c0a565b6116bf565b348015610509575f80fd5b506105126116de565b604080516001600160401b03909316835260039190910b602083015201610282565b34801561053f575f80fd5b506102786117ff565b348015610553575f80fd5b506102786201518081565b348015610569575f80fd5b506102e473a2aa501b19aff244d90cc15a4cf739d2725b572981565b348015610590575f80fd5b5061027861059f366004613ada565b61181a565b3480156105af575f80fd5b506103c06105be366004613ca9565b611852565b3480156105ce575f80fd5b506105e26105dd366004613ada565b611958565b6040516102829190613cd3565b3480156105fa575f80fd5b506103c0611a27565b34801561060e575f80fd5b506104bc61061d366004613af1565b611a3a565b34801561062d575f80fd5b506103c061063c366004613d16565b611b49565b34801561064c575f80fd5b5061027861065b366004613ada565b611d2e565b34801561066b575f80fd5b507f9016d09d72d40fdae2fd8ceac6b6234c7706214fd39c1cd1e609a0528c199300546001600160a01b03166102e4565b3480156106a7575f80fd5b506001546040516001600160401b039091168152602001610282565b3480156106ce575f80fd5b506102786106dd366004613af1565b611d66565b3480156106ed575f80fd5b506102786107d081565b348015610702575f80fd5b50610727604051806040016040528060058152602001640352e302e360dc1b81525081565b6040516102829190613d44565b34801561073f575f80fd5b50610278602081565b348015610753575f80fd5b50610278610762366004613ada565b611da9565b348015610772575f80fd5b506103c0610781366004613ada565b611de1565b348015610791575f80fd5b506103c06107a0366004613d56565b611eb3565b6103c06107b3366004613939565b611ef0565b3480156107c3575f80fd5b506104bc6107d2366004613ada565b6122d4565b3480156107e2575f80fd5b505f54610278565b3480156107f5575f80fd5b50610278610804366004613ada565b612308565b348015610814575f80fd5b506103c0610823366004613ada565b612340565b5f838152600560205260408120546060919061084390612457565b61084f90610100613d83565b90505f836001600160401b0381111561086a5761086a613bc6565b6040519080825280602002602001820160405280156108ae57816020015b604080518082019091525f80825260208201528152602001906001900390816108885790505b5090505f5b84811015610903576108de878787848181106108d1576108d1613d96565b9050602002013585612546565b8282815181106108f0576108f0613d96565b60209081029190910101526001016108b3565b509150505b9392505050565b5f61080082111561093b5760405162461bcd60e51b815260040161093290613daa565b60405180910390fd5b5f610944612726565b90508034101561098a5760405162461bcd60e51b81526020600482015260116024820152701cde589a5b08199959481b9bdd081b595d607a1b6044820152606401610932565b6109938161274b565b803411156109d057336108fc6109a98334613d83565b6040518115909202915f818181858888f193505050501580156109ce573d5f803e3d5ffd5b505b600180545f916001600160401b0390911690826109ec83613dd8565b82546001600160401b039182166101009390930a928302928202191691909117909155165f81815260066020908152604080832083905560078252808320839055600b825280832080546001600160a01b031990811633179091556008835281842080546001600160a01b038d16921682179055600d90925282209190915590915015610ad357604051634a6a0d9b60e11b81526001600160a01b038716906394d41b3690610aa590849033908a908a90600401613e25565b5f604051808303815f87803b158015610abc575f80fd5b505af1158015610ace573d5f803e3d5ffd5b505050505b60405181907f5979d495e336598dba8459e44f8eb2a1c957ce30fcc10cabea4bb0ffe969df6a905f90a295945050505050565b5f610800821115610b295760405162461bcd60e51b815260040161093290613daa565b610b32866122d4565b610b4e5760405162461bcd60e51b815260040161093290613e4f565b83610b9b5760405162461bcd60e51b815260206004820152601a60248201527f4d75737420616464206174206c65617374206f6e6520726f6f740000000000006044820152606401610932565b5f868152600b60205260409020546001600160a01b03163314610c005760405162461bcd60e51b815260206004820152601c60248201527f4f6e6c7920746865206f776e65722063616e2061646420726f6f7473000000006044820152606401610932565b5f86815260056020526040812054905b85811015610c8157610c788882898985818110610c2f57610c2f613d96565b9050602002810190610c419190613e7b565b610c4b9080613e99565b8a8a86818110610c5d57610c5d613d96565b9050602002810190610c6f9190613e7b565b6020013561281c565b50600101610c10565b505f878152600860205260409020546001600160a01b03168015610d03576040516312d5d66f60e01b81526001600160a01b038216906312d5d66f90610cd5908b9086908c908c908c908c90600401613ead565b5f604051808303815f87803b158015610cec575f80fd5b505af1158015610cfe573d5f803e3d5ffd5b505050505b60405182907fde16f8a35fc44238b21a493b7267f7a5064f2bc1b3a1af51deeb4b5a47281d47905f90a25090505b95945050505050565b5f610d44826122d4565b610d605760405162461bcd60e51b815260040161093290613e4f565b505f908152600860205260409020546001600160a01b031690565b610800811115610d9d5760405162461bcd60e51b815260040161093290613daa565b610da6856122d4565b610dc25760405162461bcd60e51b815260040161093290613e4f565b5f858152600b60205260409020546001600160a01b03163314610e3c5760405162461bcd60e51b815260206004820152602c60248201527f4f6e6c7920746865206f776e65722063616e207363686564756c652072656d6f60448201526b76616c206f6620726f6f747360a01b6064820152608401610932565b5f858152600a60205260409020546107d090610e589085613fb2565b1115610ecc5760405162461bcd60e51b815260206004820152603a60248201527f546f6f206d616e792072656d6f76616c73207761697420666f72206e6578742060448201527f70726f76696e6720706572696f6420746f207363686564756c650000000000006064820152608401610932565b5f5b83811015610fa6575f86815260056020526040902054858583818110610ef657610ef6613d96565b9050602002013510610f5e5760405162461bcd60e51b815260206004820152602b60248201527f43616e206f6e6c79207363686564756c652072656d6f76616c206f662065786960448201526a7374696e6720726f6f747360a81b6064820152608401610932565b5f868152600a60205260409020858583818110610f7d57610f7d613d96565b8354600180820186555f9586526020958690209290950293909301359201919091555001610ece565b505f858152600860205260409020546001600160a01b031680156110265760405163257be8e960e11b81526001600160a01b03821690634af7d1d290610ff89089908990899089908990600401613fc5565b5f604051808303815f87803b15801561100f575f80fd5b505af1158015611021573d5f803e3d5ffd5b505050505b505050505050565b604080516020810190915260608152611046836122d4565b6110625760405162461bcd60e51b815260040161093290613e4f565b5f83815260026020908152604080832085845282529182902082519182019092528154909190829082906110959061401d565b80601f01602080910402602001604051908101604052809291908181526020018280546110c19061401d565b801561110c5780601f106110e35761010080835404028352916020019161110c565b820191905f5260205f20905b8154815290600101906020018083116110ef57829003601f168201915b50505050508152505090505b92915050565b5f611128826122d4565b6111445760405162461bcd60e51b815260040161093290613e4f565b505f9081526006602052604090205490565b5f805f6006607f60991b016001600160a01b03168460405160200161117d91815260200190565b60408051601f198184030181529082905261119791614055565b5f60405180830381855afa9150503d805f81146111cf576040519150601f19603f3d011682016040523d82523d5f602084013e6111d4565b606091505b5091509150816112305760405162461bcd60e51b815260206004820152602160248201527f52616e646f6d6e65737320707265636f6d70696c652063616c6c206661696c656044820152601960fa1b6064820152608401610932565b808060200190518101906112449190614066565b949350505050565b61080081111561126e5760405162461bcd60e51b815260040161093290613daa565b5f848152600b60205260409020546001600160a01b031633146112a35760405162461bcd60e51b81526004016109329061407d565b5f848152600660205260409020546113125760405162461bcd60e51b815260206004820152602c60248201527f63616e206f6e6c792073746172742070726f76696e67206f6e6365206c65617660448201526b195cc8185c9948185919195960a21b6064820152608401610932565b5f848152600d6020526040902054611335575f848152600d602052604090204390555b5f848152600a6020526040812080549091906001600160401b0381111561135e5761135e613bc6565b604051908082528060200260200182016040528015611387578160200160208202803683370190505b5090505f5b815181101561140a57825483906113a590600190613d83565b815481106113b5576113b5613d96565b905f5260205f2001548282815181106113d0576113d0613d96565b602002602001018181525050828054806113ec576113ec6140cb565b5f8281526020812082015f199081019190915501905560010161138c565b5061141586826129df565b5f868152600660209081526040808320546009909252822055546114399043613fb2565b8510156114be5760405162461bcd60e51b815260206004820152604760248201527f6368616c6c656e67652065706f6368206d757374206265206174206c6561737460448201527f206368616c6c656e676546696e616c6974792065706f63687320696e207468656064820152662066757475726560c81b608482015260a401610932565b5f868152600760209081526040808320889055600690915281205490036115255760405186907f323c29bc8d678a5d987b90a321982d10b9a91bcad071a9e445879497bf0e68e7905f90a25f868152600d6020908152604080832083905560079091528120555b5f868152600860205260409020546001600160a01b031680156115bb575f87815260076020908152604080832054600690925291829020549151632a89faf360e21b81526001600160a01b0384169263aa27ebcc9261158d928c92908b908b906004016140df565b5f604051808303815f87803b1580156115a4575f80fd5b505af11580156115b6573d5f803e3d5ffd5b505050505b50505050505050565b5f806115cf836122d4565b6115eb5760405162461bcd60e51b815260040161093290613e4f565b50505f908152600b6020908152604080832054600c909252909120546001600160a01b0391821692911690565b5f611622836122d4565b801561163a57505f8381526005602052604090205482105b80156109085750505f918252600360209081526040808420928452919052902054151590565b5f828152600960209081526040822054829161167c919061410f565b90505f806116886116de565b915091506116b585838386600d5f8c81526020019081526020015f2054436116b09190613d83565b612a6f565b9695505050505050565b6116c7612d4f565b6116d082612df3565b6116da8282612dfb565b5050565b60405163052571af60e51b81527f150ac9b959aee0051e4091f0ef5216d941f590e1c5e7f91cf7635b5c11628c0e60048201526201518060248201525f908190819073a2aa501b19aff244d90cc15a4cf739d2725b57299063a4ae35e090604401608060405180830381865afa15801561175a573d5f803e3d5ffd5b505050506040513d601f19601f8201168201806040525081019061177e9190614126565b90505f815f015160070b136117ee5760405162461bcd60e51b815260206004820152603060248201527f6661696c656420746f2076616c69646174653a207072696365206d757374206260448201526f0652067726561746572207468616e20360841b6064820152608401610932565b805160409091015190939092509050565b5f611808612eb7565b505f805160206144f983398151915290565b5f611824826122d4565b6118405760405162461bcd60e51b815260040161093290613e4f565b505f9081526007602052604090205490565b61185b826122d4565b6118775760405162461bcd60e51b815260040161093290613e4f565b5f828152600b60205260409020546001600160a01b03163381146118f45760405162461bcd60e51b815260206004820152602e60248201527f4f6e6c79207468652063757272656e74206f776e65722063616e2070726f706f60448201526d39b29030903732bb9037bbb732b960911b6064820152608401610932565b816001600160a01b0316816001600160a01b03160361192c5750505f908152600c6020526040902080546001600160a01b0319169055565b5f838152600c6020526040902080546001600160a01b0319166001600160a01b0384161790555b505050565b6060611963826122d4565b61197f5760405162461bcd60e51b815260040161093290613e4f565b5f828152600a6020526040812080549091906001600160401b038111156119a8576119a8613bc6565b6040519080825280602002602001820160405280156119d1578160200160208202803683370190505b5090505f5b8254811015611a1f578281815481106119f1576119f1613d96565b905f5260205f200154828281518110611a0c57611a0c613d96565b60209081029190910101526001016119d6565b509392505050565b611a2f612f00565b611a385f612f5b565b565b5f828152600560205260408120548190611a5390612457565b611a5f90610100613d83565b5f8581526009602052604081205491925090611a89908690611a8390600190613d83565b84612546565b5f86815260036020908152604080832084518452909152902054909150611ab290600190613d83565b816020015114611b2c576040805162461bcd60e51b81526020600482015260248101919091527f6368616c6c656e676552616e6765202d312073686f756c6420616c69676e207760448201527f697468207468652076657279206c617374206c656166206f66206120726f6f746064820152608401610932565b611b368585611618565b8015610d31575051909211159392505050565b610800811115611b6b5760405162461bcd60e51b815260040161093290613daa565b6001546001600160401b03168310611bc55760405162461bcd60e51b815260206004820152601a60248201527f70726f6f6620736574206964206f7574206f6620626f756e64730000000000006044820152606401610932565b5f838152600b60205260409020546001600160a01b03163314611c365760405162461bcd60e51b8152602060048201526024808201527f4f6e6c7920746865206f776e65722063616e2064656c6574652070726f6f66206044820152637365747360e01b6064820152608401610932565b5f838152600660209081526040808320805490849055600b835281842080546001600160a01b031916905560078352818420849055600d83528184208490556008909252909120546001600160a01b03168015611ced576040516326c249e360e01b81526001600160a01b038216906326c249e390611cbf9088908690899089906004016141b7565b5f604051808303815f87803b158015611cd6575f80fd5b505af1158015611ce8573d5f803e3d5ffd5b505050505b847f589e9a441b5bddda77c4ab647b0108764a9cc1a7f655aa9b7bc50b8bdfab867383604051611d1f91815260200190565b60405180910390a25050505050565b5f611d38826122d4565b611d545760405162461bcd60e51b815260040161093290613e4f565b505f9081526009602052604090205490565b5f611d70836122d4565b611d8c5760405162461bcd60e51b815260040161093290613e4f565b505f91825260036020908152604080842092845291905290205490565b5f611db3826122d4565b611dcf5760405162461bcd60e51b815260040161093290613e4f565b505f9081526005602052604090205490565b611dea816122d4565b611e065760405162461bcd60e51b815260040161093290613e4f565b5f818152600c60205260409020546001600160a01b03163314611e7f5760405162461bcd60e51b815260206004820152602b60248201527f4f6e6c79207468652070726f706f736564206f776e65722063616e20636c616960448201526a06d206f776e6572736869760ac1b6064820152608401610932565b5f908152600b6020908152604080832080546001600160a01b03199081163317909155600c90925290912080549091169055565b611ebb612f00565b6001600160a01b038116611ee457604051631e4fbdf760e01b81525f6004820152602401610932565b611eed81612f5b565b50565b5f5a5f858152600b60205260409020549091506001600160a01b03163314611f2a5760405162461bcd60e51b81526004016109329061407d565b5f8481526007602052604090205443811115611f7a5760405162461bcd60e51b815260206004820152600f60248201526e383932b6b0ba3ab93290383937b7b360891b6044820152606401610932565b82611fb55760405162461bcd60e51b815260206004820152600b60248201526a32b6b83a3c90383937b7b360a91b6044820152606401610932565b80611ffb5760405162461bcd60e51b81526020600482015260166024820152751b9bc818da185b1b195b99d9481cd8da19591d5b195960521b6044820152606401610932565b5f61200586612fcb565b5f8781526009602090815260408083205460059092528220549293509161202b90612457565b61203790610100613d83565b90505f5b6001600160401b0381168711156121dc5760408051602081018690529081018a90526001600160c01b031960c083901b1660608201525f9060680160405160208183030381529060405290505f8482805190602001205f1c61209d91906141ea565b90505f6120ab8c8387612546565b90505f6120c36120be8e845f015161102e565b612fe2565b90505f61217e8d8d886001600160401b03168181106120e4576120e4613d96565b90506020028101906120f69190613e7b565b6121049060208101906141fd565b808060200260200160405190810160405280939291908181526020018383602002808284375f81840152601f19601f82011690508083019250505050505050838f8f8a6001600160401b031681811061215f5761215f613d96565b90506020028101906121719190613e7b565b5f013586602001516130cc565b9050806121c45760405162461bcd60e51b815260206004820152601460248201527370726f6f6620646964206e6f742076657269667960601b6044820152606401610932565b505050505080806121d490613dd8565b91505061203b565b505f6121e888886130e3565b6121f3906020613fb2565b6121ff9061051461410f565b5a61220a9088613d83565b6122149190613fb2565b9050612220898261314c565b5f898152600860205260409020546001600160a01b031680156122b8575f8a8152600660205260409081902054905163356de02b60e01b8152600481018c9052602481019190915260448101869052606481018990526001600160a01b0382169063356de02b906084015f604051808303815f87803b1580156122a1575f80fd5b505af11580156122b3573d5f803e3d5ffd5b505050505b5050505f9687525050600d602052505060409092204390555050565b6001545f906001600160401b0316821080156111185750505f908152600b60205260409020546001600160a01b0316151590565b5f612312826122d4565b61232e5760405162461bcd60e51b815260040161093290613e4f565b505f908152600d602052604090205490565b7ff0c57e16840df040f15088dc2f81fe391c3923bec73e23a9662efc9c229c6a008054600160401b810460ff1615906001600160401b03165f811580156123845750825b90505f826001600160401b0316600114801561239f5750303b155b9050811580156123ad575080155b156123cb5760405163f92ee8a960e01b815260040160405180910390fd5b845467ffffffffffffffff1916600117855583156123f557845460ff60401b1916600160401b1785555b6123fe33613211565b612406613222565b5f869055831561102657845460ff60401b19168555604051600181527fc7f505b2f371ae2175ee4913f4499e1f2633a7b5936321eed1cdaeb6115181d29060200160405180910390a1505050505050565b5f610100608083901c801561247757612471608083613d83565b91508093505b50604083901c80156124945761248e604083613d83565b91508093505b50602083901c80156124b1576124ab602083613d83565b91508093505b50601083901c80156124ce576124c8601083613d83565b91508093505b50600883901c80156124eb576124e5600883613d83565b91508093505b50600483901c801561250857612502600483613d83565b91508093505b50600283901c80156125255761251f600283613d83565b91508093505b50600183901c801561253c57611244600283613d83565b6112448483613d83565b604080518082019091525f80825260208201525f8481526006602052604090205483106125b55760405162461bcd60e51b815260206004820152601860248201527f4c65616620696e646578206f7574206f6620626f756e647300000000000000006044820152606401610932565b5f6125c3600180851b613d83565b90505f80845b801561269b575f888152600560205260409020548410612603576125ee600182613d83565b6125fc906001901b85613d83565b9350612689565b5f8881526004602090815260408083208784529091529020546126269084613fb2565b915086821161266d575f8881526004602090815260408083208784529091529020546126529084613fb2565b925061265f600182613d83565b6125fc906001901b85613fb2565b612678600182613d83565b612686906001901b85613d83565b93505b8061269381614242565b9150506125c9565b505f8781526004602090815260408083208684529091529020546126bf9083613fb2565b90508581116126fc5760405180604001604052808460016126e09190613fb2565b81526020016126ef8389613d83565b8152509350505050610908565b604051806040016040528084815260200183886127199190613d83565b9052979650505050505050565b5f600a61273c6001670de0b6b3a764000061410f565b6127469190614257565b905090565b803410156127925760405162461bcd60e51b8152602060048201526014602482015273125b98dbdc9c9958dd0819995948185b5bdd5b9d60621b6044820152606401610932565b6040515f90606360ff60981b019083908381818185875af1925050503d805f81146127d8576040519150601f19603f3d011682016040523d82523d5f602084013e6127dd565b606091505b50509050806116da5760405162461bcd60e51b815260206004820152600b60248201526a109d5c9b8819985a5b195960aa1b6044820152606401610932565b5f6128286020836141ea565b1561287f578360405163c7b67cf360e01b8152600401610932918152604060208201819052601d908201527f53697a65206d7573742062652061206d756c7469706c65206f66203332000000606082015260800190565b815f036128d8578360405163c7b67cf360e01b8152600401610932918152604060208201819052601b908201527f53697a65206d7573742062652067726561746572207468616e20300000000000606082015260800190565b6604000000000000821115612938578360405163c7b67cf360e01b815260040161093291815260406020808301829052908201527f526f6f742073697a65206d757374206265206c657373207468616e20325e3530606082015260800190565b5f612944602084614257565b5f8781526005602052604081208054929350909190826129638361426a565b91905055905061297487838361322a565b5f8781526002602090815260408083208484529091529020859061299882826142c6565b50505f87815260036020908152604080832084845282528083208590558983526006909152812080548492906129cf908490613fb2565b9091555090979650505050505050565b6129e8826122d4565b612a045760405162461bcd60e51b815260040161093290613e4f565b5f805b8251811015612a4757612a3384848381518110612a2657612a26613d96565b60200260200101516132a5565b612a3d9083613fb2565b9150600101612a07565b505f8381526006602052604081208054839290612a65908490613d83565b9091555050505050565b5f80861180612a7c575048155b612aee5760405162461bcd60e51b815260206004820152603c60248201527f6661696c656420746f2076616c69646174653a20657374696d6174656420676160448201527f7320666565206d7573742062652067726561746572207468616e2030000000006064820152608401610932565b5f856001600160401b031611612b6c5760405162461bcd60e51b815260206004820152603860248201527f6661696c656420746f2076616c69646174653a204174746f46494c207072696360448201527f65206d7573742062652067726561746572207468616e203000000000000000006064820152608401610932565b5f8311612bd75760405162461bcd60e51b815260206004820152603360248201527f6661696c656420746f2076616c69646174653a207261772073697a65206d75736044820152720742062652067726561746572207468616e203606c1b6064820152608401610932565b5f808560030b12612c4d57612bed85600a614489565b6001600160401b038716612c0a620151806501000000000061410f565b612c14919061410f565b612c1e919061410f565b612c316001670de0b6b3a764000061410f565b612c3c90600261410f565b612c469190614257565b9050612cbd565b6001600160401b038616612c6a620151806501000000000061410f565b612c74919061410f565b612c7d8661449a565b612c8890600a614489565b612c9b6001670de0b6b3a764000061410f565b612ca690600261410f565b612cb0919061410f565b612cba9190614257565b90505b5f84612cc9858461410f565b612cd3919061410f565b90505f6064612ce360058461410f565b612ced9190614257565b90505f6064612cfd60048561410f565b612d079190614257565b9050818a10612d1c575f945050505050610d31565b808a10612d3857612d2d8a83613d83565b945050505050610d31565b6064612d4560018561410f565b612d2d9190614257565b306001600160a01b037f0000000000000000000000000000000000000000000000000000000000000000161480612dd557507f00000000000000000000000000000000000000000000000000000000000000006001600160a01b0316612dc95f805160206144f9833981519152546001600160a01b031690565b6001600160a01b031614155b15611a385760405163703e46dd60e11b815260040160405180910390fd5b611eed612f00565b816001600160a01b03166352d1902d6040518163ffffffff1660e01b8152600401602060405180830381865afa925050508015612e55575060408051601f3d908101601f19168201909252612e5291810190614066565b60015b612e7d57604051634c9c8ce360e01b81526001600160a01b0383166004820152602401610932565b5f805160206144f98339815191528114612ead57604051632a87526960e21b815260048101829052602401610932565b611953838361330b565b306001600160a01b037f00000000000000000000000000000000000000000000000000000000000000001614611a385760405163703e46dd60e11b815260040160405180910390fd5b33612f327f9016d09d72d40fdae2fd8ceac6b6234c7706214fd39c1cd1e609a0528c199300546001600160a01b031690565b6001600160a01b031614611a385760405163118cdaa760e01b8152336004820152602401610932565b7f9016d09d72d40fdae2fd8ceac6b6234c7706214fd39c1cd1e609a0528c19930080546001600160a01b031981166001600160a01b03848116918217845560405192169182907f8be0079c531659141344cd1fd0a4f28419497f9722a3daafe3b4186f6b6457e0905f90a3505050565b5f8181526007602052604081205461111890611156565b5f6020825f01515110156130305760405162461bcd60e51b815260206004820152601560248201527410da590819185d18481a5cc81d1bdbc81cda1bdc9d605a1b6044820152606401610932565b6040805160208082528183019092525f916020820181803683370190505090505f5b60208110156130c25783518051829061306d90602090613d83565b6130779190613fb2565b8151811061308757613087613d96565b602001015160f81c60f81b8282815181106130a4576130a4613d96565b60200101906001600160f81b03191690815f1a905350600101613052565b50610908816144bb565b5f836130d9868585613360565b1495945050505050565b5f80805b83811015611a1f5784848281811061310157613101613d96565b90506020028101906131139190613e7b565b6131219060208101906141fd565b61312d9150602061410f565b613138906040613fb2565b6131429083613fb2565b91506001016130e7565b5f613157488361410f565b90505f6131648483611660565b905061316f8161274b565b803411156131ac57336108fc6131858334613d83565b6040518115909202915f818181858888f193505050501580156131aa573d5f803e3d5ffd5b505b5f806131b66116de565b604080518681526001600160401b0384166020820152600383900b81830152905192945090925087917f928bbf5188022bf8b9a0e59f5e81e179d0a4c729bdba2856ac971af2063fbf2b9181900360600190a2505050505050565b6132196133da565b611eed81613423565b611a386133da565b805f6132358261342b565b9050835f5b82811015613281575f6132506001831b86613d83565b5f8981526004602090815260408083208484529091529020549091506132769084613fb2565b92505060010161323a565b505f9586526004602090815260408088209588529490529290942091909155505050565b5f8281526003602090815260408083208484529091528120546132c984848361343f565b5f84815260036020908152604080832086845282528083208390558683526002825280832086845290915281209061330182826138a8565b5090949350505050565b613314826134e6565b6040516001600160a01b038316907fbc7cd75a20ee27fd9adebab32041f755214dbc6bffa90cc0225b39da2e5c2d3b905f90a2805115613358576119538282613549565b6116da6135b2565b5f82815b85518110156133d1575f86828151811061338057613380613d96565b6020026020010151905060028561339791906141ea565b5f036133ae576133a783826135d1565b92506133bb565b6133b881846135d1565b92505b6133c6600286614257565b945050600101613364565b50949350505050565b7ff0c57e16840df040f15088dc2f81fe391c3923bec73e23a9662efc9c229c6a0054600160401b900460ff16611a3857604051631afcd79f60e31b815260040160405180910390fd5b611ebb6133da565b5f61111861343a836001613fb2565b6135dc565b5f8381526005602052604081205461345690612457565b61346290610100613d83565b90505f61346e8461342b565b90505b81811115801561348d57505f8581526005602052604090205484105b156134df575f858152600460209081526040808320878452909152812080548592906134ba908490613d83565b909155506134cd90506001821b85613fb2565b93506134d88461342b565b9050613471565b5050505050565b806001600160a01b03163b5f0361351b57604051634c9c8ce360e01b81526001600160a01b0382166004820152602401610932565b5f805160206144f983398151915280546001600160a01b0319166001600160a01b0392909216919091179055565b60605f80846001600160a01b0316846040516135659190614055565b5f60405180830381855af49150503d805f811461359d576040519150601f19603f3d011682016040523d82523d5f602084013e6135a2565b606091505b5091509150610d318583836137fc565b3415611a385760405163b398979f60e01b815260040160405180910390fd5b5f6109088383613858565b5f6001600160ff1b0382111561363f5760405162461bcd60e51b815260206004820152602260248201527f496e7075742065786365656473206d6178696d756d20696e743235362076616c604482015261756560f01b6064820152608401610932565b6101005f61364c846144de565b841690508015613664578161366081614242565b9250505b6fffffffffffffffffffffffffffffffff81161561368a57613687608083613d83565b91505b77ffffffffffffffff0000000000000000ffffffffffffffff8116156136b8576136b5604083613d83565b91505b7bffffffff00000000ffffffff00000000ffffffff00000000ffffffff8116156136ea576136e7602083613d83565b91505b7dffff0000ffff0000ffff0000ffff0000ffff0000ffff0000ffff0000ffff81161561371e5761371b601083613d83565b91505b7eff00ff00ff00ff00ff00ff00ff00ff00ff00ff00ff00ff00ff00ff00ff00ff81161561375357613750600883613d83565b91505b7f0f0f0f0f0f0f0f0f0f0f0f0f0f0f0f0f0f0f0f0f0f0f0f0f0f0f0f0f0f0f0f0f81161561378957613786600483613d83565b91505b7f33333333333333333333333333333333333333333333333333333333333333338116156137bf576137bc600283613d83565b91505b7f55555555555555555555555555555555555555555555555555555555555555558116156137f5576137f2600183613d83565b91505b5092915050565b6060826138115761380c8261387f565b610908565b815115801561382857506001600160a01b0384163b155b1561385157604051639996b31560e01b81526001600160a01b0385166004820152602401610932565b5080610908565b5f825f528160205260205f60405f60025afa613872575f80fd5b50505f5160c01916919050565b80511561388f5780518082602001fd5b60405163d6bda27560e01b815260040160405180910390fd5b5080546138b49061401d565b5f825580601f106138c3575050565b601f0160209004905f5260205f2090810190611eed91905b808211156138ee575f81556001016138db565b5090565b5f8083601f840112613902575f80fd5b5081356001600160401b03811115613918575f80fd5b6020830191508360208260051b8501011115613932575f80fd5b9250929050565b5f805f6040848603121561394b575f80fd5b8335925060208401356001600160401b03811115613967575f80fd5b613973868287016138f2565b9497909650939450505050565b602080825282518282018190525f919060409081850190868401855b828110156139c15781518051855286015186850152928401929085019060010161399c565b5091979650505050505050565b80356001600160a01b03811681146139e4575f80fd5b919050565b5f8083601f8401126139f9575f80fd5b5081356001600160401b03811115613a0f575f80fd5b602083019150836020828501011115613932575f80fd5b5f805f60408486031215613a38575f80fd5b613a41846139ce565b925060208401356001600160401b03811115613a5b575f80fd5b613973868287016139e9565b5f805f805f60608688031215613a7b575f80fd5b8535945060208601356001600160401b0380821115613a98575f80fd5b613aa489838a016138f2565b90965094506040880135915080821115613abc575f80fd5b50613ac9888289016139e9565b969995985093965092949392505050565b5f60208284031215613aea575f80fd5b5035919050565b5f8060408385031215613b02575f80fd5b50508035926020909101359150565b5f5b83811015613b2b578181015183820152602001613b13565b50505f910152565b5f8151808452613b4a816020860160208601613b11565b601f01601f19169290920160200192915050565b602081525f82516020808401526112446040840182613b33565b5f805f8060608587031215613b8b575f80fd5b843593506020850135925060408501356001600160401b03811115613bae575f80fd5b613bba878288016139e9565b95989497509550505050565b634e487b7160e01b5f52604160045260245ffd5b604051601f8201601f191681016001600160401b0381118282101715613c0257613c02613bc6565b604052919050565b5f8060408385031215613c1b575f80fd5b613c24836139ce565b91506020808401356001600160401b0380821115613c40575f80fd5b818601915086601f830112613c53575f80fd5b813581811115613c6557613c65613bc6565b613c77601f8201601f19168501613bda565b91508082528784828501011115613c8c575f80fd5b80848401858401375f848284010152508093505050509250929050565b5f8060408385031215613cba575f80fd5b82359150613cca602084016139ce565b90509250929050565b602080825282518282018190525f9190848201906040850190845b81811015613d0a57835183529284019291840191600101613cee565b50909695505050505050565b5f805f60408486031215613d28575f80fd5b8335925060208401356001600160401b03811115613a5b575f80fd5b602081525f6109086020830184613b33565b5f60208284031215613d66575f80fd5b610908826139ce565b634e487b7160e01b5f52601160045260245ffd5b8181038181111561111857611118613d6f565b634e487b7160e01b5f52603260045260245ffd5b6020808252601490820152734578747261206461746120746f6f206c6172676560601b604082015260600190565b5f6001600160401b03808316818103613df357613df3613d6f565b6001019392505050565b81835281816020850137505f828201602090810191909152601f909101601f19169091010190565b8481526001600160a01b03841660208201526060604082018190525f906116b59083018486613dfd565b60208082526012908201527150726f6f6620736574206e6f74206c69766560701b604082015260600190565b5f8235603e19833603018112613e8f575f80fd5b9190910192915050565b5f8235601e19833603018112613e8f575f80fd5b5f60808201888352602088818501526040608060408601528288845260a08601905060a08960051b8701019350895f5b8a811015613f8d57878603609f190183528135368d9003603e19018112613f02575f80fd5b8c018035601e193683900381018212613f19575f80fd5b8282019150868952813581833603018112613f32575f80fd5b9091018781019150356001600160401b03811115613f4e575f80fd5b803603821315613f5c575f80fd5b87878a0152613f6f60608a018284613dfd565b92880135988801989098525095509184019190840190600101613edd565b50505050508281036060840152613fa5818587613dfd565b9998505050505050505050565b8082018082111561111857611118613d6f565b85815260606020820181905281018490525f6001600160fb1b03851115613fea575f80fd5b8460051b808760808501378201828103608090810160408501526140119082018587613dfd565b98975050505050505050565b600181811c9082168061403157607f821691505b60208210810361404f57634e487b7160e01b5f52602260045260245ffd5b50919050565b5f8251613e8f818460208701613b11565b5f60208284031215614076575f80fd5b5051919050565b6020808252602e908201527f6f6e6c7920746865206f776e65722063616e206d6f766520746f206e6578742060408201526d1c1c9bdd9a5b99c81c195c9a5bd960921b606082015260800190565b634e487b7160e01b5f52603160045260245ffd5b858152846020820152836040820152608060608201525f614104608083018486613dfd565b979650505050505050565b808202811582820484141761111857611118613d6f565b5f60808284031215614136575f80fd5b604051608081016001600160401b03828210818311171561415957614159613bc6565b81604052845191508160070b821461416f575f80fd5b9082526020840151908082168214614185575f80fd5b5060208201526040830151600381900b811461419f575f80fd5b60408201526060928301519281019290925250919050565b848152836020820152606060408201525f6116b5606083018486613dfd565b634e487b7160e01b5f52601260045260245ffd5b5f826141f8576141f86141d6565b500690565b5f808335601e19843603018112614212575f80fd5b8301803591506001600160401b0382111561422b575f80fd5b6020019150600581901b3603821315613932575f80fd5b5f8161425057614250613d6f565b505f190190565b5f82614265576142656141d6565b500490565b5f6001820161427b5761427b613d6f565b5060010190565b601f82111561195357805f5260205f20601f840160051c810160208510156142a75750805b601f840160051c820191505b818110156134df575f81556001016142b3565b8135601e198336030181126142d9575f80fd5b820180356001600160401b038111156142f0575f80fd5b60208136038184011315614302575f80fd5b61431682614310865461401d565b86614282565b5f601f831160018114614349575f841561433257508482018301355b5f19600386901b1c1916600185901b1786556115bb565b5f86815260208120601f198616915b82811015614379578785018601358255938501936001909101908501614358565b5085821015614397575f1960f88760031b161c198585890101351681555b5050505050600190811b019091555050565b600181815b808511156143e357815f19048211156143c9576143c9613d6f565b808516156143d657918102915b93841c93908002906143ae565b509250929050565b5f826143f957506001611118565b8161440557505f611118565b816001811461441b576002811461442557614441565b6001915050611118565b60ff84111561443657614436613d6f565b50506001821b611118565b5060208310610133831016604e8410600b8410161715614464575081810a611118565b61446e83836143a9565b805f190482111561448157614481613d6f565b029392505050565b5f61090863ffffffff8416836143eb565b5f8160030b637fffffff1981036144b3576144b3613d6f565b5f0392915050565b8051602080830151919081101561404f575f1960209190910360031b1b16919050565b5f600160ff1b82016144f2576144f2613d6f565b505f039056fe360894a13ba1a3210667c828492db98dca3e2076cc3735a920a3ca505d382bbca2646970667358221220e92968eac9add433073ddd4eef326e4ca6e8afc42954363cd26021502729a74f64736f6c63430008170033","linkReferences":{}},"methodIdentifiers":{"BURN_ACTOR()":"0a6a63f1","EXTRA_DATA_MAX_SIZE()":"029b4646","FIL_USD_PRICE_FEED_ID()":"19c75950","LEAF_SIZE()":"c0e15949","MAX_ENQUEUED_REMOVALS()":"9f8cb3bd","MAX_ROOT_SIZE()":"16e2bcd5","NO_CHALLENGE_SCHEDULED()":"462dd449","PYTH()":"67e406d5","RANDOMNESS_PRECOMPILE()":"15b17570","SECONDS_IN_DAY()":"61a52a36","UPGRADE_INTERFACE_VERSION()":"ad3cb1cc","addRoots(uint256,((bytes),uint256)[],bytes)":"11c0ee4a","calculateProofFee(uint256,uint256)":"4903704a","claimProofSetOwnership(uint256)":"ee3dac65","createProofSet(address,bytes)":"0a4d7932","deleteProofSet(uint256,bytes)":"847d1d06","findRootIds(uint256,uint256[])":"0528a55b","getChallengeFinality()":"f83758fe","getChallengeRange(uint256)":"89208ba9","getFILUSDPrice()":"4fa27920","getNextChallengeEpoch(uint256)":"6ba4608f","getNextProofSetId()":"8ea417e5","getNextRootId(uint256)":"d49245c1","getProofSetLastProvenEpoch(uint256)":"faa67163","getProofSetLeafCount(uint256)":"3f84135f","getProofSetListener(uint256)":"31601226","getProofSetOwner(uint256)":"4726075b","getRandomness(uint256)":"453f4f62","getRootCid(uint256,uint256)":"3b7ae913","getRootLeafCount(uint256,uint256)":"9153e64b","getScheduledRemovals(uint256)":"6fa44692","initialize(uint256)":"fe4b84df","nextProvingPeriod(uint256,uint256,bytes)":"45c0b92d","owner()":"8da5cb5b","proofSetLive(uint256)":"f5cac1ba","proposeProofSetOwner(uint256,address)":"6cb55c16","provePossession(uint256,(bytes32,bytes32[])[])":"f58f952b","proxiableUUID()":"52d1902d","renounceOwnership()":"715018a6","rootChallengable(uint256,uint256)":"71cf2a16","rootLive(uint256,uint256)":"47331050","scheduleRemovals(uint256,uint256[],bytes)":"3b68e4e9","transferOwnership(address)":"f2fde38b","upgradeToAndCall(address,bytes)":"4f1ef286"},"id":43}