{"abi":[{"type":"constructor","inputs":[],"stateMutability":"nonpayable"},{"type":"function","name":"BURN_ACTOR","inputs":[],"outputs":[{"name":"","type":"address","internalType":"address"}],"stateMutability":"view"},{"type":"function","name":"EXTRA_DATA_MAX_SIZE","inputs":[],"outputs":[{"name":"","type":"uint256","internalType":"uint256"}],"stateMutability":"view"},{"type":"function","name":"FIL_USD_PRICE_FEED_ID","inputs":[],"outputs":[{"name":"","type":"bytes32","internalType":"bytes32"}],"stateMutability":"view"},{"type":"function","name":"LEAF_SIZE","inputs":[],"outputs":[{"name":"","type":"uint256","internalType":"uint256"}],"stateMutability":"view"},{"type":"function","name":"MAX_ENQUEUED_REMOVALS","inputs":[],"outputs":[{"name":"","type":"uint256","internalType":"uint256"}],"stateMutability":"view"},{"type":"function","name":"MAX_ROOT_SIZE","inputs":[],"outputs":[{"name":"","type":"uint256","internalType":"uint256"}],"stateMutability":"view"},{"type":"function","name":"NO_CHALLENGE_SCHEDULED","inputs":[],"outputs":[{"name":"","type":"uint256","internalType":"uint256"}],"stateMutability":"view"},{"type":"function","name":"PYTH","inputs":[],"outputs":[{"name":"","type":"address","internalType":"contract IPyth"}],"stateMutability":"view"},{"type":"function","name":"RANDOMNESS_PRECOMPILE","inputs":[],"outputs":[{"name":"","type":"address","internalType":"address"}],"stateMutability":"view"},{"type":"function","name":"SECONDS_IN_DAY","inputs":[],"outputs":[{"name":"","type":"uint256","internalType":"uint256"}],"stateMutability":"view"},{"type":"function","name":"UPGRADE_INTERFACE_VERSION","inputs":[],"outputs":[{"name":"","type":"string","internalType":"string"}],"stateMutability":"view"},{"type":"function","name":"addRoots","inputs":[{"name":"setId","type":"uint256","internalType":"uint256"},{"name":"rootData","type":"tuple[]","internalType":"struct PDPVerifier.RootData[]","components":[{"name":"root","type":"tuple","internalType":"struct Cids.Cid","components":[{"name":"data","type":"bytes","internalType":"bytes"}]},{"name":"rawSize","type":"uint256","internalType":"uint256"}]},{"name":"extraData","type":"bytes","internalType":"bytes"}],"outputs":[{"name":"","type":"uint256","internalType":"uint256"}],"stateMutability":"nonpayable"},{"type":"function","name":"calculateProofFee","inputs":[{"name":"setId","type":"uint256","internalType":"uint256"},{"name":"gasUsed","type":"uint256","internalType":"uint256"}],"outputs":[{"name":"","type":"uint256","internalType":"uint256"}],"stateMutability":"view"},{"type":"function","name":"claimProofSetOwnership","inputs":[{"name":"setId","type":"uint256","internalType":"uint256"}],"outputs":[],"stateMutability":"nonpayable"},{"type":"function","name":"createProofSet","inputs":[{"name":"listenerAddr","type":"address","internalType":"address"},{"name":"extraData","type":"bytes","internalType":"bytes"}],"outputs":[{"name":"","type":"uint256","internalType":"uint256"}],"stateMutability":"payable"},{"type":"function","name":"deleteProofSet","inputs":[{"name":"setId","type":"uint256","internalType":"uint256"},{"name":"extraData","type":"bytes","internalType":"bytes"}],"outputs":[],"stateMutability":"nonpayable"},{"type":"function","name":"findRootIds","inputs":[{"name":"setId","type":"uint256","internalType":"uint256"},{"name":"leafIndexs","type":"uint256[]","internalType":"uint256[]"}],"outputs":[{"name":"","type":"tuple[]","internalType":"struct PDPVerifier.RootIdAndOffset[]","components":[{"name":"rootId","type":"uint256","internalType":"uint256"},{"name":"offset","type":"uint256","internalType":"uint256"}]}],"stateMutability":"view"},{"type":"function","name":"getChallengeFinality","inputs":[],"outputs":[{"name":"","type":"uint256","internalType":"uint256"}],"stateMutability":"view"},{"type":"function","name":"getChallengeRange","inputs":[{"name":"setId","type":"uint256","internalType":"uint256"}],"outputs":[{"name":"","type":"uint256","internalType":"uint256"}],"stateMutability":"view"},{"type":"function","name":"getFILUSDPrice","inputs":[],"outputs":[{"name":"","type":"uint64","internalType":"uint64"},{"name":"","type":"int32","internalType":"int32"}],"stateMutability":"view"},{"type":"function","name":"getNextChallengeEpoch","inputs":[{"name":"setId","type":"uint256","internalType":"uint256"}],"outputs":[{"name":"","type":"uint256","internalType":"uint256"}],"stateMutability":"view"},{"type":"function","name":"getNextProofSetId","inputs":[],"outputs":[{"name":"","type":"uint64","internalType":"uint64"}],"stateMutability":"view"},{"type":"function","name":"getNextRootId","inputs":[{"name":"setId","type":"uint256","internalType":"uint256"}],"outputs":[{"name":"","type":"uint256","internalType":"uint256"}],"stateMutability":"view"},{"type":"function","name":"getProofSetLastProvenEpoch","inputs":[{"name":"setId","type":"uint256","internalType":"uint256"}],"outputs":[{"name":"","type":"uint256","internalType":"uint256"}],"stateMutability":"view"},{"type":"function","name":"getProofSetLeafCount","inputs":[{"name":"setId","type":"uint256","internalType":"uint256"}],"outputs":[{"name":"","type":"uint256","internalType":"uint256"}],"stateMutability":"view"},{"type":"function","name":"getProofSetListener","inputs":[{"name":"setId","type":"uint256","internalType":"uint256"}],"outputs":[{"name":"","type":"address","internalType":"address"}],"stateMutability":"view"},{"type":"function","name":"getProofSetOwner","inputs":[{"name":"setId","type":"uint256","internalType":"uint256"}],"outputs":[{"name":"","type":"address","internalType":"address"},{"name":"","type":"address","internalType":"address"}],"stateMutability":"view"},{"type":"function","name":"getRandomness","inputs":[{"name":"epoch","type":"uint256","internalType":"uint256"}],"outputs":[{"name":"","type":"uint256","internalType":"uint256"}],"stateMutability":"view"},{"type":"function","name":"getRootCid","inputs":[{"name":"setId","type":"uint256","internalType":"uint256"},{"name":"rootId","type":"uint256","internalType":"uint256"}],"outputs":[{"name":"","type":"tuple","internalType":"struct Cids.Cid","components":[{"name":"data","type":"bytes","internalType":"bytes"}]}],"stateMutability":"view"},{"type":"function","name":"getRootLeafCount","inputs":[{"name":"setId","type":"uint256","internalType":"uint256"},{"name":"rootId","type":"uint256","internalType":"uint256"}],"outputs":[{"name":"","type":"uint256","internalType":"uint256"}],"stateMutability":"view"},{"type":"function","name":"getScheduledRemovals","inputs":[{"name":"setId","type":"uint256","internalType":"uint256"}],"outputs":[{"name":"","type":"uint256[]","internalType":"uint256[]"}],"stateMutability":"view"},{"type":"function","name":"initialize","inputs":[{"name":"_challengeFinality","type":"uint256","internalType":"uint256"}],"outputs":[],"stateMutability":"nonpayable"},{"type":"function","name":"nextProvingPeriod","inputs":[{"name":"setId","type":"uint256","internalType":"uint256"},{"name":"challengeEpoch","type":"uint256","internalType":"uint256"},{"name":"extraData","type":"bytes","internalType":"bytes"}],"outputs":[],"stateMutability":"nonpayable"},{"type":"function","name":"owner","inputs":[],"outputs":[{"name":"","type":"address","internalType":"address"}],"stateMutability":"view"},{"type":"function","name":"proofSetLive","inputs":[{"name":"setId","type":"uint256","internalType":"uint256"}],"outputs":[{"name":"","type":"bool","internalType":"bool"}],"stateMutability":"view"},{"type":"function","name":"proposeProofSetOwner","inputs":[{"name":"setId","type":"uint256","internalType":"uint256"},{"name":"newOwner","type":"address","internalType":"address"}],"outputs":[],"stateMutability":"nonpayable"},{"type":"function","name":"provePossession","inputs":[{"name":"setId","type":"uint256","internalType":"uint256"},{"name":"proofs","type":"tuple[]","internalType":"struct PDPVerifier.Proof[]","components":[{"name":"leaf","type":"bytes32","internalType":"bytes32"},{"name":"proof","type":"bytes32[]","internalType":"bytes32[]"}]}],"outputs":[],"stateMutability":"payable"},{"type":"function","name":"proxiableUUID","inputs":[],"outputs":[{"name":"","type":"bytes32","internalType":"bytes32"}],"stateMutability":"view"},{"type":"function","name":"renounceOwnership","inputs":[],"outputs":[],"stateMutability":"nonpayable"},{"type":"function","name":"rootChallengable","inputs":[{"name":"setId","type":"uint256","internalType":"uint256"},{"name":"rootId","type":"uint256","internalType":"uint256"}],"outputs":[{"name":"","type":"bool","internalType":"bool"}],"stateMutability":"view"},{"type":"function","name":"rootLive","inputs":[{"name":"setId","type":"uint256","internalType":"uint256"},{"name":"rootId","type":"uint256","internalType":"uint256"}],"outputs":[{"name":"","type":"bool","internalType":"bool"}],"stateMutability":"view"},{"type":"function","name":"scheduleRemovals","inputs":[{"name":"setId","type":"uint256","internalType":"uint256"},{"name":"rootIds","type":"uint256[]","internalType":"uint256[]"},{"name":"extraData","type":"bytes","internalType":"bytes"}],"outputs":[],"stateMutability":"nonpayable"},{"type":"function","name":"transferOwnership","inputs":[{"name":"newOwner","type":"address","internalType":"address"}],"outputs":[],"stateMutability":"nonpayable"},{"type":"function","name":"upgradeToAndCall","inputs":[{"name":"newImplementation","type":"address","internalType":"address"},{"name":"data","type":"bytes","internalType":"bytes"}],"outputs":[],"stateMutability":"payable"},{"type":"event","name":"Debug","inputs":[{"name":"message","type":"string","indexed":false,"internalType":"string"},{"name":"value","type":"uint256","indexed":false,"internalType":"uint256"}],"anonymous":false},{"type":"event","name":"Initialized","inputs":[{"name":"version","type":"uint64","indexed":false,"internalType":"uint64"}],"anonymous":false},{"type":"event","name":"OwnershipTransferred","inputs":[{"name":"previousOwner","type":"address","indexed":true,"internalType":"address"},{"name":"newOwner","type":"address","indexed":true,"internalType":"address"}],"anonymous":false},{"type":"event","name":"ProofFeePaid","inputs":[{"name":"setId","type":"uint256","indexed":true,"internalType":"uint256"},{"name":"fee","type":"uint256","indexed":false,"internalType":"uint256"},{"name":"price","type":"uint64","indexed":false,"internalType":"uint64"},{"name":"expo","type":"int32","indexed":false,"internalType":"int32"}],"anonymous":false},{"type":"event","name":"ProofSetCreated","inputs":[{"name":"setId","type":"uint256","indexed":true,"internalType":"uint256"}],"anonymous":false},{"type":"event","name":"ProofSetDeleted","inputs":[{"name":"setId","type":"uint256","indexed":true,"internalType":"uint256"},{"name":"deletedLeafCount","type":"uint256","indexed":false,"internalType":"uint256"}],"anonymous":false},{"type":"event","name":"ProofSetEmpty","inputs":[{"name":"setId","type":"uint256","indexed":true,"internalType":"uint256"}],"anonymous":false},{"type":"event","name":"RootsAdded","inputs":[{"name":"firstAdded","type":"uint256","indexed":true,"internalType":"uint256"}],"anonymous":false},{"type":"event","name":"RootsRemoved","inputs":[{"name":"rootIds","type":"uint256[]","indexed":true,"internalType":"uint256[]"}],"anonymous":false},{"type":"event","name":"Upgraded","inputs":[{"name":"implementation","type":"address","indexed":true,"internalType":"address"}],"anonymous":false},{"type":"error","name":"AddressEmptyCode","inputs":[{"name":"target","type":"address","internalType":"address"}]},{"type":"error","name":"ERC1967InvalidImplementation","inputs":[{"name":"implementation","type":"address","internalType":"address"}]},{"type":"error","name":"ERC1967NonPayable","inputs":[]},{"type":"error","name":"FailedCall","inputs":[]},{"type":"error","name":"IndexedError","inputs":[{"name":"idx","type":"uint256","internalType":"uint256"},{"name":"msg","type":"string","internalType":"string"}]},{"type":"error","name":"InvalidInitialization","inputs":[]},{"type":"error","name":"NotInitializing","inputs":[]},{"type":"error","name":"OwnableInvalidOwner","inputs":[{"name":"owner","type":"address","internalType":"address"}]},{"type":"error","name":"OwnableUnauthorizedAccount","inputs":[{"name":"account","type":"address","internalType":"address"}]},{"type":"error","name":"UUPSUnauthorizedCallContext","inputs":[]},{"type":"error","name":"UUPSUnsupportedProxiableUUID","inputs":[{"name":"slot","type":"bytes32","internalType":"bytes32"}]}],"bytecode":{"object":"0x60a06040523060805234801562000014575f80fd5b506200001f62000025565b620000d9565b7ff0c57e16840df040f15088dc2f81fe391c3923bec73e23a9662efc9c229c6a00805468010000000000000000900460ff1615620000765760405163f92ee8a960e01b815260040160405180910390fd5b80546001600160401b0390811614620000d65780546001600160401b0319166001600160401b0390811782556040519081527fc7f505b2f371ae2175ee4913f4499e1f2633a7b5936321eed1cdaeb6115181d29060200160405180910390a15b50565b608051614546620001005f395f8181612d6801528181612d910152612ed001526145465ff3fe60806040526004361061025f575f3560e01c806367e406d51161013f5780639f8cb3bd116100b3578063f2fde38b11610078578063f2fde38b14610786578063f58f952b146107a5578063f5cac1ba146107b8578063f83758fe146107d7578063faa67163146107ea578063fe4b84df14610809575f80fd5b80639f8cb3bd146106e2578063ad3cb1cc146106f7578063c0e1594914610734578063d49245c114610748578063ee3dac6514610767575f80fd5b806371cf2a161161010457806371cf2a1614610603578063847d1d061461062257806389208ba9146106415780638da5cb5b146106605780638ea417e51461069c5780639153e64b146106c3575f80fd5b806367e406d51461055e5780636ba4608f146105855780636cb55c16146105a45780636fa44692146105c3578063715018a6146105ef575f80fd5b80633f84135f116101d6578063473310501161019b578063473310501461049d5780634903704a146104cc5780634f1ef286146104eb5780634fa27920146104fe57806352d1902d1461053457806361a52a3614610548575f80fd5b80633f84135f146103ee578063453f4f621461040d57806345c0b92d1461042c578063462dd4491461044b5780634726075b1461045e575f80fd5b806315b175701161022757806315b175701461031b57806316e2bcd51461033557806319c759501461034f57806331601226146103825780633b68e4e9146103a15780633b7ae913146103c2575f80fd5b8063029b4646146102635780630528a55b1461028b5780630a4d7932146102b75780630a6a63f1146102ca57806311c0ee4a146102fc575b5f80fd5b34801561026e575f80fd5b5061027861080081565b6040519081526020015b60405180910390f35b348015610296575f80fd5b506102aa6102a5366004613932565b610828565b6040516102829190613979565b6102786102c5366004613a1f565b61090f565b3480156102d5575f80fd5b506102e4606360ff60981b0181565b6040516001600160a01b039091168152602001610282565b348015610307575f80fd5b50610278610316366004613a60565b610b06565b348015610326575f80fd5b506102e46006607f60991b0181565b348015610340575f80fd5b50610278660400000000000081565b34801561035a575f80fd5b506102787f150ac9b959aee0051e4091f0ef5216d941f590e1c5e7f91cf7635b5c11628c0e81565b34801561038d575f80fd5b506102e461039c366004613ad3565b610d3a565b3480156103ac575f80fd5b506103c06103bb366004613a60565b610d7b565b005b3480156103cd575f80fd5b506103e16103dc366004613aea565b61102e565b6040516102829190613b57565b3480156103f9575f80fd5b50610278610408366004613ad3565b61111e565b348015610418575f80fd5b50610278610427366004613ad3565b611156565b348015610437575f80fd5b506103c0610446366004613b71565b61124c565b348015610456575f80fd5b506102785f81565b348015610469575f80fd5b5061047d610478366004613ad3565b6115c4565b604080516001600160a01b03938416815292909116602083015201610282565b3480156104a8575f80fd5b506104bc6104b7366004613aea565b611618565b6040519015158152602001610282565b3480156104d7575f80fd5b506102786104e6366004613aea565b611660565b6103c06104f9366004613c03565b6116cd565b348015610509575f80fd5b506105126116ec565b604080516001600160401b03909316835260039190910b602083015201610282565b34801561053f575f80fd5b5061027861180d565b348015610553575f80fd5b506102786201518081565b348015610569575f80fd5b506102e473a2aa501b19aff244d90cc15a4cf739d2725b572981565b348015610590575f80fd5b5061027861059f366004613ad3565b611828565b3480156105af575f80fd5b506103c06105be366004613ca2565b611860565b3480156105ce575f80fd5b506105e26105dd366004613ad3565b611966565b6040516102829190613ccc565b3480156105fa575f80fd5b506103c0611a35565b34801561060e575f80fd5b506104bc61061d366004613aea565b611a48565b34801561062d575f80fd5b506103c061063c366004613d0f565b611b57565b34801561064c575f80fd5b5061027861065b366004613ad3565b611d3c565b34801561066b575f80fd5b507f9016d09d72d40fdae2fd8ceac6b6234c7706214fd39c1cd1e609a0528c199300546001600160a01b03166102e4565b3480156106a7575f80fd5b506001546040516001600160401b039091168152602001610282565b3480156106ce575f80fd5b506102786106dd366004613aea565b611d74565b3480156106ed575f80fd5b506102786107d081565b348015610702575f80fd5b50610727604051806040016040528060058152602001640352e302e360dc1b81525081565b6040516102829190613d3d565b34801561073f575f80fd5b50610278602081565b348015610753575f80fd5b50610278610762366004613ad3565b611db7565b348015610772575f80fd5b506103c0610781366004613ad3565b611def565b348015610791575f80fd5b506103c06107a0366004613d4f565b611ec1565b6103c06107b3366004613932565b611efe565b3480156107c3575f80fd5b506104bc6107d2366004613ad3565b6122e2565b3480156107e2575f80fd5b505f54610278565b3480156107f5575f80fd5b50610278610804366004613ad3565b612316565b348015610814575f80fd5b506103c0610823366004613ad3565b61234e565b5f838152600560205260408120546060919061084390612465565b61084f90610100613d7c565b90505f836001600160401b0381111561086a5761086a613bbf565b6040519080825280602002602001820160405280156108ae57816020015b604080518082019091525f80825260208201528152602001906001900390816108885790505b5090505f5b84811015610903576108de878787848181106108d1576108d1613d8f565b9050602002013585612554565b8282815181106108f0576108f0613d8f565b60209081029190910101526001016108b3565b509150505b9392505050565b5f61080082111561093b5760405162461bcd60e51b815260040161093290613da3565b60405180910390fd5b5f610944612734565b90508034101561098a5760405162461bcd60e51b81526020600482015260116024820152701cde589a5b08199959481b9bdd081b595d607a1b6044820152606401610932565b61099381612759565b803411156109d057336108fc6109a98334613d7c565b6040518115909202915f818181858888f193505050501580156109ce573d5f803e3d5ffd5b505b600180545f916001600160401b0390911690826109ec83613dd1565b82546001600160401b039182166101009390930a928302928202191691909117909155165f81815260066020908152604080832083905560078252808320839055600b825280832080546001600160a01b031990811633179091556008835281842080546001600160a01b038d16921682179055600d90925282209190915590915015610ad357604051634a6a0d9b60e11b81526001600160a01b038716906394d41b3690610aa590849033908a908a90600401613e1e565b5f604051808303815f87803b158015610abc575f80fd5b505af1158015610ace573d5f803e3d5ffd5b505050505b60405181907f5979d495e336598dba8459e44f8eb2a1c957ce30fcc10cabea4bb0ffe969df6a905f90a295945050505050565b5f610800821115610b295760405162461bcd60e51b815260040161093290613da3565b610b32866122e2565b610b4e5760405162461bcd60e51b815260040161093290613e52565b83610b9b5760405162461bcd60e51b815260206004820152601a60248201527f4d75737420616464206174206c65617374206f6e6520726f6f740000000000006044820152606401610932565b5f868152600b60205260409020546001600160a01b03163314610c005760405162461bcd60e51b815260206004820152601c60248201527f4f6e6c7920746865206f776e65722063616e2061646420726f6f7473000000006044820152606401610932565b5f86815260056020526040812054905b85811015610c8157610c788882898985818110610c2f57610c2f613d8f565b9050602002810190610c419190613e7e565b610c4b9080613e9c565b8a8a86818110610c5d57610c5d613d8f565b9050602002810190610c6f9190613e7e565b6020013561282a565b50600101610c10565b505f878152600860205260409020546001600160a01b03168015610d03576040516312d5d66f60e01b81526001600160a01b038216906312d5d66f90610cd5908b9086908c908c908c908c90600401613eb0565b5f604051808303815f87803b158015610cec575f80fd5b505af1158015610cfe573d5f803e3d5ffd5b505050505b60405182907fde16f8a35fc44238b21a493b7267f7a5064f2bc1b3a1af51deeb4b5a47281d47905f90a25090505b95945050505050565b5f610d44826122e2565b610d605760405162461bcd60e51b815260040161093290613e52565b505f908152600860205260409020546001600160a01b031690565b610800811115610d9d5760405162461bcd60e51b815260040161093290613da3565b610da6856122e2565b610dc25760405162461bcd60e51b815260040161093290613e52565b5f858152600b60205260409020546001600160a01b03163314610e3c5760405162461bcd60e51b815260206004820152602c60248201527f4f6e6c7920746865206f776e65722063616e207363686564756c652072656d6f60448201526b76616c206f6620726f6f747360a01b6064820152608401610932565b5f858152600a60205260409020546107d090610e589085613fb5565b1115610ecc5760405162461bcd60e51b815260206004820152603a60248201527f546f6f206d616e792072656d6f76616c73207761697420666f72206e6578742060448201527f70726f76696e6720706572696f6420746f207363686564756c650000000000006064820152608401610932565b5f5b83811015610fa6575f86815260056020526040902054858583818110610ef657610ef6613d8f565b9050602002013510610f5e5760405162461bcd60e51b815260206004820152602b60248201527f43616e206f6e6c79207363686564756c652072656d6f76616c206f662065786960448201526a7374696e6720726f6f747360a81b6064820152608401610932565b5f868152600a60205260409020858583818110610f7d57610f7d613d8f565b8354600180820186555f9586526020958690209290950293909301359201919091555001610ece565b505f858152600860205260409020546001600160a01b031680156110265760405163257be8e960e11b81526001600160a01b03821690634af7d1d290610ff89089908990899089908990600401613fc8565b5f604051808303815f87803b15801561100f575f80fd5b505af1158015611021573d5f803e3d5ffd5b505050505b505050505050565b604080516020810190915260608152611046836122e2565b6110625760405162461bcd60e51b815260040161093290613e52565b5f838152600260209081526040808320858452825291829020825191820190925281549091908290829061109590614020565b80601f01602080910402602001604051908101604052809291908181526020018280546110c190614020565b801561110c5780601f106110e35761010080835404028352916020019161110c565b820191905f5260205f20905b8154815290600101906020018083116110ef57829003601f168201915b50505050508152505090505b92915050565b5f611128826122e2565b6111445760405162461bcd60e51b815260040161093290613e52565b505f9081526006602052604090205490565b5f805f6006607f60991b016001600160a01b03168460405160200161117d91815260200190565b60408051601f198184030181529082905261119791614058565b5f60405180830381855afa9150503d805f81146111cf576040519150601f19603f3d011682016040523d82523d5f602084013e6111d4565b606091505b5091509150816112305760405162461bcd60e51b815260206004820152602160248201527f52616e646f6d6e65737320707265636f6d70696c652063616c6c206661696c656044820152601960fa1b6064820152608401610932565b808060200190518101906112449190614069565b949350505050565b61080081111561126e5760405162461bcd60e51b815260040161093290613da3565b5f848152600b60205260409020546001600160a01b031633146112a35760405162461bcd60e51b815260040161093290614080565b5f848152600660205260409020546113125760405162461bcd60e51b815260206004820152602c60248201527f63616e206f6e6c792073746172742070726f76696e67206f6e6365206c65617660448201526b195cc8185c9948185919195960a21b6064820152608401610932565b5f848152600d6020526040902054611335575f848152600d602052604090204390555b5f848152600a6020526040812080549091906001600160401b0381111561135e5761135e613bbf565b604051908082528060200260200182016040528015611387578160200160208202803683370190505b5090505f5b815181101561140a57825483906113a590600190613d7c565b815481106113b5576113b5613d8f565b905f5260205f2001548282815181106113d0576113d0613d8f565b602002602001018181525050828054806113ec576113ec6140ce565b5f8281526020812082015f199081019190915501905560010161138c565b5061141586826129ed565b5f868152600660209081526040808320546009909252822055546114399043613fb5565b8510156114be5760405162461bcd60e51b815260206004820152604760248201527f6368616c6c656e67652065706f6368206d757374206265206174206c6561737460448201527f206368616c6c656e676546696e616c6974792065706f63687320696e207468656064820152662066757475726560c81b608482015260a401610932565b5f868152600760209081526040808320889055600690915281205490036115255760405186907f323c29bc8d678a5d987b90a321982d10b9a91bcad071a9e445879497bf0e68e7905f90a25f868152600d6020908152604080832083905560079091528120555b5f868152600860205260409020546001600160a01b031680156115bb575f87815260076020908152604080832054600690925291829020549151632a89faf360e21b81526001600160a01b0384169263aa27ebcc9261158d928c92908b908b906004016140e2565b5f604051808303815f87803b1580156115a4575f80fd5b505af11580156115b6573d5f803e3d5ffd5b505050505b50505050505050565b5f806115cf836122e2565b6115eb5760405162461bcd60e51b815260040161093290613e52565b50505f908152600b6020908152604080832054600c909252909120546001600160a01b0391821692911690565b5f611622836122e2565b801561163a57505f8381526005602052604090205482105b80156109085750505f918252600360209081526040808420928452919052902054151590565b5f828152600960209081526040822054829161167c9190614107565b90505f6116894885614107565b90505f806116956116ec565b915091506116c283838387600d5f8d81526020019081526020015f2054436116bd9190613d7c565b612a7d565b979650505050505050565b6116d5612d5d565b6116de82612e01565b6116e88282612e09565b5050565b60405163052571af60e51b81527f150ac9b959aee0051e4091f0ef5216d941f590e1c5e7f91cf7635b5c11628c0e60048201526201518060248201525f908190819073a2aa501b19aff244d90cc15a4cf739d2725b57299063a4ae35e090604401608060405180830381865afa158015611768573d5f803e3d5ffd5b505050506040513d601f19601f8201168201806040525081019061178c919061411e565b90505f815f015160070b136117fc5760405162461bcd60e51b815260206004820152603060248201527f6661696c656420746f2076616c69646174653a207072696365206d757374206260448201526f0652067726561746572207468616e20360841b6064820152608401610932565b805160409091015190939092509050565b5f611816612ec5565b505f805160206144f183398151915290565b5f611832826122e2565b61184e5760405162461bcd60e51b815260040161093290613e52565b505f9081526007602052604090205490565b611869826122e2565b6118855760405162461bcd60e51b815260040161093290613e52565b5f828152600b60205260409020546001600160a01b03163381146119025760405162461bcd60e51b815260206004820152602e60248201527f4f6e6c79207468652063757272656e74206f776e65722063616e2070726f706f60448201526d39b29030903732bb9037bbb732b960911b6064820152608401610932565b816001600160a01b0316816001600160a01b03160361193a5750505f908152600c6020526040902080546001600160a01b0319169055565b5f838152600c6020526040902080546001600160a01b0319166001600160a01b0384161790555b505050565b6060611971826122e2565b61198d5760405162461bcd60e51b815260040161093290613e52565b5f828152600a6020526040812080549091906001600160401b038111156119b6576119b6613bbf565b6040519080825280602002602001820160405280156119df578160200160208202803683370190505b5090505f5b8254811015611a2d578281815481106119ff576119ff613d8f565b905f5260205f200154828281518110611a1a57611a1a613d8f565b60209081029190910101526001016119e4565b509392505050565b611a3d612f0e565b611a465f612f69565b565b5f828152600560205260408120548190611a6190612465565b611a6d90610100613d7c565b5f8581526009602052604081205491925090611a97908690611a9190600190613d7c565b84612554565b5f86815260036020908152604080832084518452909152902054909150611ac090600190613d7c565b816020015114611b3a576040805162461bcd60e51b81526020600482015260248101919091527f6368616c6c656e676552616e6765202d312073686f756c6420616c69676e207760448201527f697468207468652076657279206c617374206c656166206f66206120726f6f746064820152608401610932565b611b448585611618565b8015610d31575051909211159392505050565b610800811115611b795760405162461bcd60e51b815260040161093290613da3565b6001546001600160401b03168310611bd35760405162461bcd60e51b815260206004820152601a60248201527f70726f6f6620736574206964206f7574206f6620626f756e64730000000000006044820152606401610932565b5f838152600b60205260409020546001600160a01b03163314611c445760405162461bcd60e51b8152602060048201526024808201527f4f6e6c7920746865206f776e65722063616e2064656c6574652070726f6f66206044820152637365747360e01b6064820152608401610932565b5f838152600660209081526040808320805490849055600b835281842080546001600160a01b031916905560078352818420849055600d83528184208490556008909252909120546001600160a01b03168015611cfb576040516326c249e360e01b81526001600160a01b038216906326c249e390611ccd9088908690899089906004016141af565b5f604051808303815f87803b158015611ce4575f80fd5b505af1158015611cf6573d5f803e3d5ffd5b505050505b847f589e9a441b5bddda77c4ab647b0108764a9cc1a7f655aa9b7bc50b8bdfab867383604051611d2d91815260200190565b60405180910390a25050505050565b5f611d46826122e2565b611d625760405162461bcd60e51b815260040161093290613e52565b505f9081526009602052604090205490565b5f611d7e836122e2565b611d9a5760405162461bcd60e51b815260040161093290613e52565b505f91825260036020908152604080842092845291905290205490565b5f611dc1826122e2565b611ddd5760405162461bcd60e51b815260040161093290613e52565b505f9081526005602052604090205490565b611df8816122e2565b611e145760405162461bcd60e51b815260040161093290613e52565b5f818152600c60205260409020546001600160a01b03163314611e8d5760405162461bcd60e51b815260206004820152602b60248201527f4f6e6c79207468652070726f706f736564206f776e65722063616e20636c616960448201526a06d206f776e6572736869760ac1b6064820152608401610932565b5f908152600b6020908152604080832080546001600160a01b03199081163317909155600c90925290912080549091169055565b611ec9612f0e565b6001600160a01b038116611ef257604051631e4fbdf760e01b81525f6004820152602401610932565b611efb81612f69565b50565b5f5a5f858152600b60205260409020549091506001600160a01b03163314611f385760405162461bcd60e51b815260040161093290614080565b5f8481526007602052604090205443811115611f885760405162461bcd60e51b815260206004820152600f60248201526e383932b6b0ba3ab93290383937b7b360891b6044820152606401610932565b82611fc35760405162461bcd60e51b815260206004820152600b60248201526a32b6b83a3c90383937b7b360a91b6044820152606401610932565b806120095760405162461bcd60e51b81526020600482015260166024820152751b9bc818da185b1b195b99d9481cd8da19591d5b195960521b6044820152606401610932565b5f61201386612fd9565b5f8781526009602090815260408083205460059092528220549293509161203990612465565b61204590610100613d7c565b90505f5b6001600160401b0381168711156121ea5760408051602081018690529081018a90526001600160c01b031960c083901b1660608201525f9060680160405160208183030381529060405290505f8482805190602001205f1c6120ab91906141e2565b90505f6120b98c8387612554565b90505f6120d16120cc8e845f015161102e565b612ff0565b90505f61218c8d8d886001600160401b03168181106120f2576120f2613d8f565b90506020028101906121049190613e7e565b6121129060208101906141f5565b808060200260200160405190810160405280939291908181526020018383602002808284375f81840152601f19601f82011690508083019250505050505050838f8f8a6001600160401b031681811061216d5761216d613d8f565b905060200281019061217f9190613e7e565b5f013586602001516130da565b9050806121d25760405162461bcd60e51b815260206004820152601460248201527370726f6f6620646964206e6f742076657269667960601b6044820152606401610932565b505050505080806121e290613dd1565b915050612049565b505f6121f688886130f1565b612201906020613fb5565b61220d90610514614107565b5a6122189088613d7c565b6122229190613fb5565b905061222e898261315a565b5f898152600860205260409020546001600160a01b031680156122c6575f8a8152600660205260409081902054905163356de02b60e01b8152600481018c9052602481019190915260448101869052606481018990526001600160a01b0382169063356de02b906084015f604051808303815f87803b1580156122af575f80fd5b505af11580156122c1573d5f803e3d5ffd5b505050505b5050505f9687525050600d602052505060409092204390555050565b6001545f906001600160401b0316821080156111185750505f908152600b60205260409020546001600160a01b0316151590565b5f612320826122e2565b61233c5760405162461bcd60e51b815260040161093290613e52565b505f908152600d602052604090205490565b7ff0c57e16840df040f15088dc2f81fe391c3923bec73e23a9662efc9c229c6a008054600160401b810460ff1615906001600160401b03165f811580156123925750825b90505f826001600160401b031660011480156123ad5750303b155b9050811580156123bb575080155b156123d95760405163f92ee8a960e01b815260040160405180910390fd5b845467ffffffffffffffff19166001178555831561240357845460ff60401b1916600160401b1785555b61240c3361320a565b61241461321b565b5f869055831561102657845460ff60401b19168555604051600181527fc7f505b2f371ae2175ee4913f4499e1f2633a7b5936321eed1cdaeb6115181d29060200160405180910390a1505050505050565b5f610100608083901c80156124855761247f608083613d7c565b91508093505b50604083901c80156124a25761249c604083613d7c565b91508093505b50602083901c80156124bf576124b9602083613d7c565b91508093505b50601083901c80156124dc576124d6601083613d7c565b91508093505b50600883901c80156124f9576124f3600883613d7c565b91508093505b50600483901c801561251657612510600483613d7c565b91508093505b50600283901c80156125335761252d600283613d7c565b91508093505b50600183901c801561254a57611244600283613d7c565b6112448483613d7c565b604080518082019091525f80825260208201525f8481526006602052604090205483106125c35760405162461bcd60e51b815260206004820152601860248201527f4c65616620696e646578206f7574206f6620626f756e647300000000000000006044820152606401610932565b5f6125d1600180851b613d7c565b90505f80845b80156126a9575f888152600560205260409020548410612611576125fc600182613d7c565b61260a906001901b85613d7c565b9350612697565b5f8881526004602090815260408083208784529091529020546126349084613fb5565b915086821161267b575f8881526004602090815260408083208784529091529020546126609084613fb5565b925061266d600182613d7c565b61260a906001901b85613fb5565b612686600182613d7c565b612694906001901b85613d7c565b93505b806126a18161423a565b9150506125d7565b505f8781526004602090815260408083208684529091529020546126cd9083613fb5565b905085811161270a5760405180604001604052808460016126ee9190613fb5565b81526020016126fd8389613d7c565b8152509350505050610908565b604051806040016040528084815260200183886127279190613d7c565b9052979650505050505050565b5f600a61274a6001670de0b6b3a7640000614107565b612754919061424f565b905090565b803410156127a05760405162461bcd60e51b8152602060048201526014602482015273125b98dbdc9c9958dd0819995948185b5bdd5b9d60621b6044820152606401610932565b6040515f90606360ff60981b019083908381818185875af1925050503d805f81146127e6576040519150601f19603f3d011682016040523d82523d5f602084013e6127eb565b606091505b50509050806116e85760405162461bcd60e51b815260206004820152600b60248201526a109d5c9b8819985a5b195960aa1b6044820152606401610932565b5f6128366020836141e2565b1561288d578360405163c7b67cf360e01b8152600401610932918152604060208201819052601d908201527f53697a65206d7573742062652061206d756c7469706c65206f66203332000000606082015260800190565b815f036128e6578360405163c7b67cf360e01b8152600401610932918152604060208201819052601b908201527f53697a65206d7573742062652067726561746572207468616e20300000000000606082015260800190565b6604000000000000821115612946578360405163c7b67cf360e01b815260040161093291815260406020808301829052908201527f526f6f742073697a65206d757374206265206c657373207468616e20325e3530606082015260800190565b5f61295260208461424f565b5f87815260056020526040812080549293509091908261297183614262565b919050559050612982878383613223565b5f878152600260209081526040808320848452909152902085906129a682826142be565b50505f87815260036020908152604080832084845282528083208590558983526006909152812080548492906129dd908490613fb5565b9091555090979650505050505050565b6129f6826122e2565b612a125760405162461bcd60e51b815260040161093290613e52565b5f805b8251811015612a5557612a4184848381518110612a3457612a34613d8f565b602002602001015161329e565b612a4b9083613fb5565b9150600101612a15565b505f8381526006602052604081208054839290612a73908490613d7c565b9091555050505050565b5f80861180612a8a575048155b612afc5760405162461bcd60e51b815260206004820152603c60248201527f6661696c656420746f2076616c69646174653a20657374696d6174656420676160448201527f7320666565206d7573742062652067726561746572207468616e2030000000006064820152608401610932565b5f856001600160401b031611612b7a5760405162461bcd60e51b815260206004820152603860248201527f6661696c656420746f2076616c69646174653a204174746f46494c207072696360448201527f65206d7573742062652067726561746572207468616e203000000000000000006064820152608401610932565b5f8311612be55760405162461bcd60e51b815260206004820152603360248201527f6661696c656420746f2076616c69646174653a207261772073697a65206d75736044820152720742062652067726561746572207468616e203606c1b6064820152608401610932565b5f808560030b12612c5b57612bfb85600a614481565b6001600160401b038716612c186201518065010000000000614107565b612c229190614107565b612c2c9190614107565b612c3f6001670de0b6b3a7640000614107565b612c4a906002614107565b612c54919061424f565b9050612ccb565b6001600160401b038616612c786201518065010000000000614107565b612c829190614107565b612c8b86614492565b612c9690600a614481565b612ca96001670de0b6b3a7640000614107565b612cb4906002614107565b612cbe9190614107565b612cc8919061424f565b90505b5f84612cd78584614107565b612ce19190614107565b90505f6064612cf1600584614107565b612cfb919061424f565b90505f6064612d0b600485614107565b612d15919061424f565b9050818a10612d2a575f945050505050610d31565b808a10612d4657612d3b8a83613d7c565b945050505050610d31565b6064612d53600185614107565b612d3b919061424f565b306001600160a01b037f0000000000000000000000000000000000000000000000000000000000000000161480612de357507f00000000000000000000000000000000000000000000000000000000000000006001600160a01b0316612dd75f805160206144f1833981519152546001600160a01b031690565b6001600160a01b031614155b15611a465760405163703e46dd60e11b815260040160405180910390fd5b611efb612f0e565b816001600160a01b03166352d1902d6040518163ffffffff1660e01b8152600401602060405180830381865afa925050508015612e63575060408051601f3d908101601f19168201909252612e6091810190614069565b60015b612e8b57604051634c9c8ce360e01b81526001600160a01b0383166004820152602401610932565b5f805160206144f18339815191528114612ebb57604051632a87526960e21b815260048101829052602401610932565b6119618383613304565b306001600160a01b037f00000000000000000000000000000000000000000000000000000000000000001614611a465760405163703e46dd60e11b815260040160405180910390fd5b33612f407f9016d09d72d40fdae2fd8ceac6b6234c7706214fd39c1cd1e609a0528c199300546001600160a01b031690565b6001600160a01b031614611a465760405163118cdaa760e01b8152336004820152602401610932565b7f9016d09d72d40fdae2fd8ceac6b6234c7706214fd39c1cd1e609a0528c19930080546001600160a01b031981166001600160a01b03848116918217845560405192169182907f8be0079c531659141344cd1fd0a4f28419497f9722a3daafe3b4186f6b6457e0905f90a3505050565b5f8181526007602052604081205461111890611156565b5f6020825f015151101561303e5760405162461bcd60e51b815260206004820152601560248201527410da590819185d18481a5cc81d1bdbc81cda1bdc9d605a1b6044820152606401610932565b6040805160208082528183019092525f916020820181803683370190505090505f5b60208110156130d05783518051829061307b90602090613d7c565b6130859190613fb5565b8151811061309557613095613d8f565b602001015160f81c60f81b8282815181106130b2576130b2613d8f565b60200101906001600160f81b03191690815f1a905350600101613060565b50610908816144b3565b5f836130e7868585613359565b1495945050505050565b5f80805b83811015611a2d5784848281811061310f5761310f613d8f565b90506020028101906131219190613e7e565b61312f9060208101906141f5565b61313b91506020614107565b613146906040613fb5565b6131509083613fb5565b91506001016130f5565b5f6131658383611660565b905061317081612759565b803411156131ad57336108fc6131868334613d7c565b6040518115909202915f818181858888f193505050501580156131ab573d5f803e3d5ffd5b505b5f806131b76116ec565b604080518681526001600160401b0384166020820152600383900b91810191909152919350915085907f928bbf5188022bf8b9a0e59f5e81e179d0a4c729bdba2856ac971af2063fbf2b90606001611d2d565b6132126133d3565b611efb8161341c565b611a466133d3565b805f61322e82613424565b9050835f5b8281101561327a575f6132496001831b86613d7c565b5f89815260046020908152604080832084845290915290205490915061326f9084613fb5565b925050600101613233565b505f9586526004602090815260408088209588529490529290942091909155505050565b5f8281526003602090815260408083208484529091528120546132c2848483613438565b5f8481526003602090815260408083208684528252808320839055868352600282528083208684529091528120906132fa82826138a1565b5090949350505050565b61330d826134df565b6040516001600160a01b038316907fbc7cd75a20ee27fd9adebab32041f755214dbc6bffa90cc0225b39da2e5c2d3b905f90a2805115613351576119618282613542565b6116e86135ab565b5f82815b85518110156133ca575f86828151811061337957613379613d8f565b6020026020010151905060028561339091906141e2565b5f036133a7576133a083826135ca565b92506133b4565b6133b181846135ca565b92505b6133bf60028661424f565b94505060010161335d565b50949350505050565b7ff0c57e16840df040f15088dc2f81fe391c3923bec73e23a9662efc9c229c6a0054600160401b900460ff16611a4657604051631afcd79f60e31b815260040160405180910390fd5b611ec96133d3565b5f611118613433836001613fb5565b6135d5565b5f8381526005602052604081205461344f90612465565b61345b90610100613d7c565b90505f61346784613424565b90505b81811115801561348657505f8581526005602052604090205484105b156134d8575f858152600460209081526040808320878452909152812080548592906134b3908490613d7c565b909155506134c690506001821b85613fb5565b93506134d184613424565b905061346a565b5050505050565b806001600160a01b03163b5f0361351457604051634c9c8ce360e01b81526001600160a01b0382166004820152602401610932565b5f805160206144f183398151915280546001600160a01b0319166001600160a01b0392909216919091179055565b60605f80846001600160a01b03168460405161355e9190614058565b5f60405180830381855af49150503d805f8114613596576040519150601f19603f3d011682016040523d82523d5f602084013e61359b565b606091505b5091509150610d318583836137f5565b3415611a465760405163b398979f60e01b815260040160405180910390fd5b5f6109088383613851565b5f6001600160ff1b038211156136385760405162461bcd60e51b815260206004820152602260248201527f496e7075742065786365656473206d6178696d756d20696e743235362076616c604482015261756560f01b6064820152608401610932565b6101005f613645846144d6565b84169050801561365d57816136598161423a565b9250505b6fffffffffffffffffffffffffffffffff81161561368357613680608083613d7c565b91505b77ffffffffffffffff0000000000000000ffffffffffffffff8116156136b1576136ae604083613d7c565b91505b7bffffffff00000000ffffffff00000000ffffffff00000000ffffffff8116156136e3576136e0602083613d7c565b91505b7dffff0000ffff0000ffff0000ffff0000ffff0000ffff0000ffff0000ffff81161561371757613714601083613d7c565b91505b7eff00ff00ff00ff00ff00ff00ff00ff00ff00ff00ff00ff00ff00ff00ff00ff81161561374c57613749600883613d7c565b91505b7f0f0f0f0f0f0f0f0f0f0f0f0f0f0f0f0f0f0f0f0f0f0f0f0f0f0f0f0f0f0f0f0f8116156137825761377f600483613d7c565b91505b7f33333333333333333333333333333333333333333333333333333333333333338116156137b8576137b5600283613d7c565b91505b7f55555555555555555555555555555555555555555555555555555555555555558116156137ee576137eb600183613d7c565b91505b5092915050565b60608261380a5761380582613878565b610908565b815115801561382157506001600160a01b0384163b155b1561384a57604051639996b31560e01b81526001600160a01b0385166004820152602401610932565b5080610908565b5f825f528160205260205f60405f60025afa61386b575f80fd5b50505f5160c01916919050565b8051156138885780518082602001fd5b60405163d6bda27560e01b815260040160405180910390fd5b5080546138ad90614020565b5f825580601f106138bc575050565b601f0160209004905f5260205f2090810190611efb91905b808211156138e7575f81556001016138d4565b5090565b5f8083601f8401126138fb575f80fd5b5081356001600160401b03811115613911575f80fd5b6020830191508360208260051b850101111561392b575f80fd5b9250929050565b5f805f60408486031215613944575f80fd5b8335925060208401356001600160401b03811115613960575f80fd5b61396c868287016138eb565b9497909650939450505050565b602080825282518282018190525f919060409081850190868401855b828110156139ba57815180518552860151868501529284019290850190600101613995565b5091979650505050505050565b80356001600160a01b03811681146139dd575f80fd5b919050565b5f8083601f8401126139f2575f80fd5b5081356001600160401b03811115613a08575f80fd5b60208301915083602082850101111561392b575f80fd5b5f805f60408486031215613a31575f80fd5b613a3a846139c7565b925060208401356001600160401b03811115613a54575f80fd5b61396c868287016139e2565b5f805f805f60608688031215613a74575f80fd5b8535945060208601356001600160401b0380821115613a91575f80fd5b613a9d89838a016138eb565b90965094506040880135915080821115613ab5575f80fd5b50613ac2888289016139e2565b969995985093965092949392505050565b5f60208284031215613ae3575f80fd5b5035919050565b5f8060408385031215613afb575f80fd5b50508035926020909101359150565b5f5b83811015613b24578181015183820152602001613b0c565b50505f910152565b5f8151808452613b43816020860160208601613b0a565b601f01601f19169290920160200192915050565b602081525f82516020808401526112446040840182613b2c565b5f805f8060608587031215613b84575f80fd5b843593506020850135925060408501356001600160401b03811115613ba7575f80fd5b613bb3878288016139e2565b95989497509550505050565b634e487b7160e01b5f52604160045260245ffd5b604051601f8201601f191681016001600160401b0381118282101715613bfb57613bfb613bbf565b604052919050565b5f8060408385031215613c14575f80fd5b613c1d836139c7565b91506020808401356001600160401b0380821115613c39575f80fd5b818601915086601f830112613c4c575f80fd5b813581811115613c5e57613c5e613bbf565b613c70601f8201601f19168501613bd3565b91508082528784828501011115613c85575f80fd5b80848401858401375f848284010152508093505050509250929050565b5f8060408385031215613cb3575f80fd5b82359150613cc3602084016139c7565b90509250929050565b602080825282518282018190525f9190848201906040850190845b81811015613d0357835183529284019291840191600101613ce7565b50909695505050505050565b5f805f60408486031215613d21575f80fd5b8335925060208401356001600160401b03811115613a54575f80fd5b602081525f6109086020830184613b2c565b5f60208284031215613d5f575f80fd5b610908826139c7565b634e487b7160e01b5f52601160045260245ffd5b8181038181111561111857611118613d68565b634e487b7160e01b5f52603260045260245ffd5b6020808252601490820152734578747261206461746120746f6f206c6172676560601b604082015260600190565b5f6001600160401b03808316818103613dec57613dec613d68565b6001019392505050565b81835281816020850137505f828201602090810191909152601f909101601f19169091010190565b8481526001600160a01b03841660208201526060604082018190525f90613e489083018486613df6565b9695505050505050565b60208082526012908201527150726f6f6620736574206e6f74206c69766560701b604082015260600190565b5f8235603e19833603018112613e92575f80fd5b9190910192915050565b5f8235601e19833603018112613e92575f80fd5b5f60808201888352602088818501526040608060408601528288845260a08601905060a08960051b8701019350895f5b8a811015613f9057878603609f190183528135368d9003603e19018112613f05575f80fd5b8c018035601e193683900381018212613f1c575f80fd5b8282019150868952813581833603018112613f35575f80fd5b9091018781019150356001600160401b03811115613f51575f80fd5b803603821315613f5f575f80fd5b87878a0152613f7260608a018284613df6565b92880135988801989098525095509184019190840190600101613ee0565b50505050508281036060840152613fa8818587613df6565b9998505050505050505050565b8082018082111561111857611118613d68565b85815260606020820181905281018490525f6001600160fb1b03851115613fed575f80fd5b8460051b808760808501378201828103608090810160408501526140149082018587613df6565b98975050505050505050565b600181811c9082168061403457607f821691505b60208210810361405257634e487b7160e01b5f52602260045260245ffd5b50919050565b5f8251613e92818460208701613b0a565b5f60208284031215614079575f80fd5b5051919050565b6020808252602e908201527f6f6e6c7920746865206f776e65722063616e206d6f766520746f206e6578742060408201526d1c1c9bdd9a5b99c81c195c9a5bd960921b606082015260800190565b634e487b7160e01b5f52603160045260245ffd5b858152846020820152836040820152608060608201525f6116c2608083018486613df6565b808202811582820484141761111857611118613d68565b5f6080828403121561412e575f80fd5b604051608081016001600160401b03828210818311171561415157614151613bbf565b81604052845191508160070b8214614167575f80fd5b908252602084015190808216821461417d575f80fd5b5060208201526040830151600381900b8114614197575f80fd5b60408201526060928301519281019290925250919050565b848152836020820152606060408201525f613e48606083018486613df6565b634e487b7160e01b5f52601260045260245ffd5b5f826141f0576141f06141ce565b500690565b5f808335601e1984360301811261420a575f80fd5b8301803591506001600160401b03821115614223575f80fd5b6020019150600581901b360382131561392b575f80fd5b5f8161424857614248613d68565b505f190190565b5f8261425d5761425d6141ce565b500490565b5f6001820161427357614273613d68565b5060010190565b601f82111561196157805f5260205f20601f840160051c8101602085101561429f5750805b601f840160051c820191505b818110156134d8575f81556001016142ab565b8135601e198336030181126142d1575f80fd5b820180356001600160401b038111156142e8575f80fd5b602081360381840113156142fa575f80fd5b61430e826143088654614020565b8661427a565b5f601f831160018114614341575f841561432a57508482018301355b5f19600386901b1c1916600185901b1786556115bb565b5f86815260208120601f198616915b82811015614371578785018601358255938501936001909101908501614350565b508582101561438f575f1960f88760031b161c198585890101351681555b5050505050600190811b019091555050565b600181815b808511156143db57815f19048211156143c1576143c1613d68565b808516156143ce57918102915b93841c93908002906143a6565b509250929050565b5f826143f157506001611118565b816143fd57505f611118565b8160018114614413576002811461441d57614439565b6001915050611118565b60ff84111561442e5761442e613d68565b50506001821b611118565b5060208310610133831016604e8410600b841016171561445c575081810a611118565b61446683836143a1565b805f190482111561447957614479613d68565b029392505050565b5f61090863ffffffff8416836143e3565b5f8160030b637fffffff1981036144ab576144ab613d68565b5f0392915050565b80516020808301519190811015614052575f1960209190910360031b1b16919050565b5f600160ff1b82016144ea576144ea613d68565b505f039056fe360894a13ba1a3210667c828492db98dca3e2076cc3735a920a3ca505d382bbca26469706673582212207dc4d9ea798af56f65df7ff9b4a451dbda4726c6fff38182006daa4b99e2c42664736f6c63430008170033","linkReferences":{}},"methodIdentifiers":{"BURN_ACTOR()":"0a6a63f1","EXTRA_DATA_MAX_SIZE()":"029b4646","FIL_USD_PRICE_FEED_ID()":"19c75950","LEAF_SIZE()":"c0e15949","MAX_ENQUEUED_REMOVALS()":"9f8cb3bd","MAX_ROOT_SIZE()":"16e2bcd5","NO_CHALLENGE_SCHEDULED()":"462dd449","PYTH()":"67e406d5","RANDOMNESS_PRECOMPILE()":"15b17570","SECONDS_IN_DAY()":"61a52a36","UPGRADE_INTERFACE_VERSION()":"ad3cb1cc","addRoots(uint256,((bytes),uint256)[],bytes)":"11c0ee4a","calculateProofFee(uint256,uint256)":"4903704a","claimProofSetOwnership(uint256)":"ee3dac65","createProofSet(address,bytes)":"0a4d7932","deleteProofSet(uint256,bytes)":"847d1d06","findRootIds(uint256,uint256[])":"0528a55b","getChallengeFinality()":"f83758fe","getChallengeRange(uint256)":"89208ba9","getFILUSDPrice()":"4fa27920","getNextChallengeEpoch(uint256)":"6ba4608f","getNextProofSetId()":"8ea417e5","getNextRootId(uint256)":"d49245c1","getProofSetLastProvenEpoch(uint256)":"faa67163","getProofSetLeafCount(uint256)":"3f84135f","getProofSetListener(uint256)":"31601226","getProofSetOwner(uint256)":"4726075b","getRandomness(uint256)":"453f4f62","getRootCid(uint256,uint256)":"3b7ae913","getRootLeafCount(uint256,uint256)":"9153e64b","getScheduledRemovals(uint256)":"6fa44692","initialize(uint256)":"fe4b84df","nextProvingPeriod(uint256,uint256,bytes)":"45c0b92d","owner()":"8da5cb5b","proofSetLive(uint256)":"f5cac1ba","proposeProofSetOwner(uint256,address)":"6cb55c16","provePossession(uint256,(bytes32,bytes32[])[])":"f58f952b","proxiableUUID()":"52d1902d","renounceOwnership()":"715018a6","rootChallengable(uint256,uint256)":"71cf2a16","rootLive(uint256,uint256)":"47331050","scheduleRemovals(uint256,uint256[],bytes)":"3b68e4e9","transferOwnership(address)":"f2fde38b","upgradeToAndCall(address,bytes)":"4f1ef286"},"id":44}