{"abi":[{"type":"constructor","inputs":[],"stateMutability":"nonpayable"},{"type":"function","name":"BURN_ACTOR","inputs":[],"outputs":[{"name":"","type":"address","internalType":"address"}],"stateMutability":"view"},{"type":"function","name":"EXTRA_DATA_MAX_SIZE","inputs":[],"outputs":[{"name":"","type":"uint256","internalType":"uint256"}],"stateMutability":"view"},{"type":"function","name":"FIL_USD_PRICE_FEED_ID","inputs":[],"outputs":[{"name":"","type":"bytes32","internalType":"bytes32"}],"stateMutability":"view"},{"type":"function","name":"LEAF_SIZE","inputs":[],"outputs":[{"name":"","type":"uint256","internalType":"uint256"}],"stateMutability":"view"},{"type":"function","name":"MAX_ENQUEUED_REMOVALS","inputs":[],"outputs":[{"name":"","type":"uint256","internalType":"uint256"}],"stateMutability":"view"},{"type":"function","name":"MAX_ROOT_SIZE","inputs":[],"outputs":[{"name":"","type":"uint256","internalType":"uint256"}],"stateMutability":"view"},{"type":"function","name":"NO_CHALLENGE_SCHEDULED","inputs":[],"outputs":[{"name":"","type":"uint256","internalType":"uint256"}],"stateMutability":"view"},{"type":"function","name":"PYTH","inputs":[],"outputs":[{"name":"","type":"address","internalType":"contract IPyth"}],"stateMutability":"view"},{"type":"function","name":"RANDOMNESS_PRECOMPILE","inputs":[],"outputs":[{"name":"","type":"address","internalType":"address"}],"stateMutability":"view"},{"type":"function","name":"SECONDS_IN_DAY","inputs":[],"outputs":[{"name":"","type":"uint256","internalType":"uint256"}],"stateMutability":"view"},{"type":"function","name":"UPGRADE_INTERFACE_VERSION","inputs":[],"outputs":[{"name":"","type":"string","internalType":"string"}],"stateMutability":"view"},{"type":"function","name":"addRoots","inputs":[{"name":"setId","type":"uint256","internalType":"uint256"},{"name":"rootData","type":"tuple[]","internalType":"struct PDPVerifier.RootData[]","components":[{"name":"root","type":"tuple","internalType":"struct Cids.Cid","components":[{"name":"data","type":"bytes","internalType":"bytes"}]},{"name":"rawSize","type":"uint256","internalType":"uint256"}]},{"name":"extraData","type":"bytes","internalType":"bytes"}],"outputs":[{"name":"","type":"uint256","internalType":"uint256"}],"stateMutability":"nonpayable"},{"type":"function","name":"claimProofSetOwnership","inputs":[{"name":"setId","type":"uint256","internalType":"uint256"}],"outputs":[],"stateMutability":"nonpayable"},{"type":"function","name":"createProofSet","inputs":[{"name":"listenerAddr","type":"address","internalType":"address"},{"name":"extraData","type":"bytes","internalType":"bytes"}],"outputs":[{"name":"","type":"uint256","internalType":"uint256"}],"stateMutability":"payable"},{"type":"function","name":"deleteProofSet","inputs":[{"name":"setId","type":"uint256","internalType":"uint256"},{"name":"extraData","type":"bytes","internalType":"bytes"}],"outputs":[],"stateMutability":"nonpayable"},{"type":"function","name":"findRootIds","inputs":[{"name":"setId","type":"uint256","internalType":"uint256"},{"name":"leafIndexs","type":"uint256[]","internalType":"uint256[]"}],"outputs":[{"name":"","type":"tuple[]","internalType":"struct PDPVerifier.RootIdAndOffset[]","components":[{"name":"rootId","type":"uint256","internalType":"uint256"},{"name":"offset","type":"uint256","internalType":"uint256"}]}],"stateMutability":"view"},{"type":"function","name":"getChallengeFinality","inputs":[],"outputs":[{"name":"","type":"uint256","internalType":"uint256"}],"stateMutability":"view"},{"type":"function","name":"getChallengeRange","inputs":[{"name":"setId","type":"uint256","internalType":"uint256"}],"outputs":[{"name":"","type":"uint256","internalType":"uint256"}],"stateMutability":"view"},{"type":"function","name":"getFILUSDPrice","inputs":[],"outputs":[{"name":"","type":"uint64","internalType":"uint64"},{"name":"","type":"int32","internalType":"int32"}],"stateMutability":"view"},{"type":"function","name":"getNextChallengeEpoch","inputs":[{"name":"setId","type":"uint256","internalType":"uint256"}],"outputs":[{"name":"","type":"uint256","internalType":"uint256"}],"stateMutability":"view"},{"type":"function","name":"getNextProofSetId","inputs":[],"outputs":[{"name":"","type":"uint64","internalType":"uint64"}],"stateMutability":"view"},{"type":"function","name":"getNextRootId","inputs":[{"name":"setId","type":"uint256","internalType":"uint256"}],"outputs":[{"name":"","type":"uint256","internalType":"uint256"}],"stateMutability":"view"},{"type":"function","name":"getProofSetLastProvenEpoch","inputs":[{"name":"setId","type":"uint256","internalType":"uint256"}],"outputs":[{"name":"","type":"uint256","internalType":"uint256"}],"stateMutability":"view"},{"type":"function","name":"getProofSetLeafCount","inputs":[{"name":"setId","type":"uint256","internalType":"uint256"}],"outputs":[{"name":"","type":"uint256","internalType":"uint256"}],"stateMutability":"view"},{"type":"function","name":"getProofSetListener","inputs":[{"name":"setId","type":"uint256","internalType":"uint256"}],"outputs":[{"name":"","type":"address","internalType":"address"}],"stateMutability":"view"},{"type":"function","name":"getProofSetOwner","inputs":[{"name":"setId","type":"uint256","internalType":"uint256"}],"outputs":[{"name":"","type":"address","internalType":"address"},{"name":"","type":"address","internalType":"address"}],"stateMutability":"view"},{"type":"function","name":"getRandomness","inputs":[{"name":"epoch","type":"uint256","internalType":"uint256"}],"outputs":[{"name":"","type":"uint256","internalType":"uint256"}],"stateMutability":"view"},{"type":"function","name":"getRootCid","inputs":[{"name":"setId","type":"uint256","internalType":"uint256"},{"name":"rootId","type":"uint256","internalType":"uint256"}],"outputs":[{"name":"","type":"tuple","internalType":"struct Cids.Cid","components":[{"name":"data","type":"bytes","internalType":"bytes"}]}],"stateMutability":"view"},{"type":"function","name":"getRootLeafCount","inputs":[{"name":"setId","type":"uint256","internalType":"uint256"},{"name":"rootId","type":"uint256","internalType":"uint256"}],"outputs":[{"name":"","type":"uint256","internalType":"uint256"}],"stateMutability":"view"},{"type":"function","name":"getScheduledRemovals","inputs":[{"name":"setId","type":"uint256","internalType":"uint256"}],"outputs":[{"name":"","type":"uint256[]","internalType":"uint256[]"}],"stateMutability":"view"},{"type":"function","name":"initialize","inputs":[{"name":"_challengeFinality","type":"uint256","internalType":"uint256"}],"outputs":[],"stateMutability":"nonpayable"},{"type":"function","name":"nextProvingPeriod","inputs":[{"name":"setId","type":"uint256","internalType":"uint256"},{"name":"challengeEpoch","type":"uint256","internalType":"uint256"},{"name":"extraData","type":"bytes","internalType":"bytes"}],"outputs":[],"stateMutability":"nonpayable"},{"type":"function","name":"owner","inputs":[],"outputs":[{"name":"","type":"address","internalType":"address"}],"stateMutability":"view"},{"type":"function","name":"proofSetLive","inputs":[{"name":"setId","type":"uint256","internalType":"uint256"}],"outputs":[{"name":"","type":"bool","internalType":"bool"}],"stateMutability":"view"},{"type":"function","name":"proposeProofSetOwner","inputs":[{"name":"setId","type":"uint256","internalType":"uint256"},{"name":"newOwner","type":"address","internalType":"address"}],"outputs":[],"stateMutability":"nonpayable"},{"type":"function","name":"provePossession","inputs":[{"name":"setId","type":"uint256","internalType":"uint256"},{"name":"proofs","type":"tuple[]","internalType":"struct PDPVerifier.Proof[]","components":[{"name":"leaf","type":"bytes32","internalType":"bytes32"},{"name":"proof","type":"bytes32[]","internalType":"bytes32[]"}]}],"outputs":[],"stateMutability":"payable"},{"type":"function","name":"proxiableUUID","inputs":[],"outputs":[{"name":"","type":"bytes32","internalType":"bytes32"}],"stateMutability":"view"},{"type":"function","name":"renounceOwnership","inputs":[],"outputs":[],"stateMutability":"nonpayable"},{"type":"function","name":"rootChallengable","inputs":[{"name":"setId","type":"uint256","internalType":"uint256"},{"name":"rootId","type":"uint256","internalType":"uint256"}],"outputs":[{"name":"","type":"bool","internalType":"bool"}],"stateMutability":"view"},{"type":"function","name":"rootLive","inputs":[{"name":"setId","type":"uint256","internalType":"uint256"},{"name":"rootId","type":"uint256","internalType":"uint256"}],"outputs":[{"name":"","type":"bool","internalType":"bool"}],"stateMutability":"view"},{"type":"function","name":"scheduleRemovals","inputs":[{"name":"setId","type":"uint256","internalType":"uint256"},{"name":"rootIds","type":"uint256[]","internalType":"uint256[]"},{"name":"extraData","type":"bytes","internalType":"bytes"}],"outputs":[],"stateMutability":"nonpayable"},{"type":"function","name":"transferOwnership","inputs":[{"name":"newOwner","type":"address","internalType":"address"}],"outputs":[],"stateMutability":"nonpayable"},{"type":"function","name":"upgradeToAndCall","inputs":[{"name":"newImplementation","type":"address","internalType":"address"},{"name":"data","type":"bytes","internalType":"bytes"}],"outputs":[],"stateMutability":"payable"},{"type":"event","name":"Debug","inputs":[{"name":"message","type":"string","indexed":false,"internalType":"string"},{"name":"value","type":"uint256","indexed":false,"internalType":"uint256"}],"anonymous":false},{"type":"event","name":"Initialized","inputs":[{"name":"version","type":"uint64","indexed":false,"internalType":"uint64"}],"anonymous":false},{"type":"event","name":"OwnershipTransferred","inputs":[{"name":"previousOwner","type":"address","indexed":true,"internalType":"address"},{"name":"newOwner","type":"address","indexed":true,"internalType":"address"}],"anonymous":false},{"type":"event","name":"ProofFeePaid","inputs":[{"name":"setId","type":"uint256","indexed":true,"internalType":"uint256"},{"name":"fee","type":"uint256","indexed":false,"internalType":"uint256"},{"name":"price","type":"uint64","indexed":false,"internalType":"uint64"},{"name":"expo","type":"int32","indexed":false,"internalType":"int32"}],"anonymous":false},{"type":"event","name":"ProofSetCreated","inputs":[{"name":"setId","type":"uint256","indexed":true,"internalType":"uint256"}],"anonymous":false},{"type":"event","name":"ProofSetDeleted","inputs":[{"name":"setId","type":"uint256","indexed":true,"internalType":"uint256"},{"name":"deletedLeafCount","type":"uint256","indexed":false,"internalType":"uint256"}],"anonymous":false},{"type":"event","name":"ProofSetEmpty","inputs":[{"name":"setId","type":"uint256","indexed":true,"internalType":"uint256"}],"anonymous":false},{"type":"event","name":"RootsAdded","inputs":[{"name":"firstAdded","type":"uint256","indexed":true,"internalType":"uint256"}],"anonymous":false},{"type":"event","name":"RootsRemoved","inputs":[{"name":"rootIds","type":"uint256[]","indexed":true,"internalType":"uint256[]"}],"anonymous":false},{"type":"event","name":"Upgraded","inputs":[{"name":"implementation","type":"address","indexed":true,"internalType":"address"}],"anonymous":false},{"type":"error","name":"AddressEmptyCode","inputs":[{"name":"target","type":"address","internalType":"address"}]},{"type":"error","name":"ERC1967InvalidImplementation","inputs":[{"name":"implementation","type":"address","internalType":"address"}]},{"type":"error","name":"ERC1967NonPayable","inputs":[]},{"type":"error","name":"FailedCall","inputs":[]},{"type":"error","name":"IndexedError","inputs":[{"name":"idx","type":"uint256","internalType":"uint256"},{"name":"msg","type":"string","internalType":"string"}]},{"type":"error","name":"InvalidInitialization","inputs":[]},{"type":"error","name":"NotInitializing","inputs":[]},{"type":"error","name":"OwnableInvalidOwner","inputs":[{"name":"owner","type":"address","internalType":"address"}]},{"type":"error","name":"OwnableUnauthorizedAccount","inputs":[{"name":"account","type":"address","internalType":"address"}]},{"type":"error","name":"UUPSUnauthorizedCallContext","inputs":[]},{"type":"error","name":"UUPSUnsupportedProxiableUUID","inputs":[{"name":"slot","type":"bytes32","internalType":"bytes32"}]}],"bytecode":{"object":"0x60a06040523060805234801562000014575f80fd5b506200001f62000025565b620000d9565b7ff0c57e16840df040f15088dc2f81fe391c3923bec73e23a9662efc9c229c6a00805468010000000000000000900460ff1615620000765760405163f92ee8a960e01b815260040160405180910390fd5b80546001600160401b0390811614620000d65780546001600160401b0319166001600160401b0390811782556040519081527fc7f505b2f371ae2175ee4913f4499e1f2633a7b5936321eed1cdaeb6115181d29060200160405180910390a15b50565b608051614500620001005f395f81816129f101528181612a1a0152612b5901526145005ff3fe608060405260043610610254575f3560e01c806367e406d51161013f5780639f8cb3bd116100b3578063f2fde38b11610078578063f2fde38b1461075c578063f58f952b1461077b578063f5cac1ba1461078e578063f83758fe146107ad578063faa67163146107c0578063fe4b84df146107df575f80fd5b80639f8cb3bd146106b8578063ad3cb1cc146106cd578063c0e159491461070a578063d49245c11461071e578063ee3dac651461073d575f80fd5b806371cf2a161161010457806371cf2a16146105d9578063847d1d06146105f857806389208ba9146106175780638da5cb5b146106365780638ea417e5146106725780639153e64b14610699575f80fd5b806367e406d5146105345780636ba4608f1461055b5780636cb55c161461057a5780636fa4469214610599578063715018a6146105c5575f80fd5b80633b7ae913116101d65780634726075b1161019b5780634726075b1461045357806347331050146104925780634f1ef286146104c15780634fa27920146104d457806352d1902d1461050a57806361a52a361461051e575f80fd5b80633b7ae913146103b75780633f84135f146103e3578063453f4f621461040257806345c0b92d14610421578063462dd44914610440575f80fd5b806315b175701161021c57806315b175701461031057806316e2bcd51461032a57806319c759501461034457806331601226146103775780633b68e4e914610396575f80fd5b8063029b4646146102585780630528a55b146102805780630a4d7932146102ac5780630a6a63f1146102bf57806311c0ee4a146102f1575b5f80fd5b348015610263575f80fd5b5061026d61080081565b6040519081526020015b60405180910390f35b34801561028b575f80fd5b5061029f61029a3660046138e1565b6107fe565b6040516102779190613928565b61026d6102ba3660046139ce565b6108e5565b3480156102ca575f80fd5b506102d9606360ff60981b0181565b6040516001600160a01b039091168152602001610277565b3480156102fc575f80fd5b5061026d61030b366004613a0f565b610adc565b34801561031b575f80fd5b506102d96006607f60991b0181565b348015610335575f80fd5b5061026d660400000000000081565b34801561034f575f80fd5b5061026d7f150ac9b959aee0051e4091f0ef5216d941f590e1c5e7f91cf7635b5c11628c0e81565b348015610382575f80fd5b506102d9610391366004613a82565b610d10565b3480156103a1575f80fd5b506103b56103b0366004613a0f565b610d51565b005b3480156103c2575f80fd5b506103d66103d1366004613a99565b611004565b6040516102779190613b06565b3480156103ee575f80fd5b5061026d6103fd366004613a82565b6110f4565b34801561040d575f80fd5b5061026d61041c366004613a82565b61112c565b34801561042c575f80fd5b506103b561043b366004613b20565b611222565b34801561044b575f80fd5b5061026d5f81565b34801561045e575f80fd5b5061047261046d366004613a82565b61159a565b604080516001600160a01b03938416815292909116602083015201610277565b34801561049d575f80fd5b506104b16104ac366004613a99565b6115ee565b6040519015158152602001610277565b6103b56104cf366004613bb2565b611636565b3480156104df575f80fd5b506104e8611655565b604080516001600160401b03909316835260039190910b602083015201610277565b348015610515575f80fd5b5061026d611776565b348015610529575f80fd5b5061026d6201518081565b34801561053f575f80fd5b506102d973a2aa501b19aff244d90cc15a4cf739d2725b572981565b348015610566575f80fd5b5061026d610575366004613a82565b611791565b348015610585575f80fd5b506103b5610594366004613c51565b6117c9565b3480156105a4575f80fd5b506105b86105b3366004613a82565b6118cf565b6040516102779190613c7b565b3480156105d0575f80fd5b506103b561199e565b3480156105e4575f80fd5b506104b16105f3366004613a99565b6119b1565b348015610603575f80fd5b506103b5610612366004613cbe565b611ac0565b348015610622575f80fd5b5061026d610631366004613a82565b611ca5565b348015610641575f80fd5b507f9016d09d72d40fdae2fd8ceac6b6234c7706214fd39c1cd1e609a0528c199300546001600160a01b03166102d9565b34801561067d575f80fd5b506001546040516001600160401b039091168152602001610277565b3480156106a4575f80fd5b5061026d6106b3366004613a99565b611cdd565b3480156106c3575f80fd5b5061026d6107d081565b3480156106d8575f80fd5b506106fd604051806040016040528060058152602001640352e302e360dc1b81525081565b6040516102779190613cec565b348015610715575f80fd5b5061026d602081565b348015610729575f80fd5b5061026d610738366004613a82565b611d20565b348015610748575f80fd5b506103b5610757366004613a82565b611d58565b348015610767575f80fd5b506103b5610776366004613cfe565b611e2a565b6103b56107893660046138e1565b611e67565b348015610799575f80fd5b506104b16107a8366004613a82565b61224b565b3480156107b8575f80fd5b505f5461026d565b3480156107cb575f80fd5b5061026d6107da366004613a82565b61227f565b3480156107ea575f80fd5b506103b56107f9366004613a82565b6122b7565b5f8381526005602052604081205460609190610819906123ce565b61082590610100613d2b565b90505f836001600160401b0381111561084057610840613b6e565b60405190808252806020026020018201604052801561088457816020015b604080518082019091525f808252602082015281526020019060019003908161085e5790505b5090505f5b848110156108d9576108b4878787848181106108a7576108a7613d3e565b90506020020135856124bd565b8282815181106108c6576108c6613d3e565b6020908102919091010152600101610889565b509150505b9392505050565b5f6108008211156109115760405162461bcd60e51b815260040161090890613d52565b60405180910390fd5b5f61091a61269d565b9050803410156109605760405162461bcd60e51b81526020600482015260116024820152701cde589a5b08199959481b9bdd081b595d607a1b6044820152606401610908565b610969816126c2565b803411156109a657336108fc61097f8334613d2b565b6040518115909202915f818181858888f193505050501580156109a4573d5f803e3d5ffd5b505b600180545f916001600160401b0390911690826109c283613d80565b82546001600160401b039182166101009390930a928302928202191691909117909155165f81815260066020908152604080832083905560078252808320839055600b825280832080546001600160a01b031990811633179091556008835281842080546001600160a01b038d16921682179055600d90925282209190915590915015610aa957604051634a6a0d9b60e11b81526001600160a01b038716906394d41b3690610a7b90849033908a908a90600401613dcd565b5f604051808303815f87803b158015610a92575f80fd5b505af1158015610aa4573d5f803e3d5ffd5b505050505b60405181907f5979d495e336598dba8459e44f8eb2a1c957ce30fcc10cabea4bb0ffe969df6a905f90a295945050505050565b5f610800821115610aff5760405162461bcd60e51b815260040161090890613d52565b610b088661224b565b610b245760405162461bcd60e51b815260040161090890613e01565b83610b715760405162461bcd60e51b815260206004820152601a60248201527f4d75737420616464206174206c65617374206f6e6520726f6f740000000000006044820152606401610908565b5f868152600b60205260409020546001600160a01b03163314610bd65760405162461bcd60e51b815260206004820152601c60248201527f4f6e6c7920746865206f776e65722063616e2061646420726f6f7473000000006044820152606401610908565b5f86815260056020526040812054905b85811015610c5757610c4e8882898985818110610c0557610c05613d3e565b9050602002810190610c179190613e2d565b610c219080613e4b565b8a8a86818110610c3357610c33613d3e565b9050602002810190610c459190613e2d565b60200135612793565b50600101610be6565b505f878152600860205260409020546001600160a01b03168015610cd9576040516312d5d66f60e01b81526001600160a01b038216906312d5d66f90610cab908b9086908c908c908c908c90600401613e5f565b5f604051808303815f87803b158015610cc2575f80fd5b505af1158015610cd4573d5f803e3d5ffd5b505050505b60405182907fde16f8a35fc44238b21a493b7267f7a5064f2bc1b3a1af51deeb4b5a47281d47905f90a25090505b95945050505050565b5f610d1a8261224b565b610d365760405162461bcd60e51b815260040161090890613e01565b505f908152600860205260409020546001600160a01b031690565b610800811115610d735760405162461bcd60e51b815260040161090890613d52565b610d7c8561224b565b610d985760405162461bcd60e51b815260040161090890613e01565b5f858152600b60205260409020546001600160a01b03163314610e125760405162461bcd60e51b815260206004820152602c60248201527f4f6e6c7920746865206f776e65722063616e207363686564756c652072656d6f60448201526b76616c206f6620726f6f747360a01b6064820152608401610908565b5f858152600a60205260409020546107d090610e2e9085613f64565b1115610ea25760405162461bcd60e51b815260206004820152603a60248201527f546f6f206d616e792072656d6f76616c73207761697420666f72206e6578742060448201527f70726f76696e6720706572696f6420746f207363686564756c650000000000006064820152608401610908565b5f5b83811015610f7c575f86815260056020526040902054858583818110610ecc57610ecc613d3e565b9050602002013510610f345760405162461bcd60e51b815260206004820152602b60248201527f43616e206f6e6c79207363686564756c652072656d6f76616c206f662065786960448201526a7374696e6720726f6f747360a81b6064820152608401610908565b5f868152600a60205260409020858583818110610f5357610f53613d3e565b8354600180820186555f9586526020958690209290950293909301359201919091555001610ea4565b505f858152600860205260409020546001600160a01b03168015610ffc5760405163257be8e960e11b81526001600160a01b03821690634af7d1d290610fce9089908990899089908990600401613f77565b5f604051808303815f87803b158015610fe5575f80fd5b505af1158015610ff7573d5f803e3d5ffd5b505050505b505050505050565b60408051602081019091526060815261101c8361224b565b6110385760405162461bcd60e51b815260040161090890613e01565b5f838152600260209081526040808320858452825291829020825191820190925281549091908290829061106b90613fcf565b80601f016020809104026020016040519081016040528092919081815260200182805461109790613fcf565b80156110e25780601f106110b9576101008083540402835291602001916110e2565b820191905f5260205f20905b8154815290600101906020018083116110c557829003601f168201915b50505050508152505090505b92915050565b5f6110fe8261224b565b61111a5760405162461bcd60e51b815260040161090890613e01565b505f9081526006602052604090205490565b5f805f6006607f60991b016001600160a01b03168460405160200161115391815260200190565b60408051601f198184030181529082905261116d91614007565b5f60405180830381855afa9150503d805f81146111a5576040519150601f19603f3d011682016040523d82523d5f602084013e6111aa565b606091505b5091509150816112065760405162461bcd60e51b815260206004820152602160248201527f52616e646f6d6e65737320707265636f6d70696c652063616c6c206661696c656044820152601960fa1b6064820152608401610908565b8080602001905181019061121a9190614018565b949350505050565b6108008111156112445760405162461bcd60e51b815260040161090890613d52565b5f848152600b60205260409020546001600160a01b031633146112795760405162461bcd60e51b81526004016109089061402f565b5f848152600660205260409020546112e85760405162461bcd60e51b815260206004820152602c60248201527f63616e206f6e6c792073746172742070726f76696e67206f6e6365206c65617660448201526b195cc8185c9948185919195960a21b6064820152608401610908565b5f848152600d602052604090205461130b575f848152600d602052604090204390555b5f848152600a6020526040812080549091906001600160401b0381111561133457611334613b6e565b60405190808252806020026020018201604052801561135d578160200160208202803683370190505b5090505f5b81518110156113e0578254839061137b90600190613d2b565b8154811061138b5761138b613d3e565b905f5260205f2001548282815181106113a6576113a6613d3e565b602002602001018181525050828054806113c2576113c261407d565b5f8281526020812082015f1990810191909155019055600101611362565b506113eb8682612956565b5f8681526006602090815260408083205460099092528220555461140f9043613f64565b8510156114945760405162461bcd60e51b815260206004820152604760248201527f6368616c6c656e67652065706f6368206d757374206265206174206c6561737460448201527f206368616c6c656e676546696e616c6974792065706f63687320696e207468656064820152662066757475726560c81b608482015260a401610908565b5f868152600760209081526040808320889055600690915281205490036114fb5760405186907f323c29bc8d678a5d987b90a321982d10b9a91bcad071a9e445879497bf0e68e7905f90a25f868152600d6020908152604080832083905560079091528120555b5f868152600860205260409020546001600160a01b03168015611591575f87815260076020908152604080832054600690925291829020549151632a89faf360e21b81526001600160a01b0384169263aa27ebcc92611563928c92908b908b90600401614091565b5f604051808303815f87803b15801561157a575f80fd5b505af115801561158c573d5f803e3d5ffd5b505050505b50505050505050565b5f806115a58361224b565b6115c15760405162461bcd60e51b815260040161090890613e01565b50505f908152600b6020908152604080832054600c909252909120546001600160a01b0391821692911690565b5f6115f88361224b565b801561161057505f8381526005602052604090205482105b80156108de5750505f918252600360209081526040808420928452919052902054151590565b61163e6129e6565b61164782612a8a565b6116518282612a92565b5050565b60405163052571af60e51b81527f150ac9b959aee0051e4091f0ef5216d941f590e1c5e7f91cf7635b5c11628c0e60048201526201518060248201525f908190819073a2aa501b19aff244d90cc15a4cf739d2725b57299063a4ae35e090604401608060405180830381865afa1580156116d1573d5f803e3d5ffd5b505050506040513d601f19601f820116820180604052508101906116f591906140c1565b90505f815f015160070b136117655760405162461bcd60e51b815260206004820152603060248201527f6661696c656420746f2076616c69646174653a207072696365206d757374206260448201526f0652067726561746572207468616e20360841b6064820152608401610908565b805160409091015190939092509050565b5f61177f612b4e565b505f805160206144ab83398151915290565b5f61179b8261224b565b6117b75760405162461bcd60e51b815260040161090890613e01565b505f9081526007602052604090205490565b6117d28261224b565b6117ee5760405162461bcd60e51b815260040161090890613e01565b5f828152600b60205260409020546001600160a01b031633811461186b5760405162461bcd60e51b815260206004820152602e60248201527f4f6e6c79207468652063757272656e74206f776e65722063616e2070726f706f60448201526d39b29030903732bb9037bbb732b960911b6064820152608401610908565b816001600160a01b0316816001600160a01b0316036118a35750505f908152600c6020526040902080546001600160a01b0319169055565b5f838152600c6020526040902080546001600160a01b0319166001600160a01b0384161790555b505050565b60606118da8261224b565b6118f65760405162461bcd60e51b815260040161090890613e01565b5f828152600a6020526040812080549091906001600160401b0381111561191f5761191f613b6e565b604051908082528060200260200182016040528015611948578160200160208202803683370190505b5090505f5b82548110156119965782818154811061196857611968613d3e565b905f5260205f20015482828151811061198357611983613d3e565b602090810291909101015260010161194d565b509392505050565b6119a6612b97565b6119af5f612bf2565b565b5f8281526005602052604081205481906119ca906123ce565b6119d690610100613d2b565b5f8581526009602052604081205491925090611a009086906119fa90600190613d2b565b846124bd565b5f86815260036020908152604080832084518452909152902054909150611a2990600190613d2b565b816020015114611aa3576040805162461bcd60e51b81526020600482015260248101919091527f6368616c6c656e676552616e6765202d312073686f756c6420616c69676e207760448201527f697468207468652076657279206c617374206c656166206f66206120726f6f746064820152608401610908565b611aad85856115ee565b8015610d07575051909211159392505050565b610800811115611ae25760405162461bcd60e51b815260040161090890613d52565b6001546001600160401b03168310611b3c5760405162461bcd60e51b815260206004820152601a60248201527f70726f6f6620736574206964206f7574206f6620626f756e64730000000000006044820152606401610908565b5f838152600b60205260409020546001600160a01b03163314611bad5760405162461bcd60e51b8152602060048201526024808201527f4f6e6c7920746865206f776e65722063616e2064656c6574652070726f6f66206044820152637365747360e01b6064820152608401610908565b5f838152600660209081526040808320805490849055600b835281842080546001600160a01b031916905560078352818420849055600d83528184208490556008909252909120546001600160a01b03168015611c64576040516326c249e360e01b81526001600160a01b038216906326c249e390611c36908890869089908990600401614152565b5f604051808303815f87803b158015611c4d575f80fd5b505af1158015611c5f573d5f803e3d5ffd5b505050505b847f589e9a441b5bddda77c4ab647b0108764a9cc1a7f655aa9b7bc50b8bdfab867383604051611c9691815260200190565b60405180910390a25050505050565b5f611caf8261224b565b611ccb5760405162461bcd60e51b815260040161090890613e01565b505f9081526009602052604090205490565b5f611ce78361224b565b611d035760405162461bcd60e51b815260040161090890613e01565b505f91825260036020908152604080842092845291905290205490565b5f611d2a8261224b565b611d465760405162461bcd60e51b815260040161090890613e01565b505f9081526005602052604090205490565b611d618161224b565b611d7d5760405162461bcd60e51b815260040161090890613e01565b5f818152600c60205260409020546001600160a01b03163314611df65760405162461bcd60e51b815260206004820152602b60248201527f4f6e6c79207468652070726f706f736564206f776e65722063616e20636c616960448201526a06d206f776e6572736869760ac1b6064820152608401610908565b5f908152600b6020908152604080832080546001600160a01b03199081163317909155600c90925290912080549091169055565b611e32612b97565b6001600160a01b038116611e5b57604051631e4fbdf760e01b81525f6004820152602401610908565b611e6481612bf2565b50565b5f5a5f858152600b60205260409020549091506001600160a01b03163314611ea15760405162461bcd60e51b81526004016109089061402f565b5f8481526007602052604090205443811115611ef15760405162461bcd60e51b815260206004820152600f60248201526e383932b6b0ba3ab93290383937b7b360891b6044820152606401610908565b82611f2c5760405162461bcd60e51b815260206004820152600b60248201526a32b6b83a3c90383937b7b360a91b6044820152606401610908565b80611f725760405162461bcd60e51b81526020600482015260166024820152751b9bc818da185b1b195b99d9481cd8da19591d5b195960521b6044820152606401610908565b5f611f7c86612c62565b5f87815260096020908152604080832054600590925282205492935091611fa2906123ce565b611fae90610100613d2b565b90505f5b6001600160401b0381168711156121535760408051602081018690529081018a90526001600160c01b031960c083901b1660608201525f9060680160405160208183030381529060405290505f8482805190602001205f1c6120149190614185565b90505f6120228c83876124bd565b90505f61203a6120358e845f0151611004565b612c79565b90505f6120f58d8d886001600160401b031681811061205b5761205b613d3e565b905060200281019061206d9190613e2d565b61207b906020810190614198565b808060200260200160405190810160405280939291908181526020018383602002808284375f81840152601f19601f82011690508083019250505050505050838f8f8a6001600160401b03168181106120d6576120d6613d3e565b90506020028101906120e89190613e2d565b5f01358660200151612d63565b90508061213b5760405162461bcd60e51b815260206004820152601460248201527370726f6f6620646964206e6f742076657269667960601b6044820152606401610908565b5050505050808061214b90613d80565b915050611fb2565b505f61215f8888612d7a565b61216a906020613f64565b612176906105146141dd565b5a6121819088613d2b565b61218b9190613f64565b90506121978982612de3565b5f898152600860205260409020546001600160a01b0316801561222f575f8a8152600660205260409081902054905163356de02b60e01b8152600481018c9052602481019190915260448101869052606481018990526001600160a01b0382169063356de02b906084015f604051808303815f87803b158015612218575f80fd5b505af115801561222a573d5f803e3d5ffd5b505050505b5050505f9687525050600d602052505060409092204390555050565b6001545f906001600160401b0316821080156110ee5750505f908152600b60205260409020546001600160a01b0316151590565b5f6122898261224b565b6122a55760405162461bcd60e51b815260040161090890613e01565b505f908152600d602052604090205490565b7ff0c57e16840df040f15088dc2f81fe391c3923bec73e23a9662efc9c229c6a008054600160401b810460ff1615906001600160401b03165f811580156122fb5750825b90505f826001600160401b031660011480156123165750303b155b905081158015612324575080155b156123425760405163f92ee8a960e01b815260040160405180910390fd5b845467ffffffffffffffff19166001178555831561236c57845460ff60401b1916600160401b1785555b61237533612ee2565b61237d612ef3565b5f8690558315610ffc57845460ff60401b19168555604051600181527fc7f505b2f371ae2175ee4913f4499e1f2633a7b5936321eed1cdaeb6115181d29060200160405180910390a1505050505050565b5f610100608083901c80156123ee576123e8608083613d2b565b91508093505b50604083901c801561240b57612405604083613d2b565b91508093505b50602083901c801561242857612422602083613d2b565b91508093505b50601083901c80156124455761243f601083613d2b565b91508093505b50600883901c80156124625761245c600883613d2b565b91508093505b50600483901c801561247f57612479600483613d2b565b91508093505b50600283901c801561249c57612496600283613d2b565b91508093505b50600183901c80156124b35761121a600283613d2b565b61121a8483613d2b565b604080518082019091525f80825260208201525f84815260066020526040902054831061252c5760405162461bcd60e51b815260206004820152601860248201527f4c65616620696e646578206f7574206f6620626f756e647300000000000000006044820152606401610908565b5f61253a600180851b613d2b565b90505f80845b8015612612575f88815260056020526040902054841061257a57612565600182613d2b565b612573906001901b85613d2b565b9350612600565b5f88815260046020908152604080832087845290915290205461259d9084613f64565b91508682116125e4575f8881526004602090815260408083208784529091529020546125c99084613f64565b92506125d6600182613d2b565b612573906001901b85613f64565b6125ef600182613d2b565b6125fd906001901b85613d2b565b93505b8061260a816141f4565b915050612540565b505f8781526004602090815260408083208684529091529020546126369083613f64565b90508581116126735760405180604001604052808460016126579190613f64565b81526020016126668389613d2b565b81525093505050506108de565b604051806040016040528084815260200183886126909190613d2b565b9052979650505050505050565b5f600a6126b36001670de0b6b3a76400006141dd565b6126bd9190614209565b905090565b803410156127095760405162461bcd60e51b8152602060048201526014602482015273125b98dbdc9c9958dd0819995948185b5bdd5b9d60621b6044820152606401610908565b6040515f90606360ff60981b019083908381818185875af1925050503d805f811461274f576040519150601f19603f3d011682016040523d82523d5f602084013e612754565b606091505b50509050806116515760405162461bcd60e51b815260206004820152600b60248201526a109d5c9b8819985a5b195960aa1b6044820152606401610908565b5f61279f602083614185565b156127f6578360405163c7b67cf360e01b8152600401610908918152604060208201819052601d908201527f53697a65206d7573742062652061206d756c7469706c65206f66203332000000606082015260800190565b815f0361284f578360405163c7b67cf360e01b8152600401610908918152604060208201819052601b908201527f53697a65206d7573742062652067726561746572207468616e20300000000000606082015260800190565b66040000000000008211156128af578360405163c7b67cf360e01b815260040161090891815260406020808301829052908201527f526f6f742073697a65206d757374206265206c657373207468616e20325e3530606082015260800190565b5f6128bb602084614209565b5f8781526005602052604081208054929350909190826128da8361421c565b9190505590506128eb878383612efb565b5f8781526002602090815260408083208484529091529020859061290f8282614278565b50505f8781526003602090815260408083208484528252808320859055898352600690915281208054849290612946908490613f64565b9091555090979650505050505050565b61295f8261224b565b61297b5760405162461bcd60e51b815260040161090890613e01565b5f805b82518110156129be576129aa8484838151811061299d5761299d613d3e565b6020026020010151612f76565b6129b49083613f64565b915060010161297e565b505f83815260066020526040812080548392906129dc908490613d2b565b9091555050505050565b306001600160a01b037f0000000000000000000000000000000000000000000000000000000000000000161480612a6c57507f00000000000000000000000000000000000000000000000000000000000000006001600160a01b0316612a605f805160206144ab833981519152546001600160a01b031690565b6001600160a01b031614155b156119af5760405163703e46dd60e11b815260040160405180910390fd5b611e64612b97565b816001600160a01b03166352d1902d6040518163ffffffff1660e01b8152600401602060405180830381865afa925050508015612aec575060408051601f3d908101601f19168201909252612ae991810190614018565b60015b612b1457604051634c9c8ce360e01b81526001600160a01b0383166004820152602401610908565b5f805160206144ab8339815191528114612b4457604051632a87526960e21b815260048101829052602401610908565b6118ca8383612fdc565b306001600160a01b037f000000000000000000000000000000000000000000000000000000000000000016146119af5760405163703e46dd60e11b815260040160405180910390fd5b33612bc97f9016d09d72d40fdae2fd8ceac6b6234c7706214fd39c1cd1e609a0528c199300546001600160a01b031690565b6001600160a01b0316146119af5760405163118cdaa760e01b8152336004820152602401610908565b7f9016d09d72d40fdae2fd8ceac6b6234c7706214fd39c1cd1e609a0528c19930080546001600160a01b031981166001600160a01b03848116918217845560405192169182907f8be0079c531659141344cd1fd0a4f28419497f9722a3daafe3b4186f6b6457e0905f90a3505050565b5f818152600760205260408120546110ee9061112c565b5f6020825f0151511015612cc75760405162461bcd60e51b815260206004820152601560248201527410da590819185d18481a5cc81d1bdbc81cda1bdc9d605a1b6044820152606401610908565b6040805160208082528183019092525f916020820181803683370190505090505f5b6020811015612d5957835180518290612d0490602090613d2b565b612d0e9190613f64565b81518110612d1e57612d1e613d3e565b602001015160f81c60f81b828281518110612d3b57612d3b613d3e565b60200101906001600160f81b03191690815f1a905350600101612ce9565b506108de8161435b565b5f83612d70868585613031565b1495945050505050565b5f80805b8381101561199657848482818110612d9857612d98613d3e565b9050602002810190612daa9190613e2d565b612db8906020810190614198565b612dc4915060206141dd565b612dcf906040613f64565b612dd99083613f64565b9150600101612d7e565b5f828152600960209081526040822054612dfc916141dd565b90505f612e0948846141dd565b90505f80612e15611655565b915091505f612e4384848488600d5f8d81526020019081526020015f205443612e3e9190613d2b565b6130ab565b9050612e4e816126c2565b80341115612e8b57336108fc612e648334613d2b565b6040518115909202915f818181858888f19350505050158015612e89573d5f803e3d5ffd5b505b604080518281526001600160401b0385166020820152600384900b81830152905188917f928bbf5188022bf8b9a0e59f5e81e179d0a4c729bdba2856ac971af2063fbf2b919081900360600190a250505050505050565b612eea613382565b611e64816133cb565b6119af613382565b805f612f06826133d3565b9050835f5b82811015612f52575f612f216001831b86613d2b565b5f898152600460209081526040808320848452909152902054909150612f479084613f64565b925050600101612f0b565b505f9586526004602090815260408088209588529490529290942091909155505050565b5f828152600360209081526040808320848452909152812054612f9a8484836133e7565b5f848152600360209081526040808320868452825280832083905586835260028252808320868452909152812090612fd28282613850565b5090949350505050565b612fe58261348e565b6040516001600160a01b038316907fbc7cd75a20ee27fd9adebab32041f755214dbc6bffa90cc0225b39da2e5c2d3b905f90a2805115613029576118ca82826134f1565b61165161355a565b5f82815b85518110156130a2575f86828151811061305157613051613d3e565b602002602001015190506002856130689190614185565b5f0361307f576130788382613579565b925061308c565b6130898184613579565b92505b613097600286614209565b945050600101613035565b50949350505050565b5f8086116131215760405162461bcd60e51b815260206004820152603c60248201527f6661696c656420746f2076616c69646174653a20657374696d6174656420676160448201527f7320666565206d7573742062652067726561746572207468616e2030000000006064820152608401610908565b5f856001600160401b03161161319f5760405162461bcd60e51b815260206004820152603860248201527f6661696c656420746f2076616c69646174653a204174746f46494c207072696360448201527f65206d7573742062652067726561746572207468616e203000000000000000006064820152608401610908565b5f831161320a5760405162461bcd60e51b815260206004820152603360248201527f6661696c656420746f2076616c69646174653a207261772073697a65206d75736044820152720742062652067726561746572207468616e203606c1b6064820152608401610908565b5f808560030b126132805761322085600a61445e565b6001600160401b03871661323d62015180650100000000006141dd565b61324791906141dd565b61325191906141dd565b6132646001670de0b6b3a76400006141dd565b61326f9060026141dd565b6132799190614209565b90506132f0565b6001600160401b03861661329d62015180650100000000006141dd565b6132a791906141dd565b6132b08661446f565b6132bb90600a61445e565b6132ce6001670de0b6b3a76400006141dd565b6132d99060026141dd565b6132e391906141dd565b6132ed9190614209565b90505b5f846132fc85846141dd565b61330691906141dd565b90505f60646133166005846141dd565b6133209190614209565b90505f60646133306004856141dd565b61333a9190614209565b9050818a1061334f575f945050505050610d07565b808a1061336b576133608a83613d2b565b945050505050610d07565b60646133786001856141dd565b6133609190614209565b7ff0c57e16840df040f15088dc2f81fe391c3923bec73e23a9662efc9c229c6a0054600160401b900460ff166119af57604051631afcd79f60e31b815260040160405180910390fd5b611e32613382565b5f6110ee6133e2836001613f64565b613584565b5f838152600560205260408120546133fe906123ce565b61340a90610100613d2b565b90505f613416846133d3565b90505b81811115801561343557505f8581526005602052604090205484105b15613487575f85815260046020908152604080832087845290915281208054859290613462908490613d2b565b9091555061347590506001821b85613f64565b9350613480846133d3565b9050613419565b5050505050565b806001600160a01b03163b5f036134c357604051634c9c8ce360e01b81526001600160a01b0382166004820152602401610908565b5f805160206144ab83398151915280546001600160a01b0319166001600160a01b0392909216919091179055565b60605f80846001600160a01b03168460405161350d9190614007565b5f60405180830381855af49150503d805f8114613545576040519150601f19603f3d011682016040523d82523d5f602084013e61354a565b606091505b5091509150610d078583836137a4565b34156119af5760405163b398979f60e01b815260040160405180910390fd5b5f6108de8383613800565b5f6001600160ff1b038211156135e75760405162461bcd60e51b815260206004820152602260248201527f496e7075742065786365656473206d6178696d756d20696e743235362076616c604482015261756560f01b6064820152608401610908565b6101005f6135f484614490565b84169050801561360c5781613608816141f4565b9250505b6fffffffffffffffffffffffffffffffff8116156136325761362f608083613d2b565b91505b77ffffffffffffffff0000000000000000ffffffffffffffff8116156136605761365d604083613d2b565b91505b7bffffffff00000000ffffffff00000000ffffffff00000000ffffffff8116156136925761368f602083613d2b565b91505b7dffff0000ffff0000ffff0000ffff0000ffff0000ffff0000ffff0000ffff8116156136c6576136c3601083613d2b565b91505b7eff00ff00ff00ff00ff00ff00ff00ff00ff00ff00ff00ff00ff00ff00ff00ff8116156136fb576136f8600883613d2b565b91505b7f0f0f0f0f0f0f0f0f0f0f0f0f0f0f0f0f0f0f0f0f0f0f0f0f0f0f0f0f0f0f0f0f8116156137315761372e600483613d2b565b91505b7f333333333333333333333333333333333333333333333333333333333333333381161561376757613764600283613d2b565b91505b7f555555555555555555555555555555555555555555555555555555555555555581161561379d5761379a600183613d2b565b91505b5092915050565b6060826137b9576137b482613827565b6108de565b81511580156137d057506001600160a01b0384163b155b156137f957604051639996b31560e01b81526001600160a01b0385166004820152602401610908565b50806108de565b5f825f528160205260205f60405f60025afa61381a575f80fd5b50505f5160c01916919050565b8051156138375780518082602001fd5b60405163d6bda27560e01b815260040160405180910390fd5b50805461385c90613fcf565b5f825580601f1061386b575050565b601f0160209004905f5260205f2090810190611e6491905b80821115613896575f8155600101613883565b5090565b5f8083601f8401126138aa575f80fd5b5081356001600160401b038111156138c0575f80fd5b6020830191508360208260051b85010111156138da575f80fd5b9250929050565b5f805f604084860312156138f3575f80fd5b8335925060208401356001600160401b0381111561390f575f80fd5b61391b8682870161389a565b9497909650939450505050565b602080825282518282018190525f919060409081850190868401855b8281101561396957815180518552860151868501529284019290850190600101613944565b5091979650505050505050565b80356001600160a01b038116811461398c575f80fd5b919050565b5f8083601f8401126139a1575f80fd5b5081356001600160401b038111156139b7575f80fd5b6020830191508360208285010111156138da575f80fd5b5f805f604084860312156139e0575f80fd5b6139e984613976565b925060208401356001600160401b03811115613a03575f80fd5b61391b86828701613991565b5f805f805f60608688031215613a23575f80fd5b8535945060208601356001600160401b0380821115613a40575f80fd5b613a4c89838a0161389a565b90965094506040880135915080821115613a64575f80fd5b50613a7188828901613991565b969995985093965092949392505050565b5f60208284031215613a92575f80fd5b5035919050565b5f8060408385031215613aaa575f80fd5b50508035926020909101359150565b5f5b83811015613ad3578181015183820152602001613abb565b50505f910152565b5f8151808452613af2816020860160208601613ab9565b601f01601f19169290920160200192915050565b602081525f825160208084015261121a6040840182613adb565b5f805f8060608587031215613b33575f80fd5b843593506020850135925060408501356001600160401b03811115613b56575f80fd5b613b6287828801613991565b95989497509550505050565b634e487b7160e01b5f52604160045260245ffd5b604051601f8201601f191681016001600160401b0381118282101715613baa57613baa613b6e565b604052919050565b5f8060408385031215613bc3575f80fd5b613bcc83613976565b91506020808401356001600160401b0380821115613be8575f80fd5b818601915086601f830112613bfb575f80fd5b813581811115613c0d57613c0d613b6e565b613c1f601f8201601f19168501613b82565b91508082528784828501011115613c34575f80fd5b80848401858401375f848284010152508093505050509250929050565b5f8060408385031215613c62575f80fd5b82359150613c7260208401613976565b90509250929050565b602080825282518282018190525f9190848201906040850190845b81811015613cb257835183529284019291840191600101613c96565b50909695505050505050565b5f805f60408486031215613cd0575f80fd5b8335925060208401356001600160401b03811115613a03575f80fd5b602081525f6108de6020830184613adb565b5f60208284031215613d0e575f80fd5b6108de82613976565b634e487b7160e01b5f52601160045260245ffd5b818103818111156110ee576110ee613d17565b634e487b7160e01b5f52603260045260245ffd5b6020808252601490820152734578747261206461746120746f6f206c6172676560601b604082015260600190565b5f6001600160401b03808316818103613d9b57613d9b613d17565b6001019392505050565b81835281816020850137505f828201602090810191909152601f909101601f19169091010190565b8481526001600160a01b03841660208201526060604082018190525f90613df79083018486613da5565b9695505050505050565b60208082526012908201527150726f6f6620736574206e6f74206c69766560701b604082015260600190565b5f8235603e19833603018112613e41575f80fd5b9190910192915050565b5f8235601e19833603018112613e41575f80fd5b5f60808201888352602088818501526040608060408601528288845260a08601905060a08960051b8701019350895f5b8a811015613f3f57878603609f190183528135368d9003603e19018112613eb4575f80fd5b8c018035601e193683900381018212613ecb575f80fd5b8282019150868952813581833603018112613ee4575f80fd5b9091018781019150356001600160401b03811115613f00575f80fd5b803603821315613f0e575f80fd5b87878a0152613f2160608a018284613da5565b92880135988801989098525095509184019190840190600101613e8f565b50505050508281036060840152613f57818587613da5565b9998505050505050505050565b808201808211156110ee576110ee613d17565b85815260606020820181905281018490525f6001600160fb1b03851115613f9c575f80fd5b8460051b80876080850137820182810360809081016040850152613fc39082018587613da5565b98975050505050505050565b600181811c90821680613fe357607f821691505b60208210810361400157634e487b7160e01b5f52602260045260245ffd5b50919050565b5f8251613e41818460208701613ab9565b5f60208284031215614028575f80fd5b5051919050565b6020808252602e908201527f6f6e6c7920746865206f776e65722063616e206d6f766520746f206e6578742060408201526d1c1c9bdd9a5b99c81c195c9a5bd960921b606082015260800190565b634e487b7160e01b5f52603160045260245ffd5b858152846020820152836040820152608060608201525f6140b6608083018486613da5565b979650505050505050565b5f608082840312156140d1575f80fd5b604051608081016001600160401b0382821081831117156140f4576140f4613b6e565b81604052845191508160070b821461410a575f80fd5b9082526020840151908082168214614120575f80fd5b5060208201526040830151600381900b811461413a575f80fd5b60408201526060928301519281019290925250919050565b848152836020820152606060408201525f613df7606083018486613da5565b634e487b7160e01b5f52601260045260245ffd5b5f8261419357614193614171565b500690565b5f808335601e198436030181126141ad575f80fd5b8301803591506001600160401b038211156141c6575f80fd5b6020019150600581901b36038213156138da575f80fd5b80820281158282048414176110ee576110ee613d17565b5f8161420257614202613d17565b505f190190565b5f8261421757614217614171565b500490565b5f6001820161422d5761422d613d17565b5060010190565b601f8211156118ca57805f5260205f20601f840160051c810160208510156142595750805b601f840160051c820191505b81811015613487575f8155600101614265565b8135601e1983360301811261428b575f80fd5b820180356001600160401b038111156142a2575f80fd5b602081360381840113156142b4575f80fd5b6142c8826142c28654613fcf565b86614234565b5f601f8311600181146142fb575f84156142e457508482018301355b5f19600386901b1c1916600185901b178655611591565b5f86815260208120601f198616915b8281101561432b57878501860135825593850193600190910190850161430a565b5085821015614349575f1960f88760031b161c198585890101351681555b5050505050600190811b019091555050565b80516020808301519190811015614001575f1960209190910360031b1b16919050565b600181815b808511156143b857815f190482111561439e5761439e613d17565b808516156143ab57918102915b93841c9390800290614383565b509250929050565b5f826143ce575060016110ee565b816143da57505f6110ee565b81600181146143f057600281146143fa57614416565b60019150506110ee565b60ff84111561440b5761440b613d17565b50506001821b6110ee565b5060208310610133831016604e8410600b8410161715614439575081810a6110ee565b614443838361437e565b805f190482111561445657614456613d17565b029392505050565b5f6108de63ffffffff8416836143c0565b5f8160030b637fffffff19810361448857614488613d17565b5f0392915050565b5f600160ff1b82016144a4576144a4613d17565b505f039056fe360894a13ba1a3210667c828492db98dca3e2076cc3735a920a3ca505d382bbca26469706673582212202626dbfc0b7b5c9604247770a06cbeb7e8ae1e06c8805c350d4afde7da6310bc64736f6c63430008170033","linkReferences":{}},"methodIdentifiers":{"BURN_ACTOR()":"0a6a63f1","EXTRA_DATA_MAX_SIZE()":"029b4646","FIL_USD_PRICE_FEED_ID()":"19c75950","LEAF_SIZE()":"c0e15949","MAX_ENQUEUED_REMOVALS()":"9f8cb3bd","MAX_ROOT_SIZE()":"16e2bcd5","NO_CHALLENGE_SCHEDULED()":"462dd449","PYTH()":"67e406d5","RANDOMNESS_PRECOMPILE()":"15b17570","SECONDS_IN_DAY()":"61a52a36","UPGRADE_INTERFACE_VERSION()":"ad3cb1cc","addRoots(uint256,((bytes),uint256)[],bytes)":"11c0ee4a","claimProofSetOwnership(uint256)":"ee3dac65","createProofSet(address,bytes)":"0a4d7932","deleteProofSet(uint256,bytes)":"847d1d06","findRootIds(uint256,uint256[])":"0528a55b","getChallengeFinality()":"f83758fe","getChallengeRange(uint256)":"89208ba9","getFILUSDPrice()":"4fa27920","getNextChallengeEpoch(uint256)":"6ba4608f","getNextProofSetId()":"8ea417e5","getNextRootId(uint256)":"d49245c1","getProofSetLastProvenEpoch(uint256)":"faa67163","getProofSetLeafCount(uint256)":"3f84135f","getProofSetListener(uint256)":"31601226","getProofSetOwner(uint256)":"4726075b","getRandomness(uint256)":"453f4f62","getRootCid(uint256,uint256)":"3b7ae913","getRootLeafCount(uint256,uint256)":"9153e64b","getScheduledRemovals(uint256)":"6fa44692","initialize(uint256)":"fe4b84df","nextProvingPeriod(uint256,uint256,bytes)":"45c0b92d","owner()":"8da5cb5b","proofSetLive(uint256)":"f5cac1ba","proposeProofSetOwner(uint256,address)":"6cb55c16","provePossession(uint256,(bytes32,bytes32[])[])":"f58f952b","proxiableUUID()":"52d1902d","renounceOwnership()":"715018a6","rootChallengable(uint256,uint256)":"71cf2a16","rootLive(uint256,uint256)":"47331050","scheduleRemovals(uint256,uint256[],bytes)":"3b68e4e9","transferOwnership(address)":"f2fde38b","upgradeToAndCall(address,bytes)":"4f1ef286"},"id":44}