{"abi":[{"type":"constructor","inputs":[],"stateMutability":"nonpayable"},{"type":"function","name":"BURN_ACTOR","inputs":[],"outputs":[{"name":"","type":"address","internalType":"address"}],"stateMutability":"view"},{"type":"function","name":"EXTRA_DATA_MAX_SIZE","inputs":[],"outputs":[{"name":"","type":"uint256","internalType":"uint256"}],"stateMutability":"view"},{"type":"function","name":"FIL_USD_PRICE_FEED_ID","inputs":[],"outputs":[{"name":"","type":"bytes32","internalType":"bytes32"}],"stateMutability":"view"},{"type":"function","name":"LEAF_SIZE","inputs":[],"outputs":[{"name":"","type":"uint256","internalType":"uint256"}],"stateMutability":"view"},{"type":"function","name":"MAX_ENQUEUED_REMOVALS","inputs":[],"outputs":[{"name":"","type":"uint256","internalType":"uint256"}],"stateMutability":"view"},{"type":"function","name":"MAX_ROOT_SIZE","inputs":[],"outputs":[{"name":"","type":"uint256","internalType":"uint256"}],"stateMutability":"view"},{"type":"function","name":"NO_CHALLENGE_SCHEDULED","inputs":[],"outputs":[{"name":"","type":"uint256","internalType":"uint256"}],"stateMutability":"view"},{"type":"function","name":"NO_PROVEN_EPOCH","inputs":[],"outputs":[{"name":"","type":"uint256","internalType":"uint256"}],"stateMutability":"view"},{"type":"function","name":"PYTH","inputs":[],"outputs":[{"name":"","type":"address","internalType":"contract IPyth"}],"stateMutability":"view"},{"type":"function","name":"RANDOMNESS_PRECOMPILE","inputs":[],"outputs":[{"name":"","type":"address","internalType":"address"}],"stateMutability":"view"},{"type":"function","name":"SECONDS_IN_DAY","inputs":[],"outputs":[{"name":"","type":"uint256","internalType":"uint256"}],"stateMutability":"view"},{"type":"function","name":"UPGRADE_INTERFACE_VERSION","inputs":[],"outputs":[{"name":"","type":"string","internalType":"string"}],"stateMutability":"view"},{"type":"function","name":"addRoots","inputs":[{"name":"setId","type":"uint256","internalType":"uint256"},{"name":"rootData","type":"tuple[]","internalType":"struct PDPVerifier.RootData[]","components":[{"name":"root","type":"tuple","internalType":"struct Cids.Cid","components":[{"name":"data","type":"bytes","internalType":"bytes"}]},{"name":"rawSize","type":"uint256","internalType":"uint256"}]},{"name":"extraData","type":"bytes","internalType":"bytes"}],"outputs":[{"name":"","type":"uint256","internalType":"uint256"}],"stateMutability":"nonpayable"},{"type":"function","name":"calculateProofFee","inputs":[{"name":"setId","type":"uint256","internalType":"uint256"},{"name":"estimatedGasFee","type":"uint256","internalType":"uint256"}],"outputs":[{"name":"","type":"uint256","internalType":"uint256"}],"stateMutability":"view"},{"type":"function","name":"claimProofSetOwnership","inputs":[{"name":"setId","type":"uint256","internalType":"uint256"}],"outputs":[],"stateMutability":"nonpayable"},{"type":"function","name":"createProofSet","inputs":[{"name":"listenerAddr","type":"address","internalType":"address"},{"name":"extraData","type":"bytes","internalType":"bytes"}],"outputs":[{"name":"","type":"uint256","internalType":"uint256"}],"stateMutability":"payable"},{"type":"function","name":"deleteProofSet","inputs":[{"name":"setId","type":"uint256","internalType":"uint256"},{"name":"extraData","type":"bytes","internalType":"bytes"}],"outputs":[],"stateMutability":"nonpayable"},{"type":"function","name":"findRootIds","inputs":[{"name":"setId","type":"uint256","internalType":"uint256"},{"name":"leafIndexs","type":"uint256[]","internalType":"uint256[]"}],"outputs":[{"name":"","type":"tuple[]","internalType":"struct PDPVerifier.RootIdAndOffset[]","components":[{"name":"rootId","type":"uint256","internalType":"uint256"},{"name":"offset","type":"uint256","internalType":"uint256"}]}],"stateMutability":"view"},{"type":"function","name":"getChallengeFinality","inputs":[],"outputs":[{"name":"","type":"uint256","internalType":"uint256"}],"stateMutability":"view"},{"type":"function","name":"getChallengeRange","inputs":[{"name":"setId","type":"uint256","internalType":"uint256"}],"outputs":[{"name":"","type":"uint256","internalType":"uint256"}],"stateMutability":"view"},{"type":"function","name":"getFILUSDPrice","inputs":[],"outputs":[{"name":"","type":"uint64","internalType":"uint64"},{"name":"","type":"int32","internalType":"int32"}],"stateMutability":"view"},{"type":"function","name":"getNextChallengeEpoch","inputs":[{"name":"setId","type":"uint256","internalType":"uint256"}],"outputs":[{"name":"","type":"uint256","internalType":"uint256"}],"stateMutability":"view"},{"type":"function","name":"getNextProofSetId","inputs":[],"outputs":[{"name":"","type":"uint64","internalType":"uint64"}],"stateMutability":"view"},{"type":"function","name":"getNextRootId","inputs":[{"name":"setId","type":"uint256","internalType":"uint256"}],"outputs":[{"name":"","type":"uint256","internalType":"uint256"}],"stateMutability":"view"},{"type":"function","name":"getProofSetLastProvenEpoch","inputs":[{"name":"setId","type":"uint256","internalType":"uint256"}],"outputs":[{"name":"","type":"uint256","internalType":"uint256"}],"stateMutability":"view"},{"type":"function","name":"getProofSetLeafCount","inputs":[{"name":"setId","type":"uint256","internalType":"uint256"}],"outputs":[{"name":"","type":"uint256","internalType":"uint256"}],"stateMutability":"view"},{"type":"function","name":"getProofSetListener","inputs":[{"name":"setId","type":"uint256","internalType":"uint256"}],"outputs":[{"name":"","type":"address","internalType":"address"}],"stateMutability":"view"},{"type":"function","name":"getProofSetOwner","inputs":[{"name":"setId","type":"uint256","internalType":"uint256"}],"outputs":[{"name":"","type":"address","internalType":"address"},{"name":"","type":"address","internalType":"address"}],"stateMutability":"view"},{"type":"function","name":"getRandomness","inputs":[{"name":"epoch","type":"uint256","internalType":"uint256"}],"outputs":[{"name":"","type":"uint256","internalType":"uint256"}],"stateMutability":"view"},{"type":"function","name":"getRootCid","inputs":[{"name":"setId","type":"uint256","internalType":"uint256"},{"name":"rootId","type":"uint256","internalType":"uint256"}],"outputs":[{"name":"","type":"tuple","internalType":"struct Cids.Cid","components":[{"name":"data","type":"bytes","internalType":"bytes"}]}],"stateMutability":"view"},{"type":"function","name":"getRootLeafCount","inputs":[{"name":"setId","type":"uint256","internalType":"uint256"},{"name":"rootId","type":"uint256","internalType":"uint256"}],"outputs":[{"name":"","type":"uint256","internalType":"uint256"}],"stateMutability":"view"},{"type":"function","name":"getScheduledRemovals","inputs":[{"name":"setId","type":"uint256","internalType":"uint256"}],"outputs":[{"name":"","type":"uint256[]","internalType":"uint256[]"}],"stateMutability":"view"},{"type":"function","name":"initialize","inputs":[{"name":"_challengeFinality","type":"uint256","internalType":"uint256"}],"outputs":[],"stateMutability":"nonpayable"},{"type":"function","name":"nextProvingPeriod","inputs":[{"name":"setId","type":"uint256","internalType":"uint256"},{"name":"challengeEpoch","type":"uint256","internalType":"uint256"},{"name":"extraData","type":"bytes","internalType":"bytes"}],"outputs":[],"stateMutability":"nonpayable"},{"type":"function","name":"owner","inputs":[],"outputs":[{"name":"","type":"address","internalType":"address"}],"stateMutability":"view"},{"type":"function","name":"proofSetLive","inputs":[{"name":"setId","type":"uint256","internalType":"uint256"}],"outputs":[{"name":"","type":"bool","internalType":"bool"}],"stateMutability":"view"},{"type":"function","name":"proposeProofSetOwner","inputs":[{"name":"setId","type":"uint256","internalType":"uint256"},{"name":"newOwner","type":"address","internalType":"address"}],"outputs":[],"stateMutability":"nonpayable"},{"type":"function","name":"provePossession","inputs":[{"name":"setId","type":"uint256","internalType":"uint256"},{"name":"proofs","type":"tuple[]","internalType":"struct PDPVerifier.Proof[]","components":[{"name":"leaf","type":"bytes32","internalType":"bytes32"},{"name":"proof","type":"bytes32[]","internalType":"bytes32[]"}]}],"outputs":[],"stateMutability":"payable"},{"type":"function","name":"proxiableUUID","inputs":[],"outputs":[{"name":"","type":"bytes32","internalType":"bytes32"}],"stateMutability":"view"},{"type":"function","name":"renounceOwnership","inputs":[],"outputs":[],"stateMutability":"nonpayable"},{"type":"function","name":"rootChallengable","inputs":[{"name":"setId","type":"uint256","internalType":"uint256"},{"name":"rootId","type":"uint256","internalType":"uint256"}],"outputs":[{"name":"","type":"bool","internalType":"bool"}],"stateMutability":"view"},{"type":"function","name":"rootLive","inputs":[{"name":"setId","type":"uint256","internalType":"uint256"},{"name":"rootId","type":"uint256","internalType":"uint256"}],"outputs":[{"name":"","type":"bool","internalType":"bool"}],"stateMutability":"view"},{"type":"function","name":"scheduleRemovals","inputs":[{"name":"setId","type":"uint256","internalType":"uint256"},{"name":"rootIds","type":"uint256[]","internalType":"uint256[]"},{"name":"extraData","type":"bytes","internalType":"bytes"}],"outputs":[],"stateMutability":"nonpayable"},{"type":"function","name":"transferOwnership","inputs":[{"name":"newOwner","type":"address","internalType":"address"}],"outputs":[],"stateMutability":"nonpayable"},{"type":"function","name":"upgradeToAndCall","inputs":[{"name":"newImplementation","type":"address","internalType":"address"},{"name":"data","type":"bytes","internalType":"bytes"}],"outputs":[],"stateMutability":"payable"},{"type":"event","name":"Debug","inputs":[{"name":"message","type":"string","indexed":false,"internalType":"string"},{"name":"value","type":"uint256","indexed":false,"internalType":"uint256"}],"anonymous":false},{"type":"event","name":"Initialized","inputs":[{"name":"version","type":"uint64","indexed":false,"internalType":"uint64"}],"anonymous":false},{"type":"event","name":"NextProvingPeriod","inputs":[{"name":"setId","type":"uint256","indexed":true,"internalType":"uint256"},{"name":"challengeEpoch","type":"uint256","indexed":false,"internalType":"uint256"},{"name":"leafCount","type":"uint256","indexed":false,"internalType":"uint256"}],"anonymous":false},{"type":"event","name":"OwnershipTransferred","inputs":[{"name":"previousOwner","type":"address","indexed":true,"internalType":"address"},{"name":"newOwner","type":"address","indexed":true,"internalType":"address"}],"anonymous":false},{"type":"event","name":"PossessionProven","inputs":[{"name":"setId","type":"uint256","indexed":true,"internalType":"uint256"},{"name":"challenges","type":"tuple[]","indexed":false,"internalType":"struct PDPVerifier.RootIdAndOffset[]","components":[{"name":"rootId","type":"uint256","internalType":"uint256"},{"name":"offset","type":"uint256","internalType":"uint256"}]}],"anonymous":false},{"type":"event","name":"ProofFeePaid","inputs":[{"name":"setId","type":"uint256","indexed":true,"internalType":"uint256"},{"name":"fee","type":"uint256","indexed":false,"internalType":"uint256"},{"name":"price","type":"uint64","indexed":false,"internalType":"uint64"},{"name":"expo","type":"int32","indexed":false,"internalType":"int32"}],"anonymous":false},{"type":"event","name":"ProofSetCreated","inputs":[{"name":"setId","type":"uint256","indexed":true,"internalType":"uint256"},{"name":"owner","type":"address","indexed":true,"internalType":"address"}],"anonymous":false},{"type":"event","name":"ProofSetDeleted","inputs":[{"name":"setId","type":"uint256","indexed":true,"internalType":"uint256"},{"name":"deletedLeafCount","type":"uint256","indexed":false,"internalType":"uint256"}],"anonymous":false},{"type":"event","name":"ProofSetEmpty","inputs":[{"name":"setId","type":"uint256","indexed":true,"internalType":"uint256"}],"anonymous":false},{"type":"event","name":"ProofSetOwnerChanged","inputs":[{"name":"setId","type":"uint256","indexed":true,"internalType":"uint256"},{"name":"oldOwner","type":"address","indexed":true,"internalType":"address"},{"name":"newOwner","type":"address","indexed":true,"internalType":"address"}],"anonymous":false},{"type":"event","name":"RootsAdded","inputs":[{"name":"setId","type":"uint256","indexed":true,"internalType":"uint256"},{"name":"rootIds","type":"uint256[]","indexed":false,"internalType":"uint256[]"}],"anonymous":false},{"type":"event","name":"RootsRemoved","inputs":[{"name":"setId","type":"uint256","indexed":true,"internalType":"uint256"},{"name":"rootIds","type":"uint256[]","indexed":false,"internalType":"uint256[]"}],"anonymous":false},{"type":"event","name":"Upgraded","inputs":[{"name":"implementation","type":"address","indexed":true,"internalType":"address"}],"anonymous":false},{"type":"error","name":"AddressEmptyCode","inputs":[{"name":"target","type":"address","internalType":"address"}]},{"type":"error","name":"ERC1967InvalidImplementation","inputs":[{"name":"implementation","type":"address","internalType":"address"}]},{"type":"error","name":"ERC1967NonPayable","inputs":[]},{"type":"error","name":"FailedCall","inputs":[]},{"type":"error","name":"IndexedError","inputs":[{"name":"idx","type":"uint256","internalType":"uint256"},{"name":"msg","type":"string","internalType":"string"}]},{"type":"error","name":"InvalidInitialization","inputs":[]},{"type":"error","name":"NotInitializing","inputs":[]},{"type":"error","name":"OwnableInvalidOwner","inputs":[{"name":"owner","type":"address","internalType":"address"}]},{"type":"error","name":"OwnableUnauthorizedAccount","inputs":[{"name":"account","type":"address","internalType":"address"}]},{"type":"error","name":"UUPSUnauthorizedCallContext","inputs":[]},{"type":"error","name":"UUPSUnsupportedProxiableUUID","inputs":[{"name":"slot","type":"bytes32","internalType":"bytes32"}]}],"bytecode":{"object":"0x60a06040523073ffffffffffffffffffffffffffffffffffffffff1660809073ffffffffffffffffffffffffffffffffffffffff1681525034801562000043575f80fd5b50620000546200005a60201b60201c565b620001c4565b5f6200006b6200015e60201b60201c565b9050805f0160089054906101000a900460ff1615620000b6576040517ff92ee8a900000000000000000000000000000000000000000000000000000000815260040160405180910390fd5b67ffffffffffffffff8016815f015f9054906101000a900467ffffffffffffffff1667ffffffffffffffff16146200015b5767ffffffffffffffff815f015f6101000a81548167ffffffffffffffff021916908367ffffffffffffffff1602179055507fc7f505b2f371ae2175ee4913f4499e1f2633a7b5936321eed1cdaeb6115181d267ffffffffffffffff604051620001529190620001a9565b60405180910390a15b50565b5f7ff0c57e16840df040f15088dc2f81fe391c3923bec73e23a9662efc9c229c6a00905090565b5f67ffffffffffffffff82169050919050565b620001a38162000185565b82525050565b5f602082019050620001be5f83018462000198565b92915050565b608051617d10620001eb5f395f8181613de901528181613e3e0152613ff80152617d105ff3fe608060405260043610610271575f3560e01c806367e406d51161014e5780639f8cb3bd116100c0578063f2fde38b11610079578063f2fde38b146109c5578063f58f952b146109ed578063f5cac1ba14610a09578063f83758fe14610a45578063faa6716314610a6f578063fe4b84df14610aab57610271565b80639f8cb3bd146108b9578063ad3cb1cc146108e3578063c0e159491461090d578063d49245c114610937578063ee3dac6514610973578063f178b1be1461099b57610271565b806371cf2a161161011257806371cf2a1614610789578063847d1d06146107c557806389208ba9146107ed5780638da5cb5b146108295780638ea417e5146108535780639153e64b1461087d57610271565b806367e406d5146106a95780636ba4608f146106d35780636cb55c161461070f5780636fa4469214610737578063715018a61461077357610271565b80633f84135f116101e757806347331050116101ab57806347331050146105965780634903704a146105d25780634f1ef2861461060e5780634fa279201461062a57806352d1902d1461065557806361a52a361461067f57610271565b80633f84135f1461048f578063453f4f62146104cb57806345c0b92d14610507578063462dd4491461052f5780634726075b1461055957610271565b806315b175701161023957806315b175701461037157806316e2bcd51461039b57806319c75950146103c557806331601226146103ef5780633b68e4e91461042b5780633b7ae9131461045357610271565b8063029b4646146102755780630528a55b1461029f5780630a4d7932146102db5780630a6a63f11461030b57806311c0ee4a14610335575b5f80fd5b348015610280575f80fd5b50610289610ad3565b6040516102969190614f24565b60405180910390f35b3480156102aa575f80fd5b506102c560048036038101906102c09190614fd9565b610ad9565b6040516102d2919061511a565b60405180910390f35b6102f560048036038101906102f091906151e9565b610bc8565b6040516103029190614f24565b60405180910390f35b348015610316575f80fd5b5061031f610ee8565b60405161032c9190615255565b60405180910390f35b348015610340575f80fd5b5061035b600480360381019061035691906152c3565b610f00565b6040516103689190614f24565b60405180910390f35b34801561037c575f80fd5b506103856112a4565b6040516103929190615255565b60405180910390f35b3480156103a6575f80fd5b506103af6112bc565b6040516103bc9190614f24565b60405180910390f35b3480156103d0575f80fd5b506103d96112c7565b6040516103e6919061536c565b60405180910390f35b3480156103fa575f80fd5b5061041560048036038101906104109190615385565b6112ed565b6040516104229190615255565b60405180910390f35b348015610436575f80fd5b50610451600480360381019061044c91906153b0565b61136e565b005b34801561045e575f80fd5b5061047960048036038101906104749190615441565b6116b6565b6040516104869190615530565b60405180910390f35b34801561049a575f80fd5b506104b560048036038101906104b09190615385565b6117c8565b6040516104c29190614f24565b60405180910390f35b3480156104d6575f80fd5b506104f160048036038101906104ec9190615385565b61182a565b6040516104fe9190614f24565b60405180910390f35b348015610512575f80fd5b5061052d60048036038101906105289190615550565b611924565b005b34801561053a575f80fd5b50610543611e04565b6040516105509190614f24565b60405180910390f35b348015610564575f80fd5b5061057f600480360381019061057a9190615385565b611e08565b60405161058d9291906155c1565b60405180910390f35b3480156105a1575f80fd5b506105bc60048036038101906105b79190615441565b611ebd565b6040516105c99190615602565b60405180910390f35b3480156105dd575f80fd5b506105f860048036038101906105f39190615441565b611f16565b6040516106059190614f24565b60405180910390f35b61062860048036038101906106239190615743565b611f7a565b005b348015610635575f80fd5b5061063e611f99565b60405161064c9291906157da565b60405180910390f35b348015610660575f80fd5b506106696120ab565b604051610676919061536c565b60405180910390f35b34801561068a575f80fd5b506106936120dc565b6040516106a09190614f24565b60405180910390f35b3480156106b4575f80fd5b506106bd6120e3565b6040516106ca919061585c565b60405180910390f35b3480156106de575f80fd5b506106f960048036038101906106f49190615385565b6120fb565b6040516107069190614f24565b60405180910390f35b34801561071a575f80fd5b5061073560048036038101906107309190615875565b61215d565b005b348015610742575f80fd5b5061075d60048036038101906107589190615385565b612307565b60405161076a919061595b565b60405180910390f35b34801561077e575f80fd5b50610787612416565b005b348015610794575f80fd5b506107af60048036038101906107aa9190615441565b612429565b6040516107bc9190615602565b60405180910390f35b3480156107d0575f80fd5b506107eb60048036038101906107e6919061597b565b612517565b005b3480156107f8575f80fd5b50610813600480360381019061080e9190615385565b612817565b6040516108209190614f24565b60405180910390f35b348015610834575f80fd5b5061083d612879565b60405161084a9190615255565b60405180910390f35b34801561085e575f80fd5b506108676128ae565b60405161087491906159d8565b60405180910390f35b348015610888575f80fd5b506108a3600480360381019061089e9190615441565b6128ca565b6040516108b09190614f24565b60405180910390f35b3480156108c4575f80fd5b506108cd61293c565b6040516108da9190614f24565b60405180910390f35b3480156108ee575f80fd5b506108f7612942565b6040516109049190615a43565b60405180910390f35b348015610918575f80fd5b5061092161297b565b60405161092e9190614f24565b60405180910390f35b348015610942575f80fd5b5061095d60048036038101906109589190615385565b612980565b60405161096a9190614f24565b60405180910390f35b34801561097e575f80fd5b5061099960048036038101906109949190615385565b6129e2565b005b3480156109a6575f80fd5b506109af612bdd565b6040516109bc9190614f24565b60405180910390f35b3480156109d0575f80fd5b506109eb60048036038101906109e69190615a63565b612be1565b005b610a076004803603810190610a029190615ae3565b612c65565b005b348015610a14575f80fd5b50610a2f6004803603810190610a2a9190615385565b613215565b604051610a3c9190615602565b60405180910390f35b348015610a50575f80fd5b50610a596132a7565b604051610a669190614f24565b60405180910390f35b348015610a7a575f80fd5b50610a956004803603810190610a909190615385565b6132af565b604051610aa29190614f24565b60405180910390f35b348015610ab6575f80fd5b50610ad16004803603810190610acc9190615385565b613311565b005b61080081565b60605f610af660055f8781526020019081526020015f20546134a0565b610100610b039190615b6d565b90505f8484905067ffffffffffffffff811115610b2357610b2261561f565b5b604051908082528060200260200182016040528015610b5c57816020015b610b49614e89565b815260200190600190039081610b415790505b5090505f5b85859050811015610bbb57610b9087878784818110610b8357610b82615ba0565b5b90506020020135856135c9565b828281518110610ba357610ba2615ba0565b5b60200260200101819052508080600101915050610b61565b5080925050509392505050565b5f610800838390501115610c11576040517f08c379a0000000000000000000000000000000000000000000000000000000008152600401610c0890615c17565b60405180910390fd5b5f610c1a6137d4565b905080341015610c5f576040517f08c379a0000000000000000000000000000000000000000000000000000000008152600401610c5690615c7f565b60405180910390fd5b610c68816137fb565b80341115610cc0573373ffffffffffffffffffffffffffffffffffffffff166108fc8234610c969190615b6d565b90811502906040515f60405180830381858888f19350505050158015610cbe573d5f803e3d5ffd5b505b5f60015f81819054906101000a900467ffffffffffffffff1680929190610ce690615c9d565b91906101000a81548167ffffffffffffffff021916908367ffffffffffffffff16021790555067ffffffffffffffff1690505f60065f8381526020019081526020015f20819055505f60075f8381526020019081526020015f208190555033600b5f8381526020019081526020015f205f6101000a81548173ffffffffffffffffffffffffffffffffffffffff021916908373ffffffffffffffffffffffffffffffffffffffff1602179055508560085f8381526020019081526020015f205f6101000a81548173ffffffffffffffffffffffffffffffffffffffff021916908373ffffffffffffffffffffffffffffffffffffffff1602179055505f600d5f8381526020019081526020015f20819055505f73ffffffffffffffffffffffffffffffffffffffff168673ffffffffffffffffffffffffffffffffffffffff1614610e98578573ffffffffffffffffffffffffffffffffffffffff166394d41b36823388886040518563ffffffff1660e01b8152600401610e6a9493929190615d08565b5f604051808303815f87803b158015610e81575f80fd5b505af1158015610e93573d5f803e3d5ffd5b505050505b3373ffffffffffffffffffffffffffffffffffffffff16817f017f0b33d96e8f9968590172013032c2346cf047787a5e17a44b0a1bb3cd0f0160405160405180910390a380925050509392505050565b73ff0000000000000000000000000000000000006381565b5f610800838390501115610f49576040517f08c379a0000000000000000000000000000000000000000000000000000000008152600401610f4090615c17565b60405180910390fd5b610f5286613215565b610f91576040517f08c379a0000000000000000000000000000000000000000000000000000000008152600401610f8890615d90565b60405180910390fd5b5f8585905011610fd6576040517f08c379a0000000000000000000000000000000000000000000000000000000008152600401610fcd90615df8565b60405180910390fd5b3373ffffffffffffffffffffffffffffffffffffffff16600b5f8881526020019081526020015f205f9054906101000a900473ffffffffffffffffffffffffffffffffffffffff1673ffffffffffffffffffffffffffffffffffffffff1614611074576040517f08c379a000000000000000000000000000000000000000000000000000000000815260040161106b90615e60565b60405180910390fd5b5f60055f8881526020019081526020015f205490505f8686905067ffffffffffffffff8111156110a7576110a661561f565b5b6040519080825280602002602001820160405280156110d55781602001602082028036833780820191505090505b5090505f5b878790508110156111845761114b89828a8a858181106110fd576110fc615ba0565b5b905060200281019061110f9190615e8a565b805f019061111d9190615eb1565b8b8b868181106111305761112f615ba0565b5b90506020028101906111429190615e8a565b602001356138fe565b5080836111589190615ed8565b82828151811061116b5761116a615ba0565b5b60200260200101818152505080806001019150506110da565b50877f5ce51a8003915c377679ba533d9dafa0792058b254965697e674272f13f4fdd3826040516111b5919061595b565b60405180910390a25f60085f8a81526020019081526020015f205f9054906101000a900473ffffffffffffffffffffffffffffffffffffffff1690505f73ffffffffffffffffffffffffffffffffffffffff168173ffffffffffffffffffffffffffffffffffffffff1614611295578073ffffffffffffffffffffffffffffffffffffffff166312d5d66f8a858b8b8b8b6040518763ffffffff1660e01b81526004016112679695949392919061612e565b5f604051808303815f87803b15801561127e575f80fd5b505af1158015611290573d5f803e3d5ffd5b505050505b82935050505095945050505050565b73fe0000000000000000000000000000000000000681565b660400000000000081565b7f150ac9b959aee0051e4091f0ef5216d941f590e1c5e7f91cf7635b5c11628c0e5f1b81565b5f6112f782613215565b611336576040517f08c379a000000000000000000000000000000000000000000000000000000000815260040161132d90615d90565b60405180910390fd5b60085f8381526020019081526020015f205f9054906101000a900473ffffffffffffffffffffffffffffffffffffffff169050919050565b6108008282905011156113b6576040517f08c379a00000000000000000000000000000000000000000000000000000000081526004016113ad90615c17565b60405180910390fd5b6113bf85613215565b6113fe576040517f08c379a00000000000000000000000000000000000000000000000000000000081526004016113f590615d90565b60405180910390fd5b3373ffffffffffffffffffffffffffffffffffffffff16600b5f8781526020019081526020015f205f9054906101000a900473ffffffffffffffffffffffffffffffffffffffff1673ffffffffffffffffffffffffffffffffffffffff161461149c576040517f08c379a0000000000000000000000000000000000000000000000000000000008152600401611493906161f3565b60405180910390fd5b6107d0600a5f8781526020019081526020015f2080549050858590506114c29190615ed8565b1115611503576040517f08c379a00000000000000000000000000000000000000000000000000000000081526004016114fa90616281565b60405180910390fd5b5f5b848490508110156115d75760055f8781526020019081526020015f205485858381811061153557611534615ba0565b5b905060200201351061157c576040517f08c379a00000000000000000000000000000000000000000000000000000000081526004016115739061630f565b60405180910390fd5b600a5f8781526020019081526020015f208585838181106115a05761159f615ba0565b5b90506020020135908060018154018082558091505060019003905f5260205f20015f90919091909150558080600101915050611505565b505f60085f8781526020019081526020015f205f9054906101000a900473ffffffffffffffffffffffffffffffffffffffff1690505f73ffffffffffffffffffffffffffffffffffffffff168173ffffffffffffffffffffffffffffffffffffffff16146116ae578073ffffffffffffffffffffffffffffffffffffffff16634af7d1d287878787876040518663ffffffff1660e01b8152600401611680959493929190616395565b5f604051808303815f87803b158015611697575f80fd5b505af11580156116a9573d5f803e3d5ffd5b505050505b505050505050565b6116be614ea1565b6116c783613215565b611706576040517f08c379a00000000000000000000000000000000000000000000000000000000081526004016116fd90615d90565b60405180910390fd5b60025f8481526020019081526020015f205f8381526020019081526020015f206040518060200160405290815f8201805461174090616409565b80601f016020809104026020016040519081016040528092919081815260200182805461176c90616409565b80156117b75780601f1061178e576101008083540402835291602001916117b7565b820191905f5260205f20905b81548152906001019060200180831161179a57829003601f168201915b505050505081525050905092915050565b5f6117d282613215565b611811576040517f08c379a000000000000000000000000000000000000000000000000000000000815260040161180890615d90565b60405180910390fd5b60065f8381526020019081526020015f20549050919050565b5f805f73fe0000000000000000000000000000000000000673ffffffffffffffffffffffffffffffffffffffff16846040516020016118699190616459565b60405160208183030381529060405260405161188591906164ad565b5f60405180830381855afa9150503d805f81146118bd576040519150601f19603f3d011682016040523d82523d5f602084013e6118c2565b606091505b509150915081611907576040517f08c379a00000000000000000000000000000000000000000000000000000000081526004016118fe90616533565b60405180910390fd5b8080602001905181019061191b9190616565565b92505050919050565b61080082829050111561196c576040517f08c379a000000000000000000000000000000000000000000000000000000000815260040161196390615c17565b60405180910390fd5b600b5f8581526020019081526020015f205f9054906101000a900473ffffffffffffffffffffffffffffffffffffffff1673ffffffffffffffffffffffffffffffffffffffff163373ffffffffffffffffffffffffffffffffffffffff1614611a0a576040517f08c379a0000000000000000000000000000000000000000000000000000000008152600401611a0190616600565b60405180910390fd5b5f60065f8681526020019081526020015f205411611a5d576040517f08c379a0000000000000000000000000000000000000000000000000000000008152600401611a549061668e565b60405180910390fd5b5f600d5f8681526020019081526020015f205403611a8c5743600d5f8681526020019081526020015f20819055505b5f600a5f8681526020019081526020015f2090505f818054905067ffffffffffffffff811115611abf57611abe61561f565b5b604051908082528060200260200182016040528015611aed5781602001602082028036833780820191505090505b5090505f5b8151811015611b77578260018480549050611b0d9190615b6d565b81548110611b1e57611b1d615ba0565b5b905f5260205f200154828281518110611b3a57611b39615ba0565b5b60200260200101818152505082805480611b5757611b566166ac565b5b600190038181905f5260205f20015f905590558080600101915050611af2565b50611b828682613aab565b857fd22bb0ee05b8ca92312459c76223d3b9bc1bd96fb6c9b18e637ededf92d8117482604051611bb2919061595b565b60405180910390a260065f8781526020019081526020015f205460095f8881526020019081526020015f20819055505f5443611bee9190615ed8565b851015611c30576040517f08c379a0000000000000000000000000000000000000000000000000000000008152600401611c279061676f565b60405180910390fd5b8460075f8881526020019081526020015f20819055505f60065f8881526020019081526020015f205403611cb857857f323c29bc8d678a5d987b90a321982d10b9a91bcad071a9e445879497bf0e68e760405160405180910390a25f600d5f8881526020019081526020015f20819055505f60075f8881526020019081526020015f20819055505b5f60085f8881526020019081526020015f205f9054906101000a900473ffffffffffffffffffffffffffffffffffffffff1690505f73ffffffffffffffffffffffffffffffffffffffff168173ffffffffffffffffffffffffffffffffffffffff1614611db0578073ffffffffffffffffffffffffffffffffffffffff1663aa27ebcc8860075f8b81526020019081526020015f205460065f8c81526020019081526020015f205489896040518663ffffffff1660e01b8152600401611d8295949392919061678d565b5f604051808303815f87803b158015611d99575f80fd5b505af1158015611dab573d5f803e3d5ffd5b505050505b867fc099ffec4e3e773644a4d1dda368c46af853a0eeb15babde217f53a657396e1e8760065f8b81526020019081526020015f2054604051611df39291906167d9565b60405180910390a250505050505050565b5f81565b5f80611e1383613215565b611e52576040517f08c379a0000000000000000000000000000000000000000000000000000000008152600401611e4990615d90565b60405180910390fd5b600b5f8481526020019081526020015f205f9054906101000a900473ffffffffffffffffffffffffffffffffffffffff16600c5f8581526020019081526020015f205f9054906101000a900473ffffffffffffffffffffffffffffffffffffffff1691509150915091565b5f611ec783613215565b8015611ee3575060055f8481526020019081526020015f205482105b8015611f0e57505f60035f8581526020019081526020015f205f8481526020019081526020015f2054115b905092915050565b5f8060095f8581526020019081526020015f20546020611f369190616800565b90505f80611f42611f99565b91509150611f6f85838386600d5f8c81526020019081526020015f205443611f6a9190615b6d565b613b6a565b935050505092915050565b611f82613de7565b611f8b82613ecd565b611f958282613ed8565b5050565b5f805f73a2aa501b19aff244d90cc15a4cf739d2725b572973ffffffffffffffffffffffffffffffffffffffff1663a4ae35e07f150ac9b959aee0051e4091f0ef5216d941f590e1c5e7f91cf7635b5c11628c0e5f1b620151806040518363ffffffff1660e01b8152600401612010929190616841565b608060405180830381865afa15801561202b573d5f803e3d5ffd5b505050506040513d601f19601f8201168201806040525081019061204f919061696b565b90505f815f015160070b13612099576040517f08c379a000000000000000000000000000000000000000000000000000000000815260040161209090616a06565b60405180910390fd5b805f0151816040015192509250509091565b5f6120b4613ff6565b7f360894a13ba1a3210667c828492db98dca3e2076cc3735a920a3ca505d382bbc5f1b905090565b6201518081565b73a2aa501b19aff244d90cc15a4cf739d2725b572981565b5f61210582613215565b612144576040517f08c379a000000000000000000000000000000000000000000000000000000000815260040161213b90615d90565b60405180910390fd5b60075f8381526020019081526020015f20549050919050565b61216682613215565b6121a5576040517f08c379a000000000000000000000000000000000000000000000000000000000815260040161219c90615d90565b60405180910390fd5b5f600b5f8481526020019081526020015f205f9054906101000a900473ffffffffffffffffffffffffffffffffffffffff1690503373ffffffffffffffffffffffffffffffffffffffff168173ffffffffffffffffffffffffffffffffffffffff1614612247576040517f08c379a000000000000000000000000000000000000000000000000000000000815260040161223e90616a94565b60405180910390fd5b8173ffffffffffffffffffffffffffffffffffffffff168173ffffffffffffffffffffffffffffffffffffffff16036122b257600c5f8481526020019081526020015f205f6101000a81549073ffffffffffffffffffffffffffffffffffffffff0219169055612302565b81600c5f8581526020019081526020015f205f6101000a81548173ffffffffffffffffffffffffffffffffffffffff021916908373ffffffffffffffffffffffffffffffffffffffff1602179055505b505050565b606061231282613215565b612351576040517f08c379a000000000000000000000000000000000000000000000000000000000815260040161234890615d90565b60405180910390fd5b5f600a5f8481526020019081526020015f2090505f818054905067ffffffffffffffff8111156123845761238361561f565b5b6040519080825280602002602001820160405280156123b25781602001602082028036833780820191505090505b5090505f5b828054905081101561240b578281815481106123d6576123d5615ba0565b5b905f5260205f2001548282815181106123f2576123f1615ba0565b5b60200260200101818152505080806001019150506123b7565b508092505050919050565b61241e61407d565b6124275f614104565b565b5f8061244560055f8681526020019081526020015f20546134a0565b6101006124529190615b6d565b90505f61247d85600160095f8981526020019081526020015f20546124779190615b6d565b846135c9565b9050600160035f8781526020019081526020015f205f835f015181526020019081526020015f20546124af9190615b6d565b8160200151146124f4576040517f08c379a00000000000000000000000000000000000000000000000000000000081526004016124eb90616b22565b60405180910390fd5b6124fe8585611ebd565b801561250d5750805f01518411155b9250505092915050565b61080082829050111561255f576040517f08c379a000000000000000000000000000000000000000000000000000000000815260040161255690615c17565b60405180910390fd5b60015f9054906101000a900467ffffffffffffffff1667ffffffffffffffff1683106125c0576040517f08c379a00000000000000000000000000000000000000000000000000000000081526004016125b790616b8a565b60405180910390fd5b3373ffffffffffffffffffffffffffffffffffffffff16600b5f8581526020019081526020015f205f9054906101000a900473ffffffffffffffffffffffffffffffffffffffff1673ffffffffffffffffffffffffffffffffffffffff161461265e576040517f08c379a000000000000000000000000000000000000000000000000000000000815260040161265590616c18565b60405180910390fd5b5f60065f8581526020019081526020015f205490505f60065f8681526020019081526020015f20819055505f600b5f8681526020019081526020015f205f6101000a81548173ffffffffffffffffffffffffffffffffffffffff021916908373ffffffffffffffffffffffffffffffffffffffff1602179055505f60075f8681526020019081526020015f20819055505f600d5f8681526020019081526020015f20819055505f60085f8681526020019081526020015f205f9054906101000a900473ffffffffffffffffffffffffffffffffffffffff1690505f73ffffffffffffffffffffffffffffffffffffffff168173ffffffffffffffffffffffffffffffffffffffff16146127d8578073ffffffffffffffffffffffffffffffffffffffff166326c249e3868487876040518563ffffffff1660e01b81526004016127aa9493929190616c36565b5f604051808303815f87803b1580156127c1575f80fd5b505af11580156127d3573d5f803e3d5ffd5b505050505b847f589e9a441b5bddda77c4ab647b0108764a9cc1a7f655aa9b7bc50b8bdfab8673836040516128089190614f24565b60405180910390a25050505050565b5f61282182613215565b612860576040517f08c379a000000000000000000000000000000000000000000000000000000000815260040161285790615d90565b60405180910390fd5b60095f8381526020019081526020015f20549050919050565b5f806128836141d5565b9050805f015f9054906101000a900473ffffffffffffffffffffffffffffffffffffffff1691505090565b5f60015f9054906101000a900467ffffffffffffffff16905090565b5f6128d483613215565b612913576040517f08c379a000000000000000000000000000000000000000000000000000000000815260040161290a90615d90565b60405180910390fd5b60035f8481526020019081526020015f205f8381526020019081526020015f2054905092915050565b6107d081565b6040518060400160405280600581526020017f352e302e3000000000000000000000000000000000000000000000000000000081525081565b602081565b5f61298a82613215565b6129c9576040517f08c379a00000000000000000000000000000000000000000000000000000000081526004016129c090615d90565b60405180910390fd5b60055f8381526020019081526020015f20549050919050565b6129eb81613215565b612a2a576040517f08c379a0000000000000000000000000000000000000000000000000000000008152600401612a2190615d90565b60405180910390fd5b3373ffffffffffffffffffffffffffffffffffffffff16600c5f8381526020019081526020015f205f9054906101000a900473ffffffffffffffffffffffffffffffffffffffff1673ffffffffffffffffffffffffffffffffffffffff1614612ac8576040517f08c379a0000000000000000000000000000000000000000000000000000000008152600401612abf90616ce4565b60405180910390fd5b5f600b5f8381526020019081526020015f205f9054906101000a900473ffffffffffffffffffffffffffffffffffffffff16905033600b5f8481526020019081526020015f205f6101000a81548173ffffffffffffffffffffffffffffffffffffffff021916908373ffffffffffffffffffffffffffffffffffffffff160217905550600c5f8381526020019081526020015f205f6101000a81549073ffffffffffffffffffffffffffffffffffffffff02191690553373ffffffffffffffffffffffffffffffffffffffff168173ffffffffffffffffffffffffffffffffffffffff16837fd3273037b635678293ef0c076bd77af13760e75e12806d1db237616d03c3a76660405160405180910390a45050565b5f81565b612be961407d565b5f73ffffffffffffffffffffffffffffffffffffffff168173ffffffffffffffffffffffffffffffffffffffff1603612c59575f6040517f1e4fbdf7000000000000000000000000000000000000000000000000000000008152600401612c509190615255565b60405180910390fd5b612c6281614104565b50565b5f5a9050600b5f8581526020019081526020015f205f9054906101000a900473ffffffffffffffffffffffffffffffffffffffff1673ffffffffffffffffffffffffffffffffffffffff163373ffffffffffffffffffffffffffffffffffffffff1614612d07576040517f08c379a0000000000000000000000000000000000000000000000000000000008152600401612cfe90616600565b60405180910390fd5b5f60075f8681526020019081526020015f2054905080431015612d5f576040517f08c379a0000000000000000000000000000000000000000000000000000000008152600401612d5690616d4c565b60405180910390fd5b5f8484905011612da4576040517f08c379a0000000000000000000000000000000000000000000000000000000008152600401612d9b90616db4565b60405180910390fd5b5f8103612de6576040517f08c379a0000000000000000000000000000000000000000000000000000000008152600401612ddd90616e1c565b60405180910390fd5b5f8484905067ffffffffffffffff811115612e0457612e0361561f565b5b604051908082528060200260200182016040528015612e3d57816020015b612e2a614e89565b815260200190600190039081612e225790505b5090505f612e4a876141fc565b90505f60095f8981526020019081526020015f205490505f612e7c60055f8b81526020019081526020015f20546134a0565b610100612e899190615b6d565b90505f5b888890508167ffffffffffffffff16101561308b575f848b83604051602001612eb893929190616e6e565b60405160208183030381529060405290505f8482805190602001205f1c612edf9190616ed7565b9050612eec8c82866135c9565b878467ffffffffffffffff1681518110612f0957612f08615ba0565b5b60200260200101819052505f612f4e612f498e8a8767ffffffffffffffff1681518110612f3957612f38615ba0565b5b60200260200101515f01516116b6565b61421e565b90505f6130328d8d8767ffffffffffffffff16818110612f7157612f70615ba0565b5b9050602002810190612f839190616f07565b8060200190612f929190616f2e565b808060200260200160405190810160405280939291908181526020018383602002808284375f81840152601f19601f82011690508083019250505050505050838f8f8967ffffffffffffffff16818110612fef57612fee615ba0565b5b90506020028101906130019190616f07565b5f01358c8967ffffffffffffffff168151811061302157613020615ba0565b5b602002602001015160200151614360565b905080613074576040517f08c379a000000000000000000000000000000000000000000000000000000000815260040161306b90616fda565b60405180910390fd5b50505050808061308390615c9d565b915050612e8d565b505f610514602061309c8b8b614378565b6130a69190615ed8565b6130b09190616800565b5a886130bc9190615b6d565b6130c69190615ed8565b90506130d28a826143fd565b5f60085f8c81526020019081526020015f205f9054906101000a900473ffffffffffffffffffffffffffffffffffffffff1690505f73ffffffffffffffffffffffffffffffffffffffff168173ffffffffffffffffffffffffffffffffffffffff16146131ba578073ffffffffffffffffffffffffffffffffffffffff1663356de02b8c60065f8f81526020019081526020015f2054888e8e90506040518563ffffffff1660e01b815260040161318c9493929190616ff8565b5f604051808303815f87803b1580156131a3575f80fd5b505af11580156131b5573d5f803e3d5ffd5b505050505b43600d5f8d81526020019081526020015f20819055508a7f1acf7df9f0c1b0208c23be6178950c0273f89b766805a2c0bd1e53d25c700e5087604051613200919061511a565b60405180910390a25050505050505050505050565b5f60015f9054906101000a900467ffffffffffffffff1667ffffffffffffffff16821080156132a057505f73ffffffffffffffffffffffffffffffffffffffff16600b5f8481526020019081526020015f205f9054906101000a900473ffffffffffffffffffffffffffffffffffffffff1673ffffffffffffffffffffffffffffffffffffffff1614155b9050919050565b5f8054905090565b5f6132b982613215565b6132f8576040517f08c379a00000000000000000000000000000000000000000000000000000000081526004016132ef90615d90565b60405180910390fd5b600d5f8381526020019081526020015f20549050919050565b5f61331a61450d565b90505f815f0160089054906101000a900460ff161590505f825f015f9054906101000a900467ffffffffffffffff1690505f808267ffffffffffffffff161480156133625750825b90505f60018367ffffffffffffffff1614801561339557505f3073ffffffffffffffffffffffffffffffffffffffff163b145b9050811580156133a3575080155b156133da576040517ff92ee8a900000000000000000000000000000000000000000000000000000000815260040160405180910390fd5b6001855f015f6101000a81548167ffffffffffffffff021916908367ffffffffffffffff1602179055508315613427576001855f0160086101000a81548160ff0219169083151502179055505b61343033614534565b613438614548565b855f819055508315613498575f855f0160086101000a81548160ff0219169083151502179055507fc7f505b2f371ae2175ee4913f4499e1f2633a7b5936321eed1cdaeb6115181d2600160405161348f9190617074565b60405180910390a15b505050505050565b5f8061010090505f608084901c90505f81146134c9576080826134c39190615b6d565b91508093505b604084901c90505f81146134ea576040826134e49190615b6d565b91508093505b602084901c90505f811461350b576020826135059190615b6d565b91508093505b601084901c90505f811461352c576010826135269190615b6d565b91508093505b600884901c90505f811461354d576008826135479190615b6d565b91508093505b600484901c90505f811461356e576004826135689190615b6d565b91508093505b600284901c90505f811461358f576002826135899190615b6d565b91508093505b600184901c90505f81146135b3576002826135aa9190615b6d565b925050506135c4565b83826135bf9190615b6d565b925050505b919050565b6135d1614e89565b60065f8581526020019081526020015f20548310613624576040517f08c379a000000000000000000000000000000000000000000000000000000000815260040161361b906170d7565b60405180910390fd5b5f6001836001901b6136369190615b6d565b90505f80808590505b5f81111561373b5760055f8981526020019081526020015f205484106136825760018161366c9190615b6d565b6001901b8461367b9190615b6d565b9350613728565b60045f8981526020019081526020015f205f8581526020019081526020015f2054836136ae9190615ed8565b91508682116137085760045f8981526020019081526020015f205f8581526020019081526020015f2054836136e39190615ed8565b92506001816136f29190615b6d565b6001901b846137019190615ed8565b9350613727565b6001816137159190615b6d565b6001901b846137249190615b6d565b93505b5b8080613733906170f5565b91505061363f565b5060045f8881526020019081526020015f205f8481526020019081526020015f2054826137689190615ed8565b90508581116137a75760405180604001604052806001856137899190615ed8565b8152602001828861379a9190615b6d565b81525093505050506137cd565b604051806040016040528084815260200183886137c49190615b6d565b81525093505050505b9392505050565b5f600a6001670de0b6b3a76400006137ec9190616800565b6137f6919061711c565b905090565b8034101561383e576040517f08c379a000000000000000000000000000000000000000000000000000000000815260040161383590617196565b60405180910390fd5b5f73ff0000000000000000000000000000000000006373ffffffffffffffffffffffffffffffffffffffff1682604051613877906171d7565b5f6040518083038185875af1925050503d805f81146138b1576040519150601f19603f3d011682016040523d82523d5f602084013e6138b6565b606091505b50509050806138fa576040517f08c379a00000000000000000000000000000000000000000000000000000000081526004016138f190617235565b60405180910390fd5b5050565b5f8060208361390d9190616ed7565b1461394f57836040517fc7b67cf3000000000000000000000000000000000000000000000000000000008152600401613946919061729d565b60405180910390fd5b5f820361399357836040517fc7b67cf300000000000000000000000000000000000000000000000000000000815260040161398a9190617313565b60405180910390fd5b66040000000000008211156139df57836040517fc7b67cf30000000000000000000000000000000000000000000000000000000081526004016139d69190617389565b60405180910390fd5b5f6020836139ed919061711c565b90505f60055f8881526020019081526020015f205f815480929190613a11906173b5565b919050559050613a22878383614552565b8460025f8981526020019081526020015f205f8381526020019081526020015f208181613a4f91906176fc565b9050508160035f8981526020019081526020015f205f8381526020019081526020015f20819055508160065f8981526020019081526020015f205f828254613a979190615ed8565b925050819055508092505050949350505050565b613ab482613215565b613af3576040517f08c379a0000000000000000000000000000000000000000000000000000000008152600401613aea90615d90565b60405180910390fd5b5f805b8251811015613b3d57613b2384848381518110613b1657613b15615ba0565b5b60200260200101516145ed565b82613b2e9190615ed8565b91508080600101915050613af6565b508060065f8581526020019081526020015f205f828254613b5e9190615b6d565b92505081905550505050565b5f80861180613b7857505f48145b613bb7576040517f08c379a0000000000000000000000000000000000000000000000000000000008152600401613bae9061777a565b60405180910390fd5b5f8567ffffffffffffffff1611613c03576040517f08c379a0000000000000000000000000000000000000000000000000000000008152600401613bfa90617808565b60405180910390fd5b5f8311613c45576040517f08c379a0000000000000000000000000000000000000000000000000000000008152600401613c3c90617896565b60405180910390fd5b5f808560030b12613cc35784600a613c5d91906179f2565b8667ffffffffffffffff166201518065010000000000613c7d9190616800565b613c879190616800565b613c919190616800565b6001670de0b6b3a7640000613ca69190616800565b6002613cb29190616800565b613cbc919061711c565b9050613d3b565b8567ffffffffffffffff166201518065010000000000613ce39190616800565b613ced9190616800565b85613cf790617a3c565b600a613d0391906179f2565b6001670de0b6b3a7640000613d189190616800565b6002613d249190616800565b613d2e9190616800565b613d38919061711c565b90505b5f848483613d499190616800565b613d539190616800565b90505f6064600583613d659190616800565b613d6f919061711c565b90505f6064600484613d819190616800565b613d8b919061711c565b9050818a10613da0575f945050505050613dde565b808a10613dbe578982613db39190615b6d565b945050505050613dde565b6064600184613dcd9190616800565b613dd7919061711c565b9450505050505b95945050505050565b7f000000000000000000000000000000000000000000000000000000000000000073ffffffffffffffffffffffffffffffffffffffff163073ffffffffffffffffffffffffffffffffffffffff161480613e9457507f000000000000000000000000000000000000000000000000000000000000000073ffffffffffffffffffffffffffffffffffffffff16613e7b61467b565b73ffffffffffffffffffffffffffffffffffffffff1614155b15613ecb576040517fe07c8dba00000000000000000000000000000000000000000000000000000000815260040160405180910390fd5b565b613ed561407d565b50565b8173ffffffffffffffffffffffffffffffffffffffff166352d1902d6040518163ffffffff1660e01b8152600401602060405180830381865afa925050508015613f4057506040513d601f19601f82011682018060405250810190613f3d9190617aac565b60015b613f8157816040517f4c9c8ce3000000000000000000000000000000000000000000000000000000008152600401613f789190615255565b60405180910390fd5b7f360894a13ba1a3210667c828492db98dca3e2076cc3735a920a3ca505d382bbc5f1b8114613fe757806040517faa1d49a4000000000000000000000000000000000000000000000000000000008152600401613fde919061536c565b60405180910390fd5b613ff183836146ce565b505050565b7f000000000000000000000000000000000000000000000000000000000000000073ffffffffffffffffffffffffffffffffffffffff163073ffffffffffffffffffffffffffffffffffffffff161461407b576040517fe07c8dba00000000000000000000000000000000000000000000000000000000815260040160405180910390fd5b565b614085614740565b73ffffffffffffffffffffffffffffffffffffffff166140a3612879565b73ffffffffffffffffffffffffffffffffffffffff1614614102576140c6614740565b6040517f118cdaa70000000000000000000000000000000000000000000000000000000081526004016140f99190615255565b60405180910390fd5b565b5f61410d6141d5565b90505f815f015f9054906101000a900473ffffffffffffffffffffffffffffffffffffffff16905082825f015f6101000a81548173ffffffffffffffffffffffffffffffffffffffff021916908373ffffffffffffffffffffffffffffffffffffffff1602179055508273ffffffffffffffffffffffffffffffffffffffff168173ffffffffffffffffffffffffffffffffffffffff167f8be0079c531659141344cd1fd0a4f28419497f9722a3daafe3b4186f6b6457e060405160405180910390a3505050565b5f7f9016d09d72d40fdae2fd8ceac6b6234c7706214fd39c1cd1e609a0528c199300905090565b5f61421760075f8481526020019081526020015f205461182a565b9050919050565b5f6020825f0151511015614267576040517f08c379a000000000000000000000000000000000000000000000000000000000815260040161425e90617b21565b60405180910390fd5b5f602067ffffffffffffffff8111156142835761428261561f565b5b6040519080825280601f01601f1916602001820160405280156142b55781602001600182028036833780820191505090505b5090505f5b602081101561434d57835f0151816020865f0151516142d99190615b6d565b6142e39190615ed8565b815181106142f4576142f3615ba0565b5b602001015160f81c60f81b82828151811061431257614311615ba0565b5b60200101907effffffffffffffffffffffffffffffffffffffffffffffffffffffffffffff191690815f1a90535080806001019150506142ba565b508061435890617b62565b915050919050565b5f8361436d868585614747565b149050949350505050565b5f805f90505f5b848490508110156143f257602085858381811061439f5761439e615ba0565b5b90506020028101906143b19190616f07565b80602001906143c09190616f2e565b90506143cc9190616800565b60406143d89190615ed8565b826143e39190615ed8565b9150808060010191505061437f565b508091505092915050565b5f488261440a9190616800565b90505f60095f8581526020019081526020015f2054602061442b9190616800565b90505f80614437611f99565b915091505f61446585848487600d5f8d81526020019081526020015f2054436144609190615b6d565b613b6a565b9050614470816137fb565b803411156144c8573373ffffffffffffffffffffffffffffffffffffffff166108fc823461449e9190615b6d565b90811502906040515f60405180830381858888f193505050501580156144c6573d5f803e3d5ffd5b505b867f928bbf5188022bf8b9a0e59f5e81e179d0a4c729bdba2856ac971af2063fbf2b8285856040516144fc93929190617bc8565b60405180910390a250505050505050565b5f7ff0c57e16840df040f15088dc2f81fe391c3923bec73e23a9662efc9c229c6a00905090565b61453c6147cf565b6145458161480f565b50565b6145506147cf565b565b5f8190505f61456082614893565b90505f8490505f5b828110156145bf575f816001901b856145819190615b6d565b905060045f8981526020019081526020015f205f8281526020019081526020015f2054836145af9190615ed8565b9250508080600101915050614568565b508060045f8881526020019081526020015f205f8681526020019081526020015f2081905550505050505050565b5f8060035f8581526020019081526020015f205f8481526020019081526020015f2054905061461d8484836148b0565b60035f8581526020019081526020015f205f8481526020019081526020015f205f905560025f8581526020019081526020015f205f8481526020019081526020015f205f8082015f61466f9190614eb4565b50508091505092915050565b5f6146a77f360894a13ba1a3210667c828492db98dca3e2076cc3735a920a3ca505d382bbc5f1b61496b565b5f015f9054906101000a900473ffffffffffffffffffffffffffffffffffffffff16905090565b6146d782614974565b8173ffffffffffffffffffffffffffffffffffffffff167fbc7cd75a20ee27fd9adebab32041f755214dbc6bffa90cc0225b39da2e5c2d3b60405160405180910390a25f815111156147335761472d8282614a3d565b5061473c565b61473b614abd565b5b5050565b5f33905090565b5f808390505f5b85518110156147c3575f86828151811061476b5761476a615ba0565b5b602002602001015190505f6002866147839190616ed7565b03614799576147928382614af9565b92506147a6565b6147a38184614af9565b92505b6002856147b3919061711c565b945050808060010191505061474e565b50809150509392505050565b6147d7614b0c565b61480d576040517fd7e6bcf800000000000000000000000000000000000000000000000000000000815260040160405180910390fd5b565b6148176147cf565b5f73ffffffffffffffffffffffffffffffffffffffff168173ffffffffffffffffffffffffffffffffffffffff1603614887575f6040517f1e4fbdf700000000000000000000000000000000000000000000000000000000815260040161487e9190615255565b60405180910390fd5b61489081614104565b50565b5f6148a96001836148a49190615ed8565b614b2a565b9050919050565b5f6148cb60055f8681526020019081526020015f20546134a0565b6101006148d89190615b6d565b90505f6148e484614893565b90505b818111158015614907575060055f8681526020019081526020015f205484105b15614964578260045f8781526020019081526020015f205f8681526020019081526020015f205f82825461493b9190615b6d565b92505081905550806001901b846149529190615ed8565b935061495d84614893565b90506148e7565b5050505050565b5f819050919050565b5f8173ffffffffffffffffffffffffffffffffffffffff163b036149cf57806040517f4c9c8ce30000000000000000000000000000000000000000000000000000000081526004016149c69190615255565b60405180910390fd5b806149fb7f360894a13ba1a3210667c828492db98dca3e2076cc3735a920a3ca505d382bbc5f1b61496b565b5f015f6101000a81548173ffffffffffffffffffffffffffffffffffffffff021916908373ffffffffffffffffffffffffffffffffffffffff16021790555050565b60605f808473ffffffffffffffffffffffffffffffffffffffff1684604051614a6691906164ad565b5f60405180830381855af49150503d805f8114614a9e576040519150601f19603f3d011682016040523d82523d5f602084013e614aa3565b606091505b5091509150614ab3858383614d6f565b9250505092915050565b5f341115614af7576040517fb398979f00000000000000000000000000000000000000000000000000000000815260040160405180910390fd5b565b5f614b048383614dfc565b905092915050565b5f614b1561450d565b5f0160089054906101000a900460ff16905090565b5f7f7fffffffffffffffffffffffffffffffffffffffffffffffffffffffffffffff821115614b8e576040517f08c379a0000000000000000000000000000000000000000000000000000000008152600401614b8590617c6d565b60405180910390fd5b5f61010090505f83614b9f90617c94565b905083811690505f8114614bbc578180614bb8906170f5565b9250505b5f6fffffffffffffffffffffffffffffffff821614614be557608082614be29190615b6d565b91505b5f77ffffffffffffffff0000000000000000ffffffffffffffff821614614c1657604082614c139190615b6d565b91505b5f7bffffffff00000000ffffffff00000000ffffffff00000000ffffffff821614614c4b57602082614c489190615b6d565b91505b5f7dffff0000ffff0000ffff0000ffff0000ffff0000ffff0000ffff0000ffff821614614c8257601082614c7f9190615b6d565b91505b5f7eff00ff00ff00ff00ff00ff00ff00ff00ff00ff00ff00ff00ff00ff00ff00ff821614614cba57600882614cb79190615b6d565b91505b5f7f0f0f0f0f0f0f0f0f0f0f0f0f0f0f0f0f0f0f0f0f0f0f0f0f0f0f0f0f0f0f0f0f821614614cf357600482614cf09190615b6d565b91505b5f7f3333333333333333333333333333333333333333333333333333333333333333821614614d2c57600282614d299190615b6d565b91505b5f7f5555555555555555555555555555555555555555555555555555555555555555821614614d6557600182614d629190615b6d565b91505b8192505050919050565b606082614d8457614d7f82614e45565b614df4565b5f8251148015614daa57505f8473ffffffffffffffffffffffffffffffffffffffff163b145b15614dec57836040517f9996b315000000000000000000000000000000000000000000000000000000008152600401614de39190615255565b60405180910390fd5b819050614df5565b5b9392505050565b5f825f528160205260205f60405f60025afa614e16575f80fd5b5f5190507fffffffffffffffffffffffffffffffffffffffffffffffffffffffffffffff3f8116905092915050565b5f81511115614e575780518082602001fd5b6040517fd6bda27500000000000000000000000000000000000000000000000000000000815260040160405180910390fd5b60405180604001604052805f81526020015f81525090565b6040518060200160405280606081525090565b508054614ec090616409565b5f825580601f10614ed15750614eee565b601f0160209004905f5260205f2090810190614eed9190614ef1565b5b50565b5b80821115614f08575f815f905550600101614ef2565b5090565b5f819050919050565b614f1e81614f0c565b82525050565b5f602082019050614f375f830184614f15565b92915050565b5f604051905090565b5f80fd5b5f80fd5b614f5781614f0c565b8114614f61575f80fd5b50565b5f81359050614f7281614f4e565b92915050565b5f80fd5b5f80fd5b5f80fd5b5f8083601f840112614f9957614f98614f78565b5b8235905067ffffffffffffffff811115614fb657614fb5614f7c565b5b602083019150836020820283011115614fd257614fd1614f80565b5b9250929050565b5f805f60408486031215614ff057614fef614f46565b5b5f614ffd86828701614f64565b935050602084013567ffffffffffffffff81111561501e5761501d614f4a565b5b61502a86828701614f84565b92509250509250925092565b5f81519050919050565b5f82825260208201905092915050565b5f819050602082019050919050565b61506881614f0c565b82525050565b604082015f8201516150825f85018261505f565b506020820151615095602085018261505f565b50505050565b5f6150a6838361506e565b60408301905092915050565b5f602082019050919050565b5f6150c882615036565b6150d28185615040565b93506150dd83615050565b805f5b8381101561510d5781516150f4888261509b565b97506150ff836150b2565b9250506001810190506150e0565b5085935050505092915050565b5f6020820190508181035f83015261513281846150be565b905092915050565b5f73ffffffffffffffffffffffffffffffffffffffff82169050919050565b5f6151638261513a565b9050919050565b61517381615159565b811461517d575f80fd5b50565b5f8135905061518e8161516a565b92915050565b5f8083601f8401126151a9576151a8614f78565b5b8235905067ffffffffffffffff8111156151c6576151c5614f7c565b5b6020830191508360018202830111156151e2576151e1614f80565b5b9250929050565b5f805f60408486031215615200576151ff614f46565b5b5f61520d86828701615180565b935050602084013567ffffffffffffffff81111561522e5761522d614f4a565b5b61523a86828701615194565b92509250509250925092565b61524f81615159565b82525050565b5f6020820190506152685f830184615246565b92915050565b5f8083601f84011261528357615282614f78565b5b8235905067ffffffffffffffff8111156152a05761529f614f7c565b5b6020830191508360208202830111156152bc576152bb614f80565b5b9250929050565b5f805f805f606086880312156152dc576152db614f46565b5b5f6152e988828901614f64565b955050602086013567ffffffffffffffff81111561530a57615309614f4a565b5b6153168882890161526e565b9450945050604086013567ffffffffffffffff81111561533957615338614f4a565b5b61534588828901615194565b92509250509295509295909350565b5f819050919050565b61536681615354565b82525050565b5f60208201905061537f5f83018461535d565b92915050565b5f6020828403121561539a57615399614f46565b5b5f6153a784828501614f64565b91505092915050565b5f805f805f606086880312156153c9576153c8614f46565b5b5f6153d688828901614f64565b955050602086013567ffffffffffffffff8111156153f7576153f6614f4a565b5b61540388828901614f84565b9450945050604086013567ffffffffffffffff81111561542657615425614f4a565b5b61543288828901615194565b92509250509295509295909350565b5f806040838503121561545757615456614f46565b5b5f61546485828601614f64565b925050602061547585828601614f64565b9150509250929050565b5f81519050919050565b5f82825260208201905092915050565b5f5b838110156154b657808201518184015260208101905061549b565b5f8484015250505050565b5f601f19601f8301169050919050565b5f6154db8261547f565b6154e58185615489565b93506154f5818560208601615499565b6154fe816154c1565b840191505092915050565b5f602083015f8301518482035f86015261552382826154d1565b9150508091505092915050565b5f6020820190508181035f8301526155488184615509565b905092915050565b5f805f806060858703121561556857615567614f46565b5b5f61557587828801614f64565b945050602061558687828801614f64565b935050604085013567ffffffffffffffff8111156155a7576155a6614f4a565b5b6155b387828801615194565b925092505092959194509250565b5f6040820190506155d45f830185615246565b6155e16020830184615246565b9392505050565b5f8115159050919050565b6155fc816155e8565b82525050565b5f6020820190506156155f8301846155f3565b92915050565b5f80fd5b7f4e487b71000000000000000000000000000000000000000000000000000000005f52604160045260245ffd5b615655826154c1565b810181811067ffffffffffffffff821117156156745761567361561f565b5b80604052505050565b5f615686614f3d565b9050615692828261564c565b919050565b5f67ffffffffffffffff8211156156b1576156b061561f565b5b6156ba826154c1565b9050602081019050919050565b828183375f83830152505050565b5f6156e76156e284615697565b61567d565b9050828152602081018484840111156157035761570261561b565b5b61570e8482856156c7565b509392505050565b5f82601f83011261572a57615729614f78565b5b813561573a8482602086016156d5565b91505092915050565b5f806040838503121561575957615758614f46565b5b5f61576685828601615180565b925050602083013567ffffffffffffffff81111561578757615786614f4a565b5b61579385828601615716565b9150509250929050565b5f67ffffffffffffffff82169050919050565b6157b98161579d565b82525050565b5f8160030b9050919050565b6157d4816157bf565b82525050565b5f6040820190506157ed5f8301856157b0565b6157fa60208301846157cb565b9392505050565b5f819050919050565b5f61582461581f61581a8461513a565b615801565b61513a565b9050919050565b5f6158358261580a565b9050919050565b5f6158468261582b565b9050919050565b6158568161583c565b82525050565b5f60208201905061586f5f83018461584d565b92915050565b5f806040838503121561588b5761588a614f46565b5b5f61589885828601614f64565b92505060206158a985828601615180565b9150509250929050565b5f81519050919050565b5f82825260208201905092915050565b5f819050602082019050919050565b5f6158e7838361505f565b60208301905092915050565b5f602082019050919050565b5f615909826158b3565b61591381856158bd565b935061591e836158cd565b805f5b8381101561594e57815161593588826158dc565b9750615940836158f3565b925050600181019050615921565b5085935050505092915050565b5f6020820190508181035f83015261597381846158ff565b905092915050565b5f805f6040848603121561599257615991614f46565b5b5f61599f86828701614f64565b935050602084013567ffffffffffffffff8111156159c0576159bf614f4a565b5b6159cc86828701615194565b92509250509250925092565b5f6020820190506159eb5f8301846157b0565b92915050565b5f81519050919050565b5f82825260208201905092915050565b5f615a15826159f1565b615a1f81856159fb565b9350615a2f818560208601615499565b615a38816154c1565b840191505092915050565b5f6020820190508181035f830152615a5b8184615a0b565b905092915050565b5f60208284031215615a7857615a77614f46565b5b5f615a8584828501615180565b91505092915050565b5f8083601f840112615aa357615aa2614f78565b5b8235905067ffffffffffffffff811115615ac057615abf614f7c565b5b602083019150836020820283011115615adc57615adb614f80565b5b9250929050565b5f805f60408486031215615afa57615af9614f46565b5b5f615b0786828701614f64565b935050602084013567ffffffffffffffff811115615b2857615b27614f4a565b5b615b3486828701615a8e565b92509250509250925092565b7f4e487b71000000000000000000000000000000000000000000000000000000005f52601160045260245ffd5b5f615b7782614f0c565b9150615b8283614f0c565b9250828203905081811115615b9a57615b99615b40565b5b92915050565b7f4e487b71000000000000000000000000000000000000000000000000000000005f52603260045260245ffd5b7f4578747261206461746120746f6f206c617267650000000000000000000000005f82015250565b5f615c016014836159fb565b9150615c0c82615bcd565b602082019050919050565b5f6020820190508181035f830152615c2e81615bf5565b9050919050565b7f737962696c20666565206e6f74206d65740000000000000000000000000000005f82015250565b5f615c696011836159fb565b9150615c7482615c35565b602082019050919050565b5f6020820190508181035f830152615c9681615c5d565b9050919050565b5f615ca78261579d565b915067ffffffffffffffff8203615cc157615cc0615b40565b5b600182019050919050565b5f82825260208201905092915050565b5f615ce78385615ccc565b9350615cf48385846156c7565b615cfd836154c1565b840190509392505050565b5f606082019050615d1b5f830187614f15565b615d286020830186615246565b8181036040830152615d3b818486615cdc565b905095945050505050565b7f50726f6f6620736574206e6f74206c69766500000000000000000000000000005f82015250565b5f615d7a6012836159fb565b9150615d8582615d46565b602082019050919050565b5f6020820190508181035f830152615da781615d6e565b9050919050565b7f4d75737420616464206174206c65617374206f6e6520726f6f740000000000005f82015250565b5f615de2601a836159fb565b9150615ded82615dae565b602082019050919050565b5f6020820190508181035f830152615e0f81615dd6565b9050919050565b7f4f6e6c7920746865206f776e65722063616e2061646420726f6f7473000000005f82015250565b5f615e4a601c836159fb565b9150615e5582615e16565b602082019050919050565b5f6020820190508181035f830152615e7781615e3e565b9050919050565b5f80fd5b5f80fd5b5f80fd5b5f82356001604003833603038112615ea557615ea4615e7e565b5b80830191505092915050565b5f82356001602003833603038112615ecc57615ecb615e7e565b5b80830191505092915050565b5f615ee282614f0c565b9150615eed83614f0c565b9250828201905080821115615f0557615f04615b40565b5b92915050565b5f82825260208201905092915050565b5f819050919050565b5f80fd5b5f82356001602003833603038112615f4357615f42615f24565b5b82810191505092915050565b5f80fd5b5f80fd5b5f8083356001602003843603038112615f7357615f72615f24565b5b83810192508235915060208301925067ffffffffffffffff821115615f9b57615f9a615f4f565b5b600182023603831315615fb157615fb0615f53565b5b509250929050565b5f615fc48385615489565b9350615fd18385846156c7565b615fda836154c1565b840190509392505050565b5f60208301615ff65f840184615f57565b8583035f870152616008838284615fb9565b925050508091505092915050565b5f6160246020840184614f64565b905092915050565b5f6040830161603d5f840184615f28565b8482035f86015261604e8282615fe5565b91505061605e6020840184616016565b61606b602086018261505f565b508091505092915050565b5f616081838361602c565b905092915050565b5f823560016040038336030381126160a4576160a3615f24565b5b82810191505092915050565b5f602082019050919050565b5f6160c78385615f0b565b9350836020840285016160d984615f1b565b805f5b8781101561611c5784840389526160f38284616089565b6160fd8582616076565b9450616108836160b0565b925060208a019950506001810190506160dc565b50829750879450505050509392505050565b5f6080820190506161415f830189614f15565b61614e6020830188614f15565b81810360408301526161618186886160bc565b90508181036060830152616176818486615cdc565b9050979650505050505050565b7f4f6e6c7920746865206f776e65722063616e207363686564756c652072656d6f5f8201527f76616c206f6620726f6f74730000000000000000000000000000000000000000602082015250565b5f6161dd602c836159fb565b91506161e882616183565b604082019050919050565b5f6020820190508181035f83015261620a816161d1565b9050919050565b7f546f6f206d616e792072656d6f76616c73207761697420666f72206e657874205f8201527f70726f76696e6720706572696f6420746f207363686564756c65000000000000602082015250565b5f61626b603a836159fb565b915061627682616211565b604082019050919050565b5f6020820190508181035f8301526162988161625f565b9050919050565b7f43616e206f6e6c79207363686564756c652072656d6f76616c206f66206578695f8201527f7374696e6720726f6f7473000000000000000000000000000000000000000000602082015250565b5f6162f9602b836159fb565b91506163048261629f565b604082019050919050565b5f6020820190508181035f830152616326816162ed565b9050919050565b5f80fd5b82818337505050565b5f61634583856158bd565b93507f07ffffffffffffffffffffffffffffffffffffffffffffffffffffffffffffff8311156163785761637761632d565b5b602083029250616389838584616331565b82840190509392505050565b5f6060820190506163a85f830188614f15565b81810360208301526163bb81868861633a565b905081810360408301526163d0818486615cdc565b90509695505050505050565b7f4e487b71000000000000000000000000000000000000000000000000000000005f52602260045260245ffd5b5f600282049050600182168061642057607f821691505b602082108103616433576164326163dc565b5b50919050565b5f819050919050565b61645361644e82614f0c565b616439565b82525050565b5f6164648284616442565b60208201915081905092915050565b5f81905092915050565b5f6164878261547f565b6164918185616473565b93506164a1818560208601615499565b80840191505092915050565b5f6164b8828461647d565b915081905092915050565b7f52616e646f6d6e65737320707265636f6d70696c652063616c6c206661696c655f8201527f6400000000000000000000000000000000000000000000000000000000000000602082015250565b5f61651d6021836159fb565b9150616528826164c3565b604082019050919050565b5f6020820190508181035f83015261654a81616511565b9050919050565b5f8151905061655f81614f4e565b92915050565b5f6020828403121561657a57616579614f46565b5b5f61658784828501616551565b91505092915050565b7f6f6e6c7920746865206f776e65722063616e206d6f766520746f206e657874205f8201527f70726f76696e6720706572696f64000000000000000000000000000000000000602082015250565b5f6165ea602e836159fb565b91506165f582616590565b604082019050919050565b5f6020820190508181035f830152616617816165de565b9050919050565b7f63616e206f6e6c792073746172742070726f76696e67206f6e6365206c6561765f8201527f6573206172652061646465640000000000000000000000000000000000000000602082015250565b5f616678602c836159fb565b91506166838261661e565b604082019050919050565b5f6020820190508181035f8301526166a58161666c565b9050919050565b7f4e487b71000000000000000000000000000000000000000000000000000000005f52603160045260245ffd5b7f6368616c6c656e67652065706f6368206d757374206265206174206c656173745f8201527f206368616c6c656e676546696e616c6974792065706f63687320696e2074686560208201527f2066757475726500000000000000000000000000000000000000000000000000604082015250565b5f6167596047836159fb565b9150616764826166d9565b606082019050919050565b5f6020820190508181035f8301526167868161674d565b9050919050565b5f6080820190506167a05f830188614f15565b6167ad6020830187614f15565b6167ba6040830186614f15565b81810360608301526167cd818486615cdc565b90509695505050505050565b5f6040820190506167ec5f830185614f15565b6167f96020830184614f15565b9392505050565b5f61680a82614f0c565b915061681583614f0c565b925082820261682381614f0c565b9150828204841483151761683a57616839615b40565b5b5092915050565b5f6040820190506168545f83018561535d565b6168616020830184614f15565b9392505050565b5f80fd5b5f8160070b9050919050565b6168818161686c565b811461688b575f80fd5b50565b5f8151905061689c81616878565b92915050565b6168ab8161579d565b81146168b5575f80fd5b50565b5f815190506168c6816168a2565b92915050565b6168d5816157bf565b81146168df575f80fd5b50565b5f815190506168f0816168cc565b92915050565b5f6080828403121561690b5761690a616868565b5b616915608061567d565b90505f6169248482850161688e565b5f830152506020616937848285016168b8565b602083015250604061694b848285016168e2565b604083015250606061695f84828501616551565b60608301525092915050565b5f608082840312156169805761697f614f46565b5b5f61698d848285016168f6565b91505092915050565b7f6661696c656420746f2076616c69646174653a207072696365206d75737420625f8201527f652067726561746572207468616e203000000000000000000000000000000000602082015250565b5f6169f06030836159fb565b91506169fb82616996565b604082019050919050565b5f6020820190508181035f830152616a1d816169e4565b9050919050565b7f4f6e6c79207468652063757272656e74206f776e65722063616e2070726f706f5f8201527f73652061206e6577206f776e6572000000000000000000000000000000000000602082015250565b5f616a7e602e836159fb565b9150616a8982616a24565b604082019050919050565b5f6020820190508181035f830152616aab81616a72565b9050919050565b7f6368616c6c656e676552616e6765202d312073686f756c6420616c69676e20775f8201527f697468207468652076657279206c617374206c656166206f66206120726f6f74602082015250565b5f616b0c6040836159fb565b9150616b1782616ab2565b604082019050919050565b5f6020820190508181035f830152616b3981616b00565b9050919050565b7f70726f6f6620736574206964206f7574206f6620626f756e64730000000000005f82015250565b5f616b74601a836159fb565b9150616b7f82616b40565b602082019050919050565b5f6020820190508181035f830152616ba181616b68565b9050919050565b7f4f6e6c7920746865206f776e65722063616e2064656c6574652070726f6f66205f8201527f7365747300000000000000000000000000000000000000000000000000000000602082015250565b5f616c026024836159fb565b9150616c0d82616ba8565b604082019050919050565b5f6020820190508181035f830152616c2f81616bf6565b9050919050565b5f606082019050616c495f830187614f15565b616c566020830186614f15565b8181036040830152616c69818486615cdc565b905095945050505050565b7f4f6e6c79207468652070726f706f736564206f776e65722063616e20636c61695f8201527f6d206f776e657273686970000000000000000000000000000000000000000000602082015250565b5f616cce602b836159fb565b9150616cd982616c74565b604082019050919050565b5f6020820190508181035f830152616cfb81616cc2565b9050919050565b7f7072656d61747572652070726f6f6600000000000000000000000000000000005f82015250565b5f616d36600f836159fb565b9150616d4182616d02565b602082019050919050565b5f6020820190508181035f830152616d6381616d2a565b9050919050565b7f656d7074792070726f6f660000000000000000000000000000000000000000005f82015250565b5f616d9e600b836159fb565b9150616da982616d6a565b602082019050919050565b5f6020820190508181035f830152616dcb81616d92565b9050919050565b7f6e6f206368616c6c656e6765207363686564756c6564000000000000000000005f82015250565b5f616e066016836159fb565b9150616e1182616dd2565b602082019050919050565b5f6020820190508181035f830152616e3381616dfa565b9050919050565b5f8160c01b9050919050565b5f616e5082616e3a565b9050919050565b616e68616e638261579d565b616e46565b82525050565b5f616e798286616442565b602082019150616e898285616442565b602082019150616e998284616e57565b600882019150819050949350505050565b7f4e487b71000000000000000000000000000000000000000000000000000000005f52601260045260245ffd5b5f616ee182614f0c565b9150616eec83614f0c565b925082616efc57616efb616eaa565b5b828206905092915050565b5f82356001604003833603038112616f2257616f21615e7e565b5b80830191505092915050565b5f8083356001602003843603038112616f4a57616f49615e7e565b5b80840192508235915067ffffffffffffffff821115616f6c57616f6b615e82565b5b602083019250602082023603831315616f8857616f87615e86565b5b509250929050565b7f70726f6f6620646964206e6f74207665726966790000000000000000000000005f82015250565b5f616fc46014836159fb565b9150616fcf82616f90565b602082019050919050565b5f6020820190508181035f830152616ff181616fb8565b9050919050565b5f60808201905061700b5f830187614f15565b6170186020830186614f15565b6170256040830185614f15565b6170326060830184614f15565b95945050505050565b5f819050919050565b5f61705e6170596170548461703b565b615801565b61579d565b9050919050565b61706e81617044565b82525050565b5f6020820190506170875f830184617065565b92915050565b7f4c65616620696e646578206f7574206f6620626f756e647300000000000000005f82015250565b5f6170c16018836159fb565b91506170cc8261708d565b602082019050919050565b5f6020820190508181035f8301526170ee816170b5565b9050919050565b5f6170ff82614f0c565b91505f820361711157617110615b40565b5b600182039050919050565b5f61712682614f0c565b915061713183614f0c565b92508261714157617140616eaa565b5b828204905092915050565b7f496e636f72726563742066656520616d6f756e740000000000000000000000005f82015250565b5f6171806014836159fb565b915061718b8261714c565b602082019050919050565b5f6020820190508181035f8301526171ad81617174565b9050919050565b50565b5f6171c25f83616473565b91506171cd826171b4565b5f82019050919050565b5f6171e1826171b7565b9150819050919050565b7f4275726e206661696c65640000000000000000000000000000000000000000005f82015250565b5f61721f600b836159fb565b915061722a826171eb565b602082019050919050565b5f6020820190508181035f83015261724c81617213565b9050919050565b7f53697a65206d7573742062652061206d756c7469706c65206f662033320000005f82015250565b5f617287601d836159fb565b915061729282617253565b602082019050919050565b5f6040820190506172b05f830184614f15565b81810360208301526172c18161727b565b905092915050565b7f53697a65206d7573742062652067726561746572207468616e203000000000005f82015250565b5f6172fd601b836159fb565b9150617308826172c9565b602082019050919050565b5f6040820190506173265f830184614f15565b8181036020830152617337816172f1565b905092915050565b7f526f6f742073697a65206d757374206265206c657373207468616e20325e35305f82015250565b5f6173736020836159fb565b915061737e8261733f565b602082019050919050565b5f60408201905061739c5f830184614f15565b81810360208301526173ad81617367565b905092915050565b5f6173bf82614f0c565b91507fffffffffffffffffffffffffffffffffffffffffffffffffffffffffffffffff82036173f1576173f0615b40565b5b600182019050919050565b5f808335600160200384360303811261741857617417615e7e565b5b80840192508235915067ffffffffffffffff82111561743a57617439615e82565b5b60208301925060018202360383131561745657617455615e86565b5b509250929050565b5f82905092915050565b5f819050815f5260205f209050919050565b5f6020601f8301049050919050565b5f82821b905092915050565b5f600883026174c47fffffffffffffffffffffffffffffffffffffffffffffffffffffffffffffffff82617489565b6174ce8683617489565b95508019841693508086168417925050509392505050565b5f6175006174fb6174f684614f0c565b615801565b614f0c565b9050919050565b5f819050919050565b617519836174e6565b61752d61752582617507565b848454617495565b825550505050565b5f90565b617541617535565b61754c818484617510565b505050565b5b8181101561756f576175645f82617539565b600181019050617552565b5050565b601f8211156175b45761758581617468565b61758e8461747a565b8101602085101561759d578190505b6175b16175a98561747a565b830182617551565b50505b505050565b5f82821c905092915050565b5f6175d45f19846008026175b9565b1980831691505092915050565b5f6175ec83836175c5565b9150826002028217905092915050565b617606838361745e565b67ffffffffffffffff81111561761f5761761e61561f565b5b6176298254616409565b617634828285617573565b5f601f831160018114617661575f841561764f578287013590505b61765985826175e1565b8655506176c0565b601f19841661766f86617468565b5f5b8281101561769657848901358255600182019150602085019450602081019050617671565b868310156176b357848901356176af601f8916826175c5565b8355505b6001600288020188555050505b50505050505050565b6176d48383836175fc565b505050565b5f81015f83016176e981856173fc565b6176f48183866176c9565b505050505050565b61770682826176d9565b5050565b7f6661696c656420746f2076616c69646174653a20657374696d617465642067615f8201527f7320666565206d7573742062652067726561746572207468616e203000000000602082015250565b5f617764603c836159fb565b915061776f8261770a565b604082019050919050565b5f6020820190508181035f83015261779181617758565b9050919050565b7f6661696c656420746f2076616c69646174653a204174746f46494c20707269635f8201527f65206d7573742062652067726561746572207468616e20300000000000000000602082015250565b5f6177f26038836159fb565b91506177fd82617798565b604082019050919050565b5f6020820190508181035f83015261781f816177e6565b9050919050565b7f6661696c656420746f2076616c69646174653a207261772073697a65206d75735f8201527f742062652067726561746572207468616e203000000000000000000000000000602082015250565b5f6178806033836159fb565b915061788b82617826565b604082019050919050565b5f6020820190508181035f8301526178ad81617874565b9050919050565b5f8160011c9050919050565b5f808291508390505b6001851115617909578086048111156178e5576178e4615b40565b5b60018516156178f45780820291505b8081029050617902856178b4565b94506178c9565b94509492505050565b5f8261792157600190506179dc565b8161792e575f90506179dc565b8160018114617944576002811461794e5761797d565b60019150506179dc565b60ff8411156179605761795f615b40565b5b8360020a91508482111561797757617976615b40565b5b506179dc565b5060208310610133831016604e8410600b84101617156179b25782820a9050838111156179ad576179ac615b40565b5b6179dc565b6179bf84848460016178c0565b925090508184048111156179d6576179d5615b40565b5b81810290505b9392505050565b5f63ffffffff82169050919050565b5f6179fc82614f0c565b9150617a07836179e3565b9250617a347fffffffffffffffffffffffffffffffffffffffffffffffffffffffffffffffff8484617912565b905092915050565b5f617a46826157bf565b91507fffffffffffffffffffffffffffffffffffffffffffffffffffffffff800000008203617a7857617a77615b40565b5b815f039050919050565b617a8b81615354565b8114617a95575f80fd5b50565b5f81519050617aa681617a82565b92915050565b5f60208284031215617ac157617ac0614f46565b5b5f617ace84828501617a98565b91505092915050565b7f436964206461746120697320746f6f2073686f727400000000000000000000005f82015250565b5f617b0b6015836159fb565b9150617b1682617ad7565b602082019050919050565b5f6020820190508181035f830152617b3881617aff565b9050919050565b5f819050602082019050919050565b5f617b598251615354565b80915050919050565b5f617b6c8261547f565b82617b7684617b3f565b9050617b8181617b4e565b92506020821015617bc157617bbc7fffffffffffffffffffffffffffffffffffffffffffffffffffffffffffffffff83602003600802617489565b831692505b5050919050565b5f606082019050617bdb5f830186614f15565b617be860208301856157b0565b617bf560408301846157cb565b949350505050565b7f496e7075742065786365656473206d6178696d756d20696e743235362076616c5f8201527f7565000000000000000000000000000000000000000000000000000000000000602082015250565b5f617c576022836159fb565b9150617c6282617bfd565b604082019050919050565b5f6020820190508181035f830152617c8481617c4b565b9050919050565b5f819050919050565b5f617c9e82617c8b565b91507f80000000000000000000000000000000000000000000000000000000000000008203617cd057617ccf615b40565b5b815f03905091905056fea264697066735822122033620393606d94f1c8d591222f06f6214eafe22531657caf6478a039d4cfa51864736f6c63430008170033","linkReferences":{}},"methodIdentifiers":{"BURN_ACTOR()":"0a6a63f1","EXTRA_DATA_MAX_SIZE()":"029b4646","FIL_USD_PRICE_FEED_ID()":"19c75950","LEAF_SIZE()":"c0e15949","MAX_ENQUEUED_REMOVALS()":"9f8cb3bd","MAX_ROOT_SIZE()":"16e2bcd5","NO_CHALLENGE_SCHEDULED()":"462dd449","NO_PROVEN_EPOCH()":"f178b1be","PYTH()":"67e406d5","RANDOMNESS_PRECOMPILE()":"15b17570","SECONDS_IN_DAY()":"61a52a36","UPGRADE_INTERFACE_VERSION()":"ad3cb1cc","addRoots(uint256,((bytes),uint256)[],bytes)":"11c0ee4a","calculateProofFee(uint256,uint256)":"4903704a","claimProofSetOwnership(uint256)":"ee3dac65","createProofSet(address,bytes)":"0a4d7932","deleteProofSet(uint256,bytes)":"847d1d06","findRootIds(uint256,uint256[])":"0528a55b","getChallengeFinality()":"f83758fe","getChallengeRange(uint256)":"89208ba9","getFILUSDPrice()":"4fa27920","getNextChallengeEpoch(uint256)":"6ba4608f","getNextProofSetId()":"8ea417e5","getNextRootId(uint256)":"d49245c1","getProofSetLastProvenEpoch(uint256)":"faa67163","getProofSetLeafCount(uint256)":"3f84135f","getProofSetListener(uint256)":"31601226","getProofSetOwner(uint256)":"4726075b","getRandomness(uint256)":"453f4f62","getRootCid(uint256,uint256)":"3b7ae913","getRootLeafCount(uint256,uint256)":"9153e64b","getScheduledRemovals(uint256)":"6fa44692","initialize(uint256)":"fe4b84df","nextProvingPeriod(uint256,uint256,bytes)":"45c0b92d","owner()":"8da5cb5b","proofSetLive(uint256)":"f5cac1ba","proposeProofSetOwner(uint256,address)":"6cb55c16","provePossession(uint256,(bytes32,bytes32[])[])":"f58f952b","proxiableUUID()":"52d1902d","renounceOwnership()":"715018a6","rootChallengable(uint256,uint256)":"71cf2a16","rootLive(uint256,uint256)":"47331050","scheduleRemovals(uint256,uint256[],bytes)":"3b68e4e9","transferOwnership(address)":"f2fde38b","upgradeToAndCall(address,bytes)":"4f1ef286"},"id":17}