{"abi":[{"type":"constructor","inputs":[],"stateMutability":"nonpayable"},{"type":"function","name":"BURN_ACTOR","inputs":[],"outputs":[{"name":"","type":"address","internalType":"address"}],"stateMutability":"view"},{"type":"function","name":"LEAF_SIZE","inputs":[],"outputs":[{"name":"","type":"uint256","internalType":"uint256"}],"stateMutability":"view"},{"type":"function","name":"MAX_ENQUEUED_REMOVALS","inputs":[],"outputs":[{"name":"","type":"uint256","internalType":"uint256"}],"stateMutability":"view"},{"type":"function","name":"MAX_ROOT_SIZE","inputs":[],"outputs":[{"name":"","type":"uint256","internalType":"uint256"}],"stateMutability":"view"},{"type":"function","name":"UPGRADE_INTERFACE_VERSION","inputs":[],"outputs":[{"name":"","type":"string","internalType":"string"}],"stateMutability":"view"},{"type":"function","name":"addRoots","inputs":[{"name":"setId","type":"uint256","internalType":"uint256"},{"name":"rootData","type":"tuple[]","internalType":"struct PDPVerifier.RootData[]","components":[{"name":"root","type":"tuple","internalType":"struct Cids.Cid","components":[{"name":"data","type":"bytes","internalType":"bytes"}]},{"name":"rawSize","type":"uint256","internalType":"uint256"}]}],"outputs":[{"name":"","type":"uint256","internalType":"uint256"}],"stateMutability":"nonpayable"},{"type":"function","name":"claimProofSetOwnership","inputs":[{"name":"setId","type":"uint256","internalType":"uint256"}],"outputs":[],"stateMutability":"nonpayable"},{"type":"function","name":"createProofSet","inputs":[{"name":"listenerAddr","type":"address","internalType":"address"}],"outputs":[{"name":"","type":"uint256","internalType":"uint256"}],"stateMutability":"payable"},{"type":"function","name":"deleteProofSet","inputs":[{"name":"setId","type":"uint256","internalType":"uint256"}],"outputs":[],"stateMutability":"nonpayable"},{"type":"function","name":"findRootIds","inputs":[{"name":"setId","type":"uint256","internalType":"uint256"},{"name":"leafIndexs","type":"uint256[]","internalType":"uint256[]"}],"outputs":[{"name":"","type":"tuple[]","internalType":"struct PDPVerifier.RootIdAndOffset[]","components":[{"name":"rootId","type":"uint256","internalType":"uint256"},{"name":"offset","type":"uint256","internalType":"uint256"}]}],"stateMutability":"view"},{"type":"function","name":"getChallengeFinality","inputs":[],"outputs":[{"name":"","type":"uint256","internalType":"uint256"}],"stateMutability":"view"},{"type":"function","name":"getChallengeRange","inputs":[{"name":"setId","type":"uint256","internalType":"uint256"}],"outputs":[{"name":"","type":"uint256","internalType":"uint256"}],"stateMutability":"view"},{"type":"function","name":"getNextChallengeEpoch","inputs":[{"name":"setId","type":"uint256","internalType":"uint256"}],"outputs":[{"name":"","type":"uint256","internalType":"uint256"}],"stateMutability":"view"},{"type":"function","name":"getNextProofSetId","inputs":[],"outputs":[{"name":"","type":"uint64","internalType":"uint64"}],"stateMutability":"view"},{"type":"function","name":"getNextRootId","inputs":[{"name":"setId","type":"uint256","internalType":"uint256"}],"outputs":[{"name":"","type":"uint256","internalType":"uint256"}],"stateMutability":"view"},{"type":"function","name":"getProofSetLeafCount","inputs":[{"name":"setId","type":"uint256","internalType":"uint256"}],"outputs":[{"name":"","type":"uint256","internalType":"uint256"}],"stateMutability":"view"},{"type":"function","name":"getProofSetOwner","inputs":[{"name":"setId","type":"uint256","internalType":"uint256"}],"outputs":[{"name":"","type":"address","internalType":"address"},{"name":"","type":"address","internalType":"address"}],"stateMutability":"view"},{"type":"function","name":"getRootCid","inputs":[{"name":"setId","type":"uint256","internalType":"uint256"},{"name":"rootId","type":"uint256","internalType":"uint256"}],"outputs":[{"name":"","type":"tuple","internalType":"struct Cids.Cid","components":[{"name":"data","type":"bytes","internalType":"bytes"}]}],"stateMutability":"view"},{"type":"function","name":"getRootLeafCount","inputs":[{"name":"setId","type":"uint256","internalType":"uint256"},{"name":"rootId","type":"uint256","internalType":"uint256"}],"outputs":[{"name":"","type":"uint256","internalType":"uint256"}],"stateMutability":"view"},{"type":"function","name":"getScheduledRemovals","inputs":[{"name":"setId","type":"uint256","internalType":"uint256"}],"outputs":[{"name":"","type":"uint256[]","internalType":"uint256[]"}],"stateMutability":"view"},{"type":"function","name":"initialize","inputs":[{"name":"_challengeFinality","type":"uint256","internalType":"uint256"}],"outputs":[],"stateMutability":"nonpayable"},{"type":"function","name":"nextProvingPeriod","inputs":[{"name":"setId","type":"uint256","internalType":"uint256"}],"outputs":[],"stateMutability":"nonpayable"},{"type":"function","name":"owner","inputs":[],"outputs":[{"name":"","type":"address","internalType":"address"}],"stateMutability":"view"},{"type":"function","name":"proofSetLive","inputs":[{"name":"setId","type":"uint256","internalType":"uint256"}],"outputs":[{"name":"","type":"bool","internalType":"bool"}],"stateMutability":"view"},{"type":"function","name":"proposeProofSetOwner","inputs":[{"name":"setId","type":"uint256","internalType":"uint256"},{"name":"newOwner","type":"address","internalType":"address"}],"outputs":[],"stateMutability":"nonpayable"},{"type":"function","name":"provePossession","inputs":[{"name":"setId","type":"uint256","internalType":"uint256"},{"name":"proofs","type":"tuple[]","internalType":"struct PDPVerifier.Proof[]","components":[{"name":"leaf","type":"bytes32","internalType":"bytes32"},{"name":"proof","type":"bytes32[]","internalType":"bytes32[]"}]}],"outputs":[],"stateMutability":"payable"},{"type":"function","name":"proxiableUUID","inputs":[],"outputs":[{"name":"","type":"bytes32","internalType":"bytes32"}],"stateMutability":"view"},{"type":"function","name":"renounceOwnership","inputs":[],"outputs":[],"stateMutability":"nonpayable"},{"type":"function","name":"rootChallengable","inputs":[{"name":"setId","type":"uint256","internalType":"uint256"},{"name":"rootId","type":"uint256","internalType":"uint256"}],"outputs":[{"name":"","type":"bool","internalType":"bool"}],"stateMutability":"view"},{"type":"function","name":"rootLive","inputs":[{"name":"setId","type":"uint256","internalType":"uint256"},{"name":"rootId","type":"uint256","internalType":"uint256"}],"outputs":[{"name":"","type":"bool","internalType":"bool"}],"stateMutability":"view"},{"type":"function","name":"scheduleRemovals","inputs":[{"name":"setId","type":"uint256","internalType":"uint256"},{"name":"rootIds","type":"uint256[]","internalType":"uint256[]"}],"outputs":[],"stateMutability":"nonpayable"},{"type":"function","name":"transferOwnership","inputs":[{"name":"newOwner","type":"address","internalType":"address"}],"outputs":[],"stateMutability":"nonpayable"},{"type":"function","name":"upgradeToAndCall","inputs":[{"name":"newImplementation","type":"address","internalType":"address"},{"name":"data","type":"bytes","internalType":"bytes"}],"outputs":[],"stateMutability":"payable"},{"type":"event","name":"Debug","inputs":[{"name":"message","type":"string","indexed":false,"internalType":"string"},{"name":"value","type":"uint256","indexed":false,"internalType":"uint256"}],"anonymous":false},{"type":"event","name":"Initialized","inputs":[{"name":"version","type":"uint64","indexed":false,"internalType":"uint64"}],"anonymous":false},{"type":"event","name":"OwnershipTransferred","inputs":[{"name":"previousOwner","type":"address","indexed":true,"internalType":"address"},{"name":"newOwner","type":"address","indexed":true,"internalType":"address"}],"anonymous":false},{"type":"event","name":"ProofSetCreated","inputs":[{"name":"setId","type":"uint256","indexed":true,"internalType":"uint256"}],"anonymous":false},{"type":"event","name":"ProofSetDeleted","inputs":[{"name":"setId","type":"uint256","indexed":true,"internalType":"uint256"},{"name":"deletedLeafCount","type":"uint256","indexed":false,"internalType":"uint256"}],"anonymous":false},{"type":"event","name":"RootsAdded","inputs":[{"name":"firstAdded","type":"uint256","indexed":true,"internalType":"uint256"}],"anonymous":false},{"type":"event","name":"RootsRemoved","inputs":[{"name":"rootIds","type":"uint256[]","indexed":true,"internalType":"uint256[]"}],"anonymous":false},{"type":"event","name":"Upgraded","inputs":[{"name":"implementation","type":"address","indexed":true,"internalType":"address"}],"anonymous":false},{"type":"error","name":"AddressEmptyCode","inputs":[{"name":"target","type":"address","internalType":"address"}]},{"type":"error","name":"ERC1967InvalidImplementation","inputs":[{"name":"implementation","type":"address","internalType":"address"}]},{"type":"error","name":"ERC1967NonPayable","inputs":[]},{"type":"error","name":"FailedInnerCall","inputs":[]},{"type":"error","name":"IndexedError","inputs":[{"name":"idx","type":"uint256","internalType":"uint256"},{"name":"msg","type":"string","internalType":"string"}]},{"type":"error","name":"InvalidInitialization","inputs":[]},{"type":"error","name":"NotInitializing","inputs":[]},{"type":"error","name":"OwnableInvalidOwner","inputs":[{"name":"owner","type":"address","internalType":"address"}]},{"type":"error","name":"OwnableUnauthorizedAccount","inputs":[{"name":"account","type":"address","internalType":"address"}]},{"type":"error","name":"UUPSUnauthorizedCallContext","inputs":[]},{"type":"error","name":"UUPSUnsupportedProxiableUUID","inputs":[{"name":"slot","type":"bytes32","internalType":"bytes32"}]}],"bytecode":{"object":"0x60a06040523060805234801561001457600080fd5b5061001d610022565b6100d4565b7ff0c57e16840df040f15088dc2f81fe391c3923bec73e23a9662efc9c229c6a00805468010000000000000000900460ff16156100725760405163f92ee8a960e01b815260040160405180910390fd5b80546001600160401b03908116146100d15780546001600160401b0319166001600160401b0390811782556040519081527fc7f505b2f371ae2175ee4913f4499e1f2633a7b5936321eed1cdaeb6115181d29060200160405180910390a15b50565b6080516137056100fd600039600081816123140152818161233d015261247e01526137056000f3fe6080604052600436106101ee5760003560e01c806389208ba91161010d578063d49245c1116100a0578063f2fde38b1161006f578063f2fde38b146105ef578063f58f952b1461060f578063f5cac1ba14610622578063f83758fe14610642578063fe4b84df1461065757600080fd5b8063d49245c11461056f578063d6dadec81461058f578063e98cb5fc146105af578063ee3dac65146105cf57600080fd5b806396984338116100dc57806396984338146104f35780639f8cb3bd14610506578063ad3cb1cc1461051c578063c0e159491461055a57600080fd5b806389208ba91461044e5780638da5cb5b1461046e5780638ea417e5146104ab5780639153e64b146104d357600080fd5b806347331050116101855780636cb55c16116101545780636cb55c16146103cc5780636fa44692146103ec578063715018a61461041957806371cf2a161461042e57600080fd5b806347331050146103545780634f1ef2861461038457806352d1902d146103975780636ba4608f146103ac57600080fd5b806332a87252116101c157806332a87252146102a75780633b7ae913146102c75780633f84135f146102f45780634726075b1461031457600080fd5b80630528a55b146101f35780630a6a63f114610229578063153dea9a1461025c57806316e2bcd51461027e575b600080fd5b3480156101ff57600080fd5b5061021361020e366004612ef1565b610677565b6040516102209190612f3c565b60405180910390f35b34801561023557600080fd5b50610244606360ff60981b0181565b6040516001600160a01b039091168152602001610220565b34801561026857600080fd5b5061027c610277366004612f8b565b610762565b005b34801561028a57600080fd5b50610299660400000000000081565b604051908152602001610220565b3480156102b357600080fd5b506102996102c2366004612ef1565b6109be565b3480156102d357600080fd5b506102e76102e2366004612fa4565b610c1a565b6040516102209190613016565b34801561030057600080fd5b5061029961030f366004612f8b565b610d0d565b34801561032057600080fd5b5061033461032f366004612f8b565b610d47565b604080516001600160a01b03938416815292909116602083015201610220565b34801561036057600080fd5b5061037461036f366004612fa4565b610d9d565b6040519015158152602001610220565b61027c610392366004613063565b610de8565b3480156103a357600080fd5b50610299610e07565b3480156103b857600080fd5b506102996103c7366004612f8b565b610e24565b3480156103d857600080fd5b5061027c6103e736600461312a565b610e5e565b3480156103f857600080fd5b5061040c610407366004612f8b565b610f67565b6040516102209190613156565b34801561042557600080fd5b5061027c61103a565b34801561043a57600080fd5b50610374610449366004612fa4565b61104e565b34801561045a57600080fd5b50610299610469366004612f8b565b611163565b34801561047a57600080fd5b507f9016d09d72d40fdae2fd8ceac6b6234c7706214fd39c1cd1e609a0528c199300546001600160a01b0316610244565b3480156104b757600080fd5b506001546040516001600160401b039091168152602001610220565b3480156104df57600080fd5b506102996104ee366004612fa4565b61119d565b61029961050136600461318e565b6111e2565b34801561051257600080fd5b506102996107d081565b34801561052857600080fd5b5061054d604051806040016040528060058152602001640352e302e360dc1b81525081565b60405161022091906131a9565b34801561056657600080fd5b50610299602081565b34801561057b57600080fd5b5061029961058a366004612f8b565b6113a1565b34801561059b57600080fd5b5061027c6105aa366004612f8b565b6113db565b3480156105bb57600080fd5b5061027c6105ca366004612ef1565b611596565b3480156105db57600080fd5b5061027c6105ea366004612f8b565b6117f4565b3480156105fb57600080fd5b5061027c61060a36600461318e565b6118c8565b61027c61061d366004612ef1565b611906565b34801561062e57600080fd5b5061037461063d366004612f8b565b611c7d565b34801561064e57600080fd5b50600054610299565b34801561066357600080fd5b5061027c610672366004612f8b565b611cb3565b6000838152600560205260408120546060919061069390611dce565b61069f906101006131d2565b90506000836001600160401b038111156106bb576106bb61304d565b60405190808252806020026020018201604052801561070057816020015b60408051808201909152600080825260208201528152602001906001900390816106d95790505b50905060005b848110156107565761073187878784818110610724576107246131e5565b9050602002013585611ec6565b828281518110610743576107436131e5565b6020908102919091010152600101610706565b509150505b9392505050565b6000818152600b60205260409020546001600160a01b031633146107e45760405162461bcd60e51b815260206004820152602e60248201527f6f6e6c7920746865206f776e65722063616e206d6f766520746f206e6578742060448201526d1c1c9bdd9a5b99c81c195c9a5bd960921b60648201526084015b60405180910390fd5b6000818152600a6020526040812080549091906001600160401b0381111561080e5761080e61304d565b604051908082528060200260200182016040528015610837578160200160208202803683370190505b50905060005b81518110156108bf5782548390610856906001906131d2565b81548110610866576108666131e5565b9060005260206000200154828281518110610883576108836131e5565b6020026020010181815250508280548061089f5761089f6131fb565b60008281526020812082016000199081019190915501905560010161083d565b506108ca83826120ae565b6000838152600660209081526040808320546009909252822055546108ef9043613211565b60008481526007602090815260408083209390935560069052908120549003610922576000838152600760205260408120555b6000838152600860205260409020546001600160a01b031680156109b85760008481526006602052604090819020549051631c8e400b60e21b81526001600160a01b03831691637239002c91610985918891600401918252602082015260400190565b600060405180830381600087803b15801561099f57600080fd5b505af11580156109b3573d6000803e3d6000fd5b505050505b50505050565b60006109c984611c7d565b6109e55760405162461bcd60e51b81526004016107db90613224565b81610a325760405162461bcd60e51b815260206004820152601a60248201527f4d75737420616464206174206c65617374206f6e6520726f6f7400000000000060448201526064016107db565b6000848152600b60205260409020546001600160a01b03163314610a985760405162461bcd60e51b815260206004820152601c60248201527f4f6e6c7920746865206f776e65722063616e2061646420726f6f74730000000060448201526064016107db565b60008481526007602090815260408083205460059092528220549015915b84811015610b2757610b1e8782888885818110610ad557610ad56131e5565b9050602002810190610ae79190613250565b610af19080613270565b898986818110610b0357610b036131e5565b9050602002810190610b159190613250565b60200135612140565b50600101610ab6565b508115610b6257600054610b3b9043613211565b60008781526007602090815260408083209390935560068152828220546009909152919020555b6000868152600860205260409020546001600160a01b03168015610be5576040516364246a8d60e11b81526001600160a01b0382169063c848d51a90610bb2908a9086908b908b90600401613286565b600060405180830381600087803b158015610bcc57600080fd5b505af1158015610be0573d6000803e3d6000fd5b505050505b60405182907fde16f8a35fc44238b21a493b7267f7a5064f2bc1b3a1af51deeb4b5a47281d4790600090a25095945050505050565b604080516020810190915260608152610c3283611c7d565b610c4e5760405162461bcd60e51b81526004016107db90613224565b60008381526002602090815260408083208584528252918290208251918201909252815490919082908290610c8290613397565b80601f0160208091040260200160405190810160405280929190818152602001828054610cae90613397565b8015610cfb5780601f10610cd057610100808354040283529160200191610cfb565b820191906000526020600020905b815481529060010190602001808311610cde57829003601f168201915b50505050508152505090505b92915050565b6000610d1882611c7d565b610d345760405162461bcd60e51b81526004016107db90613224565b5060009081526006602052604090205490565b600080610d5383611c7d565b610d6f5760405162461bcd60e51b81526004016107db90613224565b50506000908152600b6020908152604080832054600c909252909120546001600160a01b0391821692911690565b6000610da883611c7d565b8015610dc1575060008381526005602052604090205482105b801561075b5750506000918252600360209081526040808420928452919052902054151590565b610df0612309565b610df9826123ae565b610e0382826123b6565b5050565b6000610e11612473565b506000805160206136b083398151915290565b6000610e2f82611c7d565b610e4b5760405162461bcd60e51b81526004016107db90613224565b5060009081526007602052604090205490565b610e6782611c7d565b610e835760405162461bcd60e51b81526004016107db90613224565b6000828152600b60205260409020546001600160a01b0316338114610f015760405162461bcd60e51b815260206004820152602e60248201527f4f6e6c79207468652063757272656e74206f776e65722063616e2070726f706f60448201526d39b29030903732bb9037bbb732b960911b60648201526084016107db565b816001600160a01b0316816001600160a01b031603610f3a5750506000908152600c6020526040902080546001600160a01b0319169055565b6000838152600c6020526040902080546001600160a01b0319166001600160a01b0384161790555b505050565b6060610f7282611c7d565b610f8e5760405162461bcd60e51b81526004016107db90613224565b6000828152600a6020526040812080549091906001600160401b03811115610fb857610fb861304d565b604051908082528060200260200182016040528015610fe1578160200160208202803683370190505b50905060005b825481101561103257828181548110611002576110026131e5565b906000526020600020015482828151811061101f5761101f6131e5565b6020908102919091010152600101610fe7565b509392505050565b6110426124bc565b61104c6000612517565b565b600082815260056020526040812054819061106890611dce565b611074906101006131d2565b6000858152600960205260408120549192509061109f908690611099906001906131d2565b84611ec6565b6000868152600360209081526040808320845184529091529020549091506110c9906001906131d2565b816020015114611143576040805162461bcd60e51b81526020600482015260248101919091527f6368616c6c656e676552616e6765202d312073686f756c6420616c69676e207760448201527f697468207468652076657279206c617374206c656166206f66206120726f6f7460648201526084016107db565b61114d8585610d9d565b801561115a575080518411155b95945050505050565b600061116e82611c7d565b61118a5760405162461bcd60e51b81526004016107db90613224565b5060009081526009602052604090205490565b60006111a883611c7d565b6111c45760405162461bcd60e51b81526004016107db90613224565b50600091825260036020908152604080842092845291905290205490565b6000601b3481111561122a5760405162461bcd60e51b81526020600482015260116024820152701cde589a5b08199959481b9bdd081b595d607a1b60448201526064016107db565b61123381612588565b8034111561127357336108fc61124983346131d2565b6040518115909202916000818181858888f19350505050158015611271573d6000803e3d6000fd5b505b600180546000916001600160401b039091169082611290836133d1565b82546001600160401b039182166101009390930a92830292820219169190911790915516600081815260066020908152604080832083905560078252808320839055600b825280832080546001600160a01b03199081163317909155600890925290912080546001600160a01b0388169216821790559091501561136f57604051632de49b0360e11b8152600481018290523360248201526001600160a01b03851690635bc9360690604401600060405180830381600087803b15801561135657600080fd5b505af115801561136a573d6000803e3d6000fd5b505050505b60405181907f5979d495e336598dba8459e44f8eb2a1c957ce30fcc10cabea4bb0ffe969df6a90600090a29392505050565b60006113ac82611c7d565b6113c85760405162461bcd60e51b81526004016107db90613224565b5060009081526005602052604090205490565b6001546001600160401b031681106114355760405162461bcd60e51b815260206004820152601a60248201527f70726f6f6620736574206964206f7574206f6620626f756e647300000000000060448201526064016107db565b6000818152600b60205260409020546001600160a01b031633146114a75760405162461bcd60e51b8152602060048201526024808201527f4f6e6c7920746865206f776e65722063616e2064656c6574652070726f6f66206044820152637365747360e01b60648201526084016107db565b6000818152600660209081526040808320805490849055600b835281842080546001600160a01b0319169055600783528184208490556008909252909120546001600160a01b031680156115575760405163709938f160e01b815260048101849052602481018390526001600160a01b0382169063709938f190604401600060405180830381600087803b15801561153e57600080fd5b505af1158015611552573d6000803e3d6000fd5b505050505b827f589e9a441b5bddda77c4ab647b0108764a9cc1a7f655aa9b7bc50b8bdfab86738360405161158991815260200190565b60405180910390a2505050565b61159f83611c7d565b6115bb5760405162461bcd60e51b81526004016107db90613224565b6000838152600b60205260409020546001600160a01b031633146116365760405162461bcd60e51b815260206004820152602c60248201527f4f6e6c7920746865206f776e65722063616e207363686564756c652072656d6f60448201526b76616c206f6620726f6f747360a01b60648201526084016107db565b6000838152600a60205260409020546107d0906116539083613211565b11156116c75760405162461bcd60e51b815260206004820152603a60248201527f546f6f206d616e792072656d6f76616c73207761697420666f72206e6578742060448201527f70726f76696e6720706572696f6420746f207363686564756c6500000000000060648201526084016107db565b60005b818110156117a5576000848152600560205260409020548383838181106116f3576116f36131e5565b905060200201351061175b5760405162461bcd60e51b815260206004820152602b60248201527f43616e206f6e6c79207363686564756c652072656d6f76616c206f662065786960448201526a7374696e6720726f6f747360a81b60648201526084016107db565b6000848152600a6020526040902083838381811061177b5761177b6131e5565b835460018082018655600095865260209586902092909502939093013592019190915550016116ca565b506000838152600860205260409020546001600160a01b031680156109b857604051632ad0d89d60e01b81526001600160a01b03821690632ad0d89d90610985908790879087906004016133fc565b6117fd81611c7d565b6118195760405162461bcd60e51b81526004016107db90613224565b6000818152600c60205260409020546001600160a01b031633146118935760405162461bcd60e51b815260206004820152602b60248201527f4f6e6c79207468652070726f706f736564206f776e65722063616e20636c616960448201526a06d206f776e6572736869760ac1b60648201526084016107db565b6000908152600b6020908152604080832080546001600160a01b03199081163317909155600c90925290912080549091169055565b6118d06124bc565b6001600160a01b0381166118fa57604051631e4fbdf760e01b8152600060048201526024016107db565b61190381612517565b50565b600083815260076020526040902054438111156119575760405162461bcd60e51b815260206004820152600f60248201526e383932b6b0ba3ab93290383937b7b360891b60448201526064016107db565b816119925760405162461bcd60e51b815260206004820152600b60248201526a32b6b83a3c90383937b7b360a91b60448201526064016107db565b600061199d8361265c565b90506119a881612588565b803411156119e857336108fc6119be83346131d2565b6040518115909202916000818181858888f193505050501580156119e6573d6000803e3d6000fd5b505b6000858152600760209081526040808320546009835281842054600590935290832054909290611a1790611dce565b611a23906101006131d2565b905060005b6001600160401b038116871115611bd25760408051602081018690529081018a90526001600160c01b031960c083901b1660608201526000906068016040516020818303038152906040529050600084828051906020012060001c611a8d9190613453565b90506000611a9c8c8387611ec6565b90506000611ab6611ab18e8460000151610c1a565b61269b565b90506000611b748d8d886001600160401b0316818110611ad857611ad86131e5565b9050602002810190611aea9190613250565b611af8906020810190613467565b80806020026020016040519081016040528093929190818152602001838360200280828437600081840152601f19601f82011690508083019250505050505050838f8f8a6001600160401b0316818110611b5457611b546131e5565b9050602002810190611b669190613250565b60000135866020015161278a565b905080611bba5760405162461bcd60e51b815260206004820152601460248201527370726f6f6620646964206e6f742076657269667960601b60448201526064016107db565b50505050508080611bca906133d1565b915050611a28565b506000888152600860205260409020546001600160a01b03168015611c72576000898152600660205260409081902054905163b875f8ff60e01b8152600481018b9052602481019190915260448101859052606481018890526001600160a01b0382169063b875f8ff90608401600060405180830381600087803b158015611c5957600080fd5b505af1158015611c6d573d6000803e3d6000fd5b505050505b505050505050505050565b6001546000906001600160401b031682108015610d075750506000908152600b60205260409020546001600160a01b0316151590565b7ff0c57e16840df040f15088dc2f81fe391c3923bec73e23a9662efc9c229c6a008054600160401b810460ff1615906001600160401b0316600081158015611cf85750825b90506000826001600160401b03166001148015611d145750303b155b905081158015611d22575080155b15611d405760405163f92ee8a960e01b815260040160405180910390fd5b845467ffffffffffffffff191660011785558315611d6a57845460ff60401b1916600160401b1785555b611d73336127a2565b611d7b6127b3565b60008690558315611dc657845460ff60401b19168555604051600181527fc7f505b2f371ae2175ee4913f4499e1f2633a7b5936321eed1cdaeb6115181d29060200160405180910390a15b505050505050565b6000610100608083901c8015611def57611de96080836131d2565b91508093505b50604083901c8015611e0c57611e066040836131d2565b91508093505b50602083901c8015611e2957611e236020836131d2565b91508093505b50601083901c8015611e4657611e406010836131d2565b91508093505b50600883901c8015611e6357611e5d6008836131d2565b91508093505b50600483901c8015611e8057611e7a6004836131d2565b91508093505b50600283901c8015611e9d57611e976002836131d2565b91508093505b50600183901c8015611ebc57611eb46002836131d2565b949350505050565b611eb484836131d2565b60408051808201909152600080825260208201526000848152600660205260409020548310611f375760405162461bcd60e51b815260206004820152601860248201527f4c65616620696e646578206f7574206f6620626f756e6473000000000000000060448201526064016107db565b6000611f46600180851b6131d2565b9050600080845b8015612022576000888152600560205260409020548410611f8857611f736001826131d2565b611f81906001901b856131d2565b9350612010565b6000888152600460209081526040808320878452909152902054611fac9084613211565b9150868211611ff4576000888152600460209081526040808320878452909152902054611fd99084613211565b9250611fe66001826131d2565b611f81906001901b85613211565b611fff6001826131d2565b61200d906001901b856131d2565b93505b8061201a816134b0565b915050611f4d565b5060008781526004602090815260408083208684529091529020546120479083613211565b90508581116120845760405180604001604052808460016120689190613211565b815260200161207783896131d2565b815250935050505061075b565b604051806040016040528084815260200183886120a191906131d2565b9052979650505050505050565b6120b782611c7d565b6120d35760405162461bcd60e51b81526004016107db90613224565b6000805b825181101561211757612103848483815181106120f6576120f66131e5565b60200260200101516127bb565b61210d9083613211565b91506001016120d7565b50600083815260066020526040812080548392906121369084906131d2565b9091555050505050565b600061214d602083613453565b156121a4578360405163c7b67cf360e01b81526004016107db918152604060208201819052601d908201527f53697a65206d7573742062652061206d756c7469706c65206f66203332000000606082015260800190565b816000036121fe578360405163c7b67cf360e01b81526004016107db918152604060208201819052601b908201527f53697a65206d7573742062652067726561746572207468616e20300000000000606082015260800190565b660400000000000082111561225e578360405163c7b67cf360e01b81526004016107db91815260406020808301829052908201527f526f6f742073697a65206d757374206265206c657373207468616e20325e3530606082015260800190565b600061226b6020846134c7565b600087815260056020526040812080549293509091908261228b836134db565b91905055905061229c878383612823565b6000878152600260209081526040808320848452909152902085906122c1828261353b565b5050600087815260036020908152604080832084845282528083208590558983526006909152812080548492906122f9908490613211565b9091555090979650505050505050565b306001600160a01b037f000000000000000000000000000000000000000000000000000000000000000016148061239057507f00000000000000000000000000000000000000000000000000000000000000006001600160a01b03166123846000805160206136b0833981519152546001600160a01b031690565b6001600160a01b031614155b1561104c5760405163703e46dd60e11b815260040160405180910390fd5b6119036124bc565b816001600160a01b03166352d1902d6040518163ffffffff1660e01b8152600401602060405180830381865afa925050508015612410575060408051601f3d908101601f1916820190925261240d9181019061362d565b60015b61243857604051634c9c8ce360e01b81526001600160a01b03831660048201526024016107db565b6000805160206136b0833981519152811461246957604051632a87526960e21b8152600481018290526024016107db565b610f6283836128a3565b306001600160a01b037f0000000000000000000000000000000000000000000000000000000000000000161461104c5760405163703e46dd60e11b815260040160405180910390fd5b336124ee7f9016d09d72d40fdae2fd8ceac6b6234c7706214fd39c1cd1e609a0528c199300546001600160a01b031690565b6001600160a01b03161461104c5760405163118cdaa760e01b81523360048201526024016107db565b7f9016d09d72d40fdae2fd8ceac6b6234c7706214fd39c1cd1e609a0528c19930080546001600160a01b031981166001600160a01b03848116918217845560405192169182907f8be0079c531659141344cd1fd0a4f28419497f9722a3daafe3b4186f6b6457e090600090a3505050565b803410156125cf5760405162461bcd60e51b8152602060048201526014602482015273125b98dbdc9c9958dd0819995948185b5bdd5b9d60621b60448201526064016107db565b604051600090606360ff60981b019083908381818185875af1925050503d8060008114612618576040519150601f19603f3d011682016040523d82523d6000602084013e61261d565b606091505b5050905080610e035760405162461bcd60e51b815260206004820152600b60248201526a109d5c9b8819985a5b195960aa1b60448201526064016107db565b600080600348111561266f575048612673565b5060035b60008161268385621e8480613646565b61268d9190613646565b9050606461115a81836134c7565b6000602082600001515110156126eb5760405162461bcd60e51b815260206004820152601560248201527410da590819185d18481a5cc81d1bdbc81cda1bdc9d605a1b60448201526064016107db565b60408051602080825281830190925260009160208201818036833701905050905060005b60208110156127805783518051829061272a906020906131d2565b6127349190613211565b81518110612744576127446131e5565b602001015160f81c60f81b828281518110612761576127616131e5565b60200101906001600160f81b031916908160001a90535060010161270f565b5061075b8161365d565b6000836127988685856128f9565b1495945050505050565b6127aa612976565b611903816129bf565b61104c612976565b60008281526003602090815260408083208484529091528120546127e08484836129c7565b60008481526003602090815260408083208684528252808320839055868352600282528083208684529091528120906128198282612e58565b5090949350505050565b80600061282f82612a72565b90508360005b8281101561287e57600061284c6001831b866131d2565b60008981526004602090815260408083208484529091529020549091506128739084613211565b925050600101612835565b5060009586526004602090815260408088209588529490529290942091909155505050565b6128ac82612a87565b6040516001600160a01b038316907fbc7cd75a20ee27fd9adebab32041f755214dbc6bffa90cc0225b39da2e5c2d3b90600090a28051156128f157610f628282612aec565b610e03612b59565b600082815b855181101561296d57600086828151811061291b5761291b6131e5565b602002602001015190506002856129329190613453565b60000361294a576129438382612b78565b9250612957565b6129548184612b78565b92505b6129626002866134c7565b9450506001016128fe565b50949350505050565b7ff0c57e16840df040f15088dc2f81fe391c3923bec73e23a9662efc9c229c6a0054600160401b900460ff1661104c57604051631afcd79f60e31b815260040160405180910390fd5b6118d0612976565b6000838152600560205260408120546129df90611dce565b6129eb906101006131d2565b905060006129f884612a72565b90505b818111158015612a18575060008581526005602052604090205484105b15612a6b57600085815260046020908152604080832087845290915281208054859290612a469084906131d2565b90915550612a5990506001821b85613211565b9350612a6484612a72565b90506129fb565b5050505050565b6000610d07612a82836001613211565b612b84565b806001600160a01b03163b600003612abd57604051634c9c8ce360e01b81526001600160a01b03821660048201526024016107db565b6000805160206136b083398151915280546001600160a01b0319166001600160a01b0392909216919091179055565b6060600080846001600160a01b031684604051612b099190613681565b600060405180830381855af49150503d8060008114612b44576040519150601f19603f3d011682016040523d82523d6000602084013e612b49565b606091505b509150915061115a858383612da6565b341561104c5760405163b398979f60e01b815260040160405180910390fd5b600061075b8383612e02565b60006001600160ff1b03821115612be85760405162461bcd60e51b815260206004820152602260248201527f496e7075742065786365656473206d6178696d756d20696e743235362076616c604482015261756560f01b60648201526084016107db565b6101006000612bf684613693565b841690508015612c0e5781612c0a816134b0565b9250505b6fffffffffffffffffffffffffffffffff811615612c3457612c316080836131d2565b91505b77ffffffffffffffff0000000000000000ffffffffffffffff811615612c6257612c5f6040836131d2565b91505b7bffffffff00000000ffffffff00000000ffffffff00000000ffffffff811615612c9457612c916020836131d2565b91505b7dffff0000ffff0000ffff0000ffff0000ffff0000ffff0000ffff0000ffff811615612cc857612cc56010836131d2565b91505b7eff00ff00ff00ff00ff00ff00ff00ff00ff00ff00ff00ff00ff00ff00ff00ff811615612cfd57612cfa6008836131d2565b91505b7f0f0f0f0f0f0f0f0f0f0f0f0f0f0f0f0f0f0f0f0f0f0f0f0f0f0f0f0f0f0f0f0f811615612d3357612d306004836131d2565b91505b7f3333333333333333333333333333333333333333333333333333333333333333811615612d6957612d666002836131d2565b91505b7f5555555555555555555555555555555555555555555555555555555555555555811615612d9f57612d9c6001836131d2565b91505b5092915050565b606082612dbb57612db682612e2f565b61075b565b8151158015612dd257506001600160a01b0384163b155b15612dfb57604051639996b31560e01b81526001600160a01b03851660048201526024016107db565b508061075b565b60008260005281602052602060006040600060025afa612e2157600080fd5b505060005160c01916919050565b805115612e3f5780518082602001fd5b604051630a12f52160e11b815260040160405180910390fd5b508054612e6490613397565b6000825580601f10612e74575050565b601f01602090049060005260206000209081019061190391905b80821115612ea25760008155600101612e8e565b5090565b60008083601f840112612eb857600080fd5b5081356001600160401b03811115612ecf57600080fd5b6020830191508360208260051b8501011115612eea57600080fd5b9250929050565b600080600060408486031215612f0657600080fd5b8335925060208401356001600160401b03811115612f2357600080fd5b612f2f86828701612ea6565b9497909650939450505050565b602080825282518282018190526000918401906040840190835b81811015612f80578351805184526020908101518185015290930192604090920191600101612f56565b509095945050505050565b600060208284031215612f9d57600080fd5b5035919050565b60008060408385031215612fb757600080fd5b50508035926020909101359150565b60005b83811015612fe1578181015183820152602001612fc9565b50506000910152565b60008151808452613002816020860160208601612fc6565b601f01601f19169290920160200192915050565b6020815260008251602080840152611eb46040840182612fea565b80356001600160a01b038116811461304857600080fd5b919050565b634e487b7160e01b600052604160045260246000fd5b6000806040838503121561307657600080fd5b61307f83613031565b915060208301356001600160401b0381111561309a57600080fd5b8301601f810185136130ab57600080fd5b80356001600160401b038111156130c4576130c461304d565b604051601f8201601f19908116603f011681016001600160401b03811182821017156130f2576130f261304d565b60405281815282820160200187101561310a57600080fd5b816020840160208301376000602083830101528093505050509250929050565b6000806040838503121561313d57600080fd5b8235915061314d60208401613031565b90509250929050565b602080825282518282018190526000918401906040840190835b81811015612f80578351835260209384019390920191600101613170565b6000602082840312156131a057600080fd5b61075b82613031565b60208152600061075b6020830184612fea565b634e487b7160e01b600052601160045260246000fd5b81810381811115610d0757610d076131bc565b634e487b7160e01b600052603260045260246000fd5b634e487b7160e01b600052603160045260246000fd5b80820180821115610d0757610d076131bc565b60208082526012908201527150726f6f6620736574206e6f74206c69766560701b604082015260600190565b60008235603e1983360301811261326657600080fd5b9190910192915050565b60008235601e1983360301811261326657600080fd5b600060608201868352856020840152606060408401528084825260808401905060808560051b8501019150856000603e19883603015b8782101561338857868503607f1901845282358181126132db57600080fd5b8901803536829003601e190181126132f257600080fd5b604087528101803536829003601e1901811261330d57600080fd5b016020810190356001600160401b0381111561332857600080fd5b80360382131561333757600080fd5b60206040890152806060890152808260808a013760006080828a01810191909152602093840135848a0152601f909101601f19169097019096019550938401939290920191600191909101906132bc565b50929998505050505050505050565b600181811c908216806133ab57607f821691505b6020821081036133cb57634e487b7160e01b600052602260045260246000fd5b50919050565b60006001600160401b0382166001600160401b0381036133f3576133f36131bc565b60010192915050565b838152604060208201819052810182905260006001600160fb1b0383111561342357600080fd5b8260051b8085606085013791909101606001949350505050565b634e487b7160e01b600052601260045260246000fd5b6000826134625761346261343d565b500690565b6000808335601e1984360301811261347e57600080fd5b8301803591506001600160401b0382111561349857600080fd5b6020019150600581901b3603821315612eea57600080fd5b6000816134bf576134bf6131bc565b506000190190565b6000826134d6576134d661343d565b500490565b6000600182016134ed576134ed6131bc565b5060010190565b601f821115610f6257806000526020600020601f840160051c8101602085101561351b5750805b601f840160051c820191505b81811015612a6b5760008155600101613527565b8135601e1983360301811261354f57600080fd5b820180356001600160401b038111801561356857600080fd5b81360360208401131561357a57600080fd5b60009050506135938161358d8554613397565b856134f4565b6000601f8211600181146135ca57600083156135b25750838201602001355b600019600385901b1c1916600184901b178555611dc6565b600085815260208120601f198516915b828110156135fc576020858801810135835594850194600190920191016135da565b508482101561361c5760001960f88660031b161c19602085880101351681555b50505050600190811b019091555050565b60006020828403121561363f57600080fd5b5051919050565b8082028115828204841417610d0757610d076131bc565b805160208083015191908110156133cb5760001960209190910360031b1b16919050565b60008251613266818460208701612fc6565b6000600160ff1b82016136a8576136a86131bc565b506000039056fe360894a13ba1a3210667c828492db98dca3e2076cc3735a920a3ca505d382bbca26469706673582212202db9c041e17e6bcb78e1a515bb2061f8a239cf0ecdd90763467d55090c5c722464736f6c634300081c0033","linkReferences":{}},"methodIdentifiers":{"BURN_ACTOR()":"0a6a63f1","LEAF_SIZE()":"c0e15949","MAX_ENQUEUED_REMOVALS()":"9f8cb3bd","MAX_ROOT_SIZE()":"16e2bcd5","UPGRADE_INTERFACE_VERSION()":"ad3cb1cc","addRoots(uint256,((bytes),uint256)[])":"32a87252","claimProofSetOwnership(uint256)":"ee3dac65","createProofSet(address)":"96984338","deleteProofSet(uint256)":"d6dadec8","findRootIds(uint256,uint256[])":"0528a55b","getChallengeFinality()":"f83758fe","getChallengeRange(uint256)":"89208ba9","getNextChallengeEpoch(uint256)":"6ba4608f","getNextProofSetId()":"8ea417e5","getNextRootId(uint256)":"d49245c1","getProofSetLeafCount(uint256)":"3f84135f","getProofSetOwner(uint256)":"4726075b","getRootCid(uint256,uint256)":"3b7ae913","getRootLeafCount(uint256,uint256)":"9153e64b","getScheduledRemovals(uint256)":"6fa44692","initialize(uint256)":"fe4b84df","nextProvingPeriod(uint256)":"153dea9a","owner()":"8da5cb5b","proofSetLive(uint256)":"f5cac1ba","proposeProofSetOwner(uint256,address)":"6cb55c16","provePossession(uint256,(bytes32,bytes32[])[])":"f58f952b","proxiableUUID()":"52d1902d","renounceOwnership()":"715018a6","rootChallengable(uint256,uint256)":"71cf2a16","rootLive(uint256,uint256)":"47331050","scheduleRemovals(uint256,uint256[])":"e98cb5fc","transferOwnership(address)":"f2fde38b","upgradeToAndCall(address,bytes)":"4f1ef286"},"id":38}