{"abi":[{"type":"constructor","inputs":[],"stateMutability":"nonpayable"},{"type":"function","name":"BURN_ACTOR","inputs":[],"outputs":[{"name":"","type":"address","internalType":"address"}],"stateMutability":"view"},{"type":"function","name":"MAX_CAPABILITIES","inputs":[],"outputs":[{"name":"","type":"uint256","internalType":"uint256"}],"stateMutability":"view"},{"type":"function","name":"MAX_CAPABILITY_KEY_LENGTH","inputs":[],"outputs":[{"name":"","type":"uint256","internalType":"uint256"}],"stateMutability":"view"},{"type":"function","name":"MAX_CAPABILITY_VALUE_LENGTH","inputs":[],"outputs":[{"name":"","type":"uint256","internalType":"uint256"}],"stateMutability":"view"},{"type":"function","name":"REGISTRATION_FEE","inputs":[],"outputs":[{"name":"","type":"uint256","internalType":"uint256"}],"stateMutability":"view"},{"type":"function","name":"UPGRADE_INTERFACE_VERSION","inputs":[],"outputs":[{"name":"","type":"string","internalType":"string"}],"stateMutability":"view"},{"type":"function","name":"VERSION","inputs":[],"outputs":[{"name":"","type":"string","internalType":"string"}],"stateMutability":"view"},{"type":"function","name":"activeProductTypeProviderCount","inputs":[{"name":"productType","type":"uint8","internalType":"enum ServiceProviderRegistryStorage.ProductType"}],"outputs":[{"name":"count","type":"uint256","internalType":"uint256"}],"stateMutability":"view"},{"type":"function","name":"activeProviderCount","inputs":[],"outputs":[{"name":"","type":"uint256","internalType":"uint256"}],"stateMutability":"view"},{"type":"function","name":"addProduct","inputs":[{"name":"productType","type":"uint8","internalType":"enum ServiceProviderRegistryStorage.ProductType"},{"name":"productData","type":"bytes","internalType":"bytes"},{"name":"capabilityKeys","type":"string[]","internalType":"string[]"},{"name":"capabilityValues","type":"string[]","internalType":"string[]"}],"outputs":[],"stateMutability":"nonpayable"},{"type":"function","name":"addressToProviderId","inputs":[{"name":"providerAddress","type":"address","internalType":"address"}],"outputs":[{"name":"providerId","type":"uint256","internalType":"uint256"}],"stateMutability":"view"},{"type":"function","name":"decodePDPOffering","inputs":[{"name":"data","type":"bytes","internalType":"bytes"}],"outputs":[{"name":"","type":"tuple","internalType":"struct ServiceProviderRegistryStorage.PDPOffering","components":[{"name":"serviceURL","type":"string","internalType":"string"},{"name":"minPieceSizeInBytes","type":"uint256","internalType":"uint256"},{"name":"maxPieceSizeInBytes","type":"uint256","internalType":"uint256"},{"name":"ipniPiece","type":"bool","internalType":"bool"},{"name":"ipniIpfs","type":"bool","internalType":"bool"},{"name":"storagePricePerTibPerMonth","type":"uint256","internalType":"uint256"},{"name":"minProvingPeriodInEpochs","type":"uint256","internalType":"uint256"},{"name":"location","type":"string","internalType":"string"},{"name":"paymentTokenAddress","type":"address","internalType":"contract IERC20"}]}],"stateMutability":"pure"},{"type":"function","name":"eip712Domain","inputs":[],"outputs":[{"name":"fields","type":"bytes1","internalType":"bytes1"},{"name":"name","type":"string","internalType":"string"},{"name":"version","type":"string","internalType":"string"},{"name":"chainId","type":"uint256","internalType":"uint256"},{"name":"verifyingContract","type":"address","internalType":"address"},{"name":"salt","type":"bytes32","internalType":"bytes32"},{"name":"extensions","type":"uint256[]","internalType":"uint256[]"}],"stateMutability":"view"},{"type":"function","name":"encodePDPOffering","inputs":[{"name":"pdpOffering","type":"tuple","internalType":"struct ServiceProviderRegistryStorage.PDPOffering","components":[{"name":"serviceURL","type":"string","internalType":"string"},{"name":"minPieceSizeInBytes","type":"uint256","internalType":"uint256"},{"name":"maxPieceSizeInBytes","type":"uint256","internalType":"uint256"},{"name":"ipniPiece","type":"bool","internalType":"bool"},{"name":"ipniIpfs","type":"bool","internalType":"bool"},{"name":"storagePricePerTibPerMonth","type":"uint256","internalType":"uint256"},{"name":"minProvingPeriodInEpochs","type":"uint256","internalType":"uint256"},{"name":"location","type":"string","internalType":"string"},{"name":"paymentTokenAddress","type":"address","internalType":"contract IERC20"}]}],"outputs":[{"name":"","type":"bytes","internalType":"bytes"}],"stateMutability":"pure"},{"type":"function","name":"getActiveProvidersByProductType","inputs":[{"name":"productType","type":"uint8","internalType":"enum ServiceProviderRegistryStorage.ProductType"},{"name":"offset","type":"uint256","internalType":"uint256"},{"name":"limit","type":"uint256","internalType":"uint256"}],"outputs":[{"name":"result","type":"tuple","internalType":"struct ServiceProviderRegistryStorage.PaginatedProviders","components":[{"name":"providers","type":"tuple[]","internalType":"struct ServiceProviderRegistryStorage.ProviderWithProduct[]","components":[{"name":"providerId","type":"uint256","internalType":"uint256"},{"name":"providerInfo","type":"tuple","internalType":"struct ServiceProviderRegistryStorage.ServiceProviderInfo","components":[{"name":"serviceProvider","type":"address","internalType":"address"},{"name":"payee","type":"address","internalType":"address"},{"name":"name","type":"string","internalType":"string"},{"name":"description","type":"string","internalType":"string"},{"name":"isActive","type":"bool","internalType":"bool"},{"name":"providerId","type":"uint256","internalType":"uint256"}]},{"name":"product","type":"tuple","internalType":"struct ServiceProviderRegistryStorage.ServiceProduct","components":[{"name":"productType","type":"uint8","internalType":"enum ServiceProviderRegistryStorage.ProductType"},{"name":"productData","type":"bytes","internalType":"bytes"},{"name":"capabilityKeys","type":"string[]","internalType":"string[]"},{"name":"isActive","type":"bool","internalType":"bool"}]}]},{"name":"hasMore","type":"bool","internalType":"bool"}]}],"stateMutability":"view"},{"type":"function","name":"getAllActiveProviders","inputs":[{"name":"offset","type":"uint256","internalType":"uint256"},{"name":"limit","type":"uint256","internalType":"uint256"}],"outputs":[{"name":"providerIds","type":"uint256[]","internalType":"uint256[]"},{"name":"hasMore","type":"bool","internalType":"bool"}],"stateMutability":"view"},{"type":"function","name":"getNextProviderId","inputs":[],"outputs":[{"name":"","type":"uint256","internalType":"uint256"}],"stateMutability":"view"},{"type":"function","name":"getPDPService","inputs":[{"name":"providerId","type":"uint256","internalType":"uint256"}],"outputs":[{"name":"pdpOffering","type":"tuple","internalType":"struct ServiceProviderRegistryStorage.PDPOffering","components":[{"name":"serviceURL","type":"string","internalType":"string"},{"name":"minPieceSizeInBytes","type":"uint256","internalType":"uint256"},{"name":"maxPieceSizeInBytes","type":"uint256","internalType":"uint256"},{"name":"ipniPiece","type":"bool","internalType":"bool"},{"name":"ipniIpfs","type":"bool","internalType":"bool"},{"name":"storagePricePerTibPerMonth","type":"uint256","internalType":"uint256"},{"name":"minProvingPeriodInEpochs","type":"uint256","internalType":"uint256"},{"name":"location","type":"string","internalType":"string"},{"name":"paymentTokenAddress","type":"address","internalType":"contract IERC20"}]},{"name":"capabilityKeys","type":"string[]","internalType":"string[]"},{"name":"isActive","type":"bool","internalType":"bool"}],"stateMutability":"view"},{"type":"function","name":"getProduct","inputs":[{"name":"providerId","type":"uint256","internalType":"uint256"},{"name":"productType","type":"uint8","internalType":"enum ServiceProviderRegistryStorage.ProductType"}],"outputs":[{"name":"productData","type":"bytes","internalType":"bytes"},{"name":"capabilityKeys","type":"string[]","internalType":"string[]"},{"name":"isActive","type":"bool","internalType":"bool"}],"stateMutability":"view"},{"type":"function","name":"getProductCapabilities","inputs":[{"name":"providerId","type":"uint256","internalType":"uint256"},{"name":"productType","type":"uint8","internalType":"enum ServiceProviderRegistryStorage.ProductType"},{"name":"keys","type":"string[]","internalType":"string[]"}],"outputs":[{"name":"exists","type":"bool[]","internalType":"bool[]"},{"name":"values","type":"string[]","internalType":"string[]"}],"stateMutability":"view"},{"type":"function","name":"getProductCapability","inputs":[{"name":"providerId","type":"uint256","internalType":"uint256"},{"name":"productType","type":"uint8","internalType":"enum ServiceProviderRegistryStorage.ProductType"},{"name":"key","type":"string","internalType":"string"}],"outputs":[{"name":"exists","type":"bool","internalType":"bool"},{"name":"value","type":"string","internalType":"string"}],"stateMutability":"view"},{"type":"function","name":"getProvider","inputs":[{"name":"providerId","type":"uint256","internalType":"uint256"}],"outputs":[{"name":"info","type":"tuple","internalType":"struct ServiceProviderRegistryStorage.ServiceProviderInfo","components":[{"name":"serviceProvider","type":"address","internalType":"address"},{"name":"payee","type":"address","internalType":"address"},{"name":"name","type":"string","internalType":"string"},{"name":"description","type":"string","internalType":"string"},{"name":"isActive","type":"bool","internalType":"bool"},{"name":"providerId","type":"uint256","internalType":"uint256"}]}],"stateMutability":"view"},{"type":"function","name":"getProviderByAddress","inputs":[{"name":"providerAddress","type":"address","internalType":"address"}],"outputs":[{"name":"info","type":"tuple","internalType":"struct ServiceProviderRegistryStorage.ServiceProviderInfo","components":[{"name":"serviceProvider","type":"address","internalType":"address"},{"name":"payee","type":"address","internalType":"address"},{"name":"name","type":"string","internalType":"string"},{"name":"description","type":"string","internalType":"string"},{"name":"isActive","type":"bool","internalType":"bool"},{"name":"providerId","type":"uint256","internalType":"uint256"}]}],"stateMutability":"view"},{"type":"function","name":"getProviderCount","inputs":[],"outputs":[{"name":"","type":"uint256","internalType":"uint256"}],"stateMutability":"view"},{"type":"function","name":"getProviderIdByAddress","inputs":[{"name":"providerAddress","type":"address","internalType":"address"}],"outputs":[{"name":"","type":"uint256","internalType":"uint256"}],"stateMutability":"view"},{"type":"function","name":"getProvidersByProductType","inputs":[{"name":"productType","type":"uint8","internalType":"enum ServiceProviderRegistryStorage.ProductType"},{"name":"offset","type":"uint256","internalType":"uint256"},{"name":"limit","type":"uint256","internalType":"uint256"}],"outputs":[{"name":"result","type":"tuple","internalType":"struct ServiceProviderRegistryStorage.PaginatedProviders","components":[{"name":"providers","type":"tuple[]","internalType":"struct ServiceProviderRegistryStorage.ProviderWithProduct[]","components":[{"name":"providerId","type":"uint256","internalType":"uint256"},{"name":"providerInfo","type":"tuple","internalType":"struct ServiceProviderRegistryStorage.ServiceProviderInfo","components":[{"name":"serviceProvider","type":"address","internalType":"address"},{"name":"payee","type":"address","internalType":"address"},{"name":"name","type":"string","internalType":"string"},{"name":"description","type":"string","internalType":"string"},{"name":"isActive","type":"bool","internalType":"bool"},{"name":"providerId","type":"uint256","internalType":"uint256"}]},{"name":"product","type":"tuple","internalType":"struct ServiceProviderRegistryStorage.ServiceProduct","components":[{"name":"productType","type":"uint8","internalType":"enum ServiceProviderRegistryStorage.ProductType"},{"name":"productData","type":"bytes","internalType":"bytes"},{"name":"capabilityKeys","type":"string[]","internalType":"string[]"},{"name":"isActive","type":"bool","internalType":"bool"}]}]},{"name":"hasMore","type":"bool","internalType":"bool"}]}],"stateMutability":"view"},{"type":"function","name":"initialize","inputs":[],"outputs":[],"stateMutability":"nonpayable"},{"type":"function","name":"isProviderActive","inputs":[{"name":"providerId","type":"uint256","internalType":"uint256"}],"outputs":[{"name":"","type":"bool","internalType":"bool"}],"stateMutability":"view"},{"type":"function","name":"isRegisteredProvider","inputs":[{"name":"provider","type":"address","internalType":"address"}],"outputs":[{"name":"","type":"bool","internalType":"bool"}],"stateMutability":"view"},{"type":"function","name":"migrate","inputs":[{"name":"newVersion","type":"string","internalType":"string"}],"outputs":[],"stateMutability":"nonpayable"},{"type":"function","name":"owner","inputs":[],"outputs":[{"name":"","type":"address","internalType":"address"}],"stateMutability":"view"},{"type":"function","name":"productCapabilities","inputs":[{"name":"providerId","type":"uint256","internalType":"uint256"},{"name":"productType","type":"uint8","internalType":"enum ServiceProviderRegistryStorage.ProductType"},{"name":"key","type":"string","internalType":"string"}],"outputs":[{"name":"value","type":"string","internalType":"string"}],"stateMutability":"view"},{"type":"function","name":"productTypeProviderCount","inputs":[{"name":"productType","type":"uint8","internalType":"enum ServiceProviderRegistryStorage.ProductType"}],"outputs":[{"name":"count","type":"uint256","internalType":"uint256"}],"stateMutability":"view"},{"type":"function","name":"providerHasProduct","inputs":[{"name":"providerId","type":"uint256","internalType":"uint256"},{"name":"productType","type":"uint8","internalType":"enum ServiceProviderRegistryStorage.ProductType"}],"outputs":[{"name":"","type":"bool","internalType":"bool"}],"stateMutability":"view"},{"type":"function","name":"providerProducts","inputs":[{"name":"providerId","type":"uint256","internalType":"uint256"},{"name":"productType","type":"uint8","internalType":"enum ServiceProviderRegistryStorage.ProductType"}],"outputs":[{"name":"productType","type":"uint8","internalType":"enum ServiceProviderRegistryStorage.ProductType"},{"name":"productData","type":"bytes","internalType":"bytes"},{"name":"isActive","type":"bool","internalType":"bool"}],"stateMutability":"view"},{"type":"function","name":"providers","inputs":[{"name":"providerId","type":"uint256","internalType":"uint256"}],"outputs":[{"name":"serviceProvider","type":"address","internalType":"address"},{"name":"payee","type":"address","internalType":"address"},{"name":"name","type":"string","internalType":"string"},{"name":"description","type":"string","internalType":"string"},{"name":"isActive","type":"bool","internalType":"bool"},{"name":"providerId","type":"uint256","internalType":"uint256"}],"stateMutability":"view"},{"type":"function","name":"proxiableUUID","inputs":[],"outputs":[{"name":"","type":"bytes32","internalType":"bytes32"}],"stateMutability":"view"},{"type":"function","name":"registerProvider","inputs":[{"name":"payee","type":"address","internalType":"address"},{"name":"name","type":"string","internalType":"string"},{"name":"description","type":"string","internalType":"string"},{"name":"productType","type":"uint8","internalType":"enum ServiceProviderRegistryStorage.ProductType"},{"name":"productData","type":"bytes","internalType":"bytes"},{"name":"capabilityKeys","type":"string[]","internalType":"string[]"},{"name":"capabilityValues","type":"string[]","internalType":"string[]"}],"outputs":[{"name":"providerId","type":"uint256","internalType":"uint256"}],"stateMutability":"payable"},{"type":"function","name":"removeProduct","inputs":[{"name":"productType","type":"uint8","internalType":"enum ServiceProviderRegistryStorage.ProductType"}],"outputs":[],"stateMutability":"nonpayable"},{"type":"function","name":"removeProvider","inputs":[],"outputs":[],"stateMutability":"nonpayable"},{"type":"function","name":"renounceOwnership","inputs":[],"outputs":[],"stateMutability":"nonpayable"},{"type":"function","name":"transferOwnership","inputs":[{"name":"newOwner","type":"address","internalType":"address"}],"outputs":[],"stateMutability":"nonpayable"},{"type":"function","name":"updatePDPServiceWithCapabilities","inputs":[{"name":"pdpOffering","type":"tuple","internalType":"struct ServiceProviderRegistryStorage.PDPOffering","components":[{"name":"serviceURL","type":"string","internalType":"string"},{"name":"minPieceSizeInBytes","type":"uint256","internalType":"uint256"},{"name":"maxPieceSizeInBytes","type":"uint256","internalType":"uint256"},{"name":"ipniPiece","type":"bool","internalType":"bool"},{"name":"ipniIpfs","type":"bool","internalType":"bool"},{"name":"storagePricePerTibPerMonth","type":"uint256","internalType":"uint256"},{"name":"minProvingPeriodInEpochs","type":"uint256","internalType":"uint256"},{"name":"location","type":"string","internalType":"string"},{"name":"paymentTokenAddress","type":"address","internalType":"contract IERC20"}]},{"name":"capabilityKeys","type":"string[]","internalType":"string[]"},{"name":"capabilityValues","type":"string[]","internalType":"string[]"}],"outputs":[],"stateMutability":"nonpayable"},{"type":"function","name":"updateProduct","inputs":[{"name":"productType","type":"uint8","internalType":"enum ServiceProviderRegistryStorage.ProductType"},{"name":"productData","type":"bytes","internalType":"bytes"},{"name":"capabilityKeys","type":"string[]","internalType":"string[]"},{"name":"capabilityValues","type":"string[]","internalType":"string[]"}],"outputs":[],"stateMutability":"nonpayable"},{"type":"function","name":"updateProviderInfo","inputs":[{"name":"name","type":"string","internalType":"string"},{"name":"description","type":"string","internalType":"string"}],"outputs":[],"stateMutability":"nonpayable"},{"type":"function","name":"upgradeToAndCall","inputs":[{"name":"newImplementation","type":"address","internalType":"address"},{"name":"data","type":"bytes","internalType":"bytes"}],"outputs":[],"stateMutability":"payable"},{"type":"event","name":"ContractUpgraded","inputs":[{"name":"version","type":"string","indexed":false,"internalType":"string"},{"name":"implementation","type":"address","indexed":false,"internalType":"address"}],"anonymous":false},{"type":"event","name":"EIP712DomainChanged","inputs":[],"anonymous":false},{"type":"event","name":"Initialized","inputs":[{"name":"version","type":"uint64","indexed":false,"internalType":"uint64"}],"anonymous":false},{"type":"event","name":"OwnershipTransferred","inputs":[{"name":"previousOwner","type":"address","indexed":true,"internalType":"address"},{"name":"newOwner","type":"address","indexed":true,"internalType":"address"}],"anonymous":false},{"type":"event","name":"ProductAdded","inputs":[{"name":"providerId","type":"uint256","indexed":true,"internalType":"uint256"},{"name":"productType","type":"uint8","indexed":true,"internalType":"enum ServiceProviderRegistryStorage.ProductType"},{"name":"serviceUrl","type":"string","indexed":false,"internalType":"string"},{"name":"serviceProvider","type":"address","indexed":false,"internalType":"address"},{"name":"capabilityKeys","type":"string[]","indexed":false,"internalType":"string[]"},{"name":"capabilityValues","type":"string[]","indexed":false,"internalType":"string[]"}],"anonymous":false},{"type":"event","name":"ProductRemoved","inputs":[{"name":"providerId","type":"uint256","indexed":true,"internalType":"uint256"},{"name":"productType","type":"uint8","indexed":true,"internalType":"enum ServiceProviderRegistryStorage.ProductType"}],"anonymous":false},{"type":"event","name":"ProductUpdated","inputs":[{"name":"providerId","type":"uint256","indexed":true,"internalType":"uint256"},{"name":"productType","type":"uint8","indexed":true,"internalType":"enum ServiceProviderRegistryStorage.ProductType"},{"name":"serviceUrl","type":"string","indexed":false,"internalType":"string"},{"name":"serviceProvider","type":"address","indexed":false,"internalType":"address"},{"name":"capabilityKeys","type":"string[]","indexed":false,"internalType":"string[]"},{"name":"capabilityValues","type":"string[]","indexed":false,"internalType":"string[]"}],"anonymous":false},{"type":"event","name":"ProviderInfoUpdated","inputs":[{"name":"providerId","type":"uint256","indexed":true,"internalType":"uint256"}],"anonymous":false},{"type":"event","name":"ProviderRegistered","inputs":[{"name":"providerId","type":"uint256","indexed":true,"internalType":"uint256"},{"name":"serviceProvider","type":"address","indexed":true,"internalType":"address"},{"name":"payee","type":"address","indexed":true,"internalType":"address"}],"anonymous":false},{"type":"event","name":"ProviderRemoved","inputs":[{"name":"providerId","type":"uint256","indexed":true,"internalType":"uint256"}],"anonymous":false},{"type":"event","name":"Upgraded","inputs":[{"name":"implementation","type":"address","indexed":true,"internalType":"address"}],"anonymous":false},{"type":"error","name":"AddressEmptyCode","inputs":[{"name":"target","type":"address","internalType":"address"}]},{"type":"error","name":"ERC1967InvalidImplementation","inputs":[{"name":"implementation","type":"address","internalType":"address"}]},{"type":"error","name":"ERC1967NonPayable","inputs":[]},{"type":"error","name":"FailedCall","inputs":[]},{"type":"error","name":"InvalidInitialization","inputs":[]},{"type":"error","name":"NotInitializing","inputs":[]},{"type":"error","name":"OwnableInvalidOwner","inputs":[{"name":"owner","type":"address","internalType":"address"}]},{"type":"error","name":"OwnableUnauthorizedAccount","inputs":[{"name":"account","type":"address","internalType":"address"}]},{"type":"error","name":"UUPSUnauthorizedCallContext","inputs":[]},{"type":"error","name":"UUPSUnsupportedProxiableUUID","inputs":[{"name":"slot","type":"bytes32","internalType":"bytes32"}]}],"bytecode":{"object":"0x60a080604052346100c257306080525f51602061523c5f395f51905f525460ff8160401c166100b3576002600160401b03196001600160401b03821601610060575b60405161517590816100c78239608051818181612561015261494b0152f35b6001600160401b0319166001600160401b039081175f51602061523c5f395f51905f525581527fc7f505b2f371ae2175ee4913f4499e1f2633a7b5936321eed1cdaeb6115181d290602090a15f80610041565b63f92ee8a960e01b5f5260045ffd5b5f80fdfe60806040526004361015610011575f80fd5b5f3560e01c806302ff8437146131c65780630a6a63f1146131a45780630b5c012514612a485780631e35bdde14612983578063213c63b1146129695780632335bde01461291d5780632f67c065146128db5780634368bafb1461285857806346ce41751461283c5780634f1ef286146126c357806350f3fc811461261357806351ca236f146125b557806352d1902d1461254f5780635c42d079146124c957806364b4f751146124a75780636bf6d74f146124385780636e36e9741461241d578063715018a6146123b65780637f6575671461239c5780638129fc1c14611eff57806382ee4b3414611eb057806383df54a514611e3f57806384b0196e14611b9c5780638bdc774714611b745780638c9a7b561461165f5780638da5cb5b1461162b57806393ecb91e146102d0578063a643324014611430578063a9d239b6146112a1578063aca0988f14611201578063ad3cb1cc146111ba578063b47be8ab14610b85578063b6363b9914610992578063c439fd57146108ac578063c9c5b5b41461070a578063cde24beb14610698578063d1329d4e1461065c578063d1c21b5b146103a3578063dcea1c6f14610388578063deb0e46214610339578063e459382f14610308578063e835440e146102d0578063f08bbda0146102b3578063f2fde38b14610288578063fc260f7b146102625763ffa1ad7414610213575f80fd5b3461025e575f36600319011261025e5761025a604051610234604082613491565b6005815264302e302e3160d81b6020820152604051918291602083526020830190613690565b0390f35b5f80fd5b3461025e5761025a61027c610276366136b4565b9161460b565b60405191829182613749565b3461025e57602036600319011261025e576102b16102a461386d565b6102ac61499f565b61459a565b005b3461025e575f36600319011261025e576020600754604051908152f35b3461025e57602036600319011261025e576001600160a01b036102f161386d565b165f526003602052602060405f2054604051908152f35b3461025e57602036600319011261025e57600435600181101561025e576103306020916138cd565b54604051908152f35b3461025e57602036600319011261025e576004356001600160401b03811161025e5761037461036f61025a923690600401613503565b61457e565b604051918291602083526020830190613a2a565b3461025e575f36600319011261025e57602060405160808152f35b3461025e57604036600319011261025e576004356001600160401b03811161025e576103d3903690600401613347565b6024356001600160401b03811161025e576103f2903690600401613347565b9092335f52600360205260405f20549283151561040e81613b09565b80610651575b61041d90613b55565b5f8481526001602052604090205461043f906001600160a01b03161515613ba1565b835f52600160205261045a60ff600460405f20015416614407565b610467608082111561422d565b610475610100841115614269565b835f526001602052600260405f2001916001600160401b0382116105ce576104a7826104a185546138fa565b856142c2565b5f90601f83116001146105ed576104d592915f91836105e2575b50508160011b915f199060031b1c19161790565b90555b815f526001602052600360405f2001906001600160401b0381116105ce5761050a8161050484546138fa565b846142c2565b5f601f821160011461056c5781906105389394955f926105615750508160011b915f199060031b1c19161790565b90555b7fae10af73bdb200f240b1ea85ef806346fb24c82388af00414f4c5fcfeef68f765f80a2005b0135905085806104c1565b601f19821694835f5260205f20915f5b8781106105b657508360019596971061059d575b505050811b01905561053b565b01355f19600384901b60f8161c19169055848080610590565b9092602060018192868601358155019401910161057c565b634e487b7160e01b5f52604160045260245ffd5b0135905087806104c1565b601f19831691845f5260205f20925f5b8181106106395750908460019594939210610620575b505050811b0190556104d8565b01355f19600384901b60f8161c19169055868080610613565b919360206001819287870135815501950192016105fd565b505f54841115610414565b3461025e575f36600319011261025e575f546001810180911161068457602090604051908152f35b634e487b7160e01b5f52601160045260245ffd5b3461025e57602060ff60036106f26106af366139b3565b90801515806106ff575b6106c290613b55565b5f8181526001875260409020546106e3906001600160a01b03161515613ba1565b5f526002855260405f206138e4565b0154166040519015158152f35b505f548111156106b9565b3461025e57602036600319011261025e576004356001600160401b03811161025e5761073a903690600401613503565b610742614941565b5f5160206151205f395f51905f525460ff8160401c16908115610897575b506108885760026001600160401b03195f5160206151205f395f51905f525416175f5160206151205f395f51905f525560ff60401b195f5160206151205f395f51905f52541690303303610843576107fe7f2b51ff7c4cc8e6fe1c72e9d9685b7d2a88a5d82ad3a644afbdceb0272c89c1c39160018060a01b035f5160206151005f395f51905f525416604051928392604084526040840190613690565b9060208301520390a15f5160206151205f395f51905f52557fc7f505b2f371ae2175ee4913f4499e1f2633a7b5936321eed1cdaeb6115181d2602060405160028152a1005b60405162461bcd60e51b815260206004820152601a60248201527f4f6e6c792073656c662063616e2063616c6c206d6967726174650000000000006044820152606490fd5b63f92ee8a960e01b5f5260045ffd5b600291506001600160401b0316101582610760565b3461025e57602036600319011261025e576109476004356108cb6143c2565b81151580610987575b6108dd90613b55565b5f828152600160205260409020546108ff906001600160a01b03161515613ba1565b9060605f915f52600260205260405f205f805260205261092160405f20613dfe565b60208101518051610961575b505061095590604051948594606086526060860190613a2a565b9084820360208601526139d2565b90151560408301520390f35b9150925061096f915061457e565b9061095560606040830151920151151591908561092d565b505f548211156108d4565b3461025e575f36600319011261025e57335f52600360205260405f20548015156109bb81613b09565b80610b7a575b6109ca90613b55565b5f818152600160205260409020546109ec906001600160a01b03161515613ba1565b805f526001602052610a0760ff600460405f20015416614407565b5f81815260016020526040902054610a29906001600160a01b0316331461473c565b805f526001602052600460405f200160ff198154169055610a4b6007546149d2565b600755805f52600260205260405f205f8052602052610a70600160405f2001546138fa565b610abd575b805f52600160205260018060a01b0360405f2054165f5260036020525f60408120557f452148878c72ebab44f2761cb8b0b79c50628a437350aee5f3aab66625addcc45f80a2005b805f52600260205260405f205f805260205260405f206003810160ff815416610b3f575b90825f52600460205260405f205f805260205260405f209260025f9201915b8254811015610b2e5780610b28610b2387610b1d60019588614841565b50614856565b6148db565b01610b00565b5092505060ff198154169055610a75565b5f805260066020527f54cdd369e4e8a8515e52ca72ec816c2101831ad1f18bf44102ed171459c9b4f88054610b73906149d2565b9055610ae1565b505f548111156109c1565b60e036600319011261025e57610b9961386d565b6024356001600160401b03811161025e57610bb8903690600401613347565b6044929192356001600160401b03811161025e57610bda903690600401613347565b93909160643591600183101561025e576084356001600160401b03811161025e57610c09903690600401613347565b929060a4356001600160401b03811161025e57610c2a903690600401613374565b909760c4356001600160401b03811161025e57610c4b903690600401613374565b949095610c588915613aab565b6001600160a01b0383161561117557335f52600360205260405f205461113057674563918244f4000034036110f457610c94608083111561422d565b610ca26101008d1115614269565b5f54610cad90613d6b565b998a5f556040519c8d92610cc084613424565b3384526001600160a01b0386166020850190815294610ce1913691906134cd565b926040019283523690610cf3926134cd565b60608d01908152600160808e0181905260a08e018c90525f8c81526020829052604090208e5181546001600160a01b03199081166001600160a01b03928316178355955192820180549096169216919091179093559051805160028401916001600160401b0382116105ce57610d6d826104a185546138fa565b602090601f831160011461109157610d9b92915f918361100d5750508160011b915f199060031b1c19161790565b90555b519a8b519b6001600160401b038d116105ce578c90610dcd82610dc460038701546138fa565b600387016142c2565b601f602092116001146110185791610e058e8d9e9f60a0949d9e9d6005965f9261100d5750508160011b915f199060031b1c19161790565b60038501555b610e2a60808201511515600486019060ff801983541691151516179055565b0151910155335f5260036020528660405f2055610e48600754613d6b565b6007556001600160a01b031633877faff7a33d237d3d600a92c556cda34cb73cf7cccc667e163c90b1d2d392b031a55f80a4610ea6610e883687856134cd565b610e9336848d61360a565b610e9e36878961360a565b918a8a6149de565b6020988992604051610eb88582613491565b5f8152968915610f9f575b505092610f2e610f3c93610f1d96937f93c484964e7897bebc18f4392da3a48d42bf4356601904bf354a6537376af71798968a5f526001835260018060a01b0360405f205416604051998a9960808b5260808b0190613690565b9389015287830360408901526142fc565b9184830360608601526142fc565b0390a35f808080674563918244f40000606360ff60981b015af1610f5e614393565b5015610f6c57604051908152f35b60405162461bcd60e51b815260048101839052600b60248201526a109d5c9b8819985a5b195960aa1b6044820152606490fd5b929597509250929450810194888287031261025e578135946001600160401b03861161025e57610f2e8a610f1d96610ffe8c9a7f93c484964e7897bebc18f4392da3a48d42bf4356601904bf354a6537376af7179a610f3c980161352e565b51985093965093949194610ec3565b015190505f806104c1565b908d91600385015f52815f20925f905b601f1916811061107857508e8d9e9f93600595939d9e9d60019360a096601f19811610611060575b505050811b016003850155610e0b565b01515f1960f88460031b161c191690555f8080611050565b818301518455600190930192602092830192018f611028565b90601f19831691845f52815f20925f5b8181106110dc57509084600195949392106110c4575b505050811b019055610d9e565b01515f1960f88460031b161c191690558f80806110b7565b929360206001819287860151815501950193016110a1565b60405162461bcd60e51b8152602060048201526014602482015273125b98dbdc9c9958dd0819995948185b5bdd5b9d60621b6044820152606490fd5b60405162461bcd60e51b815260206004820152601a60248201527f4164647265737320616c726561647920726567697374657265640000000000006044820152606490fd5b60405162461bcd60e51b815260206004820152601c60248201527f50617965652063616e6e6f74206265207a65726f2061646472657373000000006044820152606490fd5b3461025e575f36600319011261025e5761025a6040516111db604082613491565b60058152640352e302e360dc1b6020820152604051918291602083526020830190613690565b3461025e5761094761126261125d611218366139b3565b9080151580611296575b61122b90613b55565b5f8181526001602052604090205461124d906001600160a01b03161515613ba1565b5f52600260205260405f206138e4565b613dfe565b60208101519061128c60606040830151920151151591604051948594606086526060860190613690565b9060408301520390f35b505f54811115611222565b3461025e57602036600319011261025e57600435600181101561025e576112c88115613aab565b335f52600360205260405f20548015156112e181613b09565b80611425575b6112f090613b55565b5f81815260016020526040902054611312906001600160a01b03161515613ba1565b805f52600160205261132d60ff600460405f20015416614407565b5f8181526001602052604090205461134f906001600160a01b0316331461473c565b805f52600260205261137360ff600361136b8560405f206138e4565b0154166147e4565b805f5260026020526113888260405f206138e4565b815f52600460205261139d8360405f206138e4565b9260025f9201915b82548110156113c857806113c2610b2387610b1d60019588614841565b016113a5565b5082805f52600260205260036113e18360405f206138e4565b01805460ff191690556113f3826138b6565b6113fd81546149d2565b90557f4c363c6cd3d80189ef501b26de41894b3ed5e7b4a85b096be6cbcaa8a13e5e4d5f80a3005b505f548111156112e7565b3461025e57606036600319011261025e57600435602435600181101561025e576044356001600160401b03811161025e5761146f903690600401613374565b9083151580611620575b61148590939293613b55565b5f848152600160205260409020546114a7906001600160a01b03161515613ba1565b6114b0836135f3565b916114be6040519384613491565b8383526114ca846135f3565b602084019190601f19013683376114e0856135f3565b956114ee6040519788613491565b858752601f196114fd876135f3565b015f5b81811061160d5750509061151e915f52600460205260405f206138e4565b9136819003601e1901915f5b868110156115be578060051b8301358481121561025e578301908135916001600160401b03831161025e5760200191803603831361025e576115886115758861158193600196613be2565b60405192838092613932565b0382613491565b8051611596575b500161152a565b826115a1838a613ea9565b526115ac828b613ea9565b526115b7818a613ea9565b508961158f565b50848760405191604083019060408452518091526060830193905f5b8181106115f557848061025a888783820360208501526139d2565b825115158652602095860195909201916001016115da565b60606020828b0181019190915201611500565b505f54841115611479565b3461025e575f36600319011261025e575f5160206150c05f395f51905f52546040516001600160a01b039091168152602090f35b3461025e5761166d366133a4565b9293906001871015611b60576116c1906116b988159661168c88613aab565b335f5260036020526116b160405f2054998a1515966116aa88613b09565b36916134cd565b95369161360a565b94369161360a565b9080611b55575b6116d490969596613b55565b5f868152600160205260409020546116f6906001600160a01b03161515613ba1565b855f52600160205261171160ff600460405f20015416614407565b5f86815260016020526040902054611733906001600160a01b0316331461473c565b855f5260026020526117488560405f206138e4565b94600386019661175b60ff8954166147e4565b6117658483614d9f565b61176f8386614e4f565b805f5260046020526117848260405f206138e4565b955f9860028901995b8a548110156117b157806117ab610b238b610b1d8f95600196614841565b0161178d565b508960018a999798996117c48782614929565b0188516001600160401b0381116105ce576117e38161050484546138fa565b6020601f8211600114611af3579080611810925f91611ae8575b508160011b915f199060031b1c19161790565b90555b8851600160401b81116105ce578154818355808210611abb575b5060208a01915f5260205f20915f905b8282106119e65750505050600160ff198254161790555f5b875181101561195c576118688186613ea9565b51602080611876848c613ea9565b51604051928184925191829101835e81018a815203019020908051906001600160401b0382116105ce576118ae826104a185546138fa565b602090601f83116001146118f55791806118e19260019695945f926118ea5750508160011b915f199060031b1c19161790565b90555b01611855565b015190508d806104c1565b90601f19831691845f52815f20925f5b81811061194457509160019695949291838895931061192c575b505050811b0190556118e4565b01515f1960f88460031b161c191690558c808061191f565b92936020600181928786015181550195019301611905565b50867fc340a6dcdd0e7d3f96b6b2d3729fe5f0a6114e5847ba52b9e0071bf156dbaed6918588604051611990602082613491565b5f8152926119c5575b506119c090855f52600160205260018060a01b0360405f205416936040519485948561479d565b0390a3005b6119c0919250806020806119de9351830101910161449f565b519190611999565b80518051906001600160401b0382116105ce57611a0d82611a0788546138fa565b886142c2565b602090601f8311600114611a525792611a43836001959460209487965f9261100d5750508160011b915f199060031b1c19161790565b87555b0194019101909261183d565b90601f19831691875f52815f20925f5b818110611aa35750936020936001969387969383889510611a8b575b505050811b018755611a46565b01515f1960f88460031b161c191690555f8080611a7e565b92936020600181928786015181550195019301611a62565b825f528160205f2091820191015b818110611ad6575061182d565b80611ae26001926148db565b01611ac9565b90508b01518d6117fd565b601f19821690835f52805f20915f5b8d828210611b3d5750509083600194939210611b25575b5050811b019055611813565b8c01515f1960f88460031b161c191690558c80611b19565b60018495602093958493015181550194019201611b02565b505f548511156116c8565b634e487b7160e01b5f52602160045260245ffd5b3461025e57602036600319011261025e57600435600181101561025e576103306020916138b6565b3461025e575f36600319011261025e577fa16a46d94261c7517cc8ff89f61c0ce93598e3c849801011dee649a6a557d100541580611e16575b15611dd9576040515f5160206150a05f395f51905f5254815f611bf7836138fa565b8083529260018116908115611dba5750600114611d4f575b611c1b92500382613491565b604051905f5f5160206150e05f395f51905f5254611c38816138fa565b8085529060018116908115611d2d5750600114611cc9575b5082611c64611c9b9461025a930382613491565b611ca960405191611c76602084613491565b5f83525f368137604051958695600f60f81b875260e0602088015260e0870190613690565b908582036040870152613690565b904660608501523060808501525f60a085015283820360c0850152613883565b5f5160206150e05f395f51905f525f90815291507f5f9ce34815f8e11431c7bb75a8e6886a91478f7ffc1dbb0a98dc240fddd76b755b818310611d13575050820160200182611c50565b600181602092949394548385890101520191019190611cff565b60ff191660208087019190915291151560051b85019091019150839050611c50565b505f5160206150a05f395f51905f525f90815290917f42ad5d3e1f2e6e70edcf6d991b8a3023d3fca8047a131592f9edb9fd9b89d57d5b818310611d9e575050906020611c1b92820101611c0f565b6020919350806001915483858801015201910190918392611d86565b60209250611c1b94915060ff191682840152151560051b820101611c0f565b60405162461bcd60e51b81526020600482015260156024820152741152540dcc4c8e88155b9a5b9a5d1a585b1a5e9959605a1b6044820152606490fd5b507fa16a46d94261c7517cc8ff89f61c0ce93598e3c849801011dee649a6a557d1015415611bd5565b3461025e57602036600319011261025e5760043580151580611ea5575b611e6590613b55565b5f81815260016020526040902054611e87906001600160a01b03161515613ba1565b5f526001602052602060ff600460405f200154166040519015158152f35b505f54811115611e5c565b3461025e57602036600319011261025e576004356001600160401b03811161025e57611eeb611ee661025a92369060040161352e565b614202565b604051918291602083526020830190613690565b3461025e575f36600319011261025e575f5160206151205f395f51905f52546001600160401b0360ff8260401c1615911680159081612394575b600114908161238a575b159081612381575b50610888578060016001600160401b03195f5160206151205f395f51905f525416175f5160206151205f395f51905f5255612351575b611f89615016565b611f91615016565b611f9a3361459a565b611fa2615016565b604090815191611fb28184613491565b601783527f5365727669636550726f766964657252656769737472790000000000000000006020840152805191611fe98284613491565b60018352603160f81b6020840152611fff615016565b612007615016565b83516001600160401b0381116105ce5761202e5f5160206150a05f395f51905f52546138fa565b601f81116122f7575b50602094601f821160011461227c576120699293949582915f926122715750508160011b915f199060031b1c19161790565b5f5160206150a05f395f51905f52555b82516001600160401b0381116105ce576120a05f5160206150e05f395f51905f52546138fa565b601f811161220c575b506020601f82116001146121915781906120d99394955f926121865750508160011b915f199060031b1c19161790565b5f5160206150e05f395f51905f52555b5f7fa16a46d94261c7517cc8ff89f61c0ce93598e3c849801011dee649a6a557d100555f7fa16a46d94261c7517cc8ff89f61c0ce93598e3c849801011dee649a6a557d1015561213557005b60207fc7f505b2f371ae2175ee4913f4499e1f2633a7b5936321eed1cdaeb6115181d29160ff60401b195f5160206151205f395f51905f5254165f5160206151205f395f51905f52555160018152a1005b0151905085806104c1565b601f198216905f5160206150e05f395f51905f525f52805f20915f5b8181106121f4575095836001959697106121dc575b505050811b015f5160206150e05f395f51905f52556120e9565b01515f1960f88460031b161c191690558480806121c2565b9192602060018192868b0151815501940192016121ad565b5f5160206150e05f395f51905f525f52612261907f5f9ce34815f8e11431c7bb75a8e6886a91478f7ffc1dbb0a98dc240fddd76b75601f840160051c81019160208510612267575b601f0160051c01906142ac565b846120a9565b9091508190612254565b0151905086806104c1565b601f198216955f5160206150a05f395f51905f525f52805f20915f5b8881106122df575083600195969798106122c7575b505050811b015f5160206150a05f395f51905f5255612079565b01515f1960f88460031b161c191690558580806122ad565b91926020600181928685015181550194019201612298565b5f5160206150a05f395f51905f525f5261234b907f42ad5d3e1f2e6e70edcf6d991b8a3023d3fca8047a131592f9edb9fd9b89d57d601f840160051c8101916020851061226757601f0160051c01906142ac565b85612037565b600160401b60ff60401b195f5160206151205f395f51905f525416175f5160206151205f395f51905f5255611f81565b90501582611f4b565b303b159150611f43565b829150611f39565b3461025e575f36600319011261025e576020604051818152f35b3461025e575f36600319011261025e576123ce61499f565b5f5160206150c05f395f51905f5280546001600160a01b031981169091555f906001600160a01b03167f8be0079c531659141344cd1fd0a4f28419497f9722a3daafe3b4186f6b6457e08280a3005b3461025e575f36600319011261025e576020604051600a8152f35b3461025e5761249661245d61244c366139b3565b905f52600260205260405f206138e4565b60ff8154169061095560ff6003604051936124868561247f8160018501613932565b0386613491565b015416916040519485809561373c565b606060208501526060840190613690565b3461025e575f36600319011261025e576020604051674563918244f400008152f35b3461025e57602036600319011261025e576004356124e5613c24565b5080151580612544575b6124f890613b55565b5f8181526001602052604090205461251a906001600160a01b03161515613ba1565b5f52600160205261025a61253060405f20613d79565b6040519182916020835260208301906136d7565b505f548111156124ef565b3461025e575f36600319011261025e577f00000000000000000000000000000000000000000000000000000000000000006001600160a01b031630036125a65760206040515f5160206151005f395f51905f528152f35b63703e46dd60e11b5f5260045ffd5b3461025e57602036600319011261025e576001600160a01b036125d661386d565b165f52600360205260405f2054801515806125f9575b6020906040519015158152f35b505f526001602052602060ff600460405f200154166125ec565b3461025e57602036600319011261025e576004355f52600160205260405f2060018060a01b0381541660018060a01b036001830154169160405161265e816115818160028601613932565b6126b2604051612675816115818160038801613932565b6126a4600560ff600487015416950154936040519788978852602088015260c0604088015260c0870190613690565b908582036060870152613690565b911515608084015260a08301520390f35b604036600319011261025e576126d761386d565b6024356001600160401b03811161025e576126f6903690600401613503565b6126fe614941565b61270661499f565b6040516352d1902d60e01b81526001600160a01b0383169290602081600481875afa5f9181612808575b506127485783634c9c8ce360e01b5f5260045260245ffd5b805f5160206151005f395f51905f528592036127f65750813b156127e4575f5160206151005f395f51905f5280546001600160a01b031916821790557fbc7cd75a20ee27fd9adebab32041f755214dbc6bffa90cc0225b39da2e5c2d3b5f80a28151156127cc575f808360206102b195519101845af46127c6614393565b91615041565b5050346127d557005b63b398979f60e01b5f5260045ffd5b634c9c8ce360e01b5f5260045260245ffd5b632a87526960e21b5f5260045260245ffd5b9091506020813d602011612834575b8161282460209383613491565b8101031261025e57519085612730565b3d9150612817565b3461025e575f36600319011261025e5760205f54604051908152f35b3461025e57606036600319011261025e57602435600181101561025e57604435906001600160401b03821161025e57611eeb602080611581936128b86128a561025a973690600401613503565b916004355f526004845260405f206138e4565b604051938285935191829101845e82019081520301902060405192838092613932565b3461025e57604036600319011261025e576129116128fd6024356004356140b3565b604051928392604084526040840190613883565b90151560208301520390f35b3461025e57602036600319011261025e5761293661386d565b61293e613c24565b5060018060a01b03165f52600360205260405f20545f52600160205261025a61253060405f20613d79565b3461025e5761025a61027c61297d366136b4565b91613ed1565b3461025e57606036600319011261025e57600435602435600181101561025e576044356001600160401b03811161025e5761158192612a1d92612a176129d0611575943690600401613347565b92909380151580612a3d575b6129e590613b55565b5f81815260016020526040902054612a07906001600160a01b03161515613ba1565b5f52600460205260405f206138e4565b91613be2565b8051151561025a6040519283928352604060208401526040830190613690565b505f548111156129dc565b3461025e57606036600319011261025e576004356001600160401b03811161025e57612a7890369060040161352e565b6024356001600160401b03811161025e57612a97903690600401613675565b6044356001600160401b03811161025e57612ab6903690600401613675565b90335f52600360205260405f205490612ad582151594611ee686613b09565b9380613199575b612ae590613b55565b5f82815260016020526040902054612b07906001600160a01b03161515613ba1565b815f526001602052612b2260ff600460405f20015416614407565b5f82815260016020526040902054612b44906001600160a01b0316331461473c565b815f52600260205260405f205f805260205260405f20936003850193612b6d60ff8654166147e4565b815193612b826020808501968501018661449f565b80515115613154576101008151511161311857602081018051156130c557604082015190511161306f5760c0810151156130185760e00180515115612fd357608090515111612f9a57612bd88285989798614e4f565b805f52600460205260405f205f805260205260405f20945f9760028801985b8954811015612c1a5780612c14610b238a610b1d6001958f614841565b01612bf7565b50886001899896979860ff1981541681550187516001600160401b0381116105ce57612c4a8161050484546138fa565b6020601f8211600114612f38579080612c76925f91612f2d57508160011b915f199060031b1c19161790565b90555b8751600160401b81116105ce578154818355808210612f00575b5060208901915f5260205f20915f905b828210612e315750505050600160ff198254161790555f5b8651811015612dc257612cce8185613ea9565b51602080612cdc848b613ea9565b51604051928184925191829101835e810189815203019020908051906001600160401b0382116105ce57612d14826104a185546138fa565b602090601f8311600114612d5b579180612d479260019695945f92612d505750508160011b915f199060031b1c19161790565b90555b01612cbb565b015190508c806104c1565b90601f19831691845f52815f20925f5b818110612daa575091600196959492918388959310612d92575b505050811b019055612d4a565b01515f1960f88460031b161c191690558b8080612d85565b92936020600181928786015181550195019301612d6b565b50855f936119c0612e0a7fc340a6dcdd0e7d3f96b6b2d3729fe5f0a6114e5847ba52b9e0071bf156dbaed69460208a89604051612dff8482613491565b52805101019061449f565b51858752600160205260408088205490519485949290916001600160a01b0316908561479d565b80518051906001600160401b0382116105ce57612e5282611a0788546138fa565b602090601f8311600114612e975792612e88836001959460209487965f9261100d5750508160011b915f199060031b1c19161790565b87555b01940191019092612ca3565b90601f19831691875f52815f20925f5b818110612ee85750936020936001969387969383889510612ed0575b505050811b018755612e8b565b01515f1960f88460031b161c191690555f8080612ec3565b92936020600181928786015181550195019301612ea7565b825f528160205f2091820191015b818110612f1b5750612c93565b80612f276001926148db565b01612f0e565b90508a01518c6117fd565b601f19821690835f52805f20915f5b8c828210612f825750509083600194939210612f6a575b5050811b019055612c79565b8b01515f1960f88460031b161c191690558b80612f5e565b60018495602093958493015181550194019201612f47565b60405162461bcd60e51b81526020600482015260116024820152704c6f636174696f6e20746f6f206c6f6e6760781b6044820152606490fd5b60405162461bcd60e51b815260206004820152601860248201527f4c6f636174696f6e2063616e6e6f7420626520656d70747900000000000000006044820152606490fd5b60405162461bcd60e51b815260206004820152602960248201527f4d696e2070726f76696e6720706572696f64206d75737420626520677265617460448201526806572207468616e20360bc1b6064820152608490fd5b60405162461bcd60e51b815260206004820152602860248201527f4d61782070696563652073697a65206d757374206265203e3d206d696e2070696044820152676563652073697a6560c01b6064820152608490fd5b60405162461bcd60e51b815260206004820152602560248201527f4d696e2070696563652073697a65206d75737420626520677265617465722074604482015264068616e20360dc1b6064820152608490fd5b60405162461bcd60e51b8152602060048201526014602482015273536572766963652055524c20746f6f206c6f6e6760601b6044820152606490fd5b60405162461bcd60e51b815260206004820152601b60248201527f536572766963652055524c2063616e6e6f7420626520656d70747900000000006044820152606490fd5b505f54821115612adc565b3461025e575f36600319011261025e57604051606360ff60981b018152602090f35b3461025e576131d4366133a4565b929193906001871015611b605761321a906116b98815946131f486613aab565b335f52600360205261321260405f2054998a1515966116aa88613b09565b97369161360a565b908061333c575b61322a90613b55565b5f8581526001602052604090205461324c906001600160a01b03161515613ba1565b845f52600160205261326760ff600460405f20015416614407565b5f85815260016020526040902054613289906001600160a01b0316331461473c565b845f52600260205260ff60036132a28860405f206138e4565b0154166132e657836132d882857f93c484964e7897bebc18f4392da3a48d42bf4356601904bf354a6537376af717978a8a6149de565b604051611990602082613491565b60405162461bcd60e51b815260206004820152602860248201527f50726f6475637420616c72656164792065786973747320666f72207468697320604482015267383937bb34b232b960c11b6064820152608490fd5b505f54851115613221565b9181601f8401121561025e578235916001600160401b03831161025e576020838186019501011161025e57565b9181601f8401121561025e578235916001600160401b03831161025e576020808501948460051b01011161025e57565b90608060031983011261025e57600435600181101561025e57916024356001600160401b03811161025e57816133dc91600401613347565b929092916044356001600160401b03811161025e57816133fe91600401613374565b92909291606435906001600160401b03821161025e5761342091600401613374565b9091565b60c081019081106001600160401b038211176105ce57604052565b61012081019081106001600160401b038211176105ce57604052565b606081019081106001600160401b038211176105ce57604052565b608081019081106001600160401b038211176105ce57604052565b90601f801991011681019081106001600160401b038211176105ce57604052565b6001600160401b0381116105ce57601f01601f191660200190565b9291926134d9826134b2565b916134e76040519384613491565b82948184528183011161025e578281602093845f960137010152565b9080601f8301121561025e5781602061351e933591016134cd565b90565b3590811515820361025e57565b91906101208382031261025e57604051906135488261343f565b819380356001600160401b03811161025e5782613566918301613503565b8352602081013560208401526040810135604084015261358860608201613521565b606084015261359960808201613521565b608084015260a081013560a084015260c081013560c084015260e08101356001600160401b03811161025e57610100926135d4918301613503565b60e08401520135906001600160a01b038216820361025e576101000152565b6001600160401b0381116105ce5760051b60200190565b929190613616816135f3565b936136246040519586613491565b602085838152019160051b81019183831161025e5781905b83821061364a575050505050565b81356001600160401b03811161025e5760209161366a8784938701613503565b81520191019061363c565b9080601f8301121561025e5781602061351e9335910161360a565b805180835260209291819084018484015e5f828201840152601f01601f1916010190565b606090600319011261025e57600435600181101561025e57906024359060443590565b9060018060a01b03825116815260018060a01b03602083015116602082015260a080613727613715604086015160c0604087015260c0860190613690565b60608601518582036060870152613690565b93608081015115156080850152015191015290565b906001821015611b605752565b6020815260608101918051926040602084015283518091526080830190602060808260051b8601019501915f905b828210613791575050505060206040910151151591015290565b90919295607f1986820301825286518051825260406137bf60208301516060602086015260608501906136d7565b9101519160408183039101526137d681835161373c565b6137ef6020830151608060208401526080830190613690565b916040810151928281036040840152835180825260208201906020808260051b8501019601925f5b8281106138425750505050606091820151151591909201525095602090810193926001019101613777565b9091929396602080613860600193601f198782030189528b51613690565b9901950193929101613817565b600435906001600160a01b038216820361025e57565b90602080835192838152019201905f5b8181106138a05750505090565b8251845260209384019390920191600101613893565b6001811015611b60575f52600660205260405f2090565b6001811015611b60575f52600560205260405f2090565b906001811015611b60575f5260205260405f2090565b90600182811c92168015613928575b602083101461391457565b634e487b7160e01b5f52602260045260245ffd5b91607f1691613909565b5f9291815491613941836138fa565b8083529260018116908115613996575060011461395d57505050565b5f9081526020812093945091925b83831061397c575060209250010190565b60018160209294939454838587010152019101919061396b565b915050602093945060ff929192191683830152151560051b010190565b604090600319011261025e5760043590602435600181101561025e5790565b9080602083519182815201916020808360051b8301019401925f915b8383106139fd57505050505090565b9091929394602080613a1b600193601f198682030187528951613690565b970193019301919392906139ee565b90610100613a98613a4684516101208552610120850190613690565b602085015160208501526040850151604085015260608501511515606085015260808501511515608085015260a085015160a085015260c085015160c085015260e085015184820360e0860152613690565b928101516001600160a01b031691015290565b15613ab257565b60405162461bcd60e51b815260206004820152602960248201527f4f6e6c79205044502070726f6475637420747970652063757272656e746c79206044820152681cdd5c1c1bdc9d195960ba1b6064820152608490fd5b15613b1057565b60405162461bcd60e51b815260206004820152601760248201527f50726f7669646572206e6f7420726567697374657265640000000000000000006044820152606490fd5b15613b5c57565b60405162461bcd60e51b815260206004820152601760248201527f50726f766964657220646f6573206e6f742065786973740000000000000000006044820152606490fd5b15613ba857565b60405162461bcd60e51b8152602060048201526012602482015271141c9bdd9a59195c881b9bdd08199bdd5b9960721b6044820152606490fd5b6020919283604051948593843782019081520301902090565b60405190604082018281106001600160401b038211176105ce576040525f602083606081520152565b60405190613c3182613424565b5f60a083828152826020820152606060408201526060808201528260808201520152565b60405190613c64602083613491565b5f80835282815b828110613c7757505050565b602090604051613c868161345b565b5f8152613c91613c24565b83820152604051613ca181613476565b5f8152606084820152606060408201525f6060820152604082015282828501015201613c6b565b90613cd2826135f3565b613cdf6040519182613491565b8281528092613cf0601f19916135f3565b01905f5b828110613d0057505050565b602090604051613d0f8161345b565b5f8152613d1a613c24565b83820152604051613d2a81613476565b5f8152606084820152606060408201525f6060820152604082015282828501015201613cf4565b9190820180921161068457565b9190820391821161068457565b5f1981146106845760010190565b90604051613d8681613424565b82546001600160a01b03908116825260018401541660208201526040519092839160a091600591613dbe816115818160028601613932565b6040850152604051613dd7816115818160038601613932565b606085015260ff600482015416151560808501520154910152565b6001821015611b605752565b90604051613e0b81613476565b8092613e1b60ff82541683613df2565b604051613e2f816115818160018601613932565b6020830152600281018054613e43816135f3565b91613e516040519384613491565b81835260208301905f5260205f205f915b838310613e845750505050600360609260ff9260408601520154161515910152565b600160208192604051613e9b816115818189613932565b815201920192019190613e62565b8051821015613ebd5760209160051b010190565b634e487b7160e01b5f52603260045260245ffd5b92919092613edd613bfb565b613ee6826138b6565b548086108015906140ab575b6140925780613f018588613d51565b11614080575b613f1084613cc8565b8252613f1c8487613d51565b1060208201525f915f906001955f54965b8781111580614077575b1561406c57805f52600160205260ff600460405f200154168061404a575b80614021575b613f6e575b613f6990613d6b565b613f2d565b94888110158061400f575b613f92575b613f8a613f6991613d6b565b959050613f60565b92613f8a614006613f6992885f526001602052614000818a613fe860405f20825f526002602052613fde613fc98c60405f206138e4565b9160405194613fd78661345b565b8552613d79565b6020840152613dfe565b60408201528a5190613ffa8383613ea9565b52613ea9565b50613d6b565b94915050613f7e565b5061401a878a613d51565b8110613f79565b50805f526002602052614043600161403c8560405f206138e4565b01546138fa565b1515613f5b565b50805f52600260205260ff60036140648560405f206138e4565b015416613f55565b509550505093505050565b50868410613f37565b925061408c8584613d5e565b92613f07565b5092935050506140a0613c55565b81525f602082015290565b508315613ef2565b91906007548084108015906141fa575b6141dc57806140d28386613d51565b116141ca575b6140e1826135f3565b936140ef6040519586613491565b828552601f196140fe846135f3565b0136602087013784916141118483613d51565b10905f925f926001965f54975b88811115806141c1575b156141b557805f52600160205260ff600460405f20015416614153575b61414e90613d6b565b61411e565b95898786831015806141a3575b61417b575b505061417361414e91613d6b565b969050614145565b9161414e9261419889614192614173959b91613d6b565b9a613ea9565b529150508987614165565b506141ae8a88613d51565b8310614160565b50955095509550505050565b50878610614128565b90506141d68382613d5e565b906140d8565b505090506040516141ee602082613491565b5f81525f368137905f90565b5081156140c3565b61351e61421f916040519283916020808401526040830190613a2a565b03601f198101835282613491565b1561423457565b60405162461bcd60e51b815260206004820152600d60248201526c4e616d6520746f6f206c6f6e6760981b6044820152606490fd5b1561427057565b60405162461bcd60e51b81526020600482015260146024820152734465736372697074696f6e20746f6f206c6f6e6760601b6044820152606490fd5b8181106142b7575050565b5f81556001016142ac565b9190601f81116142d157505050565b6142fa925f5260205f20906020601f840160051c8301931061226757601f0160051c01906142ac565b565b90602083828152019060208160051b85010193835f915b8383106143235750505050505090565b909192939495601f198282030186528635601e198436030181121561025e57830190602082359201916001600160401b03811161025e57803603831361025e576020828280600196849695859652848401375f828201840152601f01601f19160101980196019493019190614313565b3d156143bd573d906143a4826134b2565b916143b26040519384613491565b82523d5f602084013e565b606090565b604051906143cf8261343f565b5f61010083606081528260208201528260408201528260608201528260808201528260a08201528260c0820152606060e08201520152565b1561440e57565b60405162461bcd60e51b815260206004820152601660248201527550726f7669646572206973206e6f742061637469766560501b6044820152606490fd5b81601f8201121561025e57805190614463826134b2565b926144716040519485613491565b8284526020838301011161025e57815f9260208093018386015e8301015290565b5190811515820361025e57565b60208183031261025e578051906001600160401b03821161025e5701906101208282031261025e57604051916144d48361343f565b80516001600160401b03811161025e57826144f091830161444c565b8352602081015160208401526040810151604084015261451260608201614492565b606084015261452360808201614492565b608084015260a081015160a084015260c081015160c084015260e08101516001600160401b03811161025e576101009261455e91830161444c565b60e084015201516001600160a01b038116810361025e5761010082015290565b61351e9061458a6143c2565b506020808251830101910161449f565b6001600160a01b031680156145f8575f5160206150c05f395f51905f5280546001600160a01b0319811683179091556001600160a01b03167f8be0079c531659141344cd1fd0a4f28419497f9722a3daafe3b4186f6b6457e05f80a3565b631e4fbdf760e01b5f525f60045260245ffd5b92919092614617613bfb565b614620826138cd565b54808610801590614734575b614092578061463b8588613d51565b11614722575b61464a84613cc8565b82526146568487613d51565b1060208201525f915f906001955f54965b8781111580614719575b1561406c57805f526002602052614690600161403c8560405f206138e4565b6146a3575b61469e90613d6b565b614667565b948881101580614707575b6146c7575b6146bf61469e91613d6b565b959050614695565b926146bf6146fe61469e92885f526001602052614000818a613fe860405f20825f526002602052613fde613fc98c60405f206138e4565b949150506146b3565b50614712878a613d51565b81106146ae565b50868410614671565b925061472e8584613d5e565b92614641565b50831561462c565b1561474357565b60405162461bcd60e51b815260206004820152602c60248201527f4f6e6c7920736572766963652070726f76696465722063616e2063616c6c207460448201526b3434b990333ab731ba34b7b760a11b6064820152608490fd5b929161351e94926147b96147d693608087526080870190613690565b6001600160a01b03909216602086015284820360408601526139d2565b9160608184039101526139d2565b156147eb57565b60405162461bcd60e51b815260206004820152602860248201527f50726f6475637420646f6573206e6f7420657869737420666f72207468697320604482015267383937bb34b232b960c11b6064820152608490fd5b8054821015613ebd575f5260205f2001905f90565b9060405180925f9080549061486a826138fa565b91600181169081156148c3575060011461488d575b505060209281520301902090565b9091505f5260205f205f905b8282106148ac575050810160205f61487f565b805482870152859350602090910190600101614899565b60ff191685525050801515028201905060205f61487f565b6148e581546138fa565b90816148ef575050565b81601f5f9311600114614900575055565b8183526020832061491c91601f0160051c8101906001016142ac565b8082528160208120915555565b906001811015611b605760ff80198354169116179055565b6001600160a01b037f00000000000000000000000000000000000000000000000000000000000000001630811490811561497d575b506125a657565b5f5160206151005f395f51905f52546001600160a01b0316141590505f614976565b5f5160206150c05f395f51905f52546001600160a01b031633036149bf57565b63118cdaa760e01b5f523360045260245ffd5b8015610684575f190190565b9093919492946149ee8186614d9f565b6149f88387614e4f565b60405190614a0582613476565b614a0f8683613df2565b6020820190815260408201878152606083019160018352845f526002602052614a3b8860405f206138e4565b93516001811015611b6057614a509085614929565b51805160018501916001600160401b0382116105ce57614a74826104a185546138fa565b602090601f8311600114614d3c57614aa292915f918361100d5750508160011b915f199060031b1c19161790565b90555b5180516002840191600160401b82116105ce578254828455808310614d0f575b50602001915f5260205f20915f905b828210614c405750505050906003614afc9251151591019060ff801983541691151516179055565b5f526004602052614b108360405f206138e4565b915f5b8551811015614c0f57614b268184613ea9565b51602080614b34848a613ea9565b51604051928184925191829101835e810188815203019020908051906001600160401b0382116105ce57614b6c826104a185546138fa565b602090601f8311600114614ba8579180614b9f9260019695945f9261100d5750508160011b915f199060031b1c19161790565b90555b01614b13565b90601f19831691845f52815f20925f5b818110614bf7575091600196959492918388959310614bdf575b505050811b019055614ba2565b01515f1960f88460031b161c191690555f8080614bd2565b92936020600181928786015181550195019301614bb8565b5093505050614c3290614c21816138cd565b614c2b8154613d6b565b90556138b6565b614c3c8154613d6b565b9055565b80518051906001600160401b0382116105ce57614c6182611a0788546138fa565b602090601f8311600114614ca65792614c97836001959460209487965f9261100d5750508160011b915f199060031b1c19161790565b87555b01940191019092614ad4565b90601f19831691875f52815f20925f5b818110614cf75750936020936001969387969383889510614cdf575b505050811b018755614c9a565b01515f1960f88460031b161c191690555f8080614cd2565b92936020600181928786015181550195019301614cb6565b835f528260205f2091820191015b818110614d2a5750614ac5565b80614d366001926148db565b01614d1d565b90601f19831691845f52815f20925f5b818110614d875750908460019594939210614d6f575b505050811b019055614aa5565b01515f1960f88460031b161c191690555f8080614d62565b92936020600181928786015181550195019301614d4c565b6001811015611b6057614e0a5780602080614dbf9351830101910161449f565b80515115613154576101008151511161311857602081018051156130c557604082015190511161306f5760c0810151156130185760e00180515115612fd357608090515111612f9a57565b60405162461bcd60e51b815260206004820152601860248201527f556e737570706f727465642070726f64756374207479706500000000000000006044820152606490fd5b8051825103614fbc57600a815111614f7f575f5b8151811015614f7a57614e768183613ea9565b515115614f35576020614e898284613ea9565b515111614ef0576080614e9c8285613ea9565b515111614eab57600101614e63565b60405162461bcd60e51b815260206004820152601960248201527f4361706162696c6974792076616c756520746f6f206c6f6e67000000000000006044820152606490fd5b60405162461bcd60e51b815260206004820152601760248201527f4361706162696c697479206b657920746f6f206c6f6e670000000000000000006044820152606490fd5b60405162461bcd60e51b815260206004820152601e60248201527f4361706162696c697479206b65792063616e6e6f7420626520656d70747900006044820152606490fd5b505050565b60405162461bcd60e51b8152602060048201526015602482015274546f6f206d616e79206361706162696c697469657360581b6044820152606490fd5b60405162461bcd60e51b815260206004820152602c60248201527f4b65797320616e642076616c75657320617272617973206d757374206861766560448201526b040e6c2daca40d8cadccee8d60a31b6064820152608490fd5b60ff5f5160206151205f395f51905f525460401c161561503257565b631afcd79f60e31b5f5260045ffd5b90615065575080511561505657602081519101fd5b63d6bda27560e01b5f5260045ffd5b81511580615096575b615076575090565b639996b31560e01b5f9081526001600160a01b0391909116600452602490fd5b50803b1561506e56fea16a46d94261c7517cc8ff89f61c0ce93598e3c849801011dee649a6a557d1029016d09d72d40fdae2fd8ceac6b6234c7706214fd39c1cd1e609a0528c199300a16a46d94261c7517cc8ff89f61c0ce93598e3c849801011dee649a6a557d103360894a13ba1a3210667c828492db98dca3e2076cc3735a920a3ca505d382bbcf0c57e16840df040f15088dc2f81fe391c3923bec73e23a9662efc9c229c6a00a264697066735822122071a54ea79f0e6c1c8b857225dc7d3b55847595ea2f126934b557dbf2437ea48064736f6c634300081e0033f0c57e16840df040f15088dc2f81fe391c3923bec73e23a9662efc9c229c6a00","linkReferences":{}},"methodIdentifiers":{"BURN_ACTOR()":"0a6a63f1","MAX_CAPABILITIES()":"6e36e974","MAX_CAPABILITY_KEY_LENGTH()":"7f657567","MAX_CAPABILITY_VALUE_LENGTH()":"dcea1c6f","REGISTRATION_FEE()":"64b4f751","UPGRADE_INTERFACE_VERSION()":"ad3cb1cc","VERSION()":"ffa1ad74","activeProductTypeProviderCount(uint8)":"8bdc7747","activeProviderCount()":"f08bbda0","addProduct(uint8,bytes,string[],string[])":"02ff8437","addressToProviderId(address)":"e835440e","decodePDPOffering(bytes)":"deb0e462","eip712Domain()":"84b0196e","encodePDPOffering((string,uint256,uint256,bool,bool,uint256,uint256,string,address))":"82ee4b34","getActiveProvidersByProductType(uint8,uint256,uint256)":"213c63b1","getAllActiveProviders(uint256,uint256)":"2f67c065","getNextProviderId()":"d1329d4e","getPDPService(uint256)":"c439fd57","getProduct(uint256,uint8)":"aca0988f","getProductCapabilities(uint256,uint8,string[])":"a6433240","getProductCapability(uint256,uint8,string)":"1e35bdde","getProvider(uint256)":"5c42d079","getProviderByAddress(address)":"2335bde0","getProviderCount()":"46ce4175","getProviderIdByAddress(address)":"93ecb91e","getProvidersByProductType(uint8,uint256,uint256)":"fc260f7b","initialize()":"8129fc1c","isProviderActive(uint256)":"83df54a5","isRegisteredProvider(address)":"51ca236f","migrate(string)":"c9c5b5b4","owner()":"8da5cb5b","productCapabilities(uint256,uint8,string)":"4368bafb","productTypeProviderCount(uint8)":"e459382f","providerHasProduct(uint256,uint8)":"cde24beb","providerProducts(uint256,uint8)":"6bf6d74f","providers(uint256)":"50f3fc81","proxiableUUID()":"52d1902d","registerProvider(address,string,string,uint8,bytes,string[],string[])":"b47be8ab","removeProduct(uint8)":"a9d239b6","removeProvider()":"b6363b99","renounceOwnership()":"715018a6","transferOwnership(address)":"f2fde38b","updatePDPServiceWithCapabilities((string,uint256,uint256,bool,bool,uint256,uint256,string,address),string[],string[])":"0b5c0125","updateProduct(uint8,bytes,string[],string[])":"8c9a7b56","updateProviderInfo(string,string)":"d1c21b5b","upgradeToAndCall(address,bytes)":"4f1ef286"},"id":85}