{"abi":[{"type":"function","name":"activeProductTypeProviderCount","inputs":[{"name":"productType","type":"uint8","internalType":"enum ServiceProviderRegistryStorage.ProductType"}],"outputs":[{"name":"count","type":"uint256","internalType":"uint256"}],"stateMutability":"view"},{"type":"function","name":"activeProviderCount","inputs":[],"outputs":[{"name":"","type":"uint256","internalType":"uint256"}],"stateMutability":"view"},{"type":"function","name":"addressToProviderId","inputs":[{"name":"providerAddress","type":"address","internalType":"address"}],"outputs":[{"name":"providerId","type":"uint256","internalType":"uint256"}],"stateMutability":"view"},{"type":"function","name":"productCapabilities","inputs":[{"name":"providerId","type":"uint256","internalType":"uint256"},{"name":"productType","type":"uint8","internalType":"enum ServiceProviderRegistryStorage.ProductType"},{"name":"key","type":"string","internalType":"string"}],"outputs":[{"name":"value","type":"string","internalType":"string"}],"stateMutability":"view"},{"type":"function","name":"productTypeProviderCount","inputs":[{"name":"productType","type":"uint8","internalType":"enum ServiceProviderRegistryStorage.ProductType"}],"outputs":[{"name":"count","type":"uint256","internalType":"uint256"}],"stateMutability":"view"},{"type":"function","name":"providerProducts","inputs":[{"name":"providerId","type":"uint256","internalType":"uint256"},{"name":"productType","type":"uint8","internalType":"enum ServiceProviderRegistryStorage.ProductType"}],"outputs":[{"name":"productType","type":"uint8","internalType":"enum ServiceProviderRegistryStorage.ProductType"},{"name":"productData","type":"bytes","internalType":"bytes"},{"name":"isActive","type":"bool","internalType":"bool"}],"stateMutability":"view"},{"type":"function","name":"providers","inputs":[{"name":"providerId","type":"uint256","internalType":"uint256"}],"outputs":[{"name":"serviceProvider","type":"address","internalType":"address"},{"name":"payee","type":"address","internalType":"address"},{"name":"name","type":"string","internalType":"string"},{"name":"description","type":"string","internalType":"string"},{"name":"isActive","type":"bool","internalType":"bool"},{"name":"providerId","type":"uint256","internalType":"uint256"}],"stateMutability":"view"}],"bytecode":{"object":"0x6080806040523460155761054d908161001a8239f35b5f80fdfe6080806040526004361015610012575f80fd5b5f3560e01c9081634368bafb146102fb5750806350f3fc811461025a5780636bf6d74f1461012c5780638bdc7747146100f9578063e459382f146100c6578063e835440e1461008a5763f08bbda014610069575f80fd5b34610086575f366003190112610086576020600754604051908152f35b5f80fd5b34610086576020366003190112610086576004356001600160a01b03811690819003610086575f526003602052602060405f2054604051908152f35b34610086576020366003190112610086576004356001811015610086575f526005602052602060405f2054604051908152f35b34610086576020366003190112610086576004356001811015610086575f526006602052602060405f2054604051908152f35b3461008657604036600319011261008657602435600181101561008657610160906004355f52600260205260405f20610405565b60ff81541690600181019060405180925f9080549061017e8261041b565b808552916001811690811561023257506001146101f2575b5050916101a960039260ff9403856103e3565b0154166040519260018110156101de5783926101d29184526060602085015260608401906104f3565b90151560408301520390f35b634e487b7160e01b5f52602160045260245ffd5b5f908152602081209092505b81831061021657505081016020016101a96003610196565b60209193508060019154838589010152019101909184926101fe565b60ff191660208087019190915292151560051b850190920192506101a9915060039050610196565b34610086576020366003190112610086576004355f9081526001602081905260409091208054918101546001600160a01b0390811692169061029e60028201610453565b6102ea6102ad60038401610453565b6102dc600560ff600487015416950154936040519788978852602088015260c0604088015260c08701906104f3565b9085820360608701526104f3565b911515608084015260a08301520390f35b34610086576060366003190112610086576024356001811015610086576044359167ffffffffffffffff8311610086573660238401121561008657826004013567ffffffffffffffff81116103cf5761035e601f8201601f1916602001836103e3565b808252602082019136602483870101116100865761039e6103b7945f602085819660246103cb9b018937850101526004355f526004845260405f20610405565b604051938492518091845e820190815203019020610453565b6040519182916020835260208301906104f3565b0390f35b634e487b7160e01b5f52604160045260245ffd5b90601f8019910116810190811067ffffffffffffffff8211176103cf57604052565b9060018110156101de575f5260205260405f2090565b90600182811c92168015610449575b602083101461043557565b634e487b7160e01b5f52602260045260245ffd5b91607f169161042a565b9060405191825f8254926104668461041b565b80845293600181169081156104d1575060011461048d575b5061048b925003836103e3565b565b90505f9291925260205f20905f915b8183106104b557505090602061048b928201015f61047e565b602091935080600191548385890101520191019091849261049c565b90506020925061048b94915060ff191682840152151560051b8201015f61047e565b805180835260209291819084018484015e5f828201840152601f01601f191601019056fea2646970667358221220a0b030b08ca12d83e08e41a5e2c63a011a5c15653efecaea3c75f6fb3b55ec4764736f6c634300081e0033","linkReferences":{}},"methodIdentifiers":{"activeProductTypeProviderCount(uint8)":"8bdc7747","activeProviderCount()":"f08bbda0","addressToProviderId(address)":"e835440e","productCapabilities(uint256,uint8,string)":"4368bafb","productTypeProviderCount(uint8)":"e459382f","providerProducts(uint256,uint8)":"6bf6d74f","providers(uint256)":"50f3fc81"},"id":86}