{
  "address": "0x599172a7654E47f070576ca7e56Ab9564FbD4041",
  "abi": [
    {
      "inputs": [],
      "stateMutability": "nonpayable",
      "type": "constructor"
    },
    {
      "inputs": [
        {
          "internalType": "int256",
          "name": "errorCode",
          "type": "int256"
        }
      ],
      "name": "ActorError",
      "type": "error"
    },
    {
      "inputs": [],
      "name": "ActorNotFound",
      "type": "error"
    },
    {
      "inputs": [],
      "name": "FailToCallActor",
      "type": "error"
    },
    {
      "inputs": [
        {
          "internalType": "CommonTypes.FilActorId",
          "name": "actorId",
          "type": "uint64"
        }
      ],
      "name": "InvalidActorID",
      "type": "error"
    },
    {
      "inputs": [
        {
          "internalType": "uint64",
          "name": "",
          "type": "uint64"
        }
      ],
      "name": "InvalidCodec",
      "type": "error"
    },
    {
      "inputs": [],
      "name": "InvalidResponseLength",
      "type": "error"
    },
    {
      "inputs": [
        {
          "internalType": "uint256",
          "name": "balance",
          "type": "uint256"
        },
        {
          "internalType": "uint256",
          "name": "value",
          "type": "uint256"
        }
      ],
      "name": "NotEnoughBalance",
      "type": "error"
    },
    {
      "anonymous": false,
      "inputs": [
        {
          "indexed": true,
          "internalType": "uint64",
          "name": "minerID",
          "type": "uint64"
        },
        {
          "indexed": false,
          "internalType": "string",
          "name": "peerID",
          "type": "string"
        }
      ],
      "name": "PeerDataAdded",
      "type": "event"
    },
    {
      "anonymous": false,
      "inputs": [
        {
          "indexed": true,
          "internalType": "uint64",
          "name": "minerID",
          "type": "uint64"
        }
      ],
      "name": "PeerDataDeleted",
      "type": "event"
    },
    {
      "anonymous": false,
      "inputs": [
        {
          "indexed": true,
          "internalType": "uint64",
          "name": "minerID",
          "type": "uint64"
        },
        {
          "indexed": false,
          "internalType": "string",
          "name": "oldPeerID",
          "type": "string"
        },
        {
          "indexed": false,
          "internalType": "string",
          "name": "newPeerID",
          "type": "string"
        }
      ],
      "name": "PeerDataUpdated",
      "type": "event"
    },
    {
      "inputs": [
        {
          "internalType": "uint64",
          "name": "minerID",
          "type": "uint64"
        },
        {
          "internalType": "string",
          "name": "newPeerID",
          "type": "string"
        },
        {
          "internalType": "bytes",
          "name": "signedMessage",
          "type": "bytes"
        }
      ],
      "name": "addPeerData",
      "outputs": [],
      "stateMutability": "nonpayable",
      "type": "function"
    },
    {
      "inputs": [
        {
          "internalType": "uint64",
          "name": "minerID",
          "type": "uint64"
        }
      ],
      "name": "deletePeerData",
      "outputs": [],
      "stateMutability": "nonpayable",
      "type": "function"
    },
    {
      "inputs": [
        {
          "internalType": "uint64",
          "name": "minerID",
          "type": "uint64"
        }
      ],
      "name": "getPeerData",
      "outputs": [
        {
          "components": [
            {
              "internalType": "string",
              "name": "peerID",
              "type": "string"
            },
            {
              "internalType": "bytes",
              "name": "signedMessage",
              "type": "bytes"
            }
          ],
          "internalType": "struct MinerPeerIDMapping.PeerData",
          "name": "",
          "type": "tuple"
        }
      ],
      "stateMutability": "view",
      "type": "function"
    },
    {
      "inputs": [
        {
          "internalType": "uint64",
          "name": "",
          "type": "uint64"
        }
      ],
      "name": "minerToPeerData",
      "outputs": [
        {
          "internalType": "string",
          "name": "peerID",
          "type": "string"
        },
        {
          "internalType": "bytes",
          "name": "signedMessage",
          "type": "bytes"
        }
      ],
      "stateMutability": "view",
      "type": "function"
    },
    {
      "inputs": [
        {
          "internalType": "uint64",
          "name": "minerID",
          "type": "uint64"
        },
        {
          "internalType": "string",
          "name": "newPeerID",
          "type": "string"
        },
        {
          "internalType": "bytes",
          "name": "signedMessage",
          "type": "bytes"
        }
      ],
      "name": "updatePeerData",
      "outputs": [],
      "stateMutability": "nonpayable",
      "type": "function"
    }
  ],
  "transactionHash": "0xd6ed18238a3acbbe46f1afe332729f89352004e0469897055e2394256310e925",
  "args": [],
  "numDeployments": 1,
  "solcInputHash": "4e4cab9ef25a7e1e2da858f2991af0c6",
  "bytecode": "0x608060405234801561001057600080fd5b50611de9806100206000396000f3fe608060405234801561001057600080fd5b50600436106100675760003560e01c80633e2eac07116100505780633e2eac07146100ab57806376d81bd8146100cb5780639b9b0030146100de57600080fd5b80630ba149f31461006c5780631768dd2714610081575b600080fd5b61007f61007a3660046113dc565b6100f1565b005b61009461008f366004611462565b6101fd565b6040516100a29291906114d9565b60405180910390f35b6100be6100b9366004611462565b610329565b6040516100a29190611530565b61007f6100d93660046113dc565b61048a565b61007f6100ec366004611462565b610639565b67ffffffffffffffff83166000908152602081905260409020805461011590611557565b15905061013d5760405162461bcd60e51b8152600401610134906115e0565b60405180910390fd5b610147338461070e565b6101635760405162461bcd60e51b81526004016101349061164a565b604080518082018252838152602080820184905267ffffffffffffffff8616600090815290819052919091208151819061019d90826116f9565b50602082015160018201906101b290826116f9565b509050508267ffffffffffffffff167f4773104dfc3f54d3e3c74b1e3701be51e0b85f9b40327b9f23299c62290a24d6836040516101f091906117bd565b60405180910390a2505050565b60006020819052908152604090208054819061021890611557565b80601f016020809104026020016040519081016040528092919081815260200182805461024490611557565b80156102915780601f1061026657610100808354040283529160200191610291565b820191906000526020600020905b81548152906001019060200180831161027457829003601f168201915b5050505050908060010180546102a690611557565b80601f01602080910402602001604051908101604052809291908181526020018280546102d290611557565b801561031f5780601f106102f45761010080835404028352916020019161031f565b820191906000526020600020905b81548152906001019060200180831161030257829003601f168201915b5050505050905082565b604080518082019091526060808252602082015267ffffffffffffffff821660009081526020819052604090819020815180830190925280548290829061036f90611557565b80601f016020809104026020016040519081016040528092919081815260200182805461039b90611557565b80156103e85780601f106103bd576101008083540402835291602001916103e8565b820191906000526020600020905b8154815290600101906020018083116103cb57829003601f168201915b5050505050815260200160018201805461040190611557565b80601f016020809104026020016040519081016040528092919081815260200182805461042d90611557565b801561047a5780601f1061044f5761010080835404028352916020019161047a565b820191906000526020600020905b81548152906001019060200180831161045d57829003601f168201915b5050505050815250509050919050565b67ffffffffffffffff8316600090815260208190526040812080546104ae90611557565b9050116104cd5760405162461bcd60e51b815260040161013490611828565b6104d7338461070e565b6104f35760405162461bcd60e51b81526004016101349061164a565b67ffffffffffffffff83166000908152602081905260408120805461051790611557565b80601f016020809104026020016040519081016040528092919081815260200182805461054390611557565b80156105905780601f1061056557610100808354040283529160200191610590565b820191906000526020600020905b81548152906001019060200180831161057357829003601f168201915b5050604080518082018252888152602080820189905267ffffffffffffffff8b1660009081529081905291909120815195965090949093508392506105d69150826116f9565b50602082015160018201906105eb90826116f9565b509050508367ffffffffffffffff167fcf89288f93fcf9c864295f589ce6d46880f5c5c570a1fba5d1419c48bc3aa252828560405161062b9291906114d9565b60405180910390a250505050565b67ffffffffffffffff81166000908152602081905260408120805461065d90611557565b90501161067c5760405162461bcd60e51b815260040161013490611828565b610686338261070e565b6106a25760405162461bcd60e51b81526004016101349061164a565b67ffffffffffffffff81166000908152602081905260408120906106c68282611234565b6106d4600183016000611234565b505060405167ffffffffffffffff8216907fdb4dc10059cc48dd78b522c4d9c235a47463d5af55feb03dff25f92d7534fd8490600090a250565b60008082905060006040518060200160405280866040516020016107329190611884565b60405160208183030381529060405281525090506000610752838361075e565b93505050505b92915050565b60008061076a83610797565b90506000610783856314c1cb97605185600060016107d6565b905061078e81610838565b95945050505050565b606060006107a8836000015161084f565b905060006107b582610867565b84519091506107c5908290610888565b6107ce816108a6565b949350505050565b606060648767ffffffffffffffff16101561081f57866040517fa292827300000000000000000000000000000000000000000000000000000000815260040161013491906118b4565b61082d8787878787876108d2565b979650505050505050565b6000808061084684826109df565b50949350505050565b6000815161085d8351610a4b565b61075891906118d8565b61086f611271565b805161087b9083610a99565b5060006020820152919050565b6108958260028351610b10565b81516108a19082610c37565b505050565b606081602001516000146108cc5760405162461bcd60e51b815260040161013490611922565b50515190565b60606108f273fe0000000000000000000000000000000000000584610c5f565b60008073fe0000000000000000000000000000000000000588868661091857600061091b565b60015b8a8a8e60405160200161093396959493929190611948565b60408051601f198184030181529082905261094d916119c0565b600060405180830381855af49150503d8060008114610988576040519150601f19603f3d011682016040523d82523d6000602084013e61098d565b606091505b5091509150816109c9576040517f8a7db5bf00000000000000000000000000000000000000000000000000000000815260040160405180910390fd5b6109d281610cd9565b9998505050505050505050565b6000806000806109ef8686610de7565b965090925067ffffffffffffffff16905060ff8216600714610a235760405162461bcd60e51b815260040161013490611a00565b6015811480610a325750601481145b610a3e57610a3e611a10565b6014141595939450505050565b600060178211610a5d57506001919050565b60ff8211610a6d57506002919050565b61ffff8211610a7e57506003919050565b63ffffffff8211610a9157506005919050565b506009919050565b604080518082019091526060815260006020820152610ab9602083611a3c565b15610ae157610ac9602083611a3c565b610ad4906020611a50565b610ade90836118d8565b91505b602080840183905260405180855260008152908184010181811015610b0557600080fd5b604052509192915050565b60178167ffffffffffffffff1611610b3d578251610b379060e0600585901b168317610f64565b50505050565b60ff8167ffffffffffffffff1611610b7f578251610b66906018611fe0600586901b1617610f64565b508251610b379067ffffffffffffffff83166001610fcd565b61ffff8167ffffffffffffffff1611610bc2578251610ba9906019611fe0600586901b1617610f64565b508251610b379067ffffffffffffffff83166002610fcd565b63ffffffff8167ffffffffffffffff1611610c07578251610bee90601a611fe0600586901b1617610f64565b508251610b379067ffffffffffffffff83166004610fcd565b8251610c1e90601b611fe0600586901b1617610f64565b508251610b379067ffffffffffffffff83166008610fcd565b604080518082019091526060815260006020820152610c5883838451611052565b9392505050565b4781811015610c9e5780826040517f8f0f4206000000000000000000000000000000000000000000000000000000008152600401610134929190611a63565b823f151580610b37576040517f64d954b000000000000000000000000000000000000000000000000000000000815260040160405180910390fd5b6060600080600084806020019051810190610cf49190611af2565b9194509250905067ffffffffffffffff8216610d2f57805115610d2a57604051630e74990760e01b815260040160405180910390fd5b610dad565b67ffffffffffffffff821660511480610d52575067ffffffffffffffff82166071145b15610d79578051600003610d2a57604051630e74990760e01b815260040160405180910390fd5b816040517ff1f6bced0000000000000000000000000000000000000000000000000000000081526004016101349190611b53565b82156107ce57826040517fd4bb66710000000000000000000000000000000000000000000000000000000081526004016101349190611b61565b600080600080610df78686611123565b9050610e046001866118d8565b94506007600582901c16601f8216601c8110610e325760405162461bcd60e51b815260040161013490611bc9565b60188160ff161015610e505790945060ff169250849150610f5d9050565b8060ff16601803610ead576000610e678989611123565b9050610e746001896118d8565b975060188160ff161015610e9a5760405162461bcd60e51b815260040161013490611c0d565b9195505060ff169250849150610f5d9050565b8060ff16601903610ee7576000610ec48989611172565b9050610ed16002896118d8565b97509195505061ffff169250849150610f5d9050565b8060ff16601a03610f23576000610efe89896111ab565b9050610f0b6004896118d8565b97509195505063ffffffff169250849150610f5d9050565b8060ff16601b14610f3657610f36611a10565b6000610f4289896111e4565b9050610f4f6008896118d8565b975091955090935085925050505b9250925092565b6040805180820190915260608152600060208201528251516000610f898260016118d8565b905084602001518210610faa57610faa85610fa5836002611c1d565b61121d565b84516020838201018581538151831115610fc2578282525b509495945050505050565b6040805180820190915260608152600060208201528351516000610ff182856118d8565b9050856020015181111561100e5761100e86610fa5836002611c1d565b6000600161101e86610100611d4a565b6110289190611a50565b905086518281018783198251161781528151841115611045578382525b5096979650505050505050565b604080518082019091526060815260006020820152825182111561107557600080fd5b835151600061108484836118d8565b905085602001518111156110a1576110a186610fa5836002611c1d565b8551805183820160200191600091808511156110bb578482525b505050602086015b602086106110fb57805182526110da6020836118d8565b91506110e76020826118d8565b90506110f4602087611a50565b95506110c3565b51815160001960208890036101000a0190811690199190911617905250849150509392505050565b60006111308260016118d8565b835110156111505760405162461bcd60e51b815260040161013490611d8d565b82828151811061116257611162611d9d565b016020015160f81c905092915050565b600061117f8260026118d8565b8351101561119f5760405162461bcd60e51b815260040161013490611d8d565b50016020015160f01c90565b60006111b88260046118d8565b835110156111d85760405162461bcd60e51b815260040161013490611d8d565b50016020015160e01c90565b60006111f18260086118d8565b835110156112115760405162461bcd60e51b815260040161013490611d8d565b50016020015160c01c90565b81516112298383610a99565b50610b378382610c37565b50805461124090611557565b6000825580601f10611250575050565b601f01602090049060005260206000209081019061126e91906112a6565b50565b6040518060400160405280611299604051806040016040528060608152602001600081525090565b8152602001600081525090565b5b808211156112bb57600081556001016112a7565b5090565b67ffffffffffffffff81165b811461126e57600080fd5b8035610758816112bf565b634e487b7160e01b600052604160045260246000fd5b601f19601f830116810181811067ffffffffffffffff8211171561131d5761131d6112e1565b6040525050565b600061132f60405190565b905061133b82826112f7565b919050565b600067ffffffffffffffff82111561135a5761135a6112e1565b601f19601f83011660200192915050565b82818337506000910152565b600061138a61138584611340565b611324565b9050828152602081018484840111156113a5576113a5600080fd5b6113b084828561136b565b509392505050565b600082601f8301126113cc576113cc600080fd5b81356107ce848260208601611377565b6000806000606084860312156113f4576113f4600080fd5b600061140086866112d6565b935050602084013567ffffffffffffffff81111561142057611420600080fd5b61142c868287016113b8565b925050604084013567ffffffffffffffff81111561144c5761144c600080fd5b611458868287016113b8565b9150509250925092565b60006020828403121561147757611477600080fd5b60006107ce84846112d6565b60005b8381101561149e578181015183820152602001611486565b50506000910152565b60006114b1825190565b8084526020840193506114c8818560208601611483565b601f01601f19169290920192915050565b604080825281016114ea81856114a7565b905081810360208301526107ce81846114a7565b805160408084526000919084019061151682826114a7565b9150506020830151848203602086015261078e82826114a7565b60208082528101610c5881846114fe565b634e487b7160e01b600052602260045260246000fd5b60028104600182168061156b57607f821691505b60208210810361157d5761157d611541565b50919050565b602981526000602082017f50656572206461746120616c72656164792065786973747320666f722074686981527f73204d696e657249440000000000000000000000000000000000000000000000602082015291505b5060400190565b6020808252810161075881611583565b602581526000602082017f43616c6c6572206973206e6f742074686520636f6e74726f6c6c696e6720616481527f6472657373000000000000000000000000000000000000000000000000000000602082015291506115d9565b60208082528101610758816115f0565b60006107586116668381565b90565b6116728361165a565b815460001960089490940293841b1916921b91909117905550565b60006108a1818484611669565b818110156116b5576116ad60008261168d565b60010161169a565b5050565b601f8211156108a1576000818152602090206020601f850104810160208510156116e05750805b6116f26020601f86010483018261169a565b5050505050565b815167ffffffffffffffff811115611713576117136112e1565b61171d8254611557565b6117288282856116b9565b6020601f83116001811461175c57600084156117445750858201515b600019600886021c19811660028602178655506117b5565b600085815260208120601f198616915b8281101561178c578885015182556020948501946001909201910161176c565b868310156117a85784890151600019601f89166008021c191682555b6001600288020188555050505b505050505050565b60208082528101610c5881846114a7565b602481526000602082017f4e6f207065657220646174612065786973747320666f722074686973204d696e81527f6572494400000000000000000000000000000000000000000000000000000000602082015291506115d9565b60208082528101610758816117ce565b600073ffffffffffffffffffffffffffffffffffffffff8216610758565b60006107588260601b90565b600061075882611856565b61187e61187982611838565b611862565b82525050565b6000611890828461186d565b50601401919050565b600067ffffffffffffffff8216610758565b61187e81611899565b6020810161075882846118ab565b634e487b7160e01b600052601160045260246000fd5b80820180821115610758576107586118c2565b600c81526000602082017f496e76616c69642043424f520000000000000000000000000000000000000000815291505b5060200190565b60208082528101610758816118eb565b67ffffffffffffffff811661187e565b8061187e565b60c081016119568289611932565b6119636020830188611942565b6119706040830187611932565b61197d6060830186611932565b818103608083015261198f81856114a7565b905061082d60a08301846118ab565b60006119a8825190565b6119b6818560208601611483565b9290920192915050565b6000610c58828461199e565b601f81526000602082017f696e76616c6964206d616a20286578706563746564204d616a4f7468657229008152915061191b565b60208082528101610758816119cc565b634e487b7160e01b600052600160045260246000fd5b634e487b7160e01b600052601260045260246000fd5b600082611a4b57611a4b611a26565b500690565b81810381811115610758576107586118c2565b60408101611a718285611942565b610c586020830184611942565b806112cb565b805161075881611a7e565b8051610758816112bf565b6000611aa861138584611340565b905082815260208101848484011115611ac357611ac3600080fd5b6113b0848285611483565b600082601f830112611ae257611ae2600080fd5b81516107ce848260208601611a9a565b600080600060608486031215611b0a57611b0a600080fd5b6000611b168686611a84565b9350506020611b2786828701611a8f565b925050604084015167ffffffffffffffff811115611b4757611b47600080fd5b61145886828701611ace565b602081016107588284611932565b602081016107588284611942565b602581526000602082017f63616e6e6f742068616e646c652068656164657273207769746820657874726181527f203e203237000000000000000000000000000000000000000000000000000000602082015291506115d9565b6020808252810161075881611b6f565b600c81526000602082017f696e76616c69642063626f7200000000000000000000000000000000000000008152915061191b565b6020808252810161075881611bd9565b818102808215838204851417611c3557611c356118c2565b5092915050565b80825b6001851115611c7b57808604811115611c5a57611c5a6118c2565b6001851615611c6857908102905b8002611c748560011c90565b9450611c3f565b94509492505050565b600082611c9357506001610c58565b81611ca057506000610c58565b8160018114611cb65760028114611cc057611ced565b6001915050610c58565b60ff841115611cd157611cd16118c2565b8360020a915084821115611ce757611ce76118c2565b50610c58565b5060208310610133831016604e8410600b8410161715611d20575081810a83811115611d1b57611d1b6118c2565b610c58565b611d2d8484846001611c3c565b92509050818404811115611d4357611d436118c2565b0292915050565b6000610c586000198484611c84565b601481526000602082017f736c6963696e67206f7574206f662072616e67650000000000000000000000008152915061191b565b6020808252810161075881611d59565b634e487b7160e01b600052603260045260246000fdfea26469706673582212207dc4c93c3f9bf16a0acf690239af65fe2c7828501afaf04c121e47011c1a9ed864736f6c63430008170033",
  "devdoc": {
    "kind": "dev",
    "methods": {
      "addPeerData(uint64,string,bytes)": {
        "params": {
          "minerID": "The MinerID to associate with the new PeerID.",
          "newPeerID": "The new PeerID to bind to the MinerID.",
          "signedMessage": "The signed message to store."
        }
      },
      "deletePeerData(uint64)": {
        "params": {
          "minerID": "The MinerID whose peer data will be deleted."
        }
      },
      "getPeerData(uint64)": {
        "params": {
          "minerID": "The MinerID to query."
        },
        "returns": {
          "_0": "The PeerID and signed message associated with the MinerID."
        }
      },
      "updatePeerData(uint64,string,bytes)": {
        "params": {
          "minerID": "The MinerID whose PeerID will be updated.",
          "newPeerID": "The new PeerID to bind to the MinerID.",
          "signedMessage": "The new signed message to store."
        }
      }
    },
    "version": 1
  },
  "userdoc": {
    "errors": {
      "ActorError(int256)": [
        {
          "notice": "the called actor returned an error as part of its expected behaviour"
        }
      ],
      "ActorNotFound()": [
        {
          "notice": "the actor is not found"
        }
      ],
      "FailToCallActor()": [
        {
          "notice": "an error happened trying to call the actor"
        }
      ],
      "InvalidActorID(uint64)": [
        {
          "notice": "the provided actor id is not valid"
        }
      ],
      "InvalidCodec(uint64)": [
        {
          "notice": "the codec received is not valid"
        }
      ],
      "InvalidResponseLength()": [
        {
          "notice": "the response received is not correct. In some case no response is expected and we received one, or a response was indeed expected and we received none."
        }
      ],
      "NotEnoughBalance(uint256,uint256)": [
        {
          "notice": "the smart contract has no enough balance to transfer"
        }
      ]
    },
    "kind": "user",
    "methods": {
      "addPeerData(uint64,string,bytes)": {
        "notice": "Add a new PeerID and signed message for a MinerID in the contract."
      },
      "deletePeerData(uint64)": {
        "notice": "Delete an existing PeerID and signed message for a MinerID in the contract."
      },
      "getPeerData(uint64)": {
        "notice": "Fetch the PeerID and signed message associated with a MinerID."
      },
      "updatePeerData(uint64,string,bytes)": {
        "notice": "Update an existing PeerID and signed message for a MinerID in the contract."
      }
    },
    "version": 1
  },
  "storageLayout": {
    "storage": [
      {
        "astId": 5309,
        "contract": "contracts/MinerPeerIDMapping.sol:MinerPeerIDMapping",
        "label": "minerToPeerData",
        "offset": 0,
        "slot": "0",
        "type": "t_mapping(t_uint64,t_struct(PeerData)5304_storage)"
      }
    ],
    "types": {
      "t_bytes_storage": {
        "encoding": "bytes",
        "label": "bytes",
        "numberOfBytes": "32"
      },
      "t_mapping(t_uint64,t_struct(PeerData)5304_storage)": {
        "encoding": "mapping",
        "key": "t_uint64",
        "label": "mapping(uint64 => struct MinerPeerIDMapping.PeerData)",
        "numberOfBytes": "32",
        "value": "t_struct(PeerData)5304_storage"
      },
      "t_string_storage": {
        "encoding": "bytes",
        "label": "string",
        "numberOfBytes": "32"
      },
      "t_struct(PeerData)5304_storage": {
        "encoding": "inplace",
        "label": "struct MinerPeerIDMapping.PeerData",
        "members": [
          {
            "astId": 5301,
            "contract": "contracts/MinerPeerIDMapping.sol:MinerPeerIDMapping",
            "label": "peerID",
            "offset": 0,
            "slot": "0",
            "type": "t_string_storage"
          },
          {
            "astId": 5303,
            "contract": "contracts/MinerPeerIDMapping.sol:MinerPeerIDMapping",
            "label": "signedMessage",
            "offset": 0,
            "slot": "1",
            "type": "t_bytes_storage"
          }
        ],
        "numberOfBytes": "64"
      },
      "t_uint64": {
        "encoding": "inplace",
        "label": "uint64",
        "numberOfBytes": "8"
      }
    }
  }
}